{
  "_format": "hh-sol-artifact-1",
  "contractName": "SalesForceManager",
  "sourceName": "contracts/evm/SalesForceManager.sol",
  "abi": [
    {
      "inputs": [
        {
          "internalType": "address",
          "name": "_token",
          "type": "address"
        },
        {
          "internalType": "address",
          "name": "_paymentToken",
          "type": "address"
        },
        {
          "internalType": "address",
          "name": "admin",
          "type": "address"
        }
      ],
      "stateMutability": "nonpayable",
      "type": "constructor"
    },
    {
      "inputs": [],
      "name": "AccessControlBadConfirmation",
      "type": "error"
    },
    {
      "inputs": [
        {
          "internalType": "address",
          "name": "account",
          "type": "address"
        },
        {
          "internalType": "bytes32",
          "name": "neededRole",
          "type": "bytes32"
        }
      ],
      "name": "AccessControlUnauthorizedAccount",
      "type": "error"
    },
    {
      "inputs": [],
      "name": "ReentrancyGuardReentrantCall",
      "type": "error"
    },
    {
      "inputs": [
        {
          "internalType": "address",
          "name": "token",
          "type": "address"
        }
      ],
      "name": "SafeERC20FailedOperation",
      "type": "error"
    },
    {
      "anonymous": false,
      "inputs": [
        {
          "indexed": true,
          "internalType": "address",
          "name": "recipient",
          "type": "address"
        },
        {
          "indexed": false,
          "internalType": "uint256",
          "name": "amount",
          "type": "uint256"
        },
        {
          "indexed": false,
          "internalType": "string",
          "name": "commissionType",
          "type": "string"
        }
      ],
      "name": "CommissionPaid",
      "type": "event"
    },
    {
      "anonymous": false,
      "inputs": [
        {
          "indexed": true,
          "internalType": "uint256",
          "name": "packId",
          "type": "uint256"
        },
        {
          "indexed": false,
          "internalType": "uint256",
          "name": "price",
          "type": "uint256"
        },
        {
          "indexed": false,
          "internalType": "uint256",
          "name": "tokenAmount",
          "type": "uint256"
        },
        {
          "indexed": false,
          "internalType": "uint256",
          "name": "lockDays",
          "type": "uint256"
        }
      ],
      "name": "PackCreated",
      "type": "event"
    },
    {
      "anonymous": false,
      "inputs": [
        {
          "indexed": true,
          "internalType": "uint256",
          "name": "packId",
          "type": "uint256"
        },
        {
          "indexed": true,
          "internalType": "address",
          "name": "buyer",
          "type": "address"
        },
        {
          "indexed": true,
          "internalType": "address",
          "name": "seller",
          "type": "address"
        },
        {
          "indexed": false,
          "internalType": "uint256",
          "name": "amount",
          "type": "uint256"
        },
        {
          "indexed": false,
          "internalType": "uint256",
          "name": "tokens",
          "type": "uint256"
        }
      ],
      "name": "PackPurchased",
      "type": "event"
    },
    {
      "anonymous": false,
      "inputs": [
        {
          "indexed": true,
          "internalType": "bytes32",
          "name": "role",
          "type": "bytes32"
        },
        {
          "indexed": true,
          "internalType": "bytes32",
          "name": "previousAdminRole",
          "type": "bytes32"
        },
        {
          "indexed": true,
          "internalType": "bytes32",
          "name": "newAdminRole",
          "type": "bytes32"
        }
      ],
      "name": "RoleAdminChanged",
      "type": "event"
    },
    {
      "anonymous": false,
      "inputs": [
        {
          "indexed": true,
          "internalType": "bytes32",
          "name": "role",
          "type": "bytes32"
        },
        {
          "indexed": true,
          "internalType": "address",
          "name": "account",
          "type": "address"
        },
        {
          "indexed": true,
          "internalType": "address",
          "name": "sender",
          "type": "address"
        }
      ],
      "name": "RoleGranted",
      "type": "event"
    },
    {
      "anonymous": false,
      "inputs": [
        {
          "indexed": true,
          "internalType": "bytes32",
          "name": "role",
          "type": "bytes32"
        },
        {
          "indexed": true,
          "internalType": "address",
          "name": "account",
          "type": "address"
        },
        {
          "indexed": true,
          "internalType": "address",
          "name": "sender",
          "type": "address"
        }
      ],
      "name": "RoleRevoked",
      "type": "event"
    },
    {
      "anonymous": false,
      "inputs": [
        {
          "indexed": true,
          "internalType": "address",
          "name": "upline",
          "type": "address"
        },
        {
          "indexed": true,
          "internalType": "address",
          "name": "newMember",
          "type": "address"
        },
        {
          "indexed": false,
          "internalType": "bytes32",
          "name": "role",
          "type": "bytes32"
        }
      ],
      "name": "TeamMemberAdded",
      "type": "event"
    },
    {
      "anonymous": false,
      "inputs": [
        {
          "indexed": true,
          "internalType": "address",
          "name": "user",
          "type": "address"
        },
        {
          "indexed": false,
          "internalType": "uint256",
          "name": "amount",
          "type": "uint256"
        }
      ],
      "name": "TokensUnlocked",
      "type": "event"
    },
    {
      "inputs": [],
      "name": "ADVOCATE_COMMISSION",
      "outputs": [
        {
          "internalType": "uint256",
          "name": "",
          "type": "uint256"
        }
      ],
      "stateMutability": "view",
      "type": "function"
    },
    {
      "inputs": [],
      "name": "ADVOCATE_ROLE",
      "outputs": [
        {
          "internalType": "bytes32",
          "name": "",
          "type": "bytes32"
        }
      ],
      "stateMutability": "view",
      "type": "function"
    },
    {
      "inputs": [],
      "name": "BROKER_ROLE",
      "outputs": [
        {
          "internalType": "bytes32",
          "name": "",
          "type": "bytes32"
        }
      ],
      "stateMutability": "view",
      "type": "function"
    },
    {
      "inputs": [],
      "name": "DEFAULT_ADMIN_ROLE",
      "outputs": [
        {
          "internalType": "bytes32",
          "name": "",
          "type": "bytes32"
        }
      ],
      "stateMutability": "view",
      "type": "function"
    },
    {
      "inputs": [],
      "name": "FOUNDING_BROKER_TARGET",
      "outputs": [
        {
          "internalType": "uint256",
          "name": "",
          "type": "uint256"
        }
      ],
      "stateMutability": "view",
      "type": "function"
    },
    {
      "inputs": [],
      "name": "HUSTLER_COMMISSION",
      "outputs": [
        {
          "internalType": "uint256",
          "name": "",
          "type": "uint256"
        }
      ],
      "stateMutability": "view",
      "type": "function"
    },
    {
      "inputs": [],
      "name": "HUSTLER_ROLE",
      "outputs": [
        {
          "internalType": "bytes32",
          "name": "",
          "type": "bytes32"
        }
      ],
      "stateMutability": "view",
      "type": "function"
    },
    {
      "inputs": [],
      "name": "OVERRIDE_COMMISSION",
      "outputs": [
        {
          "internalType": "uint256",
          "name": "",
          "type": "uint256"
        }
      ],
      "stateMutability": "view",
      "type": "function"
    },
    {
      "inputs": [
        {
          "internalType": "address",
          "name": "broker",
          "type": "address"
        }
      ],
      "name": "addFoundingBroker",
      "outputs": [],
      "stateMutability": "nonpayable",
      "type": "function"
    },
    {
      "inputs": [
        {
          "internalType": "uint256",
          "name": "price",
          "type": "uint256"
        },
        {
          "internalType": "uint256",
          "name": "tokenAmount",
          "type": "uint256"
        },
        {
          "internalType": "uint256",
          "name": "lockDays",
          "type": "uint256"
        }
      ],
      "name": "createEarlyPack",
      "outputs": [
        {
          "internalType": "uint256",
          "name": "packId",
          "type": "uint256"
        }
      ],
      "stateMutability": "nonpayable",
      "type": "function"
    },
    {
      "inputs": [
        {
          "internalType": "uint256",
          "name": "packId",
          "type": "uint256"
        }
      ],
      "name": "deactivateEarlyPack",
      "outputs": [],
      "stateMutability": "nonpayable",
      "type": "function"
    },
    {
      "inputs": [
        {
          "internalType": "address",
          "name": "",
          "type": "address"
        },
        {
          "internalType": "uint256",
          "name": "",
          "type": "uint256"
        }
      ],
      "name": "downline",
      "outputs": [
        {
          "internalType": "address",
          "name": "",
          "type": "address"
        }
      ],
      "stateMutability": "view",
      "type": "function"
    },
    {
      "inputs": [
        {
          "internalType": "uint256",
          "name": "",
          "type": "uint256"
        }
      ],
      "name": "earlyPacks",
      "outputs": [
        {
          "internalType": "uint256",
          "name": "price",
          "type": "uint256"
        },
        {
          "internalType": "uint256",
          "name": "tokenAmount",
          "type": "uint256"
        },
        {
          "internalType": "uint256",
          "name": "lockDays",
          "type": "uint256"
        },
        {
          "internalType": "bool",
          "name": "isActive",
          "type": "bool"
        }
      ],
      "stateMutability": "view",
      "type": "function"
    },
    {
      "inputs": [
        {
          "internalType": "address",
          "name": "user",
          "type": "address"
        }
      ],
      "name": "getDownline",
      "outputs": [
        {
          "internalType": "address[]",
          "name": "",
          "type": "address[]"
        }
      ],
      "stateMutability": "view",
      "type": "function"
    },
    {
      "inputs": [
        {
          "internalType": "uint256",
          "name": "packId",
          "type": "uint256"
        }
      ],
      "name": "getEarlyPack",
      "outputs": [
        {
          "components": [
            {
              "internalType": "uint256",
              "name": "price",
              "type": "uint256"
            },
            {
              "internalType": "uint256",
              "name": "tokenAmount",
              "type": "uint256"
            },
            {
              "internalType": "uint256",
              "name": "lockDays",
              "type": "uint256"
            },
            {
              "internalType": "bool",
              "name": "isActive",
              "type": "bool"
            }
          ],
          "internalType": "struct SalesForceManager.EarlyPack",
          "name": "",
          "type": "tuple"
        }
      ],
      "stateMutability": "view",
      "type": "function"
    },
    {
      "inputs": [
        {
          "internalType": "bytes32",
          "name": "role",
          "type": "bytes32"
        }
      ],
      "name": "getRoleAdmin",
      "outputs": [
        {
          "internalType": "bytes32",
          "name": "",
          "type": "bytes32"
        }
      ],
      "stateMutability": "view",
      "type": "function"
    },
    {
      "inputs": [
        {
          "internalType": "address",
          "name": "user",
          "type": "address"
        }
      ],
      "name": "getSalesHistory",
      "outputs": [
        {
          "internalType": "uint256[]",
          "name": "",
          "type": "uint256[]"
        }
      ],
      "stateMutability": "view",
      "type": "function"
    },
    {
      "inputs": [
        {
          "internalType": "address",
          "name": "user",
          "type": "address"
        }
      ],
      "name": "getStats",
      "outputs": [
        {
          "components": [
            {
              "internalType": "uint256",
              "name": "totalSales",
              "type": "uint256"
            },
            {
              "internalType": "uint256",
              "name": "totalCommissions",
              "type": "uint256"
            },
            {
              "internalType": "uint256",
              "name": "teamSize",
              "type": "uint256"
            },
            {
              "internalType": "uint256",
              "name": "directRecruits",
              "type": "uint256"
            },
            {
              "internalType": "bool",
              "name": "isFoundingBroker",
              "type": "bool"
            }
          ],
          "internalType": "struct SalesForceManager.SalesforceStats",
          "name": "",
          "type": "tuple"
        }
      ],
      "stateMutability": "view",
      "type": "function"
    },
    {
      "inputs": [
        {
          "internalType": "address",
          "name": "user",
          "type": "address"
        }
      ],
      "name": "getTokenLockInfo",
      "outputs": [
        {
          "internalType": "uint256",
          "name": "locked",
          "type": "uint256"
        },
        {
          "internalType": "uint256",
          "name": "unlocks",
          "type": "uint256"
        }
      ],
      "stateMutability": "view",
      "type": "function"
    },
    {
      "inputs": [
        {
          "internalType": "bytes32",
          "name": "role",
          "type": "bytes32"
        },
        {
          "internalType": "address",
          "name": "account",
          "type": "address"
        }
      ],
      "name": "grantRole",
      "outputs": [],
      "stateMutability": "nonpayable",
      "type": "function"
    },
    {
      "inputs": [
        {
          "internalType": "bytes32",
          "name": "role",
          "type": "bytes32"
        },
        {
          "internalType": "address",
          "name": "account",
          "type": "address"
        }
      ],
      "name": "hasRole",
      "outputs": [
        {
          "internalType": "bool",
          "name": "",
          "type": "bool"
        }
      ],
      "stateMutability": "view",
      "type": "function"
    },
    {
      "inputs": [
        {
          "internalType": "address",
          "name": "",
          "type": "address"
        }
      ],
      "name": "lockedTokens",
      "outputs": [
        {
          "internalType": "uint256",
          "name": "",
          "type": "uint256"
        }
      ],
      "stateMutability": "view",
      "type": "function"
    },
    {
      "inputs": [],
      "name": "nextPackId",
      "outputs": [
        {
          "internalType": "uint256",
          "name": "",
          "type": "uint256"
        }
      ],
      "stateMutability": "view",
      "type": "function"
    },
    {
      "inputs": [],
      "name": "nextSaleId",
      "outputs": [
        {
          "internalType": "uint256",
          "name": "",
          "type": "uint256"
        }
      ],
      "stateMutability": "view",
      "type": "function"
    },
    {
      "inputs": [],
      "name": "paymentToken",
      "outputs": [
        {
          "internalType": "contract IERC20",
          "name": "",
          "type": "address"
        }
      ],
      "stateMutability": "view",
      "type": "function"
    },
    {
      "inputs": [
        {
          "internalType": "address",
          "name": "advocate",
          "type": "address"
        }
      ],
      "name": "promoteToHustler",
      "outputs": [],
      "stateMutability": "nonpayable",
      "type": "function"
    },
    {
      "inputs": [
        {
          "internalType": "uint256",
          "name": "packId",
          "type": "uint256"
        },
        {
          "internalType": "address",
          "name": "referrer",
          "type": "address"
        }
      ],
      "name": "purchaseEarlyPack",
      "outputs": [],
      "stateMutability": "nonpayable",
      "type": "function"
    },
    {
      "inputs": [
        {
          "internalType": "bytes32",
          "name": "role",
          "type": "bytes32"
        },
        {
          "internalType": "address",
          "name": "callerConfirmation",
          "type": "address"
        }
      ],
      "name": "renounceRole",
      "outputs": [],
      "stateMutability": "nonpayable",
      "type": "function"
    },
    {
      "inputs": [
        {
          "internalType": "bytes32",
          "name": "role",
          "type": "bytes32"
        },
        {
          "internalType": "address",
          "name": "account",
          "type": "address"
        }
      ],
      "name": "revokeRole",
      "outputs": [],
      "stateMutability": "nonpayable",
      "type": "function"
    },
    {
      "inputs": [
        {
          "internalType": "uint256",
          "name": "",
          "type": "uint256"
        }
      ],
      "name": "sales",
      "outputs": [
        {
          "internalType": "address",
          "name": "seller",
          "type": "address"
        },
        {
          "internalType": "address",
          "name": "buyer",
          "type": "address"
        },
        {
          "internalType": "uint256",
          "name": "packId",
          "type": "uint256"
        },
        {
          "internalType": "uint256",
          "name": "amount",
          "type": "uint256"
        },
        {
          "internalType": "uint256",
          "name": "timestamp",
          "type": "uint256"
        },
        {
          "internalType": "uint256",
          "name": "commission",
          "type": "uint256"
        },
        {
          "internalType": "bool",
          "name": "commissionPaid",
          "type": "bool"
        }
      ],
      "stateMutability": "view",
      "type": "function"
    },
    {
      "inputs": [
        {
          "internalType": "address",
          "name": "",
          "type": "address"
        },
        {
          "internalType": "uint256",
          "name": "",
          "type": "uint256"
        }
      ],
      "name": "salesHistory",
      "outputs": [
        {
          "internalType": "uint256",
          "name": "",
          "type": "uint256"
        }
      ],
      "stateMutability": "view",
      "type": "function"
    },
    {
      "inputs": [
        {
          "internalType": "address",
          "name": "",
          "type": "address"
        }
      ],
      "name": "salesStats",
      "outputs": [
        {
          "internalType": "uint256",
          "name": "totalSales",
          "type": "uint256"
        },
        {
          "internalType": "uint256",
          "name": "totalCommissions",
          "type": "uint256"
        },
        {
          "internalType": "uint256",
          "name": "teamSize",
          "type": "uint256"
        },
        {
          "internalType": "uint256",
          "name": "directRecruits",
          "type": "uint256"
        },
        {
          "internalType": "bool",
          "name": "isFoundingBroker",
          "type": "bool"
        }
      ],
      "stateMutability": "view",
      "type": "function"
    },
    {
      "inputs": [
        {
          "internalType": "bytes4",
          "name": "interfaceId",
          "type": "bytes4"
        }
      ],
      "name": "supportsInterface",
      "outputs": [
        {
          "internalType": "bool",
          "name": "",
          "type": "bool"
        }
      ],
      "stateMutability": "view",
      "type": "function"
    },
    {
      "inputs": [],
      "name": "token",
      "outputs": [
        {
          "internalType": "contract ITokenERC20",
          "name": "",
          "type": "address"
        }
      ],
      "stateMutability": "view",
      "type": "function"
    },
    {
      "inputs": [
        {
          "internalType": "address",
          "name": "",
          "type": "address"
        }
      ],
      "name": "unlockTime",
      "outputs": [
        {
          "internalType": "uint256",
          "name": "",
          "type": "uint256"
        }
      ],
      "stateMutability": "view",
      "type": "function"
    },
    {
      "inputs": [],
      "name": "unlockTokens",
      "outputs": [],
      "stateMutability": "nonpayable",
      "type": "function"
    },
    {
      "inputs": [
        {
          "internalType": "address",
          "name": "",
          "type": "address"
        }
      ],
      "name": "upline",
      "outputs": [
        {
          "internalType": "address",
          "name": "",
          "type": "address"
        }
      ],
      "stateMutability": "view",
      "type": "function"
    },
    {
      "inputs": [
        {
          "internalType": "address",
          "name": "to",
          "type": "address"
        },
        {
          "internalType": "uint256",
          "name": "amount",
          "type": "uint256"
        }
      ],
      "name": "withdrawFunds",
      "outputs": [],
      "stateMutability": "nonpayable",
      "type": "function"
    }
  ],
  "bytecode": "0x60c06040526001600a556001600b553480156200001b57600080fd5b5060405162001ef338038062001ef38339810160408190526200003e916200025f565b600180556001600160a01b03808416608052821660a05262000062600082620000d4565b506200008468015af1d78b58c4000069d3c21bcecceda1000000603c62000183565b50620000a76802b5e3af16b18800006a0211654585005212800000604b62000183565b50620000ca68056bc75e2d631000006a04f68ca6d8cd91c6000000605a62000183565b50505050620002d1565b6000828152602081815260408083206001600160a01b038516845290915281205460ff1662000179576000838152602081815260408083206001600160a01b03861684529091529020805460ff19166001179055620001303390565b6001600160a01b0316826001600160a01b0316847f2f8788117e7eff1d82e926ec794901d17c78024a50270940304540a733656f0d60405160405180910390a45060016200017d565b5060005b92915050565b600b8054600091826200019683620002a9565b909155506040805160808101825286815260208082018781528284018781526001606080860182815260008981526002808852908990209751885594519287019290925591519285019290925590516003909301805460ff191693151593909317909255825188815290810187905291820185905291925082917fa33e481233c310245151b67b528936e6e50c4aceae61a16465143df195e14270910160405180910390a29392505050565b80516001600160a01b03811681146200025a57600080fd5b919050565b6000806000606084860312156200027557600080fd5b620002808462000242565b9250620002906020850162000242565b9150620002a06040850162000242565b90509250925092565b600060018201620002ca57634e487b7160e01b600052601160045260246000fd5b5060010190565b60805160a051611bc46200032f600039600081816103a801528181610a6501528181610f3c0152818161158b015261175601526000818161074501528181610d2801528181611225015281816115d801526117a30152611bc46000f3fe608060405234801561001057600080fd5b50600436106102325760003560e01c80635eb7413a11610130578063b5f522f7116100b8578063deb077b91161007c578063deb077b9146106de578063e77febbd146106e7578063eb7038111461072f578063f968f49314610738578063fc0c546a1461074057600080fd5b8063b5f522f7146105b2578063c10753291461064e578063c23f85d614610661578063d39ec3f5146106b8578063d547741f146106cb57600080fd5b8063829f40f7116100ff578063829f40f71461056657806391d148541461056e5780639a9410e114610581578063a217fddf1461058a578063ac76a88a1461059257600080fd5b80635eb7413a146104b35780636789fa1d146104d357806375bbaf911461053e57806376b467b71461054657600080fd5b806324ae93ca116101be5780633f12b07c116101825780633f12b07c146103dd57806341274f461461043957806341481db21461048457806345647da4146104975780634b931f13146104a057600080fd5b806324ae93ca1461036857806327fe8b1f1461037d5780632f2ff15d146103905780633013ce29146103a357806336568abe146103ca57600080fd5b80630e3bd352116102055780630e3bd352146102bc5780631054b302146102fd57806314d0d5601461031d578063172af03f14610332578063248a9ca31461034557600080fd5b806301ffc9a714610237578063029793ec1461025f5780630a5a3312146102945780630c3ce10e146102a9575b600080fd5b61024a61024536600461194b565b610767565b60405190151581526020015b60405180910390f35b6102867ffdae3ca625b7a6a67b1c85ddb9efb8e92252215d4a6ec7177e622584b5b236e881565b604051908152602001610256565b610286600080516020611b6f83398151915281565b6102866102b736600461197c565b61079e565b6102e56102ca3660046119c4565b6004602052600090815260409020546001600160a01b031681565b6040516001600160a01b039091168152602001610256565b61031061030b3660046119c4565b6107be565b60405161025691906119df565b61033061032b3660046119c4565b61082a565b005b610330610340366004611a23565b6108fc565b610286610353366004611a23565b60009081526020819052604090206001015490565b610286600080516020611b4f83398151915281565b61028661038b366004611a3c565b610923565b61033061039e366004611a66565b610954565b6102e57f000000000000000000000000000000000000000000000000000000000000000081565b6103306103d8366004611a66565b61097f565b6104176103eb366004611a23565b600260208190526000918252604090912080546001820154928201546003909201549092919060ff1684565b6040805194855260208501939093529183015215156060820152608001610256565b61046f6104473660046119c4565b6001600160a01b03166000908152600860209081526040808320546009909252909120549091565b60408051928352602083019190915201610256565b610330610492366004611a66565b6109b7565b61028661138881565b6102e56104ae366004611a3c565b610e4e565b6102866104c13660046119c4565b60086020526000908152604090205481565b6105146104e13660046119c4565b60036020819052600091825260409091208054600182015460028301549383015460049093015491939092909160ff1685565b6040805195865260208601949094529284019190915260608301521515608082015260a001610256565b61028660c881565b6102866105543660046119c4565b60096020526000908152604090205481565b610286600a81565b61024a61057c366004611a66565b610e86565b6102866103e881565b610286600081565b6105a56105a03660046119c4565b610eaf565b6040516102569190611a92565b61060c6105c0366004611a23565b60076020526000908152604090208054600182015460028301546003840154600485015460058601546006909601546001600160a01b0395861696959094169492939192909160ff1687565b604080516001600160a01b039889168152979096166020880152948601939093526060850191909152608084015260a0830152151560c082015260e001610256565b61033061065c366004611a3c565b610f24565b61067461066f3660046119c4565b610f63565b6040516102569190600060a0820190508251825260208301516020830152604083015160408301526060830151606083015260808301511515608083015292915050565b6103306106c63660046119c4565b610ff3565b6103306106d9366004611a66565b6110cc565b610286600a5481565b6106fa6106f5366004611a23565b6110f1565b604051610256919081518152602080830151908201526040808301519082015260609182015115159181019190915260800190565b610286600b5481565b610330611165565b6102e57f000000000000000000000000000000000000000000000000000000000000000081565b60006001600160e01b03198216637965db0b60e01b148061079857506301ffc9a760e01b6001600160e01b03198316145b92915050565b6000806107aa81611295565b6107b58585856112a2565b95945050505050565b6001600160a01b03811660009081526006602090815260409182902080548351818402810184019094528084526060939283018282801561081e57602002820191906000526020600020905b81548152602001906001019080831161080a575b50505050509050919050565b600061083581611295565b61085f7ffdae3ca625b7a6a67b1c85ddb9efb8e92252215d4a6ec7177e622584b5b236e88361135f565b50610878600080516020611b4f8339815191528361135f565b506001600160a01b038216600081815260036020526040808220600401805460ff19166001179055517fff1071285cbc53d7191b8090b65cc4ce4cecf59e8749f96dd1b55093e884f269906108f0907ffdae3ca625b7a6a67b1c85ddb9efb8e92252215d4a6ec7177e622584b5b236e8815260200190565b60405180910390a35050565b600061090781611295565b506000908152600260205260409020600301805460ff19169055565b6006602052816000526040600020818154811061093f57600080fd5b90600052602060002001600091509150505481565b60008281526020819052604090206001015461096f81611295565b610979838361135f565b50505050565b6001600160a01b03811633146109a85760405163334bd91960e11b815260040160405180910390fd5b6109b282826113f1565b505050565b6109bf61145c565b6000828152600260205260409020600381015460ff16610a185760405162461bcd60e51b815260206004820152600f60248201526e5061636b206e6f742061637469766560881b60448201526064015b60405180910390fd5b8054610a555760405162461bcd60e51b815260206004820152600c60248201526b496e76616c6964207061636b60a01b6044820152606401610a0f565b8054610a8f906001600160a01b037f0000000000000000000000000000000000000000000000000000000000000000169033903090611486565b336000908152600460205260409020546001600160a01b0316158015610abd57506001600160a01b03821615155b8015610ad257506001600160a01b0382163314155b15610bcf5733600081815260046020908152604080832080546001600160a01b0388166001600160a01b03199182168117909255818552600584528285208054600181018255908652848620018054909116909517909455928252600390819052918120909101805491610b4583611ae9565b9190505550610b62600080516020611b4f83398151915283610e86565b15610bcf57610b7f600080516020611b6f8339815191523361135f565b50604051600080516020611b6f833981519152815233906001600160a01b038416907fff1071285cbc53d7191b8090b65cc4ce4cecf59e8749f96dd1b55093e884f2699060200160405180910390a35b600a805460009182610be083611ae9565b909155506040805160e0810182526001600160a01b038087168083523360208085018281528587018c81528a54606088019081524260808901908152600060a08a0181815260c08b018281528d8352600788528c83209b518c54908c166001600160a01b0319918216178d55965160018d8101805492909d169190981617909a55935160028b0155915160038a01555160048901559051600588015594516006968701805491151560ff1990921691909117905591845293845293822080549485018155825291902090910182905590915015610d06576001600160a01b03831660008181526006602090815260408083208054600181018255908452828420018590558554938352600390915281208054909190610d00908490611b02565b90915550505b60018201546040516340c10f1960e01b815230600482015260248101919091527f00000000000000000000000000000000000000000000000000000000000000006001600160a01b0316906340c10f1990604401600060405180830381600087803b158015610d7457600080fd5b505af1158015610d88573d6000803e3d6000fd5b5050506001830154336000908152600860205260408120805492935091610db0908490611b02565b90915550506002820154610dc79062015180611b15565b610dd19042611b02565b336000908152600960205260409020558154610def908290856114ed565b815460018301546040805192835260208301919091526001600160a01b03851691339187917fb5353937c6fcd3387e6421c16c48d87dcc411afc295ff04bb18cb9a2d429849b910160405180910390a45050610e4a60018055565b5050565b60056020528160005260406000208181548110610e6a57600080fd5b6000918252602090912001546001600160a01b03169150829050565b6000918252602082815260408084206001600160a01b0393909316845291905290205460ff1690565b6001600160a01b03811660009081526005602090815260409182902080548351818402810184019094528084526060939283018282801561081e57602002820191906000526020600020905b81546001600160a01b03168152600190910190602001808311610efb5750505050509050919050565b6000610f2f81611295565b6109b26001600160a01b037f0000000000000000000000000000000000000000000000000000000000000000168484611870565b610f976040518060a00160405280600081526020016000815260200160008152602001600081526020016000151581525090565b506001600160a01b0316600090815260036020818152604092839020835160a0810185528154815260018201549281019290925260028101549382019390935290820154606082015260049091015460ff161515608082015290565b6000610ffe81611295565b611016600080516020611b6f83398151915283610e86565b6110545760405162461bcd60e51b815260206004820152600f60248201526e4e6f7420616e206164766f6361746560881b6044820152606401610a0f565b61106c600080516020611b4f8339815191528361135f565b506001600160a01b0380831660008181526004602052604090819020549051919216907fff1071285cbc53d7191b8090b65cc4ce4cecf59e8749f96dd1b55093e884f269906108f090600080516020611b4f833981519152815260200190565b6000828152602081905260409020600101546110e781611295565b61097983836113f1565b61111e60405180608001604052806000815260200160008152602001600081526020016000151581525090565b5060009081526002602081815260409283902083516080810185528154815260018201549281019290925291820154928101929092526003015460ff161515606082015290565b61116d61145c565b336000908152600960205260409020544210156111bb5760405162461bcd60e51b815260206004820152600c60248201526b14dd1a5b1b081b1bd8dad95960a21b6044820152606401610a0f565b3360009081526008602052604090205461120a5760405162461bcd60e51b815260206004820152601060248201526f4e6f206c6f636b656420746f6b656e7360801b6044820152606401610a0f565b336000818152600860205260408120805491905590611254907f00000000000000000000000000000000000000000000000000000000000000006001600160a01b03169083611870565b60405181815233907fe7b379c6c1fa169e9079c25e9143b127637eef8ec8c9d5c06ddb4ab3e11958889060200160405180910390a25061129360018055565b565b61129f81336118a1565b50565b600b8054600091826112b383611ae9565b909155506040805160808101825286815260208082018781528284018781526001606080860182815260008981526002808852908990209751885594519287019290925591519285019290925590516003909301805460ff191693151593909317909255825188815290810187905291820185905291925082917fa33e481233c310245151b67b528936e6e50c4aceae61a16465143df195e14270910160405180910390a29392505050565b600061136b8383610e86565b6113e9576000838152602081815260408083206001600160a01b03861684529091529020805460ff191660011790556113a13390565b6001600160a01b0316826001600160a01b0316847f2f8788117e7eff1d82e926ec794901d17c78024a50270940304540a733656f0d60405160405180910390a4506001610798565b506000610798565b60006113fd8383610e86565b156113e9576000838152602081815260408083206001600160a01b0386168085529252808320805460ff1916905551339286917ff6391f5c32d9c69d2a47ea670b442974b53935d1edc7fd64eb21e047a839171b9190a4506001610798565b60026001540361147f57604051633ee5aeb560e01b815260040160405180910390fd5b6002600155565b6040516001600160a01b0384811660248301528381166044830152606482018390526109799186918216906323b872dd906084015b604051602081830303815290604052915060e01b6020820180516001600160e01b0383818316178352505050506118da565b6001600160a01b03811661150057505050565b600061151a600080516020611b4f83398151915283610e86565b1561153f5761271061152e61138885611b15565b6115389190611b2c565b9050611578565b611557600080516020611b6f83398151915283610e86565b156115785761271061156b6103e885611b15565b6115759190611b2c565b90505b80156116eb576115b26001600160a01b037f0000000000000000000000000000000000000000000000000000000000000000168383611870565b6040516359ff03c360e01b81526001600160a01b038381166004830152602482018390527f000000000000000000000000000000000000000000000000000000000000000016906359ff03c390604401600060405180830381600087803b15801561161c57600080fd5b505af1158015611630573d6000803e3d6000fd5b505050506001600160a01b0382166000908152600360205260408120600101805483929061165f908490611b02565b90915550506000848152600760205260409081902060058101839055600601805460ff19166001179055516001600160a01b038316907f8d2486dece1cfda5a10df8a2cdfc8e5d782cbbded106960dc0bda2b3593b71ec906116e29084815260406020820181905260069082015265111a5c9958dd60d21b606082015260800190565b60405180910390a25b6001600160a01b038083166000908152600460205260409020541680158015906117285750611728600080516020611b4f83398151915282610e86565b1561186957600061271061173d60c887611b15565b6117479190611b2c565b905061177d6001600160a01b037f0000000000000000000000000000000000000000000000000000000000000000168383611870565b6040516359ff03c360e01b81526001600160a01b038381166004830152602482018390527f000000000000000000000000000000000000000000000000000000000000000016906359ff03c390604401600060405180830381600087803b1580156117e757600080fd5b505af11580156117fb573d6000803e3d6000fd5b50505050816001600160a01b03167f8d2486dece1cfda5a10df8a2cdfc8e5d782cbbded106960dc0bda2b3593b71ec8260405161185f918152604060208201819052600d908201526c5465616d204f7665727269646560981b606082015260800190565b60405180910390a2505b5050505050565b6040516001600160a01b038381166024830152604482018390526109b291859182169063a9059cbb906064016114bb565b6118ab8282610e86565b610e4a5760405163e2517d3f60e01b81526001600160a01b038216600482015260248101839052604401610a0f565b600080602060008451602086016000885af1806118fd576040513d6000823e3d81fd5b50506000513d91508115611915578060011415611922565b6001600160a01b0384163b155b1561097957604051635274afe760e01b81526001600160a01b0385166004820152602401610a0f565b60006020828403121561195d57600080fd5b81356001600160e01b03198116811461197557600080fd5b9392505050565b60008060006060848603121561199157600080fd5b505081359360208301359350604090920135919050565b80356001600160a01b03811681146119bf57600080fd5b919050565b6000602082840312156119d657600080fd5b611975826119a8565b6020808252825182820181905260009190848201906040850190845b81811015611a17578351835292840192918401916001016119fb565b50909695505050505050565b600060208284031215611a3557600080fd5b5035919050565b60008060408385031215611a4f57600080fd5b611a58836119a8565b946020939093013593505050565b60008060408385031215611a7957600080fd5b82359150611a89602084016119a8565b90509250929050565b6020808252825182820181905260009190848201906040850190845b81811015611a175783516001600160a01b031683529284019291840191600101611aae565b634e487b7160e01b600052601160045260246000fd5b600060018201611afb57611afb611ad3565b5060010190565b8082018082111561079857610798611ad3565b808202811582820484141761079857610798611ad3565b600082611b4957634e487b7160e01b600052601260045260246000fd5b50049056fe533b399ea272ac374e8af890bba30f0d08fa0fc5868fbba46d1406e727a4bb54b86539c3e6c2538c4c369c42b5c52201d2770c0c38bfc05bdc933522d820a728a2646970667358221220b1622253a2108e5eab48096e63270592e75f0270afa12acfa89f0d4089fec1fd64736f6c63430008180033",
  "linkReferences": {},
  "deployedLinkReferences": {}
}