{"contracts/evm/AuditTrail.sol":{"AuditTrail":{"abi":[{"inputs":[{"internalType":"address","name":"admin","type":"address"}],"stateMutability":"nonpayable","type":"constructor"},{"inputs":[],"name":"AccessControlBadConfirmation","type":"error"},{"inputs":[{"internalType":"address","name":"account","type":"address"},{"internalType":"bytes32","name":"neededRole","type":"bytes32"}],"name":"AccessControlUnauthorizedAccount","type":"error"},{"anonymous":false,"inputs":[{"indexed":true,"internalType":"bytes32","name":"role","type":"bytes32"},{"indexed":true,"internalType":"bytes32","name":"previousAdminRole","type":"bytes32"},{"indexed":true,"internalType":"bytes32","name":"newAdminRole","type":"bytes32"}],"name":"RoleAdminChanged","type":"event"},{"anonymous":false,"inputs":[{"indexed":true,"internalType":"bytes32","name":"role","type":"bytes32"},{"indexed":true,"internalType":"address","name":"account","type":"address"},{"indexed":true,"internalType":"address","name":"sender","type":"address"}],"name":"RoleGranted","type":"event"},{"anonymous":false,"inputs":[{"indexed":true,"internalType":"bytes32","name":"role","type":"bytes32"},{"indexed":true,"internalType":"address","name":"account","type":"address"},{"indexed":true,"internalType":"address","name":"sender","type":"address"}],"name":"RoleRevoked","type":"event"},{"anonymous":false,"inputs":[{"indexed":true,"internalType":"address","name":"user","type":"address"},{"indexed":false,"internalType":"uint256","name":"amount","type":"uint256"},{"indexed":false,"internalType":"uint256","name":"timestamp","type":"uint256"}],"name":"TransactionLogged","type":"event"},{"inputs":[],"name":"DEFAULT_ADMIN_ROLE","outputs":[{"internalType":"bytes32","name":"","type":"bytes32"}],"stateMutability":"view","type":"function"},{"inputs":[],"name":"LOGGER_ROLE","outputs":[{"internalType":"bytes32","name":"","type":"bytes32"}],"stateMutability":"view","type":"function"},{"inputs":[{"internalType":"bytes32","name":"role","type":"bytes32"}],"name":"getRoleAdmin","outputs":[{"internalType":"bytes32","name":"","type":"bytes32"}],"stateMutability":"view","type":"function"},{"inputs":[{"internalType":"bytes32","name":"role","type":"bytes32"},{"internalType":"address","name":"account","type":"address"}],"name":"grantRole","outputs":[],"stateMutability":"nonpayable","type":"function"},{"inputs":[{"internalType":"bytes32","name":"role","type":"bytes32"},{"internalType":"address","name":"account","type":"address"}],"name":"hasRole","outputs":[{"internalType":"bool","name":"","type":"bool"}],"stateMutability":"view","type":"function"},{"inputs":[{"internalType":"address","name":"user","type":"address"},{"internalType":"uint256","name":"amount","type":"uint256"}],"name":"logTransaction","outputs":[],"stateMutability":"nonpayable","type":"function"},{"inputs":[{"internalType":"uint256","name":"","type":"uint256"}],"name":"records","outputs":[{"internalType":"address","name":"user","type":"address"},{"internalType":"uint256","name":"amount","type":"uint256"},{"internalType":"uint256","name":"timestamp","type":"uint256"}],"stateMutability":"view","type":"function"},{"inputs":[{"internalType":"bytes32","name":"role","type":"bytes32"},{"internalType":"address","name":"callerConfirmation","type":"address"}],"name":"renounceRole","outputs":[],"stateMutability":"nonpayable","type":"function"},{"inputs":[{"internalType":"bytes32","name":"role","type":"bytes32"},{"internalType":"address","name":"account","type":"address"}],"name":"revokeRole","outputs":[],"stateMutability":"nonpayable","type":"function"},{"inputs":[{"internalType":"bytes4","name":"interfaceId","type":"bytes4"}],"name":"supportsInterface","outputs":[{"internalType":"bool","name":"","type":"bool"}],"stateMutability":"view","type":"function"}],"evm":{"bytecode":{"linkReferences":{},"object":"608060405234801561001057600080fd5b5060405161077e38038061077e83398101604081905261002f916100ed565b61003a600082610041565b505061011d565b6000828152602081815260408083206001600160a01b038516845290915281205460ff166100e3576000838152602081815260408083206001600160a01b03861684529091529020805460ff1916600117905561009b3390565b6001600160a01b0316826001600160a01b0316847f2f8788117e7eff1d82e926ec794901d17c78024a50270940304540a733656f0d60405160405180910390a45060016100e7565b5060005b92915050565b6000602082840312156100ff57600080fd5b81516001600160a01b038116811461011657600080fd5b9392505050565b6106528061012c6000396000f3fe608060405234801561001057600080fd5b506004361061009e5760003560e01c80637bf0fbde116100665780637bf0fbde1461015c57806391d1485414610183578063a217fddf14610196578063be69059b1461019e578063d547741f146101b157600080fd5b806301ffc9a7146100a3578063248a9ca3146100cb5780632f2ff15d146100fc578063344610671461011157806336568abe14610149575b600080fd5b6100b66100b1366004610560565b6101c4565b60405190151581526020015b60405180910390f35b6100ee6100d9366004610591565b60009081526020819052604090206001015490565b6040519081526020016100c2565b61010f61010a3660046105c6565b6101fb565b005b61012461011f366004610591565b610226565b604080516001600160a01b0390941684526020840192909252908201526060016100c2565b61010f6101573660046105c6565b610263565b6100ee7f566c814873eed56a69b28c40ab27cc2cb150d74068bae3e884ccd44f8de60f8a81565b6100b66101913660046105c6565b61029b565b6100ee600081565b61010f6101ac3660046105f2565b6102c4565b61010f6101bf3660046105c6565b6103f0565b60006001600160e01b03198216637965db0b60e01b14806101f557506301ffc9a760e01b6001600160e01b03198316145b92915050565b60008281526020819052604090206001015461021681610415565b6102208383610422565b50505050565b6001818154811061023657600080fd5b60009182526020909120600390910201805460018201546002909201546001600160a01b03909116925083565b6001600160a01b038116331461028c5760405163334bd91960e11b815260040160405180910390fd5b61029682826104b4565b505050565b6000918252602082815260408084206001600160a01b0393909316845291905290205460ff1690565b7f566c814873eed56a69b28c40ab27cc2cb150d74068bae3e884ccd44f8de60f8a6102ee81610415565b604080516060810182526001600160a01b0385811680835260208084018781524285870181815260018054808201825560009190915296517fb10e2d527612073b26eecdfd717e6a320cf44b4afac2b0732d9fcbe2b7fa0cf6600390980297880180546001600160a01b031916919097161790955590517fb10e2d527612073b26eecdfd717e6a320cf44b4afac2b0732d9fcbe2b7fa0cf786015592517fb10e2d527612073b26eecdfd717e6a320cf44b4afac2b0732d9fcbe2b7fa0cf890940193909355835186815292830191909152917f7772d368cd3cc6fa8dc9c0956d36dd1243d603abc8d99496f89d0e6950d80dde910160405180910390a2505050565b60008281526020819052604090206001015461040b81610415565b61022083836104b4565b61041f813361051f565b50565b600061042e838361029b565b6104ac576000838152602081815260408083206001600160a01b03861684529091529020805460ff191660011790556104643390565b6001600160a01b0316826001600160a01b0316847f2f8788117e7eff1d82e926ec794901d17c78024a50270940304540a733656f0d60405160405180910390a45060016101f5565b5060006101f5565b60006104c0838361029b565b156104ac576000838152602081815260408083206001600160a01b0386168085529252808320805460ff1916905551339286917ff6391f5c32d9c69d2a47ea670b442974b53935d1edc7fd64eb21e047a839171b9190a45060016101f5565b610529828261029b565b61055c5760405163e2517d3f60e01b81526001600160a01b03821660048201526024810183905260440160405180910390fd5b5050565b60006020828403121561057257600080fd5b81356001600160e01b03198116811461058a57600080fd5b9392505050565b6000602082840312156105a357600080fd5b5035919050565b80356001600160a01b03811681146105c157600080fd5b919050565b600080604083850312156105d957600080fd5b823591506105e9602084016105aa565b90509250929050565b6000806040838503121561060557600080fd5b61060e836105aa565b94602093909301359350505056fea26469706673582212201d0c1b3cfb1f85a5c5710ee55c18862158caf1a8a94d2d19905aea0fba6f448264736f6c63430008180033","opcodes":"PUSH1 0x80 PUSH1 0x40 MSTORE CALLVALUE DUP1 ISZERO PUSH2 0x10 JUMPI PUSH1 0x0 DUP1 REVERT JUMPDEST POP PUSH1 0x40 MLOAD PUSH2 0x77E CODESIZE SUB DUP1 PUSH2 0x77E DUP4 CODECOPY DUP2 ADD PUSH1 0x40 DUP2 SWAP1 MSTORE PUSH2 0x2F SWAP2 PUSH2 0xED JUMP JUMPDEST PUSH2 0x3A PUSH1 0x0 DUP3 PUSH2 0x41 JUMP JUMPDEST POP POP PUSH2 0x11D JUMP JUMPDEST PUSH1 0x0 DUP3 DUP2 MSTORE PUSH1 0x20 DUP2 DUP2 MSTORE PUSH1 0x40 DUP1 DUP4 KECCAK256 PUSH1 0x1 PUSH1 0x1 PUSH1 0xA0 SHL SUB DUP6 AND DUP5 MSTORE SWAP1 SWAP2 MSTORE DUP2 KECCAK256 SLOAD PUSH1 0xFF AND PUSH2 0xE3 JUMPI PUSH1 0x0 DUP4 DUP2 MSTORE PUSH1 0x20 DUP2 DUP2 MSTORE PUSH1 0x40 DUP1 DUP4 KECCAK256 PUSH1 0x1 PUSH1 0x1 PUSH1 0xA0 SHL SUB DUP7 AND DUP5 MSTORE SWAP1 SWAP2 MSTORE SWAP1 KECCAK256 DUP1 SLOAD PUSH1 0xFF NOT AND PUSH1 0x1 OR SWAP1 SSTORE PUSH2 0x9B CALLER SWAP1 JUMP JUMPDEST PUSH1 0x1 PUSH1 0x1 PUSH1 0xA0 SHL SUB AND DUP3 PUSH1 0x1 PUSH1 0x1 PUSH1 0xA0 SHL SUB AND DUP5 PUSH32 0x2F8788117E7EFF1D82E926EC794901D17C78024A50270940304540A733656F0D PUSH1 0x40 MLOAD PUSH1 0x40 MLOAD DUP1 SWAP2 SUB SWAP1 LOG4 POP PUSH1 0x1 PUSH2 0xE7 JUMP JUMPDEST POP PUSH1 0x0 JUMPDEST SWAP3 SWAP2 POP POP JUMP JUMPDEST PUSH1 0x0 PUSH1 0x20 DUP3 DUP5 SUB SLT ISZERO PUSH2 0xFF JUMPI PUSH1 0x0 DUP1 REVERT JUMPDEST DUP2 MLOAD PUSH1 0x1 PUSH1 0x1 PUSH1 0xA0 SHL SUB DUP2 AND DUP2 EQ PUSH2 0x116 JUMPI PUSH1 0x0 DUP1 REVERT JUMPDEST SWAP4 SWAP3 POP POP POP JUMP JUMPDEST PUSH2 0x652 DUP1 PUSH2 0x12C PUSH1 0x0 CODECOPY PUSH1 0x0 RETURN INVALID PUSH1 0x80 PUSH1 0x40 MSTORE CALLVALUE DUP1 ISZERO PUSH2 0x10 JUMPI PUSH1 0x0 DUP1 REVERT JUMPDEST POP PUSH1 0x4 CALLDATASIZE LT PUSH2 0x9E JUMPI PUSH1 0x0 CALLDATALOAD PUSH1 0xE0 SHR DUP1 PUSH4 0x7BF0FBDE GT PUSH2 0x66 JUMPI DUP1 PUSH4 0x7BF0FBDE EQ PUSH2 0x15C JUMPI DUP1 PUSH4 0x91D14854 EQ PUSH2 0x183 JUMPI DUP1 PUSH4 0xA217FDDF EQ PUSH2 0x196 JUMPI DUP1 PUSH4 0xBE69059B EQ PUSH2 0x19E JUMPI DUP1 PUSH4 0xD547741F EQ PUSH2 0x1B1 JUMPI PUSH1 0x0 DUP1 REVERT JUMPDEST DUP1 PUSH4 0x1FFC9A7 EQ PUSH2 0xA3 JUMPI DUP1 PUSH4 0x248A9CA3 EQ PUSH2 0xCB JUMPI DUP1 PUSH4 0x2F2FF15D EQ PUSH2 0xFC JUMPI DUP1 PUSH4 0x34461067 EQ PUSH2 0x111 JUMPI DUP1 PUSH4 0x36568ABE EQ PUSH2 0x149 JUMPI JUMPDEST PUSH1 0x0 DUP1 REVERT JUMPDEST PUSH2 0xB6 PUSH2 0xB1 CALLDATASIZE PUSH1 0x4 PUSH2 0x560 JUMP JUMPDEST PUSH2 0x1C4 JUMP JUMPDEST PUSH1 0x40 MLOAD SWAP1 ISZERO ISZERO DUP2 MSTORE PUSH1 0x20 ADD JUMPDEST PUSH1 0x40 MLOAD DUP1 SWAP2 SUB SWAP1 RETURN JUMPDEST PUSH2 0xEE PUSH2 0xD9 CALLDATASIZE PUSH1 0x4 PUSH2 0x591 JUMP JUMPDEST PUSH1 0x0 SWAP1 DUP2 MSTORE PUSH1 0x20 DUP2 SWAP1 MSTORE PUSH1 0x40 SWAP1 KECCAK256 PUSH1 0x1 ADD SLOAD SWAP1 JUMP JUMPDEST PUSH1 0x40 MLOAD SWAP1 DUP2 MSTORE PUSH1 0x20 ADD PUSH2 0xC2 JUMP JUMPDEST PUSH2 0x10F PUSH2 0x10A CALLDATASIZE PUSH1 0x4 PUSH2 0x5C6 JUMP JUMPDEST PUSH2 0x1FB JUMP JUMPDEST STOP JUMPDEST PUSH2 0x124 PUSH2 0x11F CALLDATASIZE PUSH1 0x4 PUSH2 0x591 JUMP JUMPDEST PUSH2 0x226 JUMP JUMPDEST PUSH1 0x40 DUP1 MLOAD PUSH1 0x1 PUSH1 0x1 PUSH1 0xA0 SHL SUB SWAP1 SWAP5 AND DUP5 MSTORE PUSH1 0x20 DUP5 ADD SWAP3 SWAP1 SWAP3 MSTORE SWAP1 DUP3 ADD MSTORE PUSH1 0x60 ADD PUSH2 0xC2 JUMP JUMPDEST PUSH2 0x10F PUSH2 0x157 CALLDATASIZE PUSH1 0x4 PUSH2 0x5C6 JUMP JUMPDEST PUSH2 0x263 JUMP JUMPDEST PUSH2 0xEE PUSH32 0x566C814873EED56A69B28C40AB27CC2CB150D74068BAE3E884CCD44F8DE60F8A DUP2 JUMP JUMPDEST PUSH2 0xB6 PUSH2 0x191 CALLDATASIZE PUSH1 0x4 PUSH2 0x5C6 JUMP JUMPDEST PUSH2 0x29B JUMP JUMPDEST PUSH2 0xEE PUSH1 0x0 DUP2 JUMP JUMPDEST PUSH2 0x10F PUSH2 0x1AC CALLDATASIZE PUSH1 0x4 PUSH2 0x5F2 JUMP JUMPDEST PUSH2 0x2C4 JUMP JUMPDEST PUSH2 0x10F PUSH2 0x1BF CALLDATASIZE PUSH1 0x4 PUSH2 0x5C6 JUMP JUMPDEST PUSH2 0x3F0 JUMP JUMPDEST PUSH1 0x0 PUSH1 0x1 PUSH1 0x1 PUSH1 0xE0 SHL SUB NOT DUP3 AND PUSH4 0x7965DB0B PUSH1 0xE0 SHL EQ DUP1 PUSH2 0x1F5 JUMPI POP PUSH4 0x1FFC9A7 PUSH1 0xE0 SHL PUSH1 0x1 PUSH1 0x1 PUSH1 0xE0 SHL SUB NOT DUP4 AND EQ JUMPDEST SWAP3 SWAP2 POP POP JUMP JUMPDEST PUSH1 0x0 DUP3 DUP2 MSTORE PUSH1 0x20 DUP2 SWAP1 MSTORE PUSH1 0x40 SWAP1 KECCAK256 PUSH1 0x1 ADD SLOAD PUSH2 0x216 DUP2 PUSH2 0x415 JUMP JUMPDEST PUSH2 0x220 DUP4 DUP4 PUSH2 0x422 JUMP JUMPDEST POP POP POP POP JUMP JUMPDEST PUSH1 0x1 DUP2 DUP2 SLOAD DUP2 LT PUSH2 0x236 JUMPI PUSH1 0x0 DUP1 REVERT JUMPDEST PUSH1 0x0 SWAP2 DUP3 MSTORE PUSH1 0x20 SWAP1 SWAP2 KECCAK256 PUSH1 0x3 SWAP1 SWAP2 MUL ADD DUP1 SLOAD PUSH1 0x1 DUP3 ADD SLOAD PUSH1 0x2 SWAP1 SWAP3 ADD SLOAD PUSH1 0x1 PUSH1 0x1 PUSH1 0xA0 SHL SUB SWAP1 SWAP2 AND SWAP3 POP DUP4 JUMP JUMPDEST PUSH1 0x1 PUSH1 0x1 PUSH1 0xA0 SHL SUB DUP2 AND CALLER EQ PUSH2 0x28C JUMPI PUSH1 0x40 MLOAD PUSH4 0x334BD919 PUSH1 0xE1 SHL DUP2 MSTORE PUSH1 0x4 ADD PUSH1 0x40 MLOAD DUP1 SWAP2 SUB SWAP1 REVERT JUMPDEST PUSH2 0x296 DUP3 DUP3 PUSH2 0x4B4 JUMP JUMPDEST POP POP POP JUMP JUMPDEST PUSH1 0x0 SWAP2 DUP3 MSTORE PUSH1 0x20 DUP3 DUP2 MSTORE PUSH1 0x40 DUP1 DUP5 KECCAK256 PUSH1 0x1 PUSH1 0x1 PUSH1 0xA0 SHL SUB SWAP4 SWAP1 SWAP4 AND DUP5 MSTORE SWAP2 SWAP1 MSTORE SWAP1 KECCAK256 SLOAD PUSH1 0xFF AND SWAP1 JUMP JUMPDEST PUSH32 0x566C814873EED56A69B28C40AB27CC2CB150D74068BAE3E884CCD44F8DE60F8A PUSH2 0x2EE DUP2 PUSH2 0x415 JUMP JUMPDEST PUSH1 0x40 DUP1 MLOAD PUSH1 0x60 DUP2 ADD DUP3 MSTORE PUSH1 0x1 PUSH1 0x1 PUSH1 0xA0 SHL SUB DUP6 DUP2 AND DUP1 DUP4 MSTORE PUSH1 0x20 DUP1 DUP5 ADD DUP8 DUP2 MSTORE TIMESTAMP DUP6 DUP8 ADD DUP2 DUP2 MSTORE PUSH1 0x1 DUP1 SLOAD DUP1 DUP3 ADD DUP3 SSTORE PUSH1 0x0 SWAP2 SWAP1 SWAP2 MSTORE SWAP7 MLOAD PUSH32 0xB10E2D527612073B26EECDFD717E6A320CF44B4AFAC2B0732D9FCBE2B7FA0CF6 PUSH1 0x3 SWAP1 SWAP9 MUL SWAP8 DUP9 ADD DUP1 SLOAD PUSH1 0x1 PUSH1 0x1 PUSH1 0xA0 SHL SUB NOT AND SWAP2 SWAP1 SWAP8 AND OR SWAP1 SWAP6 SSTORE SWAP1 MLOAD PUSH32 0xB10E2D527612073B26EECDFD717E6A320CF44B4AFAC2B0732D9FCBE2B7FA0CF7 DUP7 ADD SSTORE SWAP3 MLOAD PUSH32 0xB10E2D527612073B26EECDFD717E6A320CF44B4AFAC2B0732D9FCBE2B7FA0CF8 SWAP1 SWAP5 ADD SWAP4 SWAP1 SWAP4 SSTORE DUP4 MLOAD DUP7 DUP2 MSTORE SWAP3 DUP4 ADD SWAP2 SWAP1 SWAP2 MSTORE SWAP2 PUSH32 0x7772D368CD3CC6FA8DC9C0956D36DD1243D603ABC8D99496F89D0E6950D80DDE SWAP2 ADD PUSH1 0x40 MLOAD DUP1 SWAP2 SUB SWAP1 LOG2 POP POP POP JUMP JUMPDEST PUSH1 0x0 DUP3 DUP2 MSTORE PUSH1 0x20 DUP2 SWAP1 MSTORE PUSH1 0x40 SWAP1 KECCAK256 PUSH1 0x1 ADD SLOAD PUSH2 0x40B DUP2 PUSH2 0x415 JUMP JUMPDEST PUSH2 0x220 DUP4 DUP4 PUSH2 0x4B4 JUMP JUMPDEST PUSH2 0x41F DUP2 CALLER PUSH2 0x51F JUMP JUMPDEST POP JUMP JUMPDEST PUSH1 0x0 PUSH2 0x42E DUP4 DUP4 PUSH2 0x29B JUMP JUMPDEST PUSH2 0x4AC JUMPI PUSH1 0x0 DUP4 DUP2 MSTORE PUSH1 0x20 DUP2 DUP2 MSTORE PUSH1 0x40 DUP1 DUP4 KECCAK256 PUSH1 0x1 PUSH1 0x1 PUSH1 0xA0 SHL SUB DUP7 AND DUP5 MSTORE SWAP1 SWAP2 MSTORE SWAP1 KECCAK256 DUP1 SLOAD PUSH1 0xFF NOT AND PUSH1 0x1 OR SWAP1 SSTORE PUSH2 0x464 CALLER SWAP1 JUMP JUMPDEST PUSH1 0x1 PUSH1 0x1 PUSH1 0xA0 SHL SUB AND DUP3 PUSH1 0x1 PUSH1 0x1 PUSH1 0xA0 SHL SUB AND DUP5 PUSH32 0x2F8788117E7EFF1D82E926EC794901D17C78024A50270940304540A733656F0D PUSH1 0x40 MLOAD PUSH1 0x40 MLOAD DUP1 SWAP2 SUB SWAP1 LOG4 POP PUSH1 0x1 PUSH2 0x1F5 JUMP JUMPDEST POP PUSH1 0x0 PUSH2 0x1F5 JUMP JUMPDEST PUSH1 0x0 PUSH2 0x4C0 DUP4 DUP4 PUSH2 0x29B JUMP JUMPDEST ISZERO PUSH2 0x4AC JUMPI PUSH1 0x0 DUP4 DUP2 MSTORE PUSH1 0x20 DUP2 DUP2 MSTORE PUSH1 0x40 DUP1 DUP4 KECCAK256 PUSH1 0x1 PUSH1 0x1 PUSH1 0xA0 SHL SUB DUP7 AND DUP1 DUP6 MSTORE SWAP3 MSTORE DUP1 DUP4 KECCAK256 DUP1 SLOAD PUSH1 0xFF NOT AND SWAP1 SSTORE MLOAD CALLER SWAP3 DUP7 SWAP2 PUSH32 0xF6391F5C32D9C69D2A47EA670B442974B53935D1EDC7FD64EB21E047A839171B SWAP2 SWAP1 LOG4 POP PUSH1 0x1 PUSH2 0x1F5 JUMP JUMPDEST PUSH2 0x529 DUP3 DUP3 PUSH2 0x29B JUMP JUMPDEST PUSH2 0x55C JUMPI PUSH1 0x40 MLOAD PUSH4 0xE2517D3F PUSH1 0xE0 SHL DUP2 MSTORE PUSH1 0x1 PUSH1 0x1 PUSH1 0xA0 SHL SUB DUP3 AND PUSH1 0x4 DUP3 ADD MSTORE PUSH1 0x24 DUP2 ADD DUP4 SWAP1 MSTORE PUSH1 0x44 ADD PUSH1 0x40 MLOAD DUP1 SWAP2 SUB SWAP1 REVERT JUMPDEST POP POP JUMP JUMPDEST PUSH1 0x0 PUSH1 0x20 DUP3 DUP5 SUB SLT ISZERO PUSH2 0x572 JUMPI PUSH1 0x0 DUP1 REVERT JUMPDEST DUP2 CALLDATALOAD PUSH1 0x1 PUSH1 0x1 PUSH1 0xE0 SHL SUB NOT DUP2 AND DUP2 EQ PUSH2 0x58A JUMPI PUSH1 0x0 DUP1 REVERT JUMPDEST SWAP4 SWAP3 POP POP POP JUMP JUMPDEST PUSH1 0x0 PUSH1 0x20 DUP3 DUP5 SUB SLT ISZERO PUSH2 0x5A3 JUMPI PUSH1 0x0 DUP1 REVERT JUMPDEST POP CALLDATALOAD SWAP2 SWAP1 POP JUMP JUMPDEST DUP1 CALLDATALOAD PUSH1 0x1 PUSH1 0x1 PUSH1 0xA0 SHL SUB DUP2 AND DUP2 EQ PUSH2 0x5C1 JUMPI PUSH1 0x0 DUP1 REVERT JUMPDEST SWAP2 SWAP1 POP JUMP JUMPDEST PUSH1 0x0 DUP1 PUSH1 0x40 DUP4 DUP6 SUB SLT ISZERO PUSH2 0x5D9 JUMPI PUSH1 0x0 DUP1 REVERT JUMPDEST DUP3 CALLDATALOAD SWAP2 POP PUSH2 0x5E9 PUSH1 0x20 DUP5 ADD PUSH2 0x5AA JUMP JUMPDEST SWAP1 POP SWAP3 POP SWAP3 SWAP1 POP JUMP JUMPDEST PUSH1 0x0 DUP1 PUSH1 0x40 DUP4 DUP6 SUB SLT ISZERO PUSH2 0x605 JUMPI PUSH1 0x0 DUP1 REVERT JUMPDEST PUSH2 0x60E DUP4 PUSH2 0x5AA JUMP JUMPDEST SWAP5 PUSH1 0x20 SWAP4 SWAP1 SWAP4 ADD CALLDATALOAD SWAP4 POP POP POP JUMP INVALID LOG2 PUSH5 0x6970667358 0x22 SLT KECCAK256 SAR 0xC SHL EXTCODECOPY 0xFB 0x1F DUP6 0xA5 0xC5 PUSH18 0xEE55C18862158CAF1A8A94D2D19905AEA0F 0xBA PUSH16 0x448264736F6C63430008180033000000 "},"methodIdentifiers":{"DEFAULT_ADMIN_ROLE()":"a217fddf","LOGGER_ROLE()":"7bf0fbde","getRoleAdmin(bytes32)":"248a9ca3","grantRole(bytes32,address)":"2f2ff15d","hasRole(bytes32,address)":"91d14854","logTransaction(address,uint256)":"be69059b","records(uint256)":"34461067","renounceRole(bytes32,address)":"36568abe","revokeRole(bytes32,address)":"d547741f","supportsInterface(bytes4)":"01ffc9a7"}},"storageLayout":{"storage":[{"astId":27,"contract":"contracts/evm/AuditTrail.sol:AuditTrail","label":"_roles","offset":0,"slot":"0","type":"t_mapping(t_bytes32,t_struct(RoleData)22_storage)"},{"astId":1831,"contract":"contracts/evm/AuditTrail.sol:AuditTrail","label":"records","offset":0,"slot":"1","type":"t_array(t_struct(Record)1819_storage)dyn_storage"}],"types":{"t_address":{"encoding":"inplace","label":"address","numberOfBytes":"20"},"t_array(t_struct(Record)1819_storage)dyn_storage":{"base":"t_struct(Record)1819_storage","encoding":"dynamic_array","label":"struct AuditTrail.Record[]","numberOfBytes":"32"},"t_bool":{"encoding":"inplace","label":"bool","numberOfBytes":"1"},"t_bytes32":{"encoding":"inplace","label":"bytes32","numberOfBytes":"32"},"t_mapping(t_address,t_bool)":{"encoding":"mapping","key":"t_address","label":"mapping(address => bool)","numberOfBytes":"32","value":"t_bool"},"t_mapping(t_bytes32,t_struct(RoleData)22_storage)":{"encoding":"mapping","key":"t_bytes32","label":"mapping(bytes32 => struct AccessControl.RoleData)","numberOfBytes":"32","value":"t_struct(RoleData)22_storage"},"t_struct(Record)1819_storage":{"encoding":"inplace","label":"struct AuditTrail.Record","members":[{"astId":1814,"contract":"contracts/evm/AuditTrail.sol:AuditTrail","label":"user","offset":0,"slot":"0","type":"t_address"},{"astId":1816,"contract":"contracts/evm/AuditTrail.sol:AuditTrail","label":"amount","offset":0,"slot":"1","type":"t_uint256"},{"astId":1818,"contract":"contracts/evm/AuditTrail.sol:AuditTrail","label":"timestamp","offset":0,"slot":"2","type":"t_uint256"}],"numberOfBytes":"96"},"t_struct(RoleData)22_storage":{"encoding":"inplace","label":"struct AccessControl.RoleData","members":[{"astId":19,"contract":"contracts/evm/AuditTrail.sol:AuditTrail","label":"hasRole","offset":0,"slot":"0","type":"t_mapping(t_address,t_bool)"},{"astId":21,"contract":"contracts/evm/AuditTrail.sol:AuditTrail","label":"adminRole","offset":0,"slot":"1","type":"t_bytes32"}],"numberOfBytes":"64"},"t_uint256":{"encoding":"inplace","label":"uint256","numberOfBytes":"32"}}}}}}