{"contracts/evm/AffiliateRouter.sol":{"AffiliateRouter":{"abi":[{"inputs":[{"internalType":"address","name":"token","type":"address"}],"stateMutability":"nonpayable","type":"constructor"},{"inputs":[{"internalType":"address","name":"owner","type":"address"}],"name":"OwnableInvalidOwner","type":"error"},{"inputs":[{"internalType":"address","name":"account","type":"address"}],"name":"OwnableUnauthorizedAccount","type":"error"},{"anonymous":false,"inputs":[{"indexed":true,"internalType":"address","name":"previousOwner","type":"address"},{"indexed":true,"internalType":"address","name":"newOwner","type":"address"}],"name":"OwnershipTransferred","type":"event"},{"inputs":[{"internalType":"address","name":"","type":"address"}],"name":"balances","outputs":[{"internalType":"uint256","name":"","type":"uint256"}],"stateMutability":"view","type":"function"},{"inputs":[],"name":"claim","outputs":[],"stateMutability":"nonpayable","type":"function"},{"inputs":[],"name":"owner","outputs":[{"internalType":"address","name":"","type":"address"}],"stateMutability":"view","type":"function"},{"inputs":[],"name":"paymentToken","outputs":[{"internalType":"contract IERC20","name":"","type":"address"}],"stateMutability":"view","type":"function"},{"inputs":[{"internalType":"address","name":"referrer","type":"address"},{"internalType":"uint256","name":"amount","type":"uint256"}],"name":"recordCommission","outputs":[],"stateMutability":"nonpayable","type":"function"},{"inputs":[],"name":"renounceOwnership","outputs":[],"stateMutability":"nonpayable","type":"function"},{"inputs":[{"internalType":"address","name":"newOwner","type":"address"}],"name":"transferOwnership","outputs":[],"stateMutability":"nonpayable","type":"function"}],"evm":{"bytecode":{"linkReferences":{},"object":"60a060405234801561001057600080fd5b5060405161056c38038061056c83398101604081905261002f916100c0565b338061005557604051631e4fbdf760e01b81526000600482015260240160405180910390fd5b61005e81610070565b506001600160a01b03166080526100f0565b600080546001600160a01b038381166001600160a01b0319831681178455604051919092169283917f8be0079c531659141344cd1fd0a4f28419497f9722a3daafe3b4186f6b6457e09190a35050565b6000602082840312156100d257600080fd5b81516001600160a01b03811681146100e957600080fd5b9392505050565b60805161045b6101116000396000818160ba01526101c1015261045b6000f3fe608060405234801561001057600080fd5b506004361061007d5760003560e01c8063715018a61161005b578063715018a6146100fe5780638d3d3323146101065780638da5cb5b14610119578063f2fde38b1461012a57600080fd5b806327e235e3146100825780633013ce29146100b55780634e71d92d146100f4575b600080fd5b6100a2610090366004610390565b60016020526000908152604090205481565b6040519081526020015b60405180910390f35b6100dc7f000000000000000000000000000000000000000000000000000000000000000081565b6040516001600160a01b0390911681526020016100ac565b6100fc61013d565b005b6100fc61026f565b6100fc6101143660046103b2565b610283565b6000546001600160a01b03166100dc565b6100fc610138366004610390565b6102bc565b33600090815260016020526040902054806101895760405162461bcd60e51b81526020600482015260076024820152666e6f7468696e6760c81b60448201526064015b60405180910390fd5b33600081815260016020526040808220919091555163a9059cbb60e01b81526004810191909152602481018290526001600160a01b037f0000000000000000000000000000000000000000000000000000000000000000169063a9059cbb906044016020604051808303816000875af115801561020a573d6000803e3d6000fd5b505050506040513d601f19601f8201168201806040525081019061022e91906103dc565b61026c5760405162461bcd60e51b815260206004820152600f60248201526e1d1c985b9cd9995c8819985a5b1959608a1b6044820152606401610180565b50565b6102776102f7565b6102816000610324565b565b61028b6102f7565b6001600160a01b038216600090815260016020526040812080548392906102b39084906103fe565b90915550505050565b6102c46102f7565b6001600160a01b0381166102ee57604051631e4fbdf760e01b815260006004820152602401610180565b61026c81610324565b6000546001600160a01b031633146102815760405163118cdaa760e01b8152336004820152602401610180565b600080546001600160a01b038381166001600160a01b0319831681178455604051919092169283917f8be0079c531659141344cd1fd0a4f28419497f9722a3daafe3b4186f6b6457e09190a35050565b80356001600160a01b038116811461038b57600080fd5b919050565b6000602082840312156103a257600080fd5b6103ab82610374565b9392505050565b600080604083850312156103c557600080fd5b6103ce83610374565b946020939093013593505050565b6000602082840312156103ee57600080fd5b815180151581146103ab57600080fd5b8082018082111561041f57634e487b7160e01b600052601160045260246000fd5b9291505056fea2646970667358221220a9adc442e39a38d7930f53497b90850936bf7235b9590258597506913fd489f864736f6c63430008180033","opcodes":"PUSH1 0xA0 PUSH1 0x40 MSTORE CALLVALUE DUP1 ISZERO PUSH2 0x10 JUMPI PUSH1 0x0 DUP1 REVERT JUMPDEST POP PUSH1 0x40 MLOAD PUSH2 0x56C CODESIZE SUB DUP1 PUSH2 0x56C DUP4 CODECOPY DUP2 ADD PUSH1 0x40 DUP2 SWAP1 MSTORE PUSH2 0x2F SWAP2 PUSH2 0xC0 JUMP JUMPDEST CALLER DUP1 PUSH2 0x55 JUMPI PUSH1 0x40 MLOAD PUSH4 0x1E4FBDF7 PUSH1 0xE0 SHL DUP2 MSTORE PUSH1 0x0 PUSH1 0x4 DUP3 ADD MSTORE PUSH1 0x24 ADD PUSH1 0x40 MLOAD DUP1 SWAP2 SUB SWAP1 REVERT JUMPDEST PUSH2 0x5E DUP2 PUSH2 0x70 JUMP JUMPDEST POP PUSH1 0x1 PUSH1 0x1 PUSH1 0xA0 SHL SUB AND PUSH1 0x80 MSTORE PUSH2 0xF0 JUMP JUMPDEST PUSH1 0x0 DUP1 SLOAD PUSH1 0x1 PUSH1 0x1 PUSH1 0xA0 SHL SUB DUP4 DUP2 AND PUSH1 0x1 PUSH1 0x1 PUSH1 0xA0 SHL SUB NOT DUP4 AND DUP2 OR DUP5 SSTORE PUSH1 0x40 MLOAD SWAP2 SWAP1 SWAP3 AND SWAP3 DUP4 SWAP2 PUSH32 0x8BE0079C531659141344CD1FD0A4F28419497F9722A3DAAFE3B4186F6B6457E0 SWAP2 SWAP1 LOG3 POP POP JUMP JUMPDEST PUSH1 0x0 PUSH1 0x20 DUP3 DUP5 SUB SLT ISZERO PUSH2 0xD2 JUMPI PUSH1 0x0 DUP1 REVERT JUMPDEST DUP2 MLOAD PUSH1 0x1 PUSH1 0x1 PUSH1 0xA0 SHL SUB DUP2 AND DUP2 EQ PUSH2 0xE9 JUMPI PUSH1 0x0 DUP1 REVERT JUMPDEST SWAP4 SWAP3 POP POP POP JUMP JUMPDEST PUSH1 0x80 MLOAD PUSH2 0x45B PUSH2 0x111 PUSH1 0x0 CODECOPY PUSH1 0x0 DUP2 DUP2 PUSH1 0xBA ADD MSTORE PUSH2 0x1C1 ADD MSTORE PUSH2 0x45B PUSH1 0x0 RETURN INVALID PUSH1 0x80 PUSH1 0x40 MSTORE CALLVALUE DUP1 ISZERO PUSH2 0x10 JUMPI PUSH1 0x0 DUP1 REVERT JUMPDEST POP PUSH1 0x4 CALLDATASIZE LT PUSH2 0x7D JUMPI PUSH1 0x0 CALLDATALOAD PUSH1 0xE0 SHR DUP1 PUSH4 0x715018A6 GT PUSH2 0x5B JUMPI DUP1 PUSH4 0x715018A6 EQ PUSH2 0xFE JUMPI DUP1 PUSH4 0x8D3D3323 EQ PUSH2 0x106 JUMPI DUP1 PUSH4 0x8DA5CB5B EQ PUSH2 0x119 JUMPI DUP1 PUSH4 0xF2FDE38B EQ PUSH2 0x12A JUMPI PUSH1 0x0 DUP1 REVERT JUMPDEST DUP1 PUSH4 0x27E235E3 EQ PUSH2 0x82 JUMPI DUP1 PUSH4 0x3013CE29 EQ PUSH2 0xB5 JUMPI DUP1 PUSH4 0x4E71D92D EQ PUSH2 0xF4 JUMPI JUMPDEST PUSH1 0x0 DUP1 REVERT JUMPDEST PUSH2 0xA2 PUSH2 0x90 CALLDATASIZE PUSH1 0x4 PUSH2 0x390 JUMP JUMPDEST PUSH1 0x1 PUSH1 0x20 MSTORE PUSH1 0x0 SWAP1 DUP2 MSTORE PUSH1 0x40 SWAP1 KECCAK256 SLOAD DUP2 JUMP JUMPDEST PUSH1 0x40 MLOAD SWAP1 DUP2 MSTORE PUSH1 0x20 ADD JUMPDEST PUSH1 0x40 MLOAD DUP1 SWAP2 SUB SWAP1 RETURN JUMPDEST PUSH2 0xDC PUSH32 0x0 DUP2 JUMP JUMPDEST PUSH1 0x40 MLOAD PUSH1 0x1 PUSH1 0x1 PUSH1 0xA0 SHL SUB SWAP1 SWAP2 AND DUP2 MSTORE PUSH1 0x20 ADD PUSH2 0xAC JUMP JUMPDEST PUSH2 0xFC PUSH2 0x13D JUMP JUMPDEST STOP JUMPDEST PUSH2 0xFC PUSH2 0x26F JUMP JUMPDEST PUSH2 0xFC PUSH2 0x114 CALLDATASIZE PUSH1 0x4 PUSH2 0x3B2 JUMP JUMPDEST PUSH2 0x283 JUMP JUMPDEST PUSH1 0x0 SLOAD PUSH1 0x1 PUSH1 0x1 PUSH1 0xA0 SHL SUB AND PUSH2 0xDC JUMP JUMPDEST PUSH2 0xFC PUSH2 0x138 CALLDATASIZE PUSH1 0x4 PUSH2 0x390 JUMP JUMPDEST PUSH2 0x2BC JUMP JUMPDEST CALLER PUSH1 0x0 SWAP1 DUP2 MSTORE PUSH1 0x1 PUSH1 0x20 MSTORE PUSH1 0x40 SWAP1 KECCAK256 SLOAD DUP1 PUSH2 0x189 JUMPI PUSH1 0x40 MLOAD PUSH3 0x461BCD PUSH1 0xE5 SHL DUP2 MSTORE PUSH1 0x20 PUSH1 0x4 DUP3 ADD MSTORE PUSH1 0x7 PUSH1 0x24 DUP3 ADD MSTORE PUSH7 0x6E6F7468696E67 PUSH1 0xC8 SHL PUSH1 0x44 DUP3 ADD MSTORE PUSH1 0x64 ADD JUMPDEST PUSH1 0x40 MLOAD DUP1 SWAP2 SUB SWAP1 REVERT JUMPDEST CALLER PUSH1 0x0 DUP2 DUP2 MSTORE PUSH1 0x1 PUSH1 0x20 MSTORE PUSH1 0x40 DUP1 DUP3 KECCAK256 SWAP2 SWAP1 SWAP2 SSTORE MLOAD PUSH4 0xA9059CBB PUSH1 0xE0 SHL DUP2 MSTORE PUSH1 0x4 DUP2 ADD SWAP2 SWAP1 SWAP2 MSTORE PUSH1 0x24 DUP2 ADD DUP3 SWAP1 MSTORE PUSH1 0x1 PUSH1 0x1 PUSH1 0xA0 SHL SUB PUSH32 0x0 AND SWAP1 PUSH4 0xA9059CBB SWAP1 PUSH1 0x44 ADD PUSH1 0x20 PUSH1 0x40 MLOAD DUP1 DUP4 SUB DUP2 PUSH1 0x0 DUP8 GAS CALL ISZERO DUP1 ISZERO PUSH2 0x20A JUMPI RETURNDATASIZE PUSH1 0x0 DUP1 RETURNDATACOPY RETURNDATASIZE PUSH1 0x0 REVERT JUMPDEST POP POP POP POP PUSH1 0x40 MLOAD RETURNDATASIZE PUSH1 0x1F NOT PUSH1 0x1F DUP3 ADD AND DUP3 ADD DUP1 PUSH1 0x40 MSTORE POP DUP2 ADD SWAP1 PUSH2 0x22E SWAP2 SWAP1 PUSH2 0x3DC JUMP JUMPDEST PUSH2 0x26C JUMPI PUSH1 0x40 MLOAD PUSH3 0x461BCD PUSH1 0xE5 SHL DUP2 MSTORE PUSH1 0x20 PUSH1 0x4 DUP3 ADD MSTORE PUSH1 0xF PUSH1 0x24 DUP3 ADD MSTORE PUSH15 0x1D1C985B9CD9995C8819985A5B1959 PUSH1 0x8A SHL PUSH1 0x44 DUP3 ADD MSTORE PUSH1 0x64 ADD PUSH2 0x180 JUMP JUMPDEST POP JUMP JUMPDEST PUSH2 0x277 PUSH2 0x2F7 JUMP JUMPDEST PUSH2 0x281 PUSH1 0x0 PUSH2 0x324 JUMP JUMPDEST JUMP JUMPDEST PUSH2 0x28B PUSH2 0x2F7 JUMP JUMPDEST PUSH1 0x1 PUSH1 0x1 PUSH1 0xA0 SHL SUB DUP3 AND PUSH1 0x0 SWAP1 DUP2 MSTORE PUSH1 0x1 PUSH1 0x20 MSTORE PUSH1 0x40 DUP2 KECCAK256 DUP1 SLOAD DUP4 SWAP3 SWAP1 PUSH2 0x2B3 SWAP1 DUP5 SWAP1 PUSH2 0x3FE JUMP JUMPDEST SWAP1 SWAP2 SSTORE POP POP POP POP JUMP JUMPDEST PUSH2 0x2C4 PUSH2 0x2F7 JUMP JUMPDEST PUSH1 0x1 PUSH1 0x1 PUSH1 0xA0 SHL SUB DUP2 AND PUSH2 0x2EE JUMPI PUSH1 0x40 MLOAD PUSH4 0x1E4FBDF7 PUSH1 0xE0 SHL DUP2 MSTORE PUSH1 0x0 PUSH1 0x4 DUP3 ADD MSTORE PUSH1 0x24 ADD PUSH2 0x180 JUMP JUMPDEST PUSH2 0x26C DUP2 PUSH2 0x324 JUMP JUMPDEST PUSH1 0x0 SLOAD PUSH1 0x1 PUSH1 0x1 PUSH1 0xA0 SHL SUB AND CALLER EQ PUSH2 0x281 JUMPI PUSH1 0x40 MLOAD PUSH4 0x118CDAA7 PUSH1 0xE0 SHL DUP2 MSTORE CALLER PUSH1 0x4 DUP3 ADD MSTORE PUSH1 0x24 ADD PUSH2 0x180 JUMP JUMPDEST PUSH1 0x0 DUP1 SLOAD PUSH1 0x1 PUSH1 0x1 PUSH1 0xA0 SHL SUB DUP4 DUP2 AND PUSH1 0x1 PUSH1 0x1 PUSH1 0xA0 SHL SUB NOT DUP4 AND DUP2 OR DUP5 SSTORE PUSH1 0x40 MLOAD SWAP2 SWAP1 SWAP3 AND SWAP3 DUP4 SWAP2 PUSH32 0x8BE0079C531659141344CD1FD0A4F28419497F9722A3DAAFE3B4186F6B6457E0 SWAP2 SWAP1 LOG3 POP POP JUMP JUMPDEST DUP1 CALLDATALOAD PUSH1 0x1 PUSH1 0x1 PUSH1 0xA0 SHL SUB DUP2 AND DUP2 EQ PUSH2 0x38B JUMPI PUSH1 0x0 DUP1 REVERT JUMPDEST SWAP2 SWAP1 POP JUMP JUMPDEST PUSH1 0x0 PUSH1 0x20 DUP3 DUP5 SUB SLT ISZERO PUSH2 0x3A2 JUMPI PUSH1 0x0 DUP1 REVERT JUMPDEST PUSH2 0x3AB DUP3 PUSH2 0x374 JUMP JUMPDEST SWAP4 SWAP3 POP POP POP JUMP JUMPDEST PUSH1 0x0 DUP1 PUSH1 0x40 DUP4 DUP6 SUB SLT ISZERO PUSH2 0x3C5 JUMPI PUSH1 0x0 DUP1 REVERT JUMPDEST PUSH2 0x3CE DUP4 PUSH2 0x374 JUMP JUMPDEST SWAP5 PUSH1 0x20 SWAP4 SWAP1 SWAP4 ADD CALLDATALOAD SWAP4 POP POP POP JUMP JUMPDEST PUSH1 0x0 PUSH1 0x20 DUP3 DUP5 SUB SLT ISZERO PUSH2 0x3EE JUMPI PUSH1 0x0 DUP1 REVERT JUMPDEST DUP2 MLOAD DUP1 ISZERO ISZERO DUP2 EQ PUSH2 0x3AB JUMPI PUSH1 0x0 DUP1 REVERT JUMPDEST DUP1 DUP3 ADD DUP1 DUP3 GT ISZERO PUSH2 0x41F JUMPI PUSH4 0x4E487B71 PUSH1 0xE0 SHL PUSH1 0x0 MSTORE PUSH1 0x11 PUSH1 0x4 MSTORE PUSH1 0x24 PUSH1 0x0 REVERT JUMPDEST SWAP3 SWAP2 POP POP JUMP INVALID LOG2 PUSH5 0x6970667358 0x22 SLT KECCAK256 0xA9 0xAD 0xC4 TIMESTAMP 0xE3 SWAP11 CODESIZE 0xD7 SWAP4 0xF MSTORE8 BLOBHASH PUSH28 0x90850936BF7235B9590258597506913FD489F864736F6C6343000818 STOP CALLER "},"methodIdentifiers":{"balances(address)":"27e235e3","claim()":"4e71d92d","owner()":"8da5cb5b","paymentToken()":"3013ce29","recordCommission(address,uint256)":"8d3d3323","renounceOwnership()":"715018a6","transferOwnership(address)":"f2fde38b"}},"storageLayout":{"storage":[{"astId":388,"contract":"contracts/evm/AffiliateRouter.sol:AffiliateRouter","label":"_owner","offset":0,"slot":"0","type":"t_address"},{"astId":1734,"contract":"contracts/evm/AffiliateRouter.sol:AffiliateRouter","label":"balances","offset":0,"slot":"1","type":"t_mapping(t_address,t_uint256)"}],"types":{"t_address":{"encoding":"inplace","label":"address","numberOfBytes":"20"},"t_mapping(t_address,t_uint256)":{"encoding":"mapping","key":"t_address","label":"mapping(address => uint256)","numberOfBytes":"32","value":"t_uint256"},"t_uint256":{"encoding":"inplace","label":"uint256","numberOfBytes":"32"}}}}}}