{
  "_format": "hh-sol-artifact-1",
  "contractName": "VTV",
  "sourceName": "contracts/evm/VTV.sol",
  "abi": [
    {
      "inputs": [],
      "stateMutability": "nonpayable",
      "type": "constructor"
    },
    {
      "inputs": [
        {
          "internalType": "address",
          "name": "spender",
          "type": "address"
        },
        {
          "internalType": "uint256",
          "name": "allowance",
          "type": "uint256"
        },
        {
          "internalType": "uint256",
          "name": "needed",
          "type": "uint256"
        }
      ],
      "name": "ERC20InsufficientAllowance",
      "type": "error"
    },
    {
      "inputs": [
        {
          "internalType": "address",
          "name": "sender",
          "type": "address"
        },
        {
          "internalType": "uint256",
          "name": "balance",
          "type": "uint256"
        },
        {
          "internalType": "uint256",
          "name": "needed",
          "type": "uint256"
        }
      ],
      "name": "ERC20InsufficientBalance",
      "type": "error"
    },
    {
      "inputs": [
        {
          "internalType": "address",
          "name": "approver",
          "type": "address"
        }
      ],
      "name": "ERC20InvalidApprover",
      "type": "error"
    },
    {
      "inputs": [
        {
          "internalType": "address",
          "name": "receiver",
          "type": "address"
        }
      ],
      "name": "ERC20InvalidReceiver",
      "type": "error"
    },
    {
      "inputs": [
        {
          "internalType": "address",
          "name": "sender",
          "type": "address"
        }
      ],
      "name": "ERC20InvalidSender",
      "type": "error"
    },
    {
      "inputs": [
        {
          "internalType": "address",
          "name": "spender",
          "type": "address"
        }
      ],
      "name": "ERC20InvalidSpender",
      "type": "error"
    },
    {
      "inputs": [],
      "name": "EnforcedPause",
      "type": "error"
    },
    {
      "inputs": [],
      "name": "ExpectedPause",
      "type": "error"
    },
    {
      "inputs": [
        {
          "internalType": "address",
          "name": "owner",
          "type": "address"
        }
      ],
      "name": "OwnableInvalidOwner",
      "type": "error"
    },
    {
      "inputs": [
        {
          "internalType": "address",
          "name": "account",
          "type": "address"
        }
      ],
      "name": "OwnableUnauthorizedAccount",
      "type": "error"
    },
    {
      "anonymous": false,
      "inputs": [
        {
          "indexed": true,
          "internalType": "address",
          "name": "owner",
          "type": "address"
        },
        {
          "indexed": true,
          "internalType": "address",
          "name": "spender",
          "type": "address"
        },
        {
          "indexed": false,
          "internalType": "uint256",
          "name": "value",
          "type": "uint256"
        }
      ],
      "name": "Approval",
      "type": "event"
    },
    {
      "anonymous": false,
      "inputs": [
        {
          "indexed": true,
          "internalType": "address",
          "name": "previousOwner",
          "type": "address"
        },
        {
          "indexed": true,
          "internalType": "address",
          "name": "newOwner",
          "type": "address"
        }
      ],
      "name": "OwnershipTransferred",
      "type": "event"
    },
    {
      "anonymous": false,
      "inputs": [
        {
          "indexed": false,
          "internalType": "address",
          "name": "account",
          "type": "address"
        }
      ],
      "name": "Paused",
      "type": "event"
    },
    {
      "anonymous": false,
      "inputs": [
        {
          "indexed": true,
          "internalType": "address",
          "name": "from",
          "type": "address"
        },
        {
          "indexed": true,
          "internalType": "address",
          "name": "to",
          "type": "address"
        },
        {
          "indexed": false,
          "internalType": "uint256",
          "name": "value",
          "type": "uint256"
        }
      ],
      "name": "Transfer",
      "type": "event"
    },
    {
      "anonymous": false,
      "inputs": [
        {
          "indexed": false,
          "internalType": "address",
          "name": "account",
          "type": "address"
        }
      ],
      "name": "Unpaused",
      "type": "event"
    },
    {
      "inputs": [
        {
          "internalType": "address",
          "name": "owner",
          "type": "address"
        },
        {
          "internalType": "address",
          "name": "spender",
          "type": "address"
        }
      ],
      "name": "allowance",
      "outputs": [
        {
          "internalType": "uint256",
          "name": "",
          "type": "uint256"
        }
      ],
      "stateMutability": "view",
      "type": "function"
    },
    {
      "inputs": [
        {
          "internalType": "address",
          "name": "spender",
          "type": "address"
        },
        {
          "internalType": "uint256",
          "name": "value",
          "type": "uint256"
        }
      ],
      "name": "approve",
      "outputs": [
        {
          "internalType": "bool",
          "name": "",
          "type": "bool"
        }
      ],
      "stateMutability": "nonpayable",
      "type": "function"
    },
    {
      "inputs": [
        {
          "internalType": "address",
          "name": "account",
          "type": "address"
        }
      ],
      "name": "balanceOf",
      "outputs": [
        {
          "internalType": "uint256",
          "name": "",
          "type": "uint256"
        }
      ],
      "stateMutability": "view",
      "type": "function"
    },
    {
      "inputs": [
        {
          "internalType": "uint256",
          "name": "value",
          "type": "uint256"
        }
      ],
      "name": "burn",
      "outputs": [],
      "stateMutability": "nonpayable",
      "type": "function"
    },
    {
      "inputs": [
        {
          "internalType": "address",
          "name": "account",
          "type": "address"
        },
        {
          "internalType": "uint256",
          "name": "value",
          "type": "uint256"
        }
      ],
      "name": "burnFrom",
      "outputs": [],
      "stateMutability": "nonpayable",
      "type": "function"
    },
    {
      "inputs": [],
      "name": "decimals",
      "outputs": [
        {
          "internalType": "uint8",
          "name": "",
          "type": "uint8"
        }
      ],
      "stateMutability": "view",
      "type": "function"
    },
    {
      "inputs": [],
      "name": "name",
      "outputs": [
        {
          "internalType": "string",
          "name": "",
          "type": "string"
        }
      ],
      "stateMutability": "view",
      "type": "function"
    },
    {
      "inputs": [],
      "name": "owner",
      "outputs": [
        {
          "internalType": "address",
          "name": "",
          "type": "address"
        }
      ],
      "stateMutability": "view",
      "type": "function"
    },
    {
      "inputs": [],
      "name": "pause",
      "outputs": [],
      "stateMutability": "nonpayable",
      "type": "function"
    },
    {
      "inputs": [],
      "name": "paused",
      "outputs": [
        {
          "internalType": "bool",
          "name": "",
          "type": "bool"
        }
      ],
      "stateMutability": "view",
      "type": "function"
    },
    {
      "inputs": [],
      "name": "renounceOwnership",
      "outputs": [],
      "stateMutability": "nonpayable",
      "type": "function"
    },
    {
      "inputs": [],
      "name": "symbol",
      "outputs": [
        {
          "internalType": "string",
          "name": "",
          "type": "string"
        }
      ],
      "stateMutability": "view",
      "type": "function"
    },
    {
      "inputs": [],
      "name": "totalSupply",
      "outputs": [
        {
          "internalType": "uint256",
          "name": "",
          "type": "uint256"
        }
      ],
      "stateMutability": "view",
      "type": "function"
    },
    {
      "inputs": [
        {
          "internalType": "address",
          "name": "to",
          "type": "address"
        },
        {
          "internalType": "uint256",
          "name": "value",
          "type": "uint256"
        }
      ],
      "name": "transfer",
      "outputs": [
        {
          "internalType": "bool",
          "name": "",
          "type": "bool"
        }
      ],
      "stateMutability": "nonpayable",
      "type": "function"
    },
    {
      "inputs": [
        {
          "internalType": "address",
          "name": "from",
          "type": "address"
        },
        {
          "internalType": "address",
          "name": "to",
          "type": "address"
        },
        {
          "internalType": "uint256",
          "name": "value",
          "type": "uint256"
        }
      ],
      "name": "transferFrom",
      "outputs": [
        {
          "internalType": "bool",
          "name": "",
          "type": "bool"
        }
      ],
      "stateMutability": "nonpayable",
      "type": "function"
    },
    {
      "inputs": [
        {
          "internalType": "address",
          "name": "newOwner",
          "type": "address"
        }
      ],
      "name": "transferOwnership",
      "outputs": [],
      "stateMutability": "nonpayable",
      "type": "function"
    },
    {
      "inputs": [],
      "name": "unpause",
      "outputs": [],
      "stateMutability": "nonpayable",
      "type": "function"
    }
  ],
  "bytecode": "0x60806040523480156200001157600080fd5b506040805180820182526003808252622b2a2b60e91b602080840182905284518086019095528285528401523392906200004c83826200036a565b5060046200005b82826200036a565b5050506001600160a01b0381166200008e57604051631e4fbdf760e01b8152600060048201526024015b60405180910390fd5b6200009981620000b6565b50620000b03369d3c21bcecceda100000062000110565b6200045e565b600580546001600160a01b03838116610100818102610100600160a81b031985161790945560405193909204169182907f8be0079c531659141344cd1fd0a4f28419497f9722a3daafe3b4186f6b6457e090600090a35050565b6001600160a01b0382166200013c5760405163ec442f0560e01b81526000600482015260240162000085565b6200014a600083836200014e565b5050565b620001586200016a565b6200016583838362000191565b505050565b60055460ff16156200018f5760405163d93c066560e01b815260040160405180910390fd5b565b6001600160a01b038316620001c0578060026000828254620001b4919062000436565b90915550620002349050565b6001600160a01b03831660009081526020819052604090205481811015620002155760405163391434e360e21b81526001600160a01b0385166004820152602481018290526044810183905260640162000085565b6001600160a01b03841660009081526020819052604090209082900390555b6001600160a01b038216620002525760028054829003905562000271565b6001600160a01b03821660009081526020819052604090208054820190555b816001600160a01b0316836001600160a01b03167fddf252ad1be2c89b69c2b068fc378daa952ba7f163c4a11628f55a4df523b3ef83604051620002b791815260200190565b60405180910390a3505050565b634e487b7160e01b600052604160045260246000fd5b600181811c90821680620002ef57607f821691505b6020821081036200031057634e487b7160e01b600052602260045260246000fd5b50919050565b601f82111562000165576000816000526020600020601f850160051c81016020861015620003415750805b601f850160051c820191505b8181101562000362578281556001016200034d565b505050505050565b81516001600160401b03811115620003865762000386620002c4565b6200039e81620003978454620002da565b8462000316565b602080601f831160018114620003d65760008415620003bd5750858301515b600019600386901b1c1916600185901b17855562000362565b600085815260208120601f198616915b828110156200040757888601518255948401946001909101908401620003e6565b5085821015620004265787850151600019600388901b60f8161c191681555b5050505050600190811b01905550565b808201808211156200045857634e487b7160e01b600052601160045260246000fd5b92915050565b610a7b806200046e6000396000f3fe608060405234801561001057600080fd5b506004361061010b5760003560e01c806370a08231116100a25780638da5cb5b116100715780638da5cb5b146101f957806395d89b4114610222578063a9059cbb1461022a578063dd62ed3e1461023d578063f2fde38b1461027657600080fd5b806370a08231146101ad578063715018a6146101d657806379cc6790146101de5780638456cb59146101f157600080fd5b8063313ce567116100de578063313ce567146101765780633f4ba83a1461018557806342966c681461018f5780635c975abb146101a257600080fd5b806306fdde0314610110578063095ea7b31461012e57806318160ddd1461015157806323b872dd14610163575b600080fd5b610118610289565b60405161012591906108ab565b60405180910390f35b61014161013c366004610916565b61031b565b6040519015158152602001610125565b6002545b604051908152602001610125565b610141610171366004610940565b610335565b60405160128152602001610125565b61018d610359565b005b61018d61019d36600461097c565b61036b565b60055460ff16610141565b6101556101bb366004610995565b6001600160a01b031660009081526020819052604090205490565b61018d610378565b61018d6101ec366004610916565b61038a565b61018d6103a3565b60055461010090046001600160a01b03166040516001600160a01b039091168152602001610125565b6101186103b3565b610141610238366004610916565b6103c2565b61015561024b3660046109b7565b6001600160a01b03918216600090815260016020908152604080832093909416825291909152205490565b61018d610284366004610995565b6103d0565b606060038054610298906109ea565b80601f01602080910402602001604051908101604052809291908181526020018280546102c4906109ea565b80156103115780601f106102e657610100808354040283529160200191610311565b820191906000526020600020905b8154815290600101906020018083116102f457829003601f168201915b5050505050905090565b600033610329818585610410565b60019150505b92915050565b600033610343858285610422565b61034e8585856104a1565b506001949350505050565b610361610500565b610369610533565b565b6103753382610585565b50565b610380610500565b61036960006105bb565b610395823383610422565b61039f8282610585565b5050565b6103ab610500565b610369610615565b606060048054610298906109ea565b6000336103298185856104a1565b6103d8610500565b6001600160a01b03811661040757604051631e4fbdf760e01b8152600060048201526024015b60405180910390fd5b610375816105bb565b61041d8383836001610652565b505050565b6001600160a01b0383811660009081526001602090815260408083209386168352929052205460001981101561049b578181101561048c57604051637dc7a0d960e11b81526001600160a01b038416600482015260248101829052604481018390526064016103fe565b61049b84848484036000610652565b50505050565b6001600160a01b0383166104cb57604051634b637e8f60e11b8152600060048201526024016103fe565b6001600160a01b0382166104f55760405163ec442f0560e01b8152600060048201526024016103fe565b61041d838383610727565b6005546001600160a01b036101009091041633146103695760405163118cdaa760e01b81523360048201526024016103fe565b61053b61073a565b6005805460ff191690557f5db9ee0a495bf2e6ff9c91a7834c1ba4fdd244a5e8aa4e537bd38aeae4b073aa335b6040516001600160a01b03909116815260200160405180910390a1565b6001600160a01b0382166105af57604051634b637e8f60e11b8152600060048201526024016103fe565b61039f82600083610727565b600580546001600160a01b03838116610100818102610100600160a81b031985161790945560405193909204169182907f8be0079c531659141344cd1fd0a4f28419497f9722a3daafe3b4186f6b6457e090600090a35050565b61061d61075d565b6005805460ff191660011790557f62e78cea01bee320cd4e420270b5ea74000d11b0c9f74754ebdbfc544b05a2586105683390565b6001600160a01b03841661067c5760405163e602df0560e01b8152600060048201526024016103fe565b6001600160a01b0383166106a657604051634a1406b160e11b8152600060048201526024016103fe565b6001600160a01b038085166000908152600160209081526040808320938716835292905220829055801561049b57826001600160a01b0316846001600160a01b03167f8c5be1e5ebec7d5bd14f71427d1e84f3dd0314c0f7b2291e5b200ac8c7c3b9258460405161071991815260200190565b60405180910390a350505050565b61072f61075d565b61041d838383610781565b60055460ff1661036957604051638dfc202b60e01b815260040160405180910390fd5b60055460ff16156103695760405163d93c066560e01b815260040160405180910390fd5b6001600160a01b0383166107ac5780600260008282546107a19190610a24565b9091555061081e9050565b6001600160a01b038316600090815260208190526040902054818110156107ff5760405163391434e360e21b81526001600160a01b038516600482015260248101829052604481018390526064016103fe565b6001600160a01b03841660009081526020819052604090209082900390555b6001600160a01b03821661083a57600280548290039055610859565b6001600160a01b03821660009081526020819052604090208054820190555b816001600160a01b0316836001600160a01b03167fddf252ad1be2c89b69c2b068fc378daa952ba7f163c4a11628f55a4df523b3ef8360405161089e91815260200190565b60405180910390a3505050565b60006020808352835180602085015260005b818110156108d9578581018301518582016040015282016108bd565b506000604082860101526040601f19601f8301168501019250505092915050565b80356001600160a01b038116811461091157600080fd5b919050565b6000806040838503121561092957600080fd5b610932836108fa565b946020939093013593505050565b60008060006060848603121561095557600080fd5b61095e846108fa565b925061096c602085016108fa565b9150604084013590509250925092565b60006020828403121561098e57600080fd5b5035919050565b6000602082840312156109a757600080fd5b6109b0826108fa565b9392505050565b600080604083850312156109ca57600080fd5b6109d3836108fa565b91506109e1602084016108fa565b90509250929050565b600181811c908216806109fe57607f821691505b602082108103610a1e57634e487b7160e01b600052602260045260246000fd5b50919050565b8082018082111561032f57634e487b7160e01b600052601160045260246000fdfea2646970667358221220ae2d66cda8c582415dee7e4296d69acf6506304e8e7d70d4024c46d7151b351264736f6c63430008180033",
  "linkReferences": {},
  "deployedLinkReferences": {}
}