{
  "_format": "hh-sol-artifact-1",
  "contractName": "UnykornGovernance",
  "sourceName": "contracts/evm/UnykornGovernance.sol",
  "abi": [
    {
      "inputs": [
        {
          "internalType": "address",
          "name": "_token",
          "type": "address"
        },
        {
          "internalType": "address",
          "name": "admin",
          "type": "address"
        }
      ],
      "stateMutability": "nonpayable",
      "type": "constructor"
    },
    {
      "inputs": [],
      "name": "AccessControlBadConfirmation",
      "type": "error"
    },
    {
      "inputs": [
        {
          "internalType": "address",
          "name": "account",
          "type": "address"
        },
        {
          "internalType": "bytes32",
          "name": "neededRole",
          "type": "bytes32"
        }
      ],
      "name": "AccessControlUnauthorizedAccount",
      "type": "error"
    },
    {
      "inputs": [],
      "name": "ReentrancyGuardReentrantCall",
      "type": "error"
    },
    {
      "anonymous": false,
      "inputs": [
        {
          "indexed": true,
          "internalType": "uint256",
          "name": "proposalId",
          "type": "uint256"
        },
        {
          "indexed": true,
          "internalType": "address",
          "name": "signer",
          "type": "address"
        }
      ],
      "name": "ExecutionSigned",
      "type": "event"
    },
    {
      "anonymous": false,
      "inputs": [
        {
          "indexed": true,
          "internalType": "uint256",
          "name": "proposalId",
          "type": "uint256"
        }
      ],
      "name": "ProposalCancelled",
      "type": "event"
    },
    {
      "anonymous": false,
      "inputs": [
        {
          "indexed": true,
          "internalType": "uint256",
          "name": "proposalId",
          "type": "uint256"
        },
        {
          "indexed": true,
          "internalType": "address",
          "name": "proposer",
          "type": "address"
        },
        {
          "indexed": false,
          "internalType": "enum UnykornGovernance.ProposalType",
          "name": "proposalType",
          "type": "uint8"
        },
        {
          "indexed": false,
          "internalType": "string",
          "name": "description",
          "type": "string"
        }
      ],
      "name": "ProposalCreated",
      "type": "event"
    },
    {
      "anonymous": false,
      "inputs": [
        {
          "indexed": true,
          "internalType": "uint256",
          "name": "proposalId",
          "type": "uint256"
        }
      ],
      "name": "ProposalExecuted",
      "type": "event"
    },
    {
      "anonymous": false,
      "inputs": [
        {
          "indexed": true,
          "internalType": "bytes32",
          "name": "role",
          "type": "bytes32"
        },
        {
          "indexed": true,
          "internalType": "bytes32",
          "name": "previousAdminRole",
          "type": "bytes32"
        },
        {
          "indexed": true,
          "internalType": "bytes32",
          "name": "newAdminRole",
          "type": "bytes32"
        }
      ],
      "name": "RoleAdminChanged",
      "type": "event"
    },
    {
      "anonymous": false,
      "inputs": [
        {
          "indexed": true,
          "internalType": "bytes32",
          "name": "role",
          "type": "bytes32"
        },
        {
          "indexed": true,
          "internalType": "address",
          "name": "account",
          "type": "address"
        },
        {
          "indexed": true,
          "internalType": "address",
          "name": "sender",
          "type": "address"
        }
      ],
      "name": "RoleGranted",
      "type": "event"
    },
    {
      "anonymous": false,
      "inputs": [
        {
          "indexed": true,
          "internalType": "bytes32",
          "name": "role",
          "type": "bytes32"
        },
        {
          "indexed": true,
          "internalType": "address",
          "name": "account",
          "type": "address"
        },
        {
          "indexed": true,
          "internalType": "address",
          "name": "sender",
          "type": "address"
        }
      ],
      "name": "RoleRevoked",
      "type": "event"
    },
    {
      "anonymous": false,
      "inputs": [
        {
          "indexed": true,
          "internalType": "bytes32",
          "name": "role",
          "type": "bytes32"
        },
        {
          "indexed": true,
          "internalType": "address",
          "name": "signer",
          "type": "address"
        }
      ],
      "name": "SignerAdded",
      "type": "event"
    },
    {
      "anonymous": false,
      "inputs": [
        {
          "indexed": true,
          "internalType": "address",
          "name": "voter",
          "type": "address"
        },
        {
          "indexed": true,
          "internalType": "uint256",
          "name": "proposalId",
          "type": "uint256"
        },
        {
          "indexed": false,
          "internalType": "bool",
          "name": "support",
          "type": "bool"
        },
        {
          "indexed": false,
          "internalType": "uint256",
          "name": "weight",
          "type": "uint256"
        }
      ],
      "name": "VoteCast",
      "type": "event"
    },
    {
      "inputs": [],
      "name": "DEFAULT_ADMIN_ROLE",
      "outputs": [
        {
          "internalType": "bytes32",
          "name": "",
          "type": "bytes32"
        }
      ],
      "stateMutability": "view",
      "type": "function"
    },
    {
      "inputs": [],
      "name": "EXECUTION_DELAY",
      "outputs": [
        {
          "internalType": "uint256",
          "name": "",
          "type": "uint256"
        }
      ],
      "stateMutability": "view",
      "type": "function"
    },
    {
      "inputs": [],
      "name": "EXECUTOR_ROLE",
      "outputs": [
        {
          "internalType": "bytes32",
          "name": "",
          "type": "bytes32"
        }
      ],
      "stateMutability": "view",
      "type": "function"
    },
    {
      "inputs": [],
      "name": "PROPOSAL_THRESHOLD",
      "outputs": [
        {
          "internalType": "uint256",
          "name": "",
          "type": "uint256"
        }
      ],
      "stateMutability": "view",
      "type": "function"
    },
    {
      "inputs": [],
      "name": "PROPOSER_ROLE",
      "outputs": [
        {
          "internalType": "bytes32",
          "name": "",
          "type": "bytes32"
        }
      ],
      "stateMutability": "view",
      "type": "function"
    },
    {
      "inputs": [],
      "name": "QUORUM_THRESHOLD",
      "outputs": [
        {
          "internalType": "uint256",
          "name": "",
          "type": "uint256"
        }
      ],
      "stateMutability": "view",
      "type": "function"
    },
    {
      "inputs": [],
      "name": "VOTING_PERIOD",
      "outputs": [
        {
          "internalType": "uint256",
          "name": "",
          "type": "uint256"
        }
      ],
      "stateMutability": "view",
      "type": "function"
    },
    {
      "inputs": [
        {
          "internalType": "bytes32",
          "name": "role",
          "type": "bytes32"
        },
        {
          "internalType": "address",
          "name": "signer",
          "type": "address"
        }
      ],
      "name": "addSigner",
      "outputs": [],
      "stateMutability": "nonpayable",
      "type": "function"
    },
    {
      "inputs": [],
      "name": "assetVault",
      "outputs": [
        {
          "internalType": "contract IAssetVault",
          "name": "",
          "type": "address"
        }
      ],
      "stateMutability": "view",
      "type": "function"
    },
    {
      "inputs": [
        {
          "internalType": "uint256",
          "name": "proposalId",
          "type": "uint256"
        }
      ],
      "name": "cancelProposal",
      "outputs": [],
      "stateMutability": "nonpayable",
      "type": "function"
    },
    {
      "inputs": [
        {
          "internalType": "uint256",
          "name": "proposalId",
          "type": "uint256"
        }
      ],
      "name": "executeProposal",
      "outputs": [],
      "stateMutability": "nonpayable",
      "type": "function"
    },
    {
      "inputs": [
        {
          "internalType": "uint256",
          "name": "",
          "type": "uint256"
        }
      ],
      "name": "executionSignatures",
      "outputs": [
        {
          "internalType": "uint256",
          "name": "",
          "type": "uint256"
        }
      ],
      "stateMutability": "view",
      "type": "function"
    },
    {
      "inputs": [
        {
          "internalType": "uint256",
          "name": "proposalId",
          "type": "uint256"
        }
      ],
      "name": "getProposal",
      "outputs": [
        {
          "internalType": "uint256",
          "name": "id",
          "type": "uint256"
        },
        {
          "internalType": "address",
          "name": "proposer",
          "type": "address"
        },
        {
          "internalType": "enum UnykornGovernance.ProposalType",
          "name": "proposalType",
          "type": "uint8"
        },
        {
          "internalType": "string",
          "name": "description",
          "type": "string"
        },
        {
          "internalType": "uint256",
          "name": "forVotes",
          "type": "uint256"
        },
        {
          "internalType": "uint256",
          "name": "againstVotes",
          "type": "uint256"
        },
        {
          "internalType": "uint256",
          "name": "startTime",
          "type": "uint256"
        },
        {
          "internalType": "uint256",
          "name": "endTime",
          "type": "uint256"
        },
        {
          "internalType": "bool",
          "name": "executed",
          "type": "bool"
        },
        {
          "internalType": "bool",
          "name": "cancelled",
          "type": "bool"
        }
      ],
      "stateMutability": "view",
      "type": "function"
    },
    {
      "inputs": [
        {
          "internalType": "bytes32",
          "name": "role",
          "type": "bytes32"
        }
      ],
      "name": "getRoleAdmin",
      "outputs": [
        {
          "internalType": "bytes32",
          "name": "",
          "type": "bytes32"
        }
      ],
      "stateMutability": "view",
      "type": "function"
    },
    {
      "inputs": [
        {
          "internalType": "uint256",
          "name": "proposalId",
          "type": "uint256"
        },
        {
          "internalType": "address",
          "name": "voter",
          "type": "address"
        }
      ],
      "name": "getVoteWeight",
      "outputs": [
        {
          "internalType": "uint256",
          "name": "",
          "type": "uint256"
        }
      ],
      "stateMutability": "view",
      "type": "function"
    },
    {
      "inputs": [
        {
          "internalType": "bytes32",
          "name": "role",
          "type": "bytes32"
        },
        {
          "internalType": "address",
          "name": "account",
          "type": "address"
        }
      ],
      "name": "grantRole",
      "outputs": [],
      "stateMutability": "nonpayable",
      "type": "function"
    },
    {
      "inputs": [
        {
          "internalType": "bytes32",
          "name": "role",
          "type": "bytes32"
        },
        {
          "internalType": "address",
          "name": "account",
          "type": "address"
        }
      ],
      "name": "hasRole",
      "outputs": [
        {
          "internalType": "bool",
          "name": "",
          "type": "bool"
        }
      ],
      "stateMutability": "view",
      "type": "function"
    },
    {
      "inputs": [
        {
          "internalType": "uint256",
          "name": "",
          "type": "uint256"
        },
        {
          "internalType": "address",
          "name": "",
          "type": "address"
        }
      ],
      "name": "hasSignedExecution",
      "outputs": [
        {
          "internalType": "bool",
          "name": "",
          "type": "bool"
        }
      ],
      "stateMutability": "view",
      "type": "function"
    },
    {
      "inputs": [
        {
          "internalType": "uint256",
          "name": "proposalId",
          "type": "uint256"
        },
        {
          "internalType": "address",
          "name": "voter",
          "type": "address"
        }
      ],
      "name": "hasVoted",
      "outputs": [
        {
          "internalType": "bool",
          "name": "",
          "type": "bool"
        }
      ],
      "stateMutability": "view",
      "type": "function"
    },
    {
      "inputs": [
        {
          "internalType": "bytes32",
          "name": "",
          "type": "bytes32"
        },
        {
          "internalType": "address",
          "name": "",
          "type": "address"
        }
      ],
      "name": "isSigner",
      "outputs": [
        {
          "internalType": "bool",
          "name": "",
          "type": "bool"
        }
      ],
      "stateMutability": "view",
      "type": "function"
    },
    {
      "inputs": [],
      "name": "nextProposalId",
      "outputs": [
        {
          "internalType": "uint256",
          "name": "",
          "type": "uint256"
        }
      ],
      "stateMutability": "view",
      "type": "function"
    },
    {
      "inputs": [
        {
          "internalType": "uint256",
          "name": "",
          "type": "uint256"
        }
      ],
      "name": "proposals",
      "outputs": [
        {
          "internalType": "uint256",
          "name": "id",
          "type": "uint256"
        },
        {
          "internalType": "address",
          "name": "proposer",
          "type": "address"
        },
        {
          "internalType": "enum UnykornGovernance.ProposalType",
          "name": "proposalType",
          "type": "uint8"
        },
        {
          "internalType": "string",
          "name": "description",
          "type": "string"
        },
        {
          "internalType": "bytes",
          "name": "callData",
          "type": "bytes"
        },
        {
          "internalType": "uint256",
          "name": "forVotes",
          "type": "uint256"
        },
        {
          "internalType": "uint256",
          "name": "againstVotes",
          "type": "uint256"
        },
        {
          "internalType": "uint256",
          "name": "startTime",
          "type": "uint256"
        },
        {
          "internalType": "uint256",
          "name": "endTime",
          "type": "uint256"
        },
        {
          "internalType": "bool",
          "name": "executed",
          "type": "bool"
        },
        {
          "internalType": "bool",
          "name": "cancelled",
          "type": "bool"
        }
      ],
      "stateMutability": "view",
      "type": "function"
    },
    {
      "inputs": [
        {
          "internalType": "enum UnykornGovernance.ProposalType",
          "name": "proposalType",
          "type": "uint8"
        },
        {
          "internalType": "string",
          "name": "description",
          "type": "string"
        },
        {
          "internalType": "bytes",
          "name": "callData",
          "type": "bytes"
        }
      ],
      "name": "propose",
      "outputs": [
        {
          "internalType": "uint256",
          "name": "proposalId",
          "type": "uint256"
        }
      ],
      "stateMutability": "nonpayable",
      "type": "function"
    },
    {
      "inputs": [
        {
          "internalType": "bytes32",
          "name": "role",
          "type": "bytes32"
        },
        {
          "internalType": "address",
          "name": "callerConfirmation",
          "type": "address"
        }
      ],
      "name": "renounceRole",
      "outputs": [],
      "stateMutability": "nonpayable",
      "type": "function"
    },
    {
      "inputs": [
        {
          "internalType": "bytes32",
          "name": "",
          "type": "bytes32"
        }
      ],
      "name": "requiredSignatures",
      "outputs": [
        {
          "internalType": "uint256",
          "name": "",
          "type": "uint256"
        }
      ],
      "stateMutability": "view",
      "type": "function"
    },
    {
      "inputs": [],
      "name": "revVault",
      "outputs": [
        {
          "internalType": "contract IRevVault",
          "name": "",
          "type": "address"
        }
      ],
      "stateMutability": "view",
      "type": "function"
    },
    {
      "inputs": [
        {
          "internalType": "bytes32",
          "name": "role",
          "type": "bytes32"
        },
        {
          "internalType": "address",
          "name": "account",
          "type": "address"
        }
      ],
      "name": "revokeRole",
      "outputs": [],
      "stateMutability": "nonpayable",
      "type": "function"
    },
    {
      "inputs": [
        {
          "internalType": "address",
          "name": "_assetVault",
          "type": "address"
        },
        {
          "internalType": "address",
          "name": "_revVault",
          "type": "address"
        }
      ],
      "name": "setContracts",
      "outputs": [],
      "stateMutability": "nonpayable",
      "type": "function"
    },
    {
      "inputs": [
        {
          "internalType": "bytes32",
          "name": "role",
          "type": "bytes32"
        },
        {
          "internalType": "uint256",
          "name": "required",
          "type": "uint256"
        }
      ],
      "name": "setSignatureRequirement",
      "outputs": [],
      "stateMutability": "nonpayable",
      "type": "function"
    },
    {
      "inputs": [
        {
          "internalType": "uint256",
          "name": "proposalId",
          "type": "uint256"
        }
      ],
      "name": "signExecution",
      "outputs": [],
      "stateMutability": "nonpayable",
      "type": "function"
    },
    {
      "inputs": [
        {
          "internalType": "bytes4",
          "name": "interfaceId",
          "type": "bytes4"
        }
      ],
      "name": "supportsInterface",
      "outputs": [
        {
          "internalType": "bool",
          "name": "",
          "type": "bool"
        }
      ],
      "stateMutability": "view",
      "type": "function"
    },
    {
      "inputs": [],
      "name": "token",
      "outputs": [
        {
          "internalType": "contract ITokenERC20",
          "name": "",
          "type": "address"
        }
      ],
      "stateMutability": "view",
      "type": "function"
    },
    {
      "inputs": [
        {
          "internalType": "uint256",
          "name": "proposalId",
          "type": "uint256"
        },
        {
          "internalType": "bool",
          "name": "support",
          "type": "bool"
        }
      ],
      "name": "vote",
      "outputs": [],
      "stateMutability": "nonpayable",
      "type": "function"
    }
  ],
  "bytecode": "0x60a060405260016005553480156200001657600080fd5b5060405162002299380380620022998339810160408190526200003991620001ea565b600180556001600160a01b038216608052620000576000826200011e565b50620000847fb09aa5aeb3702cfd50b6b62bc4532604938f21248a27a1d5ca736082b6819cc1826200011e565b50620000b17fd8aa0f3194971a2a116679f7c2090f6939c8d4e01a2a8d7e41d55e5351469e63826200011e565b5060027f6c611d215c3353bfeae0b070efc77ac39f723aa05d11bdc757e0140882ee6c45556001600160a01b031660009081527f6903d7e42e9982a5c1392687e480cd87de20d7af7ae6e45e5afebea960bf9ab860205260409020805460ff191660011790555062000222565b6000828152602081815260408083206001600160a01b038516845290915281205460ff16620001c3576000838152602081815260408083206001600160a01b03861684529091529020805460ff191660011790556200017a3390565b6001600160a01b0316826001600160a01b0316847f2f8788117e7eff1d82e926ec794901d17c78024a50270940304540a733656f0d60405160405180910390a4506001620001c7565b5060005b92915050565b80516001600160a01b0381168114620001e557600080fd5b919050565b60008060408385031215620001fe57600080fd5b6200020983620001cd565b91506200021960208401620001cd565b90509250929050565b60805161203f6200025a600039600081816105790152818161092e01528181610bfb0152818161104801526115c8015261203f6000f3fe608060405234801561001057600080fd5b50600436106101fb5760003560e01c80637eba55731161011a578063c7f758a8116100ad578063d8952a491161007c578063d8952a4914610528578063e0a8f6f51461053b578063e735ea8d1461054e578063f61ebc3614610561578063fc0c546a1461057457600080fd5b8063c7f758a8146104ab578063c901b2bb146104d4578063c9d27afe14610502578063d547741f1461051557600080fd5b806392298e98116100e957806392298e9814610475578063a217fddf14610488578063a6c2660314610490578063b1610d7e146104a157600080fd5b80637eba5573146103d357806380dd1ec01461040d5780638f61f4f51461043b57806391d148541461046257600080fd5b80632ab09d141161019257806337f135d71161016157806337f135d714610363578063438596321461036d5780635e510b60146103aa57806361a0850e146103b357600080fd5b80632ab09d14146103145780632f2ff15d1461031d5780633155b3411461033057806336568abe1461035057600080fd5b8063092a6084116101ce578063092a6084146102b65780630d61b519146102cb578063248a9ca3146102de57806324cf65161461030157600080fd5b8063013cf08b1461020057806301ffc9a714610233578063028882b01461025657806307bd026514610281575b600080fd5b61021361020e3660046119b4565b61059b565b60405161022a9b9a99989796959493929190611a4b565b60405180910390f35b610246610241366004611ad2565b610717565b604051901515815260200161022a565b600354610269906001600160a01b031681565b6040516001600160a01b03909116815260200161022a565b6102a87fd8aa0f3194971a2a116679f7c2090f6939c8d4e01a2a8d7e41d55e5351469e6381565b60405190815260200161022a565b6102c96102c4366004611b18565b61074e565b005b6102c96102d93660046119b4565b6107b5565b6102a86102ec3660046119b4565b60009081526020819052604090206001015490565b6102c961030f366004611b48565b610b25565b6102a860055481565b6102c961032b366004611b18565b610b43565b6102a861033e3660046119b4565b60066020526000908152604090205481565b6102c961035e366004611b18565b610b6e565b6102a86202a30081565b61024661037b366004611b18565b60008281526004602090815260408083206001600160a01b038516845260090190915290205460ff1692915050565b6102a861138881565b6102a86103c13660046119b4565b60096020526000908152604090205481565b6102a86103e1366004611b18565b60008281526004602090815260408083206001600160a01b0385168452600a0190915290205492915050565b61024661041b366004611b18565b600760209081526000928352604080842090915290825290205460ff1681565b6102a87fb09aa5aeb3702cfd50b6b62bc4532604938f21248a27a1d5ca736082b6819cc181565b610246610470366004611b18565b610ba6565b6102a8610483366004611bb3565b610bcf565b6102a8600081565b6102a869d3c21bcecceda100000081565b6102a862093a8081565b6104be6104b93660046119b4565b610db8565b60405161022a9a99989796959493929190611c3a565b6102466104e2366004611b18565b600860209081526000928352604080842090915290825290205460ff1681565b6102c9610510366004611cab565b610edb565b6102c9610523366004611b18565b6111b7565b6102c9610536366004611cd5565b6111dc565b6102c96105493660046119b4565b611216565b6102c961055c3660046119b4565b6112b8565b600254610269906001600160a01b031681565b6102697f000000000000000000000000000000000000000000000000000000000000000081565b60046020526000908152604090208054600182015460028301805492936001600160a01b03831693600160a01b90930460ff16929091906105db90611d03565b80601f016020809104026020016040519081016040528092919081815260200182805461060790611d03565b80156106545780601f1061062957610100808354040283529160200191610654565b820191906000526020600020905b81548152906001019060200180831161063757829003601f168201915b50505050509080600301805461066990611d03565b80601f016020809104026020016040519081016040528092919081815260200182805461069590611d03565b80156106e25780601f106106b7576101008083540402835291602001916106e2565b820191906000526020600020905b8154815290600101906020018083116106c557829003601f168201915b505050600484015460058501546006860154600787015460089097015495969295919450925060ff808216916101009004168b565b60006001600160e01b03198216637965db0b60e01b148061074857506301ffc9a760e01b6001600160e01b03198316145b92915050565b6000610759816114b2565b60008381526007602090815260408083206001600160a01b0386168085529252808320805460ff1916600117905551909185917f0d2f1f69730ee578b776ca98162a7387a23caaeb85961f3d487387a62756070e9190a3505050565b6107bd6114bc565b6000818152600460205260409020600781015442116108195760405162461bcd60e51b8152602060048201526013602482015272566f74696e67207374696c6c2061637469766560681b60448201526064015b60405180910390fd5b6202a300816007015461082c9190611d53565b42101561087b5760405162461bcd60e51b815260206004820152601760248201527f457865637574696f6e2064656c6179206e6f74206d65740000000000000000006044820152606401610810565b600881015460ff16156108c35760405162461bcd60e51b815260206004820152601060248201526f105b1c9958591e48195e1958dd5d195960821b6044820152606401610810565b6008810154610100900460ff16156109125760405162461bcd60e51b8152602060048201526012602482015271141c9bdc1bdcd85b0818d85b98d95b1b195960721b6044820152606401610810565b6000816005015482600401546109289190611d53565b905060007f00000000000000000000000000000000000000000000000000000000000000006001600160a01b03166318160ddd6040518163ffffffff1660e01b8152600401602060405180830381865afa15801561098a573d6000803e3d6000fd5b505050506040513d601f19601f820116820180604052508101906109ae9190611d66565b9050611388816109c084612710611d7f565b6109ca9190611d96565b1015610a095760405162461bcd60e51b815260206004820152600e60248201526d145d5bdc9d5b481b9bdd081b595d60921b6044820152606401610810565b8260050154836004015411610a545760405162461bcd60e51b8152602060048201526011602482015270141c9bdc1bdcd85b081c995a9958dd1959607a1b6044820152606401610810565b7f6c611d215c3353bfeae0b070efc77ac39f723aa05d11bdc757e0140882ee6c45546000858152600960205260409020541015610ad35760405162461bcd60e51b815260206004820152601760248201527f496e73756666696369656e74207369676e6174757265730000000000000000006044820152606401610810565b60088301805460ff19166001179055610aeb836114e6565b60405184907f712ae1383f79ac853f8d882153778e0260ef8f03b504e2866e0593e04d2b291f90600090a2505050610b2260018055565b50565b6000610b30816114b2565b5060009182526006602052604090912055565b600082815260208190526040902060010154610b5e816114b2565b610b68838361187e565b50505050565b6001600160a01b0381163314610b975760405163334bd91960e11b815260040160405180910390fd5b610ba18282611910565b505050565b6000918252602082815260408084206001600160a01b0393909316845291905290205460ff1690565b6040516370a0823160e01b815233600482015260009069d3c21bcecceda1000000906001600160a01b037f000000000000000000000000000000000000000000000000000000000000000016906370a0823190602401602060405180830381865afa158015610c42573d6000803e3d6000fd5b505050506040513d601f19601f82011682018060405250810190610c669190611d66565b1015610cb45760405162461bcd60e51b815260206004820152601e60248201527f496e73756666696369656e7420746f6b656e7320746f2070726f706f736500006044820152606401610810565b60058054906000610cc483611db8565b909155506000818152600460205260409020818155600181018054336001600160a01b0319821681178355939450919289926001600160a81b03191660ff60a01b1990911617600160a01b836003811115610d2157610d216119cd565b021790555060028101610d35868883611e2f565b5060038101610d45848683611e2f565b504260068201819055610d5c9062093a8090611d53565b600782015560088101805461ffff19169055604051339083907f8356bc5007056a642094f44da4e8e22469db3e8a36b5811c0f91f735f1491c7990610da6908b908b908b90611ef0565b60405180910390a35095945050505050565b60008181526004602081905260408220805460018201549282015460058301546006840154600785015460088601546002870180548a998a996060998b998a998a998a998a998a99969895976001600160a01b0381169760ff600160a01b9092048216979096959493928083169261010090910416908790610e3990611d03565b80601f0160208091040260200160405190810160405280929190818152602001828054610e6590611d03565b8015610eb25780601f10610e8757610100808354040283529160200191610eb2565b820191906000526020600020905b815481529060010190602001808311610e9557829003601f168201915b505050505096509a509a509a509a509a509a509a509a509a509a50509193959799509193959799565b610ee36114bc565b60008281526004602052604090206006810154421015610f3a5760405162461bcd60e51b8152602060048201526012602482015271159bdd1a5b99c81b9bdd081cdd185c9d195960721b6044820152606401610810565b8060070154421115610f7d5760405162461bcd60e51b815260206004820152600c60248201526b159bdd1a5b99c8195b99195960a21b6044820152606401610810565b33600090815260098201602052604090205460ff1615610fcf5760405162461bcd60e51b815260206004820152600d60248201526c105b1c9958591e481d9bdd1959609a1b6044820152606401610810565b600881015460ff16158015610fee57506008810154610100900460ff16155b6110305760405162461bcd60e51b815260206004820152601360248201527250726f706f73616c206e6f742061637469766560681b6044820152606401610810565b6040516370a0823160e01b81523360048201526000907f00000000000000000000000000000000000000000000000000000000000000006001600160a01b0316906370a0823190602401602060405180830381865afa158015611097573d6000803e3d6000fd5b505050506040513d601f19601f820116820180604052508101906110bb9190611d66565b9050600081116110ff5760405162461bcd60e51b815260206004820152600f60248201526e2737903b37ba34b733903837bbb2b960891b6044820152606401610810565b3360009081526009830160209081526040808320805460ff19166001179055600a85019091529020819055821561114f57808260040160008282546111449190611d53565b909155506111699050565b808260050160008282546111639190611d53565b90915550505b60408051841515815260208101839052859133917f877856338e13f63d0c36822ff0ef736b80934cd90574a3a5bc9262c39d217c46910160405180910390a350506111b360018055565b5050565b6000828152602081905260409020600101546111d2816114b2565b610b688383611910565b60006111e7816114b2565b50600280546001600160a01b039384166001600160a01b03199182161790915560038054929093169116179055565b6000611221816114b2565b6000828152600460205260409020600881015460ff16156112775760405162461bcd60e51b815260206004820152601060248201526f105b1c9958591e48195e1958dd5d195960821b6044820152606401610810565b60088101805461ff00191661010017905560405183907f416e669c63d9a3a5e36ee7cc7e2104b8db28ccd286aa18966e98fa230c73b08c90600090a2505050565b3360009081527f6903d7e42e9982a5c1392687e480cd87de20d7af7ae6e45e5afebea960bf9ab8602052604090205460ff1661132e5760405162461bcd60e51b81526020600482015260156024820152742737ba1030baba3437b934bd32b21039b4b3b732b960591b6044820152606401610810565b600081815260086020908152604080832033845290915290205460ff16156113895760405162461bcd60e51b815260206004820152600e60248201526d105b1c9958591e481cda59db995960921b6044820152606401610810565b6000818152600460205260409020600781015442116113e05760405162461bcd60e51b8152602060048201526013602482015272566f74696e67207374696c6c2061637469766560681b6044820152606401610810565b600881015460ff161580156113ff57506008810154610100900460ff16155b6114425760405162461bcd60e51b815260206004820152601460248201527350726f706f73616c206e6f742070656e64696e6760601b6044820152606401610810565b60008281526008602090815260408083203384528252808320805460ff191660011790558483526009909152812080549161147c83611db8565b9091555050604051339083907f4a20a9b88b96796d3c6f3830b774feed4f29a65abb02fe88ccb6da74748398d790600090a35050565b610b22813361197b565b6002600154036114df57604051633ee5aeb560e01b815260040160405180910390fd5b6002600155565b60006001820154600160a01b900460ff166003811115611508576115086119cd565b0361163157600081600301805461151e90611d03565b80601f016020809104026020016040519081016040528092919081815260200182805461154a90611d03565b80156115975780601f1061156c57610100808354040283529160200191611597565b820191906000526020600020905b81548152906001019060200180831161157a57829003601f168201915b50505050508060200190518101906115af9190611d66565b604051630c4e8b2f60e11b8152600481018290529091507f00000000000000000000000000000000000000000000000000000000000000006001600160a01b03169063189d165e906024015b600060405180830381600087803b15801561161557600080fd5b505af1158015611629573d6000803e3d6000fd5b505050505050565b60026001820154600160a01b900460ff166003811115611653576116536119cd565b0361173c57600081600301805461166990611d03565b80601f016020809104026020016040519081016040528092919081815260200182805461169590611d03565b80156116e25780601f106116b7576101008083540402835291602001916116e2565b820191906000526020600020905b8154815290600101906020018083116116c557829003601f168201915b50505050508060200190518101906116fa9190611f2d565b60025481516020830151604051630a81e3c560e11b81526001600160a01b03928316600482015260248101919091529293501690631503c78a906044016115fb565b600180820154600160a01b900460ff16600381111561175d5761175d6119cd565b03610b2257600081600301805461177390611d03565b80601f016020809104026020016040519081016040528092919081815260200182805461179f90611d03565b80156117ec5780601f106117c1576101008083540402835291602001916117ec565b820191906000526020600020905b8154815290600101906020018083116117cf57829003601f168201915b50505050508060200190518101906118049190611f85565b600354815160208301516040808501516060860151608087015160a088015160c089015194516309f9042760e41b81526004810197909752602487019590955260448601929092526064850152608484015260a483019190915260c48201529192506001600160a01b031690639f9042709060e4016115fb565b600061188a8383610ba6565b611908576000838152602081815260408083206001600160a01b03861684529091529020805460ff191660011790556118c03390565b6001600160a01b0316826001600160a01b0316847f2f8788117e7eff1d82e926ec794901d17c78024a50270940304540a733656f0d60405160405180910390a4506001610748565b506000610748565b600061191c8383610ba6565b15611908576000838152602081815260408083206001600160a01b0386168085529252808320805460ff1916905551339286917ff6391f5c32d9c69d2a47ea670b442974b53935d1edc7fd64eb21e047a839171b9190a4506001610748565b6119858282610ba6565b6111b35760405163e2517d3f60e01b81526001600160a01b038216600482015260248101839052604401610810565b6000602082840312156119c657600080fd5b5035919050565b634e487b7160e01b600052602160045260246000fd5b60048110611a0157634e487b7160e01b600052602160045260246000fd5b9052565b6000815180845260005b81811015611a2b57602081850181015186830182015201611a0f565b506000602082860101526020601f19601f83011685010191505092915050565b8b81526001600160a01b038b1660208201526000610160611a6f604084018d6119e3565b806060840152611a818184018c611a05565b90508281036080840152611a95818b611a05565b60a0840199909952505060c081019590955260e0850193909352610100840191909152151561012083015215156101409091015295945050505050565b600060208284031215611ae457600080fd5b81356001600160e01b031981168114611afc57600080fd5b9392505050565b6001600160a01b0381168114610b2257600080fd5b60008060408385031215611b2b57600080fd5b823591506020830135611b3d81611b03565b809150509250929050565b60008060408385031215611b5b57600080fd5b50508035926020909101359150565b60008083601f840112611b7c57600080fd5b50813567ffffffffffffffff811115611b9457600080fd5b602083019150836020828501011115611bac57600080fd5b9250929050565b600080600080600060608688031215611bcb57600080fd5b853560048110611bda57600080fd5b9450602086013567ffffffffffffffff80821115611bf757600080fd5b611c0389838a01611b6a565b90965094506040880135915080821115611c1c57600080fd5b50611c2988828901611b6a565b969995985093965092949392505050565b8a81526001600160a01b038a1660208201526000610140611c5e604084018c6119e3565b806060840152611c708184018b611a05565b6080840199909952505060a081019590955260c085019390935260e08401919091521515610100830152151561012090910152949350505050565b60008060408385031215611cbe57600080fd5b8235915060208301358015158114611b3d57600080fd5b60008060408385031215611ce857600080fd5b8235611cf381611b03565b91506020830135611b3d81611b03565b600181811c90821680611d1757607f821691505b602082108103611d3757634e487b7160e01b600052602260045260246000fd5b50919050565b634e487b7160e01b600052601160045260246000fd5b8082018082111561074857610748611d3d565b600060208284031215611d7857600080fd5b5051919050565b808202811582820484141761074857610748611d3d565b600082611db357634e487b7160e01b600052601260045260246000fd5b500490565b600060018201611dca57611dca611d3d565b5060010190565b634e487b7160e01b600052604160045260246000fd5b601f821115610ba1576000816000526020600020601f850160051c81016020861015611e105750805b601f850160051c820191505b8181101561162957828155600101611e1c565b67ffffffffffffffff831115611e4757611e47611dd1565b611e5b83611e558354611d03565b83611de7565b6000601f841160018114611e8f5760008515611e775750838201355b600019600387901b1c1916600186901b178355611ee9565b600083815260209020601f19861690835b82811015611ec05786850135825560209485019460019092019101611ea0565b5086821015611edd5760001960f88860031b161c19848701351681555b505060018560011b0183555b5050505050565b611efa81856119e3565b60406020820152816040820152818360608301376000818301606090810191909152601f909201601f1916010192915050565b600060408284031215611f3f57600080fd5b6040516040810181811067ffffffffffffffff82111715611f6257611f62611dd1565b6040528251611f7081611b03565b81526020928301519281019290925250919050565b600060e08284031215611f9757600080fd5b60405160e0810181811067ffffffffffffffff82111715611fba57611fba611dd1565b8060405250825181526020830151602082015260408301516040820152606083015160608201526080830151608082015260a083015160a082015260c083015160c0820152809150509291505056fea2646970667358221220c77c8aa2a00604dd91468193ab66cb5ae408799e8fe3fdf56eaae2728bab6ed164736f6c63430008180033",
  "linkReferences": {},
  "deployedLinkReferences": {}
}