{
  "_format": "hh-sol-artifact-1",
  "contractName": "SubscriptionVault",
  "sourceName": "contracts/evm/SubscriptionVault.sol",
  "abi": [
    {
      "inputs": [
        {
          "internalType": "address",
          "name": "token",
          "type": "address"
        }
      ],
      "stateMutability": "nonpayable",
      "type": "constructor"
    },
    {
      "inputs": [
        {
          "internalType": "address",
          "name": "owner",
          "type": "address"
        }
      ],
      "name": "OwnableInvalidOwner",
      "type": "error"
    },
    {
      "inputs": [
        {
          "internalType": "address",
          "name": "account",
          "type": "address"
        }
      ],
      "name": "OwnableUnauthorizedAccount",
      "type": "error"
    },
    {
      "anonymous": false,
      "inputs": [
        {
          "indexed": true,
          "internalType": "address",
          "name": "previousOwner",
          "type": "address"
        },
        {
          "indexed": true,
          "internalType": "address",
          "name": "newOwner",
          "type": "address"
        }
      ],
      "name": "OwnershipTransferred",
      "type": "event"
    },
    {
      "anonymous": false,
      "inputs": [
        {
          "indexed": true,
          "internalType": "address",
          "name": "user",
          "type": "address"
        },
        {
          "indexed": false,
          "internalType": "uint256",
          "name": "until",
          "type": "uint256"
        },
        {
          "indexed": false,
          "internalType": "address",
          "name": "referrer",
          "type": "address"
        }
      ],
      "name": "Subscribed",
      "type": "event"
    },
    {
      "inputs": [],
      "name": "PRICE",
      "outputs": [
        {
          "internalType": "uint256",
          "name": "",
          "type": "uint256"
        }
      ],
      "stateMutability": "view",
      "type": "function"
    },
    {
      "inputs": [],
      "name": "owner",
      "outputs": [
        {
          "internalType": "address",
          "name": "",
          "type": "address"
        }
      ],
      "stateMutability": "view",
      "type": "function"
    },
    {
      "inputs": [],
      "name": "paymentToken",
      "outputs": [
        {
          "internalType": "contract IERC20",
          "name": "",
          "type": "address"
        }
      ],
      "stateMutability": "view",
      "type": "function"
    },
    {
      "inputs": [
        {
          "internalType": "address",
          "name": "",
          "type": "address"
        }
      ],
      "name": "referrerOf",
      "outputs": [
        {
          "internalType": "address",
          "name": "",
          "type": "address"
        }
      ],
      "stateMutability": "view",
      "type": "function"
    },
    {
      "inputs": [],
      "name": "renounceOwnership",
      "outputs": [],
      "stateMutability": "nonpayable",
      "type": "function"
    },
    {
      "inputs": [
        {
          "internalType": "address",
          "name": "referrer",
          "type": "address"
        }
      ],
      "name": "subscribe",
      "outputs": [],
      "stateMutability": "nonpayable",
      "type": "function"
    },
    {
      "inputs": [
        {
          "internalType": "address",
          "name": "",
          "type": "address"
        }
      ],
      "name": "subscribedUntil",
      "outputs": [
        {
          "internalType": "uint256",
          "name": "",
          "type": "uint256"
        }
      ],
      "stateMutability": "view",
      "type": "function"
    },
    {
      "inputs": [
        {
          "internalType": "address",
          "name": "newOwner",
          "type": "address"
        }
      ],
      "name": "transferOwnership",
      "outputs": [],
      "stateMutability": "nonpayable",
      "type": "function"
    }
  ],
  "bytecode": "0x60a060405234801561001057600080fd5b506040516105e03803806105e083398101604081905261002f916100c0565b338061005557604051631e4fbdf760e01b81526000600482015260240160405180910390fd5b61005e81610070565b506001600160a01b03166080526100f0565b600080546001600160a01b038381166001600160a01b0319831681178455604051919092169283917f8be0079c531659141344cd1fd0a4f28419497f9722a3daafe3b4186f6b6457e09190a35050565b6000602082840312156100d257600080fd5b81516001600160a01b03811681146100e957600080fd5b9392505050565b6080516104cf61011160003960008181609201526101a301526104cf6000f3fe608060405234801561001057600080fd5b50600436106100885760003560e01c80638d859f3e1161005b5780638d859f3e1461011c5780638da5cb5b1461012c578063d21cacdf1461013d578063f2fde38b1461016657600080fd5b80633013ce291461008d57806341a7726a146100d15780634e1c899a146100e6578063715018a614610114575b600080fd5b6100b47f000000000000000000000000000000000000000000000000000000000000000081565b6040516001600160a01b0390911681526020015b60405180910390f35b6100e46100df366004610420565b610179565b005b6101066100f4366004610420565b60016020526000908152604090205481565b6040519081526020016100c8565b6100e4610351565b610106680ac9ae05a71ebc000081565b6000546001600160a01b03166100b4565b6100b461014b366004610420565b6002602052600090815260409020546001600160a01b031681565b6100e4610174366004610420565b610365565b6040516323b872dd60e01b8152336004820152306024820152680ac9ae05a71ebc000060448201527f00000000000000000000000000000000000000000000000000000000000000006001600160a01b0316906323b872dd906064016020604051808303816000875af11580156101f4573d6000803e3d6000fd5b505050506040513d601f19601f820116820180604052508101906102189190610450565b61025a5760405162461bcd60e51b815260206004820152600e60248201526d1c185e5b595b9d0819985a5b195960921b60448201526064015b60405180910390fd5b60006102694262278d00610472565b33600090815260016020526040902054909150811115610296573360009081526001602052604090208190555b6001600160a01b038216158015906102c45750336000908152600260205260409020546001600160a01b0316155b156102f25733600090815260026020526040902080546001600160a01b0319166001600160a01b0384161790555b33600081815260016020526040908190205490517ffcd4b73f16a9e7d08085b173590f3eb58682b7c1d92386da34899dd3a2e2bbaf916103459186909182526001600160a01b0316602082015260400190565b60405180910390a25050565b6103596103a3565b61036360006103d0565b565b61036d6103a3565b6001600160a01b03811661039757604051631e4fbdf760e01b815260006004820152602401610251565b6103a0816103d0565b50565b6000546001600160a01b031633146103635760405163118cdaa760e01b8152336004820152602401610251565b600080546001600160a01b038381166001600160a01b0319831681178455604051919092169283917f8be0079c531659141344cd1fd0a4f28419497f9722a3daafe3b4186f6b6457e09190a35050565b60006020828403121561043257600080fd5b81356001600160a01b038116811461044957600080fd5b9392505050565b60006020828403121561046257600080fd5b8151801515811461044957600080fd5b8082018082111561049357634e487b7160e01b600052601160045260246000fd5b9291505056fea26469706673582212202f4ff7d0de037dfb60a0cbc1e21791482552d35f270950ed53aea0fd14b5ad4264736f6c63430008180033",
  "linkReferences": {},
  "deployedLinkReferences": {}
}