{
  "_format": "hh-sol-artifact-1",
  "contractName": "RevVault",
  "sourceName": "contracts/evm/RevVault.sol",
  "abi": [
    {
      "inputs": [
        {
          "internalType": "address",
          "name": "_token",
          "type": "address"
        },
        {
          "internalType": "address",
          "name": "_paymentToken",
          "type": "address"
        },
        {
          "internalType": "address",
          "name": "admin",
          "type": "address"
        }
      ],
      "stateMutability": "nonpayable",
      "type": "constructor"
    },
    {
      "inputs": [],
      "name": "AccessControlBadConfirmation",
      "type": "error"
    },
    {
      "inputs": [
        {
          "internalType": "address",
          "name": "account",
          "type": "address"
        },
        {
          "internalType": "bytes32",
          "name": "neededRole",
          "type": "bytes32"
        }
      ],
      "name": "AccessControlUnauthorizedAccount",
      "type": "error"
    },
    {
      "inputs": [],
      "name": "ReentrancyGuardReentrantCall",
      "type": "error"
    },
    {
      "inputs": [
        {
          "internalType": "address",
          "name": "token",
          "type": "address"
        }
      ],
      "name": "SafeERC20FailedOperation",
      "type": "error"
    },
    {
      "anonymous": false,
      "inputs": [
        {
          "indexed": true,
          "internalType": "address",
          "name": "recipient",
          "type": "address"
        },
        {
          "indexed": false,
          "internalType": "uint256",
          "name": "amount",
          "type": "uint256"
        },
        {
          "indexed": false,
          "internalType": "string",
          "name": "commissionType",
          "type": "string"
        }
      ],
      "name": "CommissionPaid",
      "type": "event"
    },
    {
      "anonymous": false,
      "inputs": [
        {
          "indexed": true,
          "internalType": "address",
          "name": "user",
          "type": "address"
        },
        {
          "indexed": false,
          "internalType": "bool",
          "name": "isHustler",
          "type": "bool"
        }
      ],
      "name": "HustlerStatusUpdated",
      "type": "event"
    },
    {
      "anonymous": false,
      "inputs": [
        {
          "indexed": true,
          "internalType": "uint256",
          "name": "offerId",
          "type": "uint256"
        },
        {
          "indexed": true,
          "internalType": "address",
          "name": "merchant",
          "type": "address"
        },
        {
          "indexed": false,
          "internalType": "uint256",
          "name": "price",
          "type": "uint256"
        },
        {
          "indexed": false,
          "internalType": "string",
          "name": "description",
          "type": "string"
        }
      ],
      "name": "OfferCreated",
      "type": "event"
    },
    {
      "anonymous": false,
      "inputs": [
        {
          "indexed": true,
          "internalType": "uint256",
          "name": "offerId",
          "type": "uint256"
        },
        {
          "indexed": true,
          "internalType": "address",
          "name": "buyer",
          "type": "address"
        },
        {
          "indexed": true,
          "internalType": "address",
          "name": "referrer",
          "type": "address"
        },
        {
          "indexed": false,
          "internalType": "uint256",
          "name": "amount",
          "type": "uint256"
        },
        {
          "indexed": false,
          "internalType": "uint256",
          "name": "merchantAmount",
          "type": "uint256"
        },
        {
          "indexed": false,
          "internalType": "uint256",
          "name": "commissionAmount",
          "type": "uint256"
        }
      ],
      "name": "Purchase",
      "type": "event"
    },
    {
      "anonymous": false,
      "inputs": [
        {
          "indexed": true,
          "internalType": "bytes32",
          "name": "role",
          "type": "bytes32"
        },
        {
          "indexed": true,
          "internalType": "bytes32",
          "name": "previousAdminRole",
          "type": "bytes32"
        },
        {
          "indexed": true,
          "internalType": "bytes32",
          "name": "newAdminRole",
          "type": "bytes32"
        }
      ],
      "name": "RoleAdminChanged",
      "type": "event"
    },
    {
      "anonymous": false,
      "inputs": [
        {
          "indexed": true,
          "internalType": "bytes32",
          "name": "role",
          "type": "bytes32"
        },
        {
          "indexed": true,
          "internalType": "address",
          "name": "account",
          "type": "address"
        },
        {
          "indexed": true,
          "internalType": "address",
          "name": "sender",
          "type": "address"
        }
      ],
      "name": "RoleGranted",
      "type": "event"
    },
    {
      "anonymous": false,
      "inputs": [
        {
          "indexed": true,
          "internalType": "bytes32",
          "name": "role",
          "type": "bytes32"
        },
        {
          "indexed": true,
          "internalType": "address",
          "name": "account",
          "type": "address"
        },
        {
          "indexed": true,
          "internalType": "address",
          "name": "sender",
          "type": "address"
        }
      ],
      "name": "RoleRevoked",
      "type": "event"
    },
    {
      "inputs": [],
      "name": "DEFAULT_ADMIN_ROLE",
      "outputs": [
        {
          "internalType": "bytes32",
          "name": "",
          "type": "bytes32"
        }
      ],
      "stateMutability": "view",
      "type": "function"
    },
    {
      "inputs": [],
      "name": "MERCHANT_ROLE",
      "outputs": [
        {
          "internalType": "bytes32",
          "name": "",
          "type": "bytes32"
        }
      ],
      "stateMutability": "view",
      "type": "function"
    },
    {
      "inputs": [],
      "name": "OPERATOR_ROLE",
      "outputs": [
        {
          "internalType": "bytes32",
          "name": "",
          "type": "bytes32"
        }
      ],
      "stateMutability": "view",
      "type": "function"
    },
    {
      "inputs": [
        {
          "internalType": "address",
          "name": "merchant",
          "type": "address"
        }
      ],
      "name": "addMerchant",
      "outputs": [],
      "stateMutability": "nonpayable",
      "type": "function"
    },
    {
      "inputs": [
        {
          "internalType": "uint256",
          "name": "price",
          "type": "uint256"
        },
        {
          "internalType": "string",
          "name": "description",
          "type": "string"
        }
      ],
      "name": "createOffer",
      "outputs": [
        {
          "internalType": "uint256",
          "name": "offerId",
          "type": "uint256"
        }
      ],
      "stateMutability": "nonpayable",
      "type": "function"
    },
    {
      "inputs": [
        {
          "internalType": "uint256",
          "name": "offerId",
          "type": "uint256"
        }
      ],
      "name": "deactivateOffer",
      "outputs": [],
      "stateMutability": "nonpayable",
      "type": "function"
    },
    {
      "inputs": [],
      "name": "defaultCommission",
      "outputs": [
        {
          "internalType": "uint256",
          "name": "merchantPercentage",
          "type": "uint256"
        },
        {
          "internalType": "uint256",
          "name": "directCommission",
          "type": "uint256"
        },
        {
          "internalType": "uint256",
          "name": "teamOverride",
          "type": "uint256"
        },
        {
          "internalType": "uint256",
          "name": "poiBonus",
          "type": "uint256"
        },
        {
          "internalType": "uint256",
          "name": "territoryPool",
          "type": "uint256"
        },
        {
          "internalType": "uint256",
          "name": "platformFee",
          "type": "uint256"
        },
        {
          "internalType": "uint256",
          "name": "burnPercentage",
          "type": "uint256"
        }
      ],
      "stateMutability": "view",
      "type": "function"
    },
    {
      "inputs": [
        {
          "internalType": "address",
          "name": "",
          "type": "address"
        }
      ],
      "name": "directReferrer",
      "outputs": [
        {
          "internalType": "address",
          "name": "",
          "type": "address"
        }
      ],
      "stateMutability": "view",
      "type": "function"
    },
    {
      "inputs": [
        {
          "internalType": "uint256",
          "name": "offerId",
          "type": "uint256"
        }
      ],
      "name": "getOffer",
      "outputs": [
        {
          "components": [
            {
              "internalType": "address",
              "name": "merchant",
              "type": "address"
            },
            {
              "internalType": "uint256",
              "name": "price",
              "type": "uint256"
            },
            {
              "internalType": "string",
              "name": "description",
              "type": "string"
            },
            {
              "internalType": "bool",
              "name": "isActive",
              "type": "bool"
            },
            {
              "internalType": "uint256",
              "name": "totalSales",
              "type": "uint256"
            }
          ],
          "internalType": "struct RevVault.Offer",
          "name": "",
          "type": "tuple"
        }
      ],
      "stateMutability": "view",
      "type": "function"
    },
    {
      "inputs": [
        {
          "internalType": "address",
          "name": "user",
          "type": "address"
        }
      ],
      "name": "getReferrals",
      "outputs": [
        {
          "internalType": "address[]",
          "name": "",
          "type": "address[]"
        }
      ],
      "stateMutability": "view",
      "type": "function"
    },
    {
      "inputs": [
        {
          "internalType": "bytes32",
          "name": "role",
          "type": "bytes32"
        }
      ],
      "name": "getRoleAdmin",
      "outputs": [
        {
          "internalType": "bytes32",
          "name": "",
          "type": "bytes32"
        }
      ],
      "stateMutability": "view",
      "type": "function"
    },
    {
      "inputs": [
        {
          "internalType": "bytes32",
          "name": "role",
          "type": "bytes32"
        },
        {
          "internalType": "address",
          "name": "account",
          "type": "address"
        }
      ],
      "name": "grantRole",
      "outputs": [],
      "stateMutability": "nonpayable",
      "type": "function"
    },
    {
      "inputs": [
        {
          "internalType": "bytes32",
          "name": "role",
          "type": "bytes32"
        },
        {
          "internalType": "address",
          "name": "account",
          "type": "address"
        }
      ],
      "name": "hasRole",
      "outputs": [
        {
          "internalType": "bool",
          "name": "",
          "type": "bool"
        }
      ],
      "stateMutability": "view",
      "type": "function"
    },
    {
      "inputs": [
        {
          "internalType": "address",
          "name": "",
          "type": "address"
        }
      ],
      "name": "isHustler",
      "outputs": [
        {
          "internalType": "bool",
          "name": "",
          "type": "bool"
        }
      ],
      "stateMutability": "view",
      "type": "function"
    },
    {
      "inputs": [],
      "name": "nextOfferId",
      "outputs": [
        {
          "internalType": "uint256",
          "name": "",
          "type": "uint256"
        }
      ],
      "stateMutability": "view",
      "type": "function"
    },
    {
      "inputs": [
        {
          "internalType": "uint256",
          "name": "",
          "type": "uint256"
        }
      ],
      "name": "offers",
      "outputs": [
        {
          "internalType": "address",
          "name": "merchant",
          "type": "address"
        },
        {
          "internalType": "uint256",
          "name": "price",
          "type": "uint256"
        },
        {
          "internalType": "string",
          "name": "description",
          "type": "string"
        },
        {
          "internalType": "bool",
          "name": "isActive",
          "type": "bool"
        },
        {
          "internalType": "uint256",
          "name": "totalSales",
          "type": "uint256"
        }
      ],
      "stateMutability": "view",
      "type": "function"
    },
    {
      "inputs": [],
      "name": "paymentToken",
      "outputs": [
        {
          "internalType": "contract IERC20",
          "name": "",
          "type": "address"
        }
      ],
      "stateMutability": "view",
      "type": "function"
    },
    {
      "inputs": [
        {
          "internalType": "uint256",
          "name": "offerId",
          "type": "uint256"
        },
        {
          "internalType": "address",
          "name": "referrer",
          "type": "address"
        }
      ],
      "name": "purchase",
      "outputs": [],
      "stateMutability": "nonpayable",
      "type": "function"
    },
    {
      "inputs": [
        {
          "internalType": "address",
          "name": "",
          "type": "address"
        },
        {
          "internalType": "uint256",
          "name": "",
          "type": "uint256"
        }
      ],
      "name": "referrals",
      "outputs": [
        {
          "internalType": "address",
          "name": "",
          "type": "address"
        }
      ],
      "stateMutability": "view",
      "type": "function"
    },
    {
      "inputs": [
        {
          "internalType": "bytes32",
          "name": "role",
          "type": "bytes32"
        },
        {
          "internalType": "address",
          "name": "callerConfirmation",
          "type": "address"
        }
      ],
      "name": "renounceRole",
      "outputs": [],
      "stateMutability": "nonpayable",
      "type": "function"
    },
    {
      "inputs": [
        {
          "internalType": "bytes32",
          "name": "role",
          "type": "bytes32"
        },
        {
          "internalType": "address",
          "name": "account",
          "type": "address"
        }
      ],
      "name": "revokeRole",
      "outputs": [],
      "stateMutability": "nonpayable",
      "type": "function"
    },
    {
      "inputs": [
        {
          "internalType": "address",
          "name": "user",
          "type": "address"
        },
        {
          "internalType": "bool",
          "name": "status",
          "type": "bool"
        }
      ],
      "name": "setHustlerStatus",
      "outputs": [],
      "stateMutability": "nonpayable",
      "type": "function"
    },
    {
      "inputs": [
        {
          "internalType": "bytes4",
          "name": "interfaceId",
          "type": "bytes4"
        }
      ],
      "name": "supportsInterface",
      "outputs": [
        {
          "internalType": "bool",
          "name": "",
          "type": "bool"
        }
      ],
      "stateMutability": "view",
      "type": "function"
    },
    {
      "inputs": [
        {
          "internalType": "address",
          "name": "",
          "type": "address"
        }
      ],
      "name": "territoryPoolBalance",
      "outputs": [
        {
          "internalType": "uint256",
          "name": "",
          "type": "uint256"
        }
      ],
      "stateMutability": "view",
      "type": "function"
    },
    {
      "inputs": [],
      "name": "token",
      "outputs": [
        {
          "internalType": "contract ITokenERC20",
          "name": "",
          "type": "address"
        }
      ],
      "stateMutability": "view",
      "type": "function"
    },
    {
      "inputs": [
        {
          "internalType": "uint256",
          "name": "merchantPercentage",
          "type": "uint256"
        },
        {
          "internalType": "uint256",
          "name": "directCommission",
          "type": "uint256"
        },
        {
          "internalType": "uint256",
          "name": "teamOverride",
          "type": "uint256"
        },
        {
          "internalType": "uint256",
          "name": "poiBonus",
          "type": "uint256"
        },
        {
          "internalType": "uint256",
          "name": "territoryPool",
          "type": "uint256"
        },
        {
          "internalType": "uint256",
          "name": "platformFee",
          "type": "uint256"
        },
        {
          "internalType": "uint256",
          "name": "burnPercentage",
          "type": "uint256"
        }
      ],
      "name": "updateCommissionStructure",
      "outputs": [],
      "stateMutability": "nonpayable",
      "type": "function"
    }
  ],
  "bytecode": "0x60c060405260016007553480156200001657600080fd5b5060405162001ce138038062001ce18339810160408190526200003991620001c7565b600180556001600160a01b03808416608052821660a0526200005d600082620000fb565b506200008a7f97667070c54ef182b0f5858b034beac1b6f3089aa2d3188bb1e8929f4fa9b92982620000fb565b50506040805160e0810182526123288082526113886020830181905261012c93830184905260646060840181905260c86080850181905260a0850186905260c0909401819052600892909255600955600a839055600b819055600c91909155600d91909155600e5550620002119050565b6000828152602081815260408083206001600160a01b038516845290915281205460ff16620001a0576000838152602081815260408083206001600160a01b03861684529091529020805460ff19166001179055620001573390565b6001600160a01b0316826001600160a01b0316847f2f8788117e7eff1d82e926ec794901d17c78024a50270940304540a733656f0d60405160405180910390a4506001620001a4565b5060005b92915050565b80516001600160a01b0381168114620001c257600080fd5b919050565b600080600060608486031215620001dd57600080fd5b620001e884620001aa565b9250620001f860208501620001aa565b91506200020860408501620001aa565b90509250925092565b60805160a051611a80620002616000396000818161021901528181610c5e01528181611057015281816110de015261127a0152600081816104890152818161112b01526112c70152611a806000f3fe608060405234801561001057600080fd5b506004361061018e5760003560e01c80639b7fbd9e116100de578063b444bba511610097578063d547741f11610071578063d547741f14610437578063e697b5d81461044a578063f5b541a61461045d578063fc0c546a1461048457600080fd5b8063b444bba5146103aa578063bf76c0ef14610401578063d0035d7c1461041457600080fd5b80639b7fbd9e146103195780639f9042701461032c578063a217fddf1461033f578063ab0dc99a14610347578063ae77c23714610370578063b3d358391461038357600080fd5b806341a0894d1161014b5780635f5d0655116101255780635f5d0655146102b95780637029fee8146102c25780638a72ea6a146102e257806391d148541461030657600080fd5b806341a0894d1461026657806343542f10146102865780634579268a1461029957600080fd5b806301ffc9a7146101935780630b5e1f3f146101bb578063248a9ca3146101d05780632f2ff15d146102015780633013ce291461021457806336568abe14610253575b600080fd5b6101a66101a1366004611523565b6104ab565b60405190151581526020015b60405180910390f35b6101ce6101c9366004611554565b6104e2565b005b6101f36101de366004611554565b60009081526020819052604090206001015490565b6040519081526020016101b2565b6101ce61020f366004611589565b61056a565b61023b7f000000000000000000000000000000000000000000000000000000000000000081565b6040516001600160a01b0390911681526020016101b2565b6101ce610261366004611589565b610595565b6102796102743660046115b5565b6105cd565b6040516101b291906115d0565b6101f361029436600461161d565b610643565b6102ac6102a7366004611554565b61082e565b6040516101b291906116df565b6101f360075481565b6101f36102d03660046115b5565b60056020526000908152604090205481565b6102f56102f0366004611554565b610953565b6040516101b2959493929190611739565b6101a6610314366004611589565b610a1a565b6101ce610327366004611774565b610a43565b6101ce61033a3660046117b0565b610acd565b6101f3600081565b61023b6103553660046115b5565b6003602052600090815260409020546001600160a01b031681565b6101ce61037e366004611589565b610baa565b6101f37f3c4a2d89ed8b4cf4347fec87df1c38410f8fc538bf9fd64c10f2717bc0feff3681565b600854600954600a54600b54600c54600d54600e546103cc9695949392919087565b604080519788526020880196909652948601939093526060850191909152608084015260a083015260c082015260e0016101b2565b6101ce61040f3660046115b5565b610da9565b6101a66104223660046115b5565b60066020526000908152604090205460ff1681565b6101ce610445366004611589565b610dde565b61023b6104583660046117fc565b610e03565b6101f37f97667070c54ef182b0f5858b034beac1b6f3089aa2d3188bb1e8929f4fa9b92981565b61023b7f000000000000000000000000000000000000000000000000000000000000000081565b60006001600160e01b03198216637965db0b60e01b14806104dc57506301ffc9a760e01b6001600160e01b03198316145b92915050565b6000818152600260205260409020546001600160a01b031633148061050d575061050d600033610a1a565b61054f5760405162461bcd60e51b815260206004820152600e60248201526d139bdd08185d5d1a1bdc9a5e995960921b60448201526064015b60405180910390fd5b6000908152600260205260409020600301805460ff19169055565b60008281526020819052604090206001015461058581610e3b565b61058f8383610e48565b50505050565b6001600160a01b03811633146105be5760405163334bd91960e11b815260040160405180910390fd5b6105c88282610eda565b505050565b6001600160a01b03811660009081526004602090815260409182902080548351818402810184019094528084526060939283018282801561063757602002820191906000526020600020905b81546001600160a01b03168152600190910190602001808311610619575b50505050509050919050565b600061066f7f3c4a2d89ed8b4cf4347fec87df1c38410f8fc538bf9fd64c10f2717bc0feff3633610a1a565b806106805750610680600033610a1a565b6106bd5760405162461bcd60e51b815260206004820152600e60248201526d139bdd08185d5d1a1bdc9a5e995960921b6044820152606401610546565b600084116106fd5760405162461bcd60e51b815260206004820152600d60248201526c496e76616c696420707269636560981b6044820152606401610546565b6007805490600061070d8361183c565b9190505590506040518060a00160405280336001600160a01b0316815260200185815260200184848080601f01602080910402602001604051908101604052809392919081815260200183838082843760009201829052509385525050600160208085018290526040948501849052868452600280825293859020865181546001600160a01b0319166001600160a01b03909116178155908601519181019190915592840151918301916107c29150826118f5565b50606082015160038201805460ff1916911515919091179055608090910151600490910155604051339082907f374bba3486613f7f163f9d5ed77a4eb06c1c5b6523dc4506a45fd14159ab1d989061081f908890889088906119b5565b60405180910390a39392505050565b61086b6040518060a0016040528060006001600160a01b031681526020016000815260200160608152602001600015158152602001600081525090565b600082815260026020818152604092839020835160a08101855281546001600160a01b03168152600182015492810192909252918201805491938401916108b19061186b565b80601f01602080910402602001604051908101604052809291908181526020018280546108dd9061186b565b801561092a5780601f106108ff5761010080835404028352916020019161092a565b820191906000526020600020905b81548152906001019060200180831161090d57829003601f168201915b5050509183525050600382015460ff161515602082015260049091015460409091015292915050565b60026020819052600091825260409091208054600182015492820180546001600160a01b039092169392916109879061186b565b80601f01602080910402602001604051908101604052809291908181526020018280546109b39061186b565b8015610a005780601f106109d557610100808354040283529160200191610a00565b820191906000526020600020905b8154815290600101906020018083116109e357829003601f168201915b505050506003830154600490930154919260ff1691905085565b6000918252602082815260408084206001600160a01b0393909316845291905290205460ff1690565b7f97667070c54ef182b0f5858b034beac1b6f3089aa2d3188bb1e8929f4fa9b929610a6d81610e3b565b6001600160a01b038316600081815260066020908152604091829020805460ff191686151590811790915591519182527f889f0b6b4f1cce3a6d79111868eb15ba337b940c0cb16e4664d7b913dc8bbecc910160405180910390a2505050565b6000610ad881610e3b565b61271082848688610ae98b8e6119eb565b610af391906119eb565b610afd91906119eb565b610b0791906119eb565b610b1191906119eb565b1115610b545760405162461bcd60e51b8152602060048201526012602482015271546f74616c2065786365656473203130302560701b6044820152606401610546565b506040805160e08101825288815260208101889052908101869052606081018590526080810184905260a0810183905260c001819052600896909655600994909455600a92909255600b55600c55600d55600e55565b610bb2610f45565b6000828152600260205260409020600381015460ff16610c075760405162461bcd60e51b815260206004820152601060248201526f4f66666572206e6f742061637469766560801b6044820152606401610546565b6000816001015411610c4b5760405162461bcd60e51b815260206004820152600d60248201526c24b73b30b634b21037b33332b960991b6044820152606401610546565b6001810154610c88906001600160a01b037f0000000000000000000000000000000000000000000000000000000000000000169033903090610f6f565b6001600160a01b03821615801590610cb65750336000908152600360205260409020546001600160a01b0316155b15610d0f5733600081815260036020908152604080832080546001600160a01b0388166001600160a01b031991821681179092559084526004835290832080546001810182559084529190922001805490911690911790555b610d1e83338360010154610fd6565b600481018054906000610d308361183c565b90915550503360008181526003602090815260408083205460018601548251908152928301849052908201929092526001600160a01b03909116919085907fd908746be09cae70269fa95ba29335403f78bfecb9758fccdb4ccca9b078b7509060600160405180910390a450610da560018055565b5050565b6000610db481610e3b565b6105c87f3c4a2d89ed8b4cf4347fec87df1c38410f8fc538bf9fd64c10f2717bc0feff3683610e48565b600082815260208190526040902060010154610df981610e3b565b61058f8383610eda565b60046020528160005260406000208181548110610e1f57600080fd5b6000918252602090912001546001600160a01b03169150829050565b610e458133611448565b50565b6000610e548383610a1a565b610ed2576000838152602081815260408083206001600160a01b03861684529091529020805460ff19166001179055610e8a3390565b6001600160a01b0316826001600160a01b0316847f2f8788117e7eff1d82e926ec794901d17c78024a50270940304540a733656f0d60405160405180910390a45060016104dc565b5060006104dc565b6000610ee68383610a1a565b15610ed2576000838152602081815260408083206001600160a01b0386168085529252808320805460ff1916905551339286917ff6391f5c32d9c69d2a47ea670b442974b53935d1edc7fd64eb21e047a839171b9190a45060016104dc565b600260015403610f6857604051633ee5aeb560e01b815260040160405180910390fd5b6002600155565b6040516001600160a01b03848116602483015283811660448301526064820183905261058f9186918216906323b872dd906084015b604051602081830303815290604052915060e01b6020820180516001600160e01b038381831617835250505050611481565b6000838152600260209081526040808320815160e08101835260085480825260095494820194909452600a5492810192909252600b546060830152600c546080830152600d5460a0830152600e5460c08301529290916127109061103a90866119fe565b6110449190611a15565b8354909150611080906001600160a01b037f000000000000000000000000000000000000000000000000000000000000000081169116836114f2565b600061108c8286611a37565b6001600160a01b038088166000908152600360205260409020549192501680156111f65760006127108560200151846110c591906119fe565b6110cf9190611a15565b90506111056001600160a01b037f00000000000000000000000000000000000000000000000000000000000000001683836114f2565b6040516359ff03c360e01b81526001600160a01b038381166004830152602482018390527f000000000000000000000000000000000000000000000000000000000000000016906359ff03c390604401600060405180830381600087803b15801561116f57600080fd5b505af1158015611183573d6000803e3d6000fd5b50505050816001600160a01b03167f8d2486dece1cfda5a10df8a2cdfc8e5d782cbbded106960dc0bda2b3593b71ec826040516111e091815260406020820181905260069082015265111a5c9958dd60d21b606082015260800190565b60405180910390a26111f28184611a37565b9250505b600061271085604001518861120b91906119fe565b6112159190611a15565b90506001600160a01b0382161561138e576001600160a01b0380831660009081526003602052604090205416801580159061126857506001600160a01b03811660009081526006602052604090205460ff165b1561138c576112a16001600160a01b037f00000000000000000000000000000000000000000000000000000000000000001682846114f2565b6040516359ff03c360e01b81526001600160a01b038281166004830152602482018490527f000000000000000000000000000000000000000000000000000000000000000016906359ff03c390604401600060405180830381600087803b15801561130b57600080fd5b505af115801561131f573d6000803e3d6000fd5b50505050806001600160a01b03167f8d2486dece1cfda5a10df8a2cdfc8e5d782cbbded106960dc0bda2b3593b71ec83604051611383918152604060208201819052600d908201526c5465616d204f7665727269646560981b606082015260800190565b60405180910390a25b505b60006127108660600151896113a391906119fe565b6113ad9190611a15565b9050600061271087608001518a6113c491906119fe565b6113ce9190611a15565b306000908152600560205260408120805492935083929091906113f29084906119eb565b909155505060a08701516000906127109061140d908c6119fe565b6114179190611a15565b905060006127108960c001518c61142e91906119fe565b6114389190611a15565b5050505050505050505050505050565b6114528282610a1a565b610da55760405163e2517d3f60e01b81526001600160a01b038216600482015260248101839052604401610546565b600080602060008451602086016000885af1806114a4576040513d6000823e3d81fd5b50506000513d915081156114bc5780600114156114c9565b6001600160a01b0384163b155b1561058f57604051635274afe760e01b81526001600160a01b0385166004820152602401610546565b6040516001600160a01b038381166024830152604482018390526105c891859182169063a9059cbb90606401610fa4565b60006020828403121561153557600080fd5b81356001600160e01b03198116811461154d57600080fd5b9392505050565b60006020828403121561156657600080fd5b5035919050565b80356001600160a01b038116811461158457600080fd5b919050565b6000806040838503121561159c57600080fd5b823591506115ac6020840161156d565b90509250929050565b6000602082840312156115c757600080fd5b61154d8261156d565b6020808252825182820181905260009190848201906040850190845b818110156116115783516001600160a01b0316835292840192918401916001016115ec565b50909695505050505050565b60008060006040848603121561163257600080fd5b83359250602084013567ffffffffffffffff8082111561165157600080fd5b818601915086601f83011261166557600080fd5b81358181111561167457600080fd5b87602082850101111561168657600080fd5b6020830194508093505050509250925092565b6000815180845260005b818110156116bf576020818501810151868301820152016116a3565b506000602082860101526020601f19601f83011685010191505092915050565b6020815260018060a01b038251166020820152602082015160408201526000604083015160a0606084015261171760c0840182611699565b9050606084015115156080840152608084015160a08401528091505092915050565b60018060a01b038616815284602082015260a06040820152600061176060a0830186611699565b931515606083015250608001529392505050565b6000806040838503121561178757600080fd5b6117908361156d565b9150602083013580151581146117a557600080fd5b809150509250929050565b600080600080600080600060e0888a0312156117cb57600080fd5b505085359760208701359750604087013596606081013596506080810135955060a0810135945060c0013592509050565b6000806040838503121561180f57600080fd5b6118188361156d565b946020939093013593505050565b634e487b7160e01b600052601160045260246000fd5b60006001820161184e5761184e611826565b5060010190565b634e487b7160e01b600052604160045260246000fd5b600181811c9082168061187f57607f821691505b60208210810361189f57634e487b7160e01b600052602260045260246000fd5b50919050565b601f8211156105c8576000816000526020600020601f850160051c810160208610156118ce5750805b601f850160051c820191505b818110156118ed578281556001016118da565b505050505050565b815167ffffffffffffffff81111561190f5761190f611855565b6119238161191d845461186b565b846118a5565b602080601f83116001811461195857600084156119405750858301515b600019600386901b1c1916600185901b1785556118ed565b600085815260208120601f198616915b8281101561198757888601518255948401946001909101908401611968565b50858210156119a55787850151600019600388901b60f8161c191681555b5050505050600190811b01905550565b83815260406020820152816040820152818360608301376000818301606090810191909152601f909201601f1916010192915050565b808201808211156104dc576104dc611826565b80820281158282048414176104dc576104dc611826565b600082611a3257634e487b7160e01b600052601260045260246000fd5b500490565b818103818111156104dc576104dc61182656fea2646970667358221220a6a2d6b89babc3151f33db4214fa0416e89df77c64577a5755adb87cd8a6b57664736f6c63430008180033",
  "linkReferences": {},
  "deployedLinkReferences": {}
}