{
  "_format": "hh-sol-artifact-1",
  "contractName": "POCBeacons",
  "sourceName": "contracts/evm/POCBeacons.sol",
  "abi": [
    {
      "inputs": [
        {
          "internalType": "address",
          "name": "_token",
          "type": "address"
        },
        {
          "internalType": "address",
          "name": "admin",
          "type": "address"
        }
      ],
      "stateMutability": "nonpayable",
      "type": "constructor"
    },
    {
      "inputs": [],
      "name": "AccessControlBadConfirmation",
      "type": "error"
    },
    {
      "inputs": [
        {
          "internalType": "address",
          "name": "account",
          "type": "address"
        },
        {
          "internalType": "bytes32",
          "name": "neededRole",
          "type": "bytes32"
        }
      ],
      "name": "AccessControlUnauthorizedAccount",
      "type": "error"
    },
    {
      "inputs": [],
      "name": "ReentrancyGuardReentrantCall",
      "type": "error"
    },
    {
      "anonymous": false,
      "inputs": [
        {
          "indexed": true,
          "internalType": "uint256",
          "name": "beaconId",
          "type": "uint256"
        },
        {
          "indexed": false,
          "internalType": "string",
          "name": "location",
          "type": "string"
        },
        {
          "indexed": true,
          "internalType": "address",
          "name": "owner",
          "type": "address"
        }
      ],
      "name": "BeaconCreated",
      "type": "event"
    },
    {
      "anonymous": false,
      "inputs": [
        {
          "indexed": true,
          "internalType": "uint256",
          "name": "beaconId",
          "type": "uint256"
        },
        {
          "indexed": false,
          "internalType": "bool",
          "name": "isActive",
          "type": "bool"
        }
      ],
      "name": "BeaconUpdated",
      "type": "event"
    },
    {
      "anonymous": false,
      "inputs": [
        {
          "indexed": true,
          "internalType": "address",
          "name": "user",
          "type": "address"
        },
        {
          "indexed": true,
          "internalType": "uint256",
          "name": "beaconId",
          "type": "uint256"
        },
        {
          "indexed": false,
          "internalType": "uint256",
          "name": "timestamp",
          "type": "uint256"
        },
        {
          "indexed": false,
          "internalType": "string",
          "name": "method",
          "type": "string"
        },
        {
          "indexed": false,
          "internalType": "uint256",
          "name": "streak",
          "type": "uint256"
        }
      ],
      "name": "CheckinRecorded",
      "type": "event"
    },
    {
      "anonymous": false,
      "inputs": [
        {
          "indexed": true,
          "internalType": "bytes32",
          "name": "role",
          "type": "bytes32"
        },
        {
          "indexed": true,
          "internalType": "bytes32",
          "name": "previousAdminRole",
          "type": "bytes32"
        },
        {
          "indexed": true,
          "internalType": "bytes32",
          "name": "newAdminRole",
          "type": "bytes32"
        }
      ],
      "name": "RoleAdminChanged",
      "type": "event"
    },
    {
      "anonymous": false,
      "inputs": [
        {
          "indexed": true,
          "internalType": "bytes32",
          "name": "role",
          "type": "bytes32"
        },
        {
          "indexed": true,
          "internalType": "address",
          "name": "account",
          "type": "address"
        },
        {
          "indexed": true,
          "internalType": "address",
          "name": "sender",
          "type": "address"
        }
      ],
      "name": "RoleGranted",
      "type": "event"
    },
    {
      "anonymous": false,
      "inputs": [
        {
          "indexed": true,
          "internalType": "bytes32",
          "name": "role",
          "type": "bytes32"
        },
        {
          "indexed": true,
          "internalType": "address",
          "name": "account",
          "type": "address"
        },
        {
          "indexed": true,
          "internalType": "address",
          "name": "sender",
          "type": "address"
        }
      ],
      "name": "RoleRevoked",
      "type": "event"
    },
    {
      "inputs": [],
      "name": "BEACON_MANAGER_ROLE",
      "outputs": [
        {
          "internalType": "bytes32",
          "name": "",
          "type": "bytes32"
        }
      ],
      "stateMutability": "view",
      "type": "function"
    },
    {
      "inputs": [],
      "name": "DEFAULT_ADMIN_ROLE",
      "outputs": [
        {
          "internalType": "bytes32",
          "name": "",
          "type": "bytes32"
        }
      ],
      "stateMutability": "view",
      "type": "function"
    },
    {
      "inputs": [],
      "name": "GEO_RADIUS_LIMIT",
      "outputs": [
        {
          "internalType": "uint256",
          "name": "",
          "type": "uint256"
        }
      ],
      "stateMutability": "view",
      "type": "function"
    },
    {
      "inputs": [],
      "name": "MAX_DAILY_CHECKINS",
      "outputs": [
        {
          "internalType": "uint256",
          "name": "",
          "type": "uint256"
        }
      ],
      "stateMutability": "view",
      "type": "function"
    },
    {
      "inputs": [],
      "name": "MIN_CHECKIN_INTERVAL",
      "outputs": [
        {
          "internalType": "uint256",
          "name": "",
          "type": "uint256"
        }
      ],
      "stateMutability": "view",
      "type": "function"
    },
    {
      "inputs": [],
      "name": "OPERATOR_ROLE",
      "outputs": [
        {
          "internalType": "bytes32",
          "name": "",
          "type": "bytes32"
        }
      ],
      "stateMutability": "view",
      "type": "function"
    },
    {
      "inputs": [
        {
          "internalType": "uint256",
          "name": "",
          "type": "uint256"
        }
      ],
      "name": "beacons",
      "outputs": [
        {
          "internalType": "string",
          "name": "location",
          "type": "string"
        },
        {
          "internalType": "int256",
          "name": "latitude",
          "type": "int256"
        },
        {
          "internalType": "int256",
          "name": "longitude",
          "type": "int256"
        },
        {
          "internalType": "uint256",
          "name": "radius",
          "type": "uint256"
        },
        {
          "internalType": "bool",
          "name": "isActive",
          "type": "bool"
        },
        {
          "internalType": "address",
          "name": "owner",
          "type": "address"
        },
        {
          "internalType": "uint256",
          "name": "totalCheckins",
          "type": "uint256"
        }
      ],
      "stateMutability": "view",
      "type": "function"
    },
    {
      "inputs": [
        {
          "internalType": "string",
          "name": "location",
          "type": "string"
        },
        {
          "internalType": "int256",
          "name": "latitude",
          "type": "int256"
        },
        {
          "internalType": "int256",
          "name": "longitude",
          "type": "int256"
        },
        {
          "internalType": "uint256",
          "name": "radius",
          "type": "uint256"
        },
        {
          "internalType": "address",
          "name": "owner",
          "type": "address"
        }
      ],
      "name": "createBeacon",
      "outputs": [
        {
          "internalType": "uint256",
          "name": "beaconId",
          "type": "uint256"
        }
      ],
      "stateMutability": "nonpayable",
      "type": "function"
    },
    {
      "inputs": [
        {
          "internalType": "address",
          "name": "",
          "type": "address"
        }
      ],
      "name": "dailyCheckinCount",
      "outputs": [
        {
          "internalType": "uint256",
          "name": "",
          "type": "uint256"
        }
      ],
      "stateMutability": "view",
      "type": "function"
    },
    {
      "inputs": [
        {
          "internalType": "address",
          "name": "user",
          "type": "address"
        },
        {
          "internalType": "uint256",
          "name": "beaconId",
          "type": "uint256"
        },
        {
          "internalType": "string",
          "name": "method",
          "type": "string"
        }
      ],
      "name": "emergencyCheckin",
      "outputs": [],
      "stateMutability": "nonpayable",
      "type": "function"
    },
    {
      "inputs": [
        {
          "internalType": "uint256",
          "name": "beaconId",
          "type": "uint256"
        }
      ],
      "name": "getBeacon",
      "outputs": [
        {
          "components": [
            {
              "internalType": "string",
              "name": "location",
              "type": "string"
            },
            {
              "internalType": "int256",
              "name": "latitude",
              "type": "int256"
            },
            {
              "internalType": "int256",
              "name": "longitude",
              "type": "int256"
            },
            {
              "internalType": "uint256",
              "name": "radius",
              "type": "uint256"
            },
            {
              "internalType": "bool",
              "name": "isActive",
              "type": "bool"
            },
            {
              "internalType": "address",
              "name": "owner",
              "type": "address"
            },
            {
              "internalType": "uint256",
              "name": "totalCheckins",
              "type": "uint256"
            }
          ],
          "internalType": "struct POCBeacons.Beacon",
          "name": "",
          "type": "tuple"
        }
      ],
      "stateMutability": "view",
      "type": "function"
    },
    {
      "inputs": [
        {
          "internalType": "address",
          "name": "user",
          "type": "address"
        }
      ],
      "name": "getDailyStats",
      "outputs": [
        {
          "internalType": "uint256",
          "name": "count",
          "type": "uint256"
        },
        {
          "internalType": "uint256",
          "name": "date",
          "type": "uint256"
        }
      ],
      "stateMutability": "view",
      "type": "function"
    },
    {
      "inputs": [
        {
          "internalType": "bytes32",
          "name": "role",
          "type": "bytes32"
        }
      ],
      "name": "getRoleAdmin",
      "outputs": [
        {
          "internalType": "bytes32",
          "name": "",
          "type": "bytes32"
        }
      ],
      "stateMutability": "view",
      "type": "function"
    },
    {
      "inputs": [
        {
          "internalType": "address",
          "name": "user",
          "type": "address"
        }
      ],
      "name": "getUserCheckins",
      "outputs": [
        {
          "components": [
            {
              "internalType": "uint256",
              "name": "beaconId",
              "type": "uint256"
            },
            {
              "internalType": "uint256",
              "name": "timestamp",
              "type": "uint256"
            },
            {
              "internalType": "string",
              "name": "method",
              "type": "string"
            }
          ],
          "internalType": "struct POCBeacons.CheckinRecord[]",
          "name": "",
          "type": "tuple[]"
        }
      ],
      "stateMutability": "view",
      "type": "function"
    },
    {
      "inputs": [
        {
          "internalType": "bytes32",
          "name": "role",
          "type": "bytes32"
        },
        {
          "internalType": "address",
          "name": "account",
          "type": "address"
        }
      ],
      "name": "grantRole",
      "outputs": [],
      "stateMutability": "nonpayable",
      "type": "function"
    },
    {
      "inputs": [
        {
          "internalType": "bytes32",
          "name": "role",
          "type": "bytes32"
        },
        {
          "internalType": "address",
          "name": "account",
          "type": "address"
        }
      ],
      "name": "hasRole",
      "outputs": [
        {
          "internalType": "bool",
          "name": "",
          "type": "bool"
        }
      ],
      "stateMutability": "view",
      "type": "function"
    },
    {
      "inputs": [
        {
          "internalType": "address",
          "name": "",
          "type": "address"
        }
      ],
      "name": "lastCheckinDate",
      "outputs": [
        {
          "internalType": "uint256",
          "name": "",
          "type": "uint256"
        }
      ],
      "stateMutability": "view",
      "type": "function"
    },
    {
      "inputs": [
        {
          "internalType": "address",
          "name": "",
          "type": "address"
        },
        {
          "internalType": "uint256",
          "name": "",
          "type": "uint256"
        }
      ],
      "name": "lastCheckinTime",
      "outputs": [
        {
          "internalType": "uint256",
          "name": "",
          "type": "uint256"
        }
      ],
      "stateMutability": "view",
      "type": "function"
    },
    {
      "inputs": [],
      "name": "nextBeaconId",
      "outputs": [
        {
          "internalType": "uint256",
          "name": "",
          "type": "uint256"
        }
      ],
      "stateMutability": "view",
      "type": "function"
    },
    {
      "inputs": [
        {
          "internalType": "uint256",
          "name": "beaconId",
          "type": "uint256"
        },
        {
          "internalType": "string",
          "name": "method",
          "type": "string"
        },
        {
          "internalType": "int256",
          "name": "userLatitude",
          "type": "int256"
        },
        {
          "internalType": "int256",
          "name": "userLongitude",
          "type": "int256"
        }
      ],
      "name": "recordCheckin",
      "outputs": [],
      "stateMutability": "nonpayable",
      "type": "function"
    },
    {
      "inputs": [
        {
          "internalType": "bytes32",
          "name": "role",
          "type": "bytes32"
        },
        {
          "internalType": "address",
          "name": "callerConfirmation",
          "type": "address"
        }
      ],
      "name": "renounceRole",
      "outputs": [],
      "stateMutability": "nonpayable",
      "type": "function"
    },
    {
      "inputs": [
        {
          "internalType": "bytes32",
          "name": "role",
          "type": "bytes32"
        },
        {
          "internalType": "address",
          "name": "account",
          "type": "address"
        }
      ],
      "name": "revokeRole",
      "outputs": [],
      "stateMutability": "nonpayable",
      "type": "function"
    },
    {
      "inputs": [
        {
          "internalType": "uint256",
          "name": "beaconId",
          "type": "uint256"
        },
        {
          "internalType": "bool",
          "name": "isActive",
          "type": "bool"
        }
      ],
      "name": "setBeaconActive",
      "outputs": [],
      "stateMutability": "nonpayable",
      "type": "function"
    },
    {
      "inputs": [
        {
          "internalType": "bytes4",
          "name": "interfaceId",
          "type": "bytes4"
        }
      ],
      "name": "supportsInterface",
      "outputs": [
        {
          "internalType": "bool",
          "name": "",
          "type": "bool"
        }
      ],
      "stateMutability": "view",
      "type": "function"
    },
    {
      "inputs": [],
      "name": "token",
      "outputs": [
        {
          "internalType": "contract ITokenERC20",
          "name": "",
          "type": "address"
        }
      ],
      "stateMutability": "view",
      "type": "function"
    },
    {
      "inputs": [
        {
          "internalType": "address",
          "name": "",
          "type": "address"
        },
        {
          "internalType": "uint256",
          "name": "",
          "type": "uint256"
        }
      ],
      "name": "userCheckins",
      "outputs": [
        {
          "internalType": "uint256",
          "name": "beaconId",
          "type": "uint256"
        },
        {
          "internalType": "uint256",
          "name": "timestamp",
          "type": "uint256"
        },
        {
          "internalType": "string",
          "name": "method",
          "type": "string"
        }
      ],
      "stateMutability": "view",
      "type": "function"
    }
  ],
  "bytecode": "0x60a060405260016007553480156200001657600080fd5b5060405162001d3138038062001d31833981016040819052620000399162000186565b600180556001600160a01b03821660805262000057600082620000ba565b50620000847f640bfd705640e3065186462c691acdabf19b95f6c53d99fbdc7a92af08e802da82620000ba565b50620000b17f97667070c54ef182b0f5858b034beac1b6f3089aa2d3188bb1e8929f4fa9b92982620000ba565b505050620001be565b6000828152602081815260408083206001600160a01b038516845290915281205460ff166200015f576000838152602081815260408083206001600160a01b03861684529091529020805460ff19166001179055620001163390565b6001600160a01b0316826001600160a01b0316847f2f8788117e7eff1d82e926ec794901d17c78024a50270940304540a733656f0d60405160405180910390a450600162000163565b5060005b92915050565b80516001600160a01b03811681146200018157600080fd5b919050565b600080604083850312156200019a57600080fd5b620001a58362000169565b9150620001b56020840162000169565b90509250929050565b608051611b49620001e8600039600081816104430152818161107201526111460152611b496000f3fe608060405234801561001057600080fd5b506004361061018e5760003560e01c80638b05ef6d116100de578063c3d0310211610097578063d547741f11610071578063d547741f146103e4578063de743487146103f7578063f5b541a614610417578063fc0c546a1461043e57600080fd5b8063c3d03102146103bf578063c8483b2f146103d2578063ccbb97f0146103dc57600080fd5b80638b05ef6d1461031357806390caecc21461032657806391d148541461034657806399152b1314610359578063a16295b11461036c578063a217fddf146103b757600080fd5b8063450914161161014b578063553eec6311610125578063553eec631461029857806367fdf789146102ba5780636916e319146102e05780636ed5a7751461030057600080fd5b806345091416146102445780634d4b97ea1461026f578063547d44791461028f57600080fd5b806301ffc9a71461019357806315efb66e146101bb57806320a51ff2146101d2578063248a9ca3146101f95780632f2ff15d1461021c57806336568abe14610231575b600080fd5b6101a66101a1366004611409565b61047d565b60405190151581526020015b60405180910390f35b6101c460075481565b6040519081526020016101b2565b6101c47f640bfd705640e3065186462c691acdabf19b95f6c53d99fbdc7a92af08e802da81565b6101c461020736600461143a565b60009081526020819052604090206001015490565b61022f61022a36600461146f565b6104b4565b005b61022f61023f36600461146f565b6104df565b6101c461025236600461149b565b600360209081526000928352604080842090915290825290205481565b6101c461027d3660046114c5565b60056020526000908152604090205481565b6101c46103e881565b6102ab6102a636600461149b565b610517565b6040516101b293929190611526565b6102cd6102c836600461143a565b6105e6565b6040516101b2979695949392919061154e565b6102f36102ee3660046114c5565b6106b8565b6040516101b2919061159b565b61022f61030e366004611665565b6107d3565b6101c46103213660046116bf565b61099b565b61033961033436600461143a565b610ba4565b6040516101b2919061172e565b6101a661035436600461146f565b610ceb565b61022f61036736600461179d565b610d14565b6103a261037a3660046114c5565b6001600160a01b03166000908152600560209081526040808320546006909252909120549091565b604080519283526020830191909152016101b2565b6101c4600081565b61022f6103cd3660046117d2565b610d99565b6101c46201518081565b6101c4600a81565b61022f6103f236600461146f565b611217565b6101c46104053660046114c5565b60066020526000908152604090205481565b6101c47f97667070c54ef182b0f5858b034beac1b6f3089aa2d3188bb1e8929f4fa9b92981565b6104657f000000000000000000000000000000000000000000000000000000000000000081565b6040516001600160a01b0390911681526020016101b2565b60006001600160e01b03198216637965db0b60e01b14806104ae57506301ffc9a760e01b6001600160e01b03198316145b92915050565b6000828152602081905260409020600101546104cf8161123c565b6104d98383611249565b50505050565b6001600160a01b03811633146105085760405163334bd91960e11b815260040160405180910390fd5b61051282826112db565b505050565b6004602052816000526040600020818154811061053357600080fd5b90600052602060002090600302016000915091505080600001549080600101549080600201805461056390611830565b80601f016020809104026020016040519081016040528092919081815260200182805461058f90611830565b80156105dc5780601f106105b1576101008083540402835291602001916105dc565b820191906000526020600020905b8154815290600101906020018083116105bf57829003601f168201915b5050505050905083565b60026020526000908152604090208054819061060190611830565b80601f016020809104026020016040519081016040528092919081815260200182805461062d90611830565b801561067a5780601f1061064f5761010080835404028352916020019161067a565b820191906000526020600020905b81548152906001019060200180831161065d57829003601f168201915b505050600184015460028501546003860154600487015460059097015495969295919450925060ff8216916001600160a01b03610100909104169087565b6001600160a01b0381166000908152600460209081526040808320805482518185028101850190935280835260609492939192909184015b828210156107c85783829060005260206000209060030201604051806060016040529081600082015481526020016001820154815260200160028201805461073790611830565b80601f016020809104026020016040519081016040528092919081815260200182805461076390611830565b80156107b05780601f10610785576101008083540402835291602001916107b0565b820191906000526020600020905b81548152906001019060200180831161079357829003601f168201915b505050505081525050815260200190600101906106f0565b505050509050919050565b7f97667070c54ef182b0f5858b034beac1b6f3089aa2d3188bb1e8929f4fa9b9296107fd8161123c565b6000848152600260205260409020600481015460ff166108585760405162461bcd60e51b8152602060048201526011602482015270426561636f6e206e6f742061637469766560781b60448201526064015b60405180910390fd5b6001600160a01b038616600090815260036020908152604080832088845290915281204290556005820180549161088e83611880565b919050555060046000876001600160a01b03166001600160a01b03168152602001908152602001600020604051806060016040528087815260200142815260200186868080601f016020809104026020016040519081016040528093929190818152602001838380828437600092018290525093909452505083546001818101865594825260209182902084516003909202019081559083015193810193909355506040810151909190600282019061094790826118ff565b50505084866001600160a01b03167f68367d88347bca453753284071131029e6bf163819b08abf46e3a06bacd26edc428787600060405161098b94939291906119e8565b60405180910390a3505050505050565b60007f640bfd705640e3065186462c691acdabf19b95f6c53d99fbdc7a92af08e802da6109c78161123c565b6103e8841115610a0c5760405162461bcd60e51b815260206004820152601060248201526f52616469757320746f6f206c6172676560801b604482015260640161084f565b86610a4c5760405162461bcd60e51b815260206004820152601060248201526f24b73b30b634b2103637b1b0ba34b7b760811b604482015260640161084f565b60078054906000610a5c83611880565b90915550604080516101006020601f8c01819004028201810190925260e081018a81529294509182918b908b9081908501838280828437600092018290525093855250505060208083018a905260408084018a905260608401899052600160808501526001600160a01b03881660a085015260c0909301829052858252600290522081518190610aec90826118ff565b5060208201516001820155604080830151600283015560608301516003830155608083015160048301805460a08601516001600160a81b0319909116921515610100600160a81b031916929092176101006001600160a01b039384160217905560c090930151600590920191909155519084169083907f5c9b3a12328b8f8730b0cf73a54bd12f9bd83da3e8f5f2f2bc41fff30e1687b490610b91908c908c90611a13565b60405180910390a3509695505050505050565b610bef6040518060e001604052806060815260200160008152602001600081526020016000815260200160001515815260200160006001600160a01b03168152602001600081525090565b60008281526002602052604090819020815160e08101909252805482908290610c1790611830565b80601f0160208091040260200160405190810160405280929190818152602001828054610c4390611830565b8015610c905780601f10610c6557610100808354040283529160200191610c90565b820191906000526020600020905b815481529060010190602001808311610c7357829003601f168201915b5050509183525050600182015460208201526002820154604082015260038201546060820152600482015460ff81161515608083015261010090046001600160a01b031660a082015260059091015460c09091015292915050565b6000918252602082815260408084206001600160a01b0393909316845291905290205460ff1690565b7f640bfd705640e3065186462c691acdabf19b95f6c53d99fbdc7a92af08e802da610d3e8161123c565b600083815260026020908152604091829020600401805460ff1916851515908117909155915191825284917ffa7b6de4e354aa7b6e306c2c45f4e37dc1479f0d9c895b05a0f5a2e2d9371a73910160405180910390a2505050565b610da1611346565b6000858152600260205260409020600481015460ff16610df75760405162461bcd60e51b8152602060048201526011602482015270426561636f6e206e6f742061637469766560781b604482015260640161084f565b6000610e066201518042611a2f565b336000908152600660205260409020549091508114610e3f57336000908152600560209081526040808320839055600690915290208190555b33600090815260056020526040902054600a11610e945760405162461bcd60e51b815260206004820152601360248201527211185a5b1e481b1a5b5a5d081c995858da1959606a1b604482015260640161084f565b3360009081526003602090815260408083208a84529091529020544290610ebf906201518090611a51565b1115610f0d5760405162461bcd60e51b815260206004820152601860248201527f416c726561647920636865636b656420696e20746f6461790000000000000000604482015260640161084f565b610f268484846001015485600201548660030154611370565b610f6a5760405162461bcd60e51b81526020600482015260156024820152744f75747369646520626561636f6e2072616469757360581b604482015260640161084f565b3360008181526003602090815260408083208b8452825280832042905592825260059052908120805491610f9d83611880565b9091555050600582018054906000610fb483611880565b919050555060046000336001600160a01b03166001600160a01b03168152602001908152602001600020604051806060016040528089815260200142815260200188888080601f016020809104026020016040519081016040528093929190818152602001838380828437600092018290525093909452505083546001818101865594825260209182902084516003909202019081559083015193810193909355506040810151909190600282019061106d90826118ff565b5050507f00000000000000000000000000000000000000000000000000000000000000006001600160a01b03166323e6d39c6040518163ffffffff1660e01b8152600401600060405180830381600087803b1580156110cb57600080fd5b505af19250505080156110dc575060015b61112e5786336001600160a01b03167f68367d88347bca453753284071131029e6bf163819b08abf46e3a06bacd26edc428989600060405161112194939291906119e8565b60405180910390a3611205565b60405163d8c83bb360e01b81523360048201526000907f00000000000000000000000000000000000000000000000000000000000000006001600160a01b03169063d8c83bb390602401602060405180830381865afa158015611195573d6000803e3d6000fd5b505050506040513d601f19601f820116820180604052508101906111b99190611a64565b905087336001600160a01b03167f68367d88347bca453753284071131029e6bf163819b08abf46e3a06bacd26edc428a8a866040516111fb94939291906119e8565b60405180910390a3505b505061121060018055565b5050505050565b6000828152602081905260409020600101546112328161123c565b6104d983836112db565b61124681336113cc565b50565b60006112558383610ceb565b6112d3576000838152602081815260408083206001600160a01b03861684529091529020805460ff1916600117905561128b3390565b6001600160a01b0316826001600160a01b0316847f2f8788117e7eff1d82e926ec794901d17c78024a50270940304540a733656f0d60405160405180910390a45060016104ae565b5060006104ae565b60006112e78383610ceb565b156112d3576000838152602081815260408083206001600160a01b0386168085529252808320805460ff1916905551339286917ff6391f5c32d9c69d2a47ea670b442974b53935d1edc7fd64eb21e047a839171b9190a45060016104ae565b60026001540361136957604051633ee5aeb560e01b815260040160405180910390fd5b6002600155565b60008061137d8588611a7d565b9050600061138b8588611a7d565b905060006113998280611aa4565b6113a38480611aa4565b6113ad9190611ad4565b905060006113bb8680611afc565b909111159998505050505050505050565b6113d68282610ceb565b6114055760405163e2517d3f60e01b81526001600160a01b03821660048201526024810183905260440161084f565b5050565b60006020828403121561141b57600080fd5b81356001600160e01b03198116811461143357600080fd5b9392505050565b60006020828403121561144c57600080fd5b5035919050565b80356001600160a01b038116811461146a57600080fd5b919050565b6000806040838503121561148257600080fd5b8235915061149260208401611453565b90509250929050565b600080604083850312156114ae57600080fd5b6114b783611453565b946020939093013593505050565b6000602082840312156114d757600080fd5b61143382611453565b6000815180845260005b81811015611506576020818501810151868301820152016114ea565b506000602082860101526020601f19601f83011685010191505092915050565b83815282602082015260606040820152600061154560608301846114e0565b95945050505050565b60e08152600061156160e083018a6114e0565b6020830198909852506040810195909552606085019390935290151560808401526001600160a01b031660a083015260c090910152919050565b600060208083018184528085518083526040925060408601915060408160051b87010184880160005b8381101561160e57888303603f19018552815180518452878101518885015286015160608785018190526115fa818601836114e0565b9689019694505050908601906001016115c4565b509098975050505050505050565b60008083601f84011261162e57600080fd5b50813567ffffffffffffffff81111561164657600080fd5b60208301915083602082850101111561165e57600080fd5b9250929050565b6000806000806060858703121561167b57600080fd5b61168485611453565b935060208501359250604085013567ffffffffffffffff8111156116a757600080fd5b6116b38782880161161c565b95989497509550505050565b60008060008060008060a087890312156116d857600080fd5b863567ffffffffffffffff8111156116ef57600080fd5b6116fb89828a0161161c565b90975095505060208701359350604087013592506060870135915061172260808801611453565b90509295509295509295565b602081526000825160e0602084015261174b6101008401826114e0565b90506020840151604084015260408401516060840152606084015160808401526080840151151560a084015260018060a01b0360a08501511660c084015260c084015160e08401528091505092915050565b600080604083850312156117b057600080fd5b82359150602083013580151581146117c757600080fd5b809150509250929050565b6000806000806000608086880312156117ea57600080fd5b85359450602086013567ffffffffffffffff81111561180857600080fd5b6118148882890161161c565b9699909850959660408101359660609091013595509350505050565b600181811c9082168061184457607f821691505b60208210810361186457634e487b7160e01b600052602260045260246000fd5b50919050565b634e487b7160e01b600052601160045260246000fd5b6000600182016118925761189261186a565b5060010190565b634e487b7160e01b600052604160045260246000fd5b601f821115610512576000816000526020600020601f850160051c810160208610156118d85750805b601f850160051c820191505b818110156118f7578281556001016118e4565b505050505050565b815167ffffffffffffffff81111561191957611919611899565b61192d816119278454611830565b846118af565b602080601f831160018114611962576000841561194a5750858301515b600019600386901b1c1916600185901b1785556118f7565b600085815260208120601f198616915b8281101561199157888601518255948401946001909101908401611972565b50858210156119af5787850151600019600388901b60f8161c191681555b5050505050600190811b01905550565b81835281816020850137506000828201602090810191909152601f909101601f19169091010190565b848152606060208201526000611a026060830185876119bf565b905082604083015295945050505050565b602081526000611a276020830184866119bf565b949350505050565b600082611a4c57634e487b7160e01b600052601260045260246000fd5b500490565b808201808211156104ae576104ae61186a565b600060208284031215611a7657600080fd5b5051919050565b8181036000831280158383131683831282161715611a9d57611a9d61186a565b5092915050565b80820260008212600160ff1b84141615611ac057611ac061186a565b81810583148215176104ae576104ae61186a565b8082018281126000831280158216821582161715611af457611af461186a565b505092915050565b80820281158282048414176104ae576104ae61186a56fea2646970667358221220daa16e0eb14a04d732bebf053f4b61b8a2036b519af2f7542f41e54da3e21a7264736f6c63430008180033",
  "linkReferences": {},
  "deployedLinkReferences": {}
}