{
  "_format": "hh-sol-artifact-1",
  "contractName": "LiquidityHelper",
  "sourceName": "contracts/evm/LiquidityHelper.sol",
  "abi": [
    {
      "inputs": [
        {
          "internalType": "address",
          "name": "token_",
          "type": "address"
        },
        {
          "internalType": "address",
          "name": "router_",
          "type": "address"
        },
        {
          "internalType": "address",
          "name": "team_",
          "type": "address"
        },
        {
          "internalType": "uint256",
          "name": "releaseTime_",
          "type": "uint256"
        }
      ],
      "stateMutability": "nonpayable",
      "type": "constructor"
    },
    {
      "inputs": [
        {
          "internalType": "address",
          "name": "owner",
          "type": "address"
        }
      ],
      "name": "OwnableInvalidOwner",
      "type": "error"
    },
    {
      "inputs": [
        {
          "internalType": "address",
          "name": "account",
          "type": "address"
        }
      ],
      "name": "OwnableUnauthorizedAccount",
      "type": "error"
    },
    {
      "inputs": [],
      "name": "ReentrancyGuardReentrantCall",
      "type": "error"
    },
    {
      "inputs": [
        {
          "internalType": "address",
          "name": "token",
          "type": "address"
        }
      ],
      "name": "SafeERC20FailedOperation",
      "type": "error"
    },
    {
      "anonymous": false,
      "inputs": [
        {
          "indexed": true,
          "internalType": "address",
          "name": "previousOwner",
          "type": "address"
        },
        {
          "indexed": true,
          "internalType": "address",
          "name": "newOwner",
          "type": "address"
        }
      ],
      "name": "OwnershipTransferred",
      "type": "event"
    },
    {
      "inputs": [],
      "name": "lockedTeam",
      "outputs": [
        {
          "internalType": "uint256",
          "name": "",
          "type": "uint256"
        }
      ],
      "stateMutability": "view",
      "type": "function"
    },
    {
      "inputs": [],
      "name": "owner",
      "outputs": [
        {
          "internalType": "address",
          "name": "",
          "type": "address"
        }
      ],
      "stateMutability": "view",
      "type": "function"
    },
    {
      "inputs": [],
      "name": "releaseTeamTokens",
      "outputs": [],
      "stateMutability": "nonpayable",
      "type": "function"
    },
    {
      "inputs": [],
      "name": "releaseTime",
      "outputs": [
        {
          "internalType": "uint256",
          "name": "",
          "type": "uint256"
        }
      ],
      "stateMutability": "view",
      "type": "function"
    },
    {
      "inputs": [],
      "name": "renounceOwnership",
      "outputs": [],
      "stateMutability": "nonpayable",
      "type": "function"
    },
    {
      "inputs": [],
      "name": "router",
      "outputs": [
        {
          "internalType": "contract IUniswapV2Router02",
          "name": "",
          "type": "address"
        }
      ],
      "stateMutability": "view",
      "type": "function"
    },
    {
      "inputs": [
        {
          "internalType": "uint256",
          "name": "tokenAmount",
          "type": "uint256"
        }
      ],
      "name": "seedLiquidity",
      "outputs": [],
      "stateMutability": "payable",
      "type": "function"
    },
    {
      "inputs": [],
      "name": "team",
      "outputs": [
        {
          "internalType": "address",
          "name": "",
          "type": "address"
        }
      ],
      "stateMutability": "view",
      "type": "function"
    },
    {
      "inputs": [],
      "name": "token",
      "outputs": [
        {
          "internalType": "contract IERC20",
          "name": "",
          "type": "address"
        }
      ],
      "stateMutability": "view",
      "type": "function"
    },
    {
      "inputs": [
        {
          "internalType": "address",
          "name": "newOwner",
          "type": "address"
        }
      ],
      "name": "transferOwnership",
      "outputs": [],
      "stateMutability": "nonpayable",
      "type": "function"
    },
    {
      "stateMutability": "payable",
      "type": "receive"
    }
  ],
  "bytecode": "0x61010060405234801561001157600080fd5b50604051610b13380380610b1383398101604081905261003091610134565b338061005757604051631e4fbdf760e01b8152600060048201526024015b60405180910390fd5b610060816100c8565b50600180554281116100a65760405162461bcd60e51b815260206004820152600f60248201526e1c995b19585cd9481a5b881c185cdd608a1b604482015260640161004e565b6001600160a01b0393841660805291831660a05290911660c05260e05261017f565b600080546001600160a01b038381166001600160a01b0319831681178455604051919092169283917f8be0079c531659141344cd1fd0a4f28419497f9722a3daafe3b4186f6b6457e09190a35050565b80516001600160a01b038116811461012f57600080fd5b919050565b6000806000806080858703121561014a57600080fd5b61015385610118565b935061016160208601610118565b925061016f60408601610118565b6060959095015193969295505050565b60805160a05160c05160e0516109236101f060003960008181610172015261023901526000818161010801526102cd0152600081816101d9015281816103ec015261041301526000818161020d015281816102ab0152818161036c015281816103ca015261044301526109236000f3fe6080604052600436106100955760003560e01c8063b91d400111610059578063b91d400114610160578063c57fed1314610194578063f2fde38b146101a7578063f887ea40146101c7578063fc0c546a146101fb57600080fd5b806314c411c7146100a15780635107fde8146100b8578063715018a6146100e157806385f2aef2146100f65780638da5cb5b1461014257600080fd5b3661009c57005b600080fd5b3480156100ad57600080fd5b506100b661022f565b005b3480156100c457600080fd5b506100ce60025481565b6040519081526020015b60405180910390f35b3480156100ed57600080fd5b506100b66102fe565b34801561010257600080fd5b5061012a7f000000000000000000000000000000000000000000000000000000000000000081565b6040516001600160a01b0390911681526020016100d8565b34801561014e57600080fd5b506000546001600160a01b031661012a565b34801561016c57600080fd5b506100ce7f000000000000000000000000000000000000000000000000000000000000000081565b6100b66101a2366004610801565b610310565b3480156101b357600080fd5b506100b66101c236600461081a565b61052e565b3480156101d357600080fd5b5061012a7f000000000000000000000000000000000000000000000000000000000000000081565b34801561020757600080fd5b5061012a7f000000000000000000000000000000000000000000000000000000000000000081565b610237610569565b7f00000000000000000000000000000000000000000000000000000000000000004210156102955760405162461bcd60e51b81526020600482015260066024820152651b1bd8dad95960d21b60448201526064015b60405180910390fd5b6002805460009091556102f26001600160a01b037f0000000000000000000000000000000000000000000000000000000000000000167f000000000000000000000000000000000000000000000000000000000000000083610593565b506102fc60018055565b565b6103066105f7565b6102fc6000610624565b6103186105f7565b610320610569565b6000341161035f5760405162461bcd60e51b815260206004820152600c60248201526b115512081c995c5d5a5c995960a21b604482015260640161028c565b6103946001600160a01b037f000000000000000000000000000000000000000000000000000000000000000016333084610674565b600060646103a383605a610860565b6103ad9190610877565b905060006103bb8284610899565b90506104116001600160a01b037f0000000000000000000000000000000000000000000000000000000000000000167f0000000000000000000000000000000000000000000000000000000000000000846106b3565b7f00000000000000000000000000000000000000000000000000000000000000006001600160a01b031663f305d719347f0000000000000000000000000000000000000000000000000000000000000000856000806104786000546001600160a01b031690565b60405160e088901b6001600160e01b03191681526001600160a01b03958616600482015260248101949094526044840192909252606483015290911660848201524260a482015260c40160606040518083038185885af11580156104e0573d6000803e3d6000fd5b50505050506040513d601f19601f8201168201806040525081019061050591906108ac565b505050806002600082825461051a91906108da565b9091555050600180555061052b9050565b50565b6105366105f7565b6001600160a01b03811661056057604051631e4fbdf760e01b81526000600482015260240161028c565b61052b81610624565b60026001540361058c57604051633ee5aeb560e01b815260040160405180910390fd5b6002600155565b6040516001600160a01b038381166024830152604482018390526105f291859182169063a9059cbb906064015b604051602081830303815290604052915060e01b6020820180516001600160e01b03838183161783525050505061073f565b505050565b6000546001600160a01b031633146102fc5760405163118cdaa760e01b815233600482015260240161028c565b600080546001600160a01b038381166001600160a01b0319831681178455604051919092169283917f8be0079c531659141344cd1fd0a4f28419497f9722a3daafe3b4186f6b6457e09190a35050565b6040516001600160a01b0384811660248301528381166044830152606482018390526106ad9186918216906323b872dd906084016105c0565b50505050565b604080516001600160a01b038416602482015260448082018490528251808303909101815260649091019091526020810180516001600160e01b031663095ea7b360e01b17905261070484826107b0565b6106ad576040516001600160a01b0384811660248301526000604483015261073991869182169063095ea7b3906064016105c0565b6106ad84825b600080602060008451602086016000885af180610762576040513d6000823e3d81fd5b50506000513d9150811561077a578060011415610787565b6001600160a01b0384163b155b156106ad57604051635274afe760e01b81526001600160a01b038516600482015260240161028c565b6000806000806020600086516020880160008a5af192503d915060005190508280156107f5575081156107e657806001146107f5565b6000866001600160a01b03163b115b93505050505b92915050565b60006020828403121561081357600080fd5b5035919050565b60006020828403121561082c57600080fd5b81356001600160a01b038116811461084357600080fd5b9392505050565b634e487b7160e01b600052601160045260246000fd5b80820281158282048414176107fb576107fb61084a565b60008261089457634e487b7160e01b600052601260045260246000fd5b500490565b818103818111156107fb576107fb61084a565b6000806000606084860312156108c157600080fd5b8351925060208401519150604084015190509250925092565b808201808211156107fb576107fb61084a56fea264697066735822122069f738048ca6b2f9a89670b98ccd2ab1ea7ad4a8b8a96f8b6e9b0e013c5a4d1464736f6c63430008180033",
  "linkReferences": {},
  "deployedLinkReferences": {}
}