{
  "_format": "hh-sol-artifact-1",
  "contractName": "LiquidityHelper",
  "sourceName": "contracts/evm/LiquidityHelper.sol",
  "abi": [
    {
      "inputs": [
        {
          "internalType": "address",
          "name": "token_",
          "type": "address"
        },
        {
          "internalType": "address",
          "name": "router_",
          "type": "address"
        },
        {
          "internalType": "address",
          "name": "team_",
          "type": "address"
        },
        {
          "internalType": "uint256",
          "name": "releaseTime_",
          "type": "uint256"
        }
      ],
      "stateMutability": "nonpayable",
      "type": "constructor"
    },
    {
      "inputs": [
        {
          "internalType": "address",
          "name": "owner",
          "type": "address"
        }
      ],
      "name": "OwnableInvalidOwner",
      "type": "error"
    },
    {
      "inputs": [
        {
          "internalType": "address",
          "name": "account",
          "type": "address"
        }
      ],
      "name": "OwnableUnauthorizedAccount",
      "type": "error"
    },
    {
      "inputs": [],
      "name": "ReentrancyGuardReentrantCall",
      "type": "error"
    },
    {
      "inputs": [
        {
          "internalType": "address",
          "name": "token",
          "type": "address"
        }
      ],
      "name": "SafeERC20FailedOperation",
      "type": "error"
    },
    {
      "anonymous": false,
      "inputs": [
        {
          "indexed": true,
          "internalType": "address",
          "name": "previousOwner",
          "type": "address"
        },
        {
          "indexed": true,
          "internalType": "address",
          "name": "newOwner",
          "type": "address"
        }
      ],
      "name": "OwnershipTransferred",
      "type": "event"
    },
    {
      "inputs": [],
      "name": "lockedTeam",
      "outputs": [
        {
          "internalType": "uint256",
          "name": "",
          "type": "uint256"
        }
      ],
      "stateMutability": "view",
      "type": "function"
    },
    {
      "inputs": [],
      "name": "owner",
      "outputs": [
        {
          "internalType": "address",
          "name": "",
          "type": "address"
        }
      ],
      "stateMutability": "view",
      "type": "function"
    },
    {
      "inputs": [],
      "name": "releaseTeamTokens",
      "outputs": [],
      "stateMutability": "nonpayable",
      "type": "function"
    },
    {
      "inputs": [],
      "name": "releaseTime",
      "outputs": [
        {
          "internalType": "uint256",
          "name": "",
          "type": "uint256"
        }
      ],
      "stateMutability": "view",
      "type": "function"
    },
    {
      "inputs": [],
      "name": "renounceOwnership",
      "outputs": [],
      "stateMutability": "nonpayable",
      "type": "function"
    },
    {
      "inputs": [],
      "name": "router",
      "outputs": [
        {
          "internalType": "contract IUniswapV2Router02",
          "name": "",
          "type": "address"
        }
      ],
      "stateMutability": "view",
      "type": "function"
    },
    {
      "inputs": [
        {
          "internalType": "uint256",
          "name": "tokenAmount",
          "type": "uint256"
        }
      ],
      "name": "seedLiquidity",
      "outputs": [],
      "stateMutability": "payable",
      "type": "function"
    },
    {
      "inputs": [],
      "name": "team",
      "outputs": [
        {
          "internalType": "address",
          "name": "",
          "type": "address"
        }
      ],
      "stateMutability": "view",
      "type": "function"
    },
    {
      "inputs": [],
      "name": "token",
      "outputs": [
        {
          "internalType": "contract IERC20",
          "name": "",
          "type": "address"
        }
      ],
      "stateMutability": "view",
      "type": "function"
    },
    {
      "inputs": [
        {
          "internalType": "address",
          "name": "newOwner",
          "type": "address"
        }
      ],
      "name": "transferOwnership",
      "outputs": [],
      "stateMutability": "nonpayable",
      "type": "function"
    },
    {
      "stateMutability": "payable",
      "type": "receive"
    }
  ],
  "bytecode": "0x6101006040523480156200001257600080fd5b506040516200195e3803806200195e833981810160405281019062000038919062000421565b33600073ffffffffffffffffffffffffffffffffffffffff168173ffffffffffffffffffffffffffffffffffffffff1603620000ae5760006040517f1e4fbdf7000000000000000000000000000000000000000000000000000000008152600401620000a59190620004a4565b60405180910390fd5b620000bf81620002b560201b60201c565b5060018081905550620000e266b61edca91d086f60c01b6200037960201b60201c565b620000fe67d78c544fe2843dbf60c01b6200037960201b60201c565b6200011a67c15334f1a8cb711160c01b6200037960201b60201c565b62000136674effe4b7ceea9cf260c01b6200037960201b60201c565b4281116200017b576040517f08c379a0000000000000000000000000000000000000000000000000000000008152600401620001729062000522565b60405180910390fd5b6200019767c3f8415a5fde88f460c01b6200037960201b60201c565b620001b367b0c5f4998ac49edc60c01b6200037960201b60201c565b8373ffffffffffffffffffffffffffffffffffffffff1660808173ffffffffffffffffffffffffffffffffffffffff1681525050620002036724438d8afd4f874a60c01b6200037960201b60201c565b8273ffffffffffffffffffffffffffffffffffffffff1660a08173ffffffffffffffffffffffffffffffffffffffff16815250506200025367185b1f50bd48b4ba60c01b6200037960201b60201c565b8173ffffffffffffffffffffffffffffffffffffffff1660c08173ffffffffffffffffffffffffffffffffffffffff1681525050620002a3673edf2ed05136e5c460c01b6200037960201b60201c565b8060e081815250505050505062000544565b60008060009054906101000a900473ffffffffffffffffffffffffffffffffffffffff169050816000806101000a81548173ffffffffffffffffffffffffffffffffffffffff021916908373ffffffffffffffffffffffffffffffffffffffff1602179055508173ffffffffffffffffffffffffffffffffffffffff168173ffffffffffffffffffffffffffffffffffffffff167f8be0079c531659141344cd1fd0a4f28419497f9722a3daafe3b4186f6b6457e060405160405180910390a35050565b50565b600080fd5b600073ffffffffffffffffffffffffffffffffffffffff82169050919050565b6000620003ae8262000381565b9050919050565b620003c081620003a1565b8114620003cc57600080fd5b50565b600081519050620003e081620003b5565b92915050565b6000819050919050565b620003fb81620003e6565b81146200040757600080fd5b50565b6000815190506200041b81620003f0565b92915050565b600080600080608085870312156200043e576200043d6200037c565b5b60006200044e87828801620003cf565b94505060206200046187828801620003cf565b93505060406200047487828801620003cf565b925050606062000487878288016200040a565b91505092959194509250565b6200049e81620003a1565b82525050565b6000602082019050620004bb600083018462000493565b92915050565b600082825260208201905092915050565b7f72656c6561736520696e20706173740000000000000000000000000000000000600082015250565b60006200050a600f83620004c1565b91506200051782620004d2565b602082019050919050565b600060208201905081810360008301526200053d81620004fb565b9050919050565b60805160a05160c05160e0516113a8620005b660003960008181610298015261045f01526000818161038501526104120152600081816106a70152818161073701526108c90152600081816103a7015281816105b8015281816106c90152818161077401526108ed01526113a86000f3fe6080604052600436106100955760003560e01c8063b91d400111610059578063b91d400114610150578063c57fed131461017b578063f2fde38b14610197578063f887ea40146101c0578063fc0c546a146101eb5761009c565b806314c411c7146100a15780635107fde8146100b8578063715018a6146100e357806385f2aef2146100fa5780638da5cb5b146101255761009c565b3661009c57005b600080fd5b3480156100ad57600080fd5b506100b6610216565b005b3480156100c457600080fd5b506100cd6103f6565b6040516100da9190610ddf565b60405180910390f35b3480156100ef57600080fd5b506100f86103fc565b005b34801561010657600080fd5b5061010f610410565b60405161011c9190610e3b565b60405180910390f35b34801561013157600080fd5b5061013a610434565b6040516101479190610e3b565b60405180910390f35b34801561015c57600080fd5b5061016561045d565b6040516101729190610ddf565b60405180910390f35b61019560048036038101906101909190610e87565b610481565b005b3480156101a357600080fd5b506101be60048036038101906101b99190610ee0565b610841565b005b3480156101cc57600080fd5b506101d56108c7565b6040516101e29190610f6c565b60405180910390f35b3480156101f757600080fd5b506102006108eb565b60405161020d9190610fa8565b60405180910390f35b61022a674e7c31b054a9176e60c01b61090f565b610232610912565b61024667c05184c85e2b0b2460c01b61090f565b61025a6765f87c90f4df4b1160c01b61090f565b61026e6723da75fd7b11372260c01b61090f565b6102826786ad6658ffcde25860c01b61090f565b61029667d199bfd8b31f48c560c01b61090f565b7f00000000000000000000000000000000000000000000000000000000000000004210156102f9576040517f08c379a00000000000000000000000000000000000000000000000000000000081526004016102f090611020565b60405180910390fd5b61030d67d3fc7641fd516d1360c01b61090f565b61032167a796a012b086e8ad60c01b61090f565b61033567a2e5f44cc3117e6a60c01b61090f565b6000600254905061035067d52386d804d5f3b860c01b61090f565b600060028190555061036c67b6fe4953d9832fa060c01b61090f565b610380672bea0d049817feeb60c01b61090f565b6103eb7f0000000000000000000000000000000000000000000000000000000000000000827f000000000000000000000000000000000000000000000000000000000000000073ffffffffffffffffffffffffffffffffffffffff166109589092919063ffffffff16565b506103f46109d7565b565b60025481565b6104046109e0565b61040e6000610a67565b565b7f000000000000000000000000000000000000000000000000000000000000000081565b60008060009054906101000a900473ffffffffffffffffffffffffffffffffffffffff16905090565b7f000000000000000000000000000000000000000000000000000000000000000081565b610495674fcfad06cf95907860c01b61090f565b61049d6109e0565b6104b16799d5d1da7f6a1b5960c01b61090f565b6104c567efebb0d06e78032b60c01b61090f565b6104cd610912565b6104e1676bcd3f114d60a73760c01b61090f565b6104f56762c0845c22f4f63060c01b61090f565b610509676c0c4db772bf696d60c01b61090f565b61051d67cee858c483ca906660c01b61090f565b61053167521f68978b2a7d9a60c01b61090f565b60003411610574576040517f08c379a000000000000000000000000000000000000000000000000000000000815260040161056b9061108c565b60405180910390fd5b610588673f7d0b2d26854d5660c01b61090f565b61059c6760c0beff3b6543c660c01b61090f565b6105b06740e007582e3cb09360c01b61090f565b6105fd3330837f000000000000000000000000000000000000000000000000000000000000000073ffffffffffffffffffffffffffffffffffffffff16610b2b909392919063ffffffff16565b610611676dd5d1d913c47fe060c01b61090f565b61062567af25360b8f63be6560c01b61090f565b60006064605a8361063691906110db565b610640919061114c565b905061065667ddb906bbcaf32d7c60c01b61090f565b61066a671a269efcf68121f560c01b61090f565b60008183610678919061117d565b905061068e67f0057983cb7c80d660c01b61090f565b6106a267abf23a44447c686b60c01b61090f565b61070d7f0000000000000000000000000000000000000000000000000000000000000000837f000000000000000000000000000000000000000000000000000000000000000073ffffffffffffffffffffffffffffffffffffffff16610bad9092919063ffffffff16565b610721674123c0fd1dd4b0b760c01b61090f565b6107356716e8e29e26be016160c01b61090f565b7f000000000000000000000000000000000000000000000000000000000000000073ffffffffffffffffffffffffffffffffffffffff1663f305d719347f00000000000000000000000000000000000000000000000000000000000000008560008061079f610434565b426040518863ffffffff1660e01b81526004016107c1969594939291906111ec565b60606040518083038185885af11580156107df573d6000803e3d6000fd5b50505050506040513d601f19601f820116820180604052508101906108049190611262565b50505061081b6705f8d8b2041a701c60c01b61090f565b806002600082825461082d91906112b5565b92505081905550505061083e6109d7565b50565b6108496109e0565b600073ffffffffffffffffffffffffffffffffffffffff168173ffffffffffffffffffffffffffffffffffffffff16036108bb5760006040517f1e4fbdf70000000000000000000000000000000000000000000000000000000081526004016108b29190610e3b565b60405180910390fd5b6108c481610a67565b50565b7f000000000000000000000000000000000000000000000000000000000000000081565b7f000000000000000000000000000000000000000000000000000000000000000081565b50565b60026001540361094e576040517f3ee5aeb500000000000000000000000000000000000000000000000000000000815260040160405180910390fd5b6002600181905550565b6109d2838473ffffffffffffffffffffffffffffffffffffffff1663a9059cbb858560405160240161098b9291906112e9565b604051602081830303815290604052915060e01b6020820180517bffffffffffffffffffffffffffffffffffffffffffffffffffffffff8381831617835250505050610cbc565b505050565b60018081905550565b6109e8610d5e565b73ffffffffffffffffffffffffffffffffffffffff16610a06610434565b73ffffffffffffffffffffffffffffffffffffffff1614610a6557610a29610d5e565b6040517f118cdaa7000000000000000000000000000000000000000000000000000000008152600401610a5c9190610e3b565b60405180910390fd5b565b60008060009054906101000a900473ffffffffffffffffffffffffffffffffffffffff169050816000806101000a81548173ffffffffffffffffffffffffffffffffffffffff021916908373ffffffffffffffffffffffffffffffffffffffff1602179055508173ffffffffffffffffffffffffffffffffffffffff168173ffffffffffffffffffffffffffffffffffffffff167f8be0079c531659141344cd1fd0a4f28419497f9722a3daafe3b4186f6b6457e060405160405180910390a35050565b610ba7848573ffffffffffffffffffffffffffffffffffffffff166323b872dd868686604051602401610b6093929190611312565b604051602081830303815290604052915060e01b6020820180517bffffffffffffffffffffffffffffffffffffffffffffffffffffffff8381831617835250505050610cbc565b50505050565b60008373ffffffffffffffffffffffffffffffffffffffff1663095ea7b38484604051602401610bde9291906112e9565b604051602081830303815290604052915060e01b6020820180517bffffffffffffffffffffffffffffffffffffffffffffffffffffffff83818316178352505050509050610c2c8482610d66565b610cb657610cab848573ffffffffffffffffffffffffffffffffffffffff1663095ea7b3866000604051602401610c64929190611349565b604051602081830303815290604052915060e01b6020820180517bffffffffffffffffffffffffffffffffffffffffffffffffffffffff8381831617835250505050610cbc565b610cb58482610cbc565b5b50505050565b600080602060008451602086016000885af180610cdf576040513d6000823e3d81fd5b3d925060005191505060008214610cfa576001811415610d16565b60008473ffffffffffffffffffffffffffffffffffffffff163b145b15610d5857836040517f5274afe7000000000000000000000000000000000000000000000000000000008152600401610d4f9190610e3b565b60405180910390fd5b50505050565b600033905090565b6000806000806020600086516020880160008a5af192503d91506000519050828015610dbb575060008214610d9e5760018114610dba565b60008673ffffffffffffffffffffffffffffffffffffffff163b115b5b935050505092915050565b6000819050919050565b610dd981610dc6565b82525050565b6000602082019050610df46000830184610dd0565b92915050565b600073ffffffffffffffffffffffffffffffffffffffff82169050919050565b6000610e2582610dfa565b9050919050565b610e3581610e1a565b82525050565b6000602082019050610e506000830184610e2c565b92915050565b600080fd5b610e6481610dc6565b8114610e6f57600080fd5b50565b600081359050610e8181610e5b565b92915050565b600060208284031215610e9d57610e9c610e56565b5b6000610eab84828501610e72565b91505092915050565b610ebd81610e1a565b8114610ec857600080fd5b50565b600081359050610eda81610eb4565b92915050565b600060208284031215610ef657610ef5610e56565b5b6000610f0484828501610ecb565b91505092915050565b6000819050919050565b6000610f32610f2d610f2884610dfa565b610f0d565b610dfa565b9050919050565b6000610f4482610f17565b9050919050565b6000610f5682610f39565b9050919050565b610f6681610f4b565b82525050565b6000602082019050610f816000830184610f5d565b92915050565b6000610f9282610f39565b9050919050565b610fa281610f87565b82525050565b6000602082019050610fbd6000830184610f99565b92915050565b600082825260208201905092915050565b7f6c6f636b65640000000000000000000000000000000000000000000000000000600082015250565b600061100a600683610fc3565b915061101582610fd4565b602082019050919050565b6000602082019050818103600083015261103981610ffd565b9050919050565b7f4554482072657175697265640000000000000000000000000000000000000000600082015250565b6000611076600c83610fc3565b915061108182611040565b602082019050919050565b600060208201905081810360008301526110a581611069565b9050919050565b7f4e487b7100000000000000000000000000000000000000000000000000000000600052601160045260246000fd5b60006110e682610dc6565b91506110f183610dc6565b92508282026110ff81610dc6565b91508282048414831517611116576111156110ac565b5b5092915050565b7f4e487b7100000000000000000000000000000000000000000000000000000000600052601260045260246000fd5b600061115782610dc6565b915061116283610dc6565b9250826111725761117161111d565b5b828204905092915050565b600061118882610dc6565b915061119383610dc6565b92508282039050818111156111ab576111aa6110ac565b5b92915050565b6000819050919050565b60006111d66111d16111cc846111b1565b610f0d565b610dc6565b9050919050565b6111e6816111bb565b82525050565b600060c0820190506112016000830189610e2c565b61120e6020830188610dd0565b61121b60408301876111dd565b61122860608301866111dd565b6112356080830185610e2c565b61124260a0830184610dd0565b979650505050505050565b60008151905061125c81610e5b565b92915050565b60008060006060848603121561127b5761127a610e56565b5b60006112898682870161124d565b935050602061129a8682870161124d565b92505060406112ab8682870161124d565b9150509250925092565b60006112c082610dc6565b91506112cb83610dc6565b92508282019050808211156112e3576112e26110ac565b5b92915050565b60006040820190506112fe6000830185610e2c565b61130b6020830184610dd0565b9392505050565b60006060820190506113276000830186610e2c565b6113346020830185610e2c565b6113416040830184610dd0565b949350505050565b600060408201905061135e6000830185610e2c565b61136b60208301846111dd565b939250505056fea264697066735822122063f7e0a10322dbb423433cb193ce819d92e8e171ee9e19ec75e9798eabab7cc764736f6c63430008180033",
  "linkReferences": {},
  "deployedLinkReferences": {}
}