{
  "_format": "hh-sol-artifact-1",
  "contractName": "MemePass721",
  "sourceName": "contracts/evm/MemePass721.sol",
  "abi": [
    {
      "inputs": [
        {
          "internalType": "string",
          "name": "name_",
          "type": "string"
        },
        {
          "internalType": "string",
          "name": "symbol_",
          "type": "string"
        },
        {
          "internalType": "string",
          "name": "baseUri_",
          "type": "string"
        },
        {
          "internalType": "address",
          "name": "royaltyReceiver",
          "type": "address"
        }
      ],
      "stateMutability": "nonpayable",
      "type": "constructor"
    },
    {
      "inputs": [
        {
          "internalType": "uint256",
          "name": "numerator",
          "type": "uint256"
        },
        {
          "internalType": "uint256",
          "name": "denominator",
          "type": "uint256"
        }
      ],
      "name": "ERC2981InvalidDefaultRoyalty",
      "type": "error"
    },
    {
      "inputs": [
        {
          "internalType": "address",
          "name": "receiver",
          "type": "address"
        }
      ],
      "name": "ERC2981InvalidDefaultRoyaltyReceiver",
      "type": "error"
    },
    {
      "inputs": [
        {
          "internalType": "uint256",
          "name": "tokenId",
          "type": "uint256"
        },
        {
          "internalType": "uint256",
          "name": "numerator",
          "type": "uint256"
        },
        {
          "internalType": "uint256",
          "name": "denominator",
          "type": "uint256"
        }
      ],
      "name": "ERC2981InvalidTokenRoyalty",
      "type": "error"
    },
    {
      "inputs": [
        {
          "internalType": "uint256",
          "name": "tokenId",
          "type": "uint256"
        },
        {
          "internalType": "address",
          "name": "receiver",
          "type": "address"
        }
      ],
      "name": "ERC2981InvalidTokenRoyaltyReceiver",
      "type": "error"
    },
    {
      "inputs": [
        {
          "internalType": "address",
          "name": "sender",
          "type": "address"
        },
        {
          "internalType": "uint256",
          "name": "tokenId",
          "type": "uint256"
        },
        {
          "internalType": "address",
          "name": "owner",
          "type": "address"
        }
      ],
      "name": "ERC721IncorrectOwner",
      "type": "error"
    },
    {
      "inputs": [
        {
          "internalType": "address",
          "name": "operator",
          "type": "address"
        },
        {
          "internalType": "uint256",
          "name": "tokenId",
          "type": "uint256"
        }
      ],
      "name": "ERC721InsufficientApproval",
      "type": "error"
    },
    {
      "inputs": [
        {
          "internalType": "address",
          "name": "approver",
          "type": "address"
        }
      ],
      "name": "ERC721InvalidApprover",
      "type": "error"
    },
    {
      "inputs": [
        {
          "internalType": "address",
          "name": "operator",
          "type": "address"
        }
      ],
      "name": "ERC721InvalidOperator",
      "type": "error"
    },
    {
      "inputs": [
        {
          "internalType": "address",
          "name": "owner",
          "type": "address"
        }
      ],
      "name": "ERC721InvalidOwner",
      "type": "error"
    },
    {
      "inputs": [
        {
          "internalType": "address",
          "name": "receiver",
          "type": "address"
        }
      ],
      "name": "ERC721InvalidReceiver",
      "type": "error"
    },
    {
      "inputs": [
        {
          "internalType": "address",
          "name": "sender",
          "type": "address"
        }
      ],
      "name": "ERC721InvalidSender",
      "type": "error"
    },
    {
      "inputs": [
        {
          "internalType": "uint256",
          "name": "tokenId",
          "type": "uint256"
        }
      ],
      "name": "ERC721NonexistentToken",
      "type": "error"
    },
    {
      "inputs": [],
      "name": "EnforcedPause",
      "type": "error"
    },
    {
      "inputs": [],
      "name": "ExpectedPause",
      "type": "error"
    },
    {
      "inputs": [
        {
          "internalType": "address",
          "name": "owner",
          "type": "address"
        }
      ],
      "name": "OwnableInvalidOwner",
      "type": "error"
    },
    {
      "inputs": [
        {
          "internalType": "address",
          "name": "account",
          "type": "address"
        }
      ],
      "name": "OwnableUnauthorizedAccount",
      "type": "error"
    },
    {
      "anonymous": false,
      "inputs": [
        {
          "indexed": true,
          "internalType": "address",
          "name": "owner",
          "type": "address"
        },
        {
          "indexed": true,
          "internalType": "address",
          "name": "approved",
          "type": "address"
        },
        {
          "indexed": true,
          "internalType": "uint256",
          "name": "tokenId",
          "type": "uint256"
        }
      ],
      "name": "Approval",
      "type": "event"
    },
    {
      "anonymous": false,
      "inputs": [
        {
          "indexed": true,
          "internalType": "address",
          "name": "owner",
          "type": "address"
        },
        {
          "indexed": true,
          "internalType": "address",
          "name": "operator",
          "type": "address"
        },
        {
          "indexed": false,
          "internalType": "bool",
          "name": "approved",
          "type": "bool"
        }
      ],
      "name": "ApprovalForAll",
      "type": "event"
    },
    {
      "anonymous": false,
      "inputs": [
        {
          "indexed": false,
          "internalType": "uint256",
          "name": "tokenId",
          "type": "uint256"
        }
      ],
      "name": "Locked",
      "type": "event"
    },
    {
      "anonymous": false,
      "inputs": [
        {
          "indexed": true,
          "internalType": "address",
          "name": "previousOwner",
          "type": "address"
        },
        {
          "indexed": true,
          "internalType": "address",
          "name": "newOwner",
          "type": "address"
        }
      ],
      "name": "OwnershipTransferStarted",
      "type": "event"
    },
    {
      "anonymous": false,
      "inputs": [
        {
          "indexed": true,
          "internalType": "address",
          "name": "previousOwner",
          "type": "address"
        },
        {
          "indexed": true,
          "internalType": "address",
          "name": "newOwner",
          "type": "address"
        }
      ],
      "name": "OwnershipTransferred",
      "type": "event"
    },
    {
      "anonymous": false,
      "inputs": [
        {
          "indexed": false,
          "internalType": "address",
          "name": "account",
          "type": "address"
        }
      ],
      "name": "Paused",
      "type": "event"
    },
    {
      "anonymous": false,
      "inputs": [
        {
          "indexed": true,
          "internalType": "address",
          "name": "from",
          "type": "address"
        },
        {
          "indexed": true,
          "internalType": "address",
          "name": "to",
          "type": "address"
        },
        {
          "indexed": true,
          "internalType": "uint256",
          "name": "tokenId",
          "type": "uint256"
        }
      ],
      "name": "Transfer",
      "type": "event"
    },
    {
      "anonymous": false,
      "inputs": [
        {
          "indexed": false,
          "internalType": "uint256",
          "name": "tokenId",
          "type": "uint256"
        }
      ],
      "name": "Unlocked",
      "type": "event"
    },
    {
      "anonymous": false,
      "inputs": [
        {
          "indexed": false,
          "internalType": "address",
          "name": "account",
          "type": "address"
        }
      ],
      "name": "Unpaused",
      "type": "event"
    },
    {
      "inputs": [],
      "name": "MAX_SUPPLY",
      "outputs": [
        {
          "internalType": "uint256",
          "name": "",
          "type": "uint256"
        }
      ],
      "stateMutability": "view",
      "type": "function"
    },
    {
      "inputs": [],
      "name": "MINT_PRICE",
      "outputs": [
        {
          "internalType": "uint256",
          "name": "",
          "type": "uint256"
        }
      ],
      "stateMutability": "view",
      "type": "function"
    },
    {
      "inputs": [],
      "name": "acceptOwnership",
      "outputs": [],
      "stateMutability": "nonpayable",
      "type": "function"
    },
    {
      "inputs": [
        {
          "internalType": "address",
          "name": "to",
          "type": "address"
        },
        {
          "internalType": "uint256",
          "name": "tokenId",
          "type": "uint256"
        }
      ],
      "name": "approve",
      "outputs": [],
      "stateMutability": "nonpayable",
      "type": "function"
    },
    {
      "inputs": [
        {
          "internalType": "address",
          "name": "owner",
          "type": "address"
        }
      ],
      "name": "balanceOf",
      "outputs": [
        {
          "internalType": "uint256",
          "name": "",
          "type": "uint256"
        }
      ],
      "stateMutability": "view",
      "type": "function"
    },
    {
      "inputs": [
        {
          "internalType": "uint256",
          "name": "tokenId",
          "type": "uint256"
        }
      ],
      "name": "getApproved",
      "outputs": [
        {
          "internalType": "address",
          "name": "",
          "type": "address"
        }
      ],
      "stateMutability": "view",
      "type": "function"
    },
    {
      "inputs": [
        {
          "internalType": "address",
          "name": "owner",
          "type": "address"
        },
        {
          "internalType": "address",
          "name": "operator",
          "type": "address"
        }
      ],
      "name": "isApprovedForAll",
      "outputs": [
        {
          "internalType": "bool",
          "name": "",
          "type": "bool"
        }
      ],
      "stateMutability": "view",
      "type": "function"
    },
    {
      "inputs": [
        {
          "internalType": "uint256",
          "name": "tokenId",
          "type": "uint256"
        }
      ],
      "name": "locked",
      "outputs": [
        {
          "internalType": "bool",
          "name": "",
          "type": "bool"
        }
      ],
      "stateMutability": "view",
      "type": "function"
    },
    {
      "inputs": [
        {
          "internalType": "uint256",
          "name": "amount",
          "type": "uint256"
        }
      ],
      "name": "mint",
      "outputs": [],
      "stateMutability": "payable",
      "type": "function"
    },
    {
      "inputs": [],
      "name": "name",
      "outputs": [
        {
          "internalType": "string",
          "name": "",
          "type": "string"
        }
      ],
      "stateMutability": "view",
      "type": "function"
    },
    {
      "inputs": [],
      "name": "owner",
      "outputs": [
        {
          "internalType": "address",
          "name": "",
          "type": "address"
        }
      ],
      "stateMutability": "view",
      "type": "function"
    },
    {
      "inputs": [
        {
          "internalType": "uint256",
          "name": "tokenId",
          "type": "uint256"
        }
      ],
      "name": "ownerOf",
      "outputs": [
        {
          "internalType": "address",
          "name": "",
          "type": "address"
        }
      ],
      "stateMutability": "view",
      "type": "function"
    },
    {
      "inputs": [],
      "name": "pause",
      "outputs": [],
      "stateMutability": "nonpayable",
      "type": "function"
    },
    {
      "inputs": [],
      "name": "paused",
      "outputs": [
        {
          "internalType": "bool",
          "name": "",
          "type": "bool"
        }
      ],
      "stateMutability": "view",
      "type": "function"
    },
    {
      "inputs": [],
      "name": "pendingOwner",
      "outputs": [
        {
          "internalType": "address",
          "name": "",
          "type": "address"
        }
      ],
      "stateMutability": "view",
      "type": "function"
    },
    {
      "inputs": [],
      "name": "renounceOwnership",
      "outputs": [],
      "stateMutability": "nonpayable",
      "type": "function"
    },
    {
      "inputs": [
        {
          "internalType": "uint256",
          "name": "tokenId",
          "type": "uint256"
        },
        {
          "internalType": "uint256",
          "name": "salePrice",
          "type": "uint256"
        }
      ],
      "name": "royaltyInfo",
      "outputs": [
        {
          "internalType": "address",
          "name": "receiver",
          "type": "address"
        },
        {
          "internalType": "uint256",
          "name": "amount",
          "type": "uint256"
        }
      ],
      "stateMutability": "view",
      "type": "function"
    },
    {
      "inputs": [
        {
          "internalType": "address",
          "name": "from",
          "type": "address"
        },
        {
          "internalType": "address",
          "name": "to",
          "type": "address"
        },
        {
          "internalType": "uint256",
          "name": "tokenId",
          "type": "uint256"
        }
      ],
      "name": "safeTransferFrom",
      "outputs": [],
      "stateMutability": "nonpayable",
      "type": "function"
    },
    {
      "inputs": [
        {
          "internalType": "address",
          "name": "from",
          "type": "address"
        },
        {
          "internalType": "address",
          "name": "to",
          "type": "address"
        },
        {
          "internalType": "uint256",
          "name": "tokenId",
          "type": "uint256"
        },
        {
          "internalType": "bytes",
          "name": "data",
          "type": "bytes"
        }
      ],
      "name": "safeTransferFrom",
      "outputs": [],
      "stateMutability": "nonpayable",
      "type": "function"
    },
    {
      "inputs": [
        {
          "internalType": "address",
          "name": "operator",
          "type": "address"
        },
        {
          "internalType": "bool",
          "name": "approved",
          "type": "bool"
        }
      ],
      "name": "setApprovalForAll",
      "outputs": [],
      "stateMutability": "nonpayable",
      "type": "function"
    },
    {
      "inputs": [
        {
          "internalType": "bool",
          "name": "bound",
          "type": "bool"
        }
      ],
      "name": "setSoulbound",
      "outputs": [],
      "stateMutability": "nonpayable",
      "type": "function"
    },
    {
      "inputs": [],
      "name": "soulbound",
      "outputs": [
        {
          "internalType": "bool",
          "name": "",
          "type": "bool"
        }
      ],
      "stateMutability": "view",
      "type": "function"
    },
    {
      "inputs": [
        {
          "internalType": "bytes4",
          "name": "interfaceId",
          "type": "bytes4"
        }
      ],
      "name": "supportsInterface",
      "outputs": [
        {
          "internalType": "bool",
          "name": "",
          "type": "bool"
        }
      ],
      "stateMutability": "view",
      "type": "function"
    },
    {
      "inputs": [],
      "name": "symbol",
      "outputs": [
        {
          "internalType": "string",
          "name": "",
          "type": "string"
        }
      ],
      "stateMutability": "view",
      "type": "function"
    },
    {
      "inputs": [
        {
          "internalType": "uint256",
          "name": "tokenId",
          "type": "uint256"
        }
      ],
      "name": "tokenURI",
      "outputs": [
        {
          "internalType": "string",
          "name": "",
          "type": "string"
        }
      ],
      "stateMutability": "view",
      "type": "function"
    },
    {
      "inputs": [
        {
          "internalType": "address",
          "name": "from",
          "type": "address"
        },
        {
          "internalType": "address",
          "name": "to",
          "type": "address"
        },
        {
          "internalType": "uint256",
          "name": "tokenId",
          "type": "uint256"
        }
      ],
      "name": "transferFrom",
      "outputs": [],
      "stateMutability": "nonpayable",
      "type": "function"
    },
    {
      "inputs": [
        {
          "internalType": "address",
          "name": "newOwner",
          "type": "address"
        }
      ],
      "name": "transferOwnership",
      "outputs": [],
      "stateMutability": "nonpayable",
      "type": "function"
    },
    {
      "inputs": [],
      "name": "unpause",
      "outputs": [],
      "stateMutability": "nonpayable",
      "type": "function"
    },
    {
      "inputs": [
        {
          "internalType": "address payable",
          "name": "to",
          "type": "address"
        }
      ],
      "name": "withdraw",
      "outputs": [],
      "stateMutability": "nonpayable",
      "type": "function"
    }
  ],
  "bytecode": "0x60806040523480156200001157600080fd5b5060405162003fca38038062003fca83398181016040528101906200003791906200063b565b33848481600090816200004b919062000955565b5080600190816200005d919062000955565b505050600073ffffffffffffffffffffffffffffffffffffffff168173ffffffffffffffffffffffffffffffffffffffff1603620000d55760006040517f1e4fbdf7000000000000000000000000000000000000000000000000000000008152600401620000cc919062000a4d565b60405180910390fd5b620000e6816200018760201b60201c565b5062000103679b43404dd801277c60c01b620001c060201b60201c565b6200011f67fd6bcd06c5730b6c60c01b620001c060201b60201c565b6200013b6766b70352b3d41d0360c01b620001c060201b60201c565b6200014f816101f4620001c360201b60201c565b6200016b67c2a8e67094a1f10460c01b620001c060201b60201c565b81600c90816200017c919062000955565b505050505062000af9565b600960006101000a81549073ffffffffffffffffffffffffffffffffffffffff0219169055620001bd816200037360201b60201c565b50565b50565b6000620001d56200043960201b60201c565b6bffffffffffffffffffffffff16905080826bffffffffffffffffffffffff1611156200023d5781816040517f6f483d090000000000000000000000000000000000000000000000000000000081526004016200023492919062000acc565b60405180910390fd5b600073ffffffffffffffffffffffffffffffffffffffff168373ffffffffffffffffffffffffffffffffffffffff1603620002b25760006040517fb6d9900a000000000000000000000000000000000000000000000000000000008152600401620002a9919062000a4d565b60405180910390fd5b60405180604001604052808473ffffffffffffffffffffffffffffffffffffffff168152602001836bffffffffffffffffffffffff16815250600660008201518160000160006101000a81548173ffffffffffffffffffffffffffffffffffffffff021916908373ffffffffffffffffffffffffffffffffffffffff16021790555060208201518160000160146101000a8154816bffffffffffffffffffffffff02191690836bffffffffffffffffffffffff160217905550905050505050565b6000600860009054906101000a900473ffffffffffffffffffffffffffffffffffffffff16905081600860006101000a81548173ffffffffffffffffffffffffffffffffffffffff021916908373ffffffffffffffffffffffffffffffffffffffff1602179055508173ffffffffffffffffffffffffffffffffffffffff168173ffffffffffffffffffffffffffffffffffffffff167f8be0079c531659141344cd1fd0a4f28419497f9722a3daafe3b4186f6b6457e060405160405180910390a35050565b6000612710905090565b6000604051905090565b600080fd5b600080fd5b600080fd5b600080fd5b6000601f19601f8301169050919050565b7f4e487b7100000000000000000000000000000000000000000000000000000000600052604160045260246000fd5b620004ac8262000461565b810181811067ffffffffffffffff82111715620004ce57620004cd62000472565b5b80604052505050565b6000620004e362000443565b9050620004f18282620004a1565b919050565b600067ffffffffffffffff82111562000514576200051362000472565b5b6200051f8262000461565b9050602081019050919050565b60005b838110156200054c5780820151818401526020810190506200052f565b60008484015250505050565b60006200056f6200056984620004f6565b620004d7565b9050828152602081018484840111156200058e576200058d6200045c565b5b6200059b8482856200052c565b509392505050565b600082601f830112620005bb57620005ba62000457565b5b8151620005cd84826020860162000558565b91505092915050565b600073ffffffffffffffffffffffffffffffffffffffff82169050919050565b60006200060382620005d6565b9050919050565b6200061581620005f6565b81146200062157600080fd5b50565b60008151905062000635816200060a565b92915050565b600080600080608085870312156200065857620006576200044d565b5b600085015167ffffffffffffffff81111562000679576200067862000452565b5b6200068787828801620005a3565b945050602085015167ffffffffffffffff811115620006ab57620006aa62000452565b5b620006b987828801620005a3565b935050604085015167ffffffffffffffff811115620006dd57620006dc62000452565b5b620006eb87828801620005a3565b9250506060620006fe8782880162000624565b91505092959194509250565b600081519050919050565b7f4e487b7100000000000000000000000000000000000000000000000000000000600052602260045260246000fd5b600060028204905060018216806200075d57607f821691505b60208210810362000773576200077262000715565b5b50919050565b60008190508160005260206000209050919050565b60006020601f8301049050919050565b600082821b905092915050565b600060088302620007dd7fffffffffffffffffffffffffffffffffffffffffffffffffffffffffffffffff826200079e565b620007e986836200079e565b95508019841693508086168417925050509392505050565b6000819050919050565b6000819050919050565b600062000836620008306200082a8462000801565b6200080b565b62000801565b9050919050565b6000819050919050565b620008528362000815565b6200086a62000861826200083d565b848454620007ab565b825550505050565b600090565b6200088162000872565b6200088e81848462000847565b505050565b5b81811015620008b657620008aa60008262000877565b60018101905062000894565b5050565b601f8211156200090557620008cf8162000779565b620008da846200078e565b81016020851015620008ea578190505b62000902620008f9856200078e565b83018262000893565b50505b505050565b600082821c905092915050565b60006200092a600019846008026200090a565b1980831691505092915050565b600062000945838362000917565b9150826002028217905092915050565b62000960826200070a565b67ffffffffffffffff8111156200097c576200097b62000472565b5b62000988825462000744565b62000995828285620008ba565b600060209050601f831160018114620009cd5760008415620009b8578287015190505b620009c4858262000937565b86555062000a34565b601f198416620009dd8662000779565b60005b8281101562000a0757848901518255600182019150602085019450602081019050620009e0565b8683101562000a27578489015162000a23601f89168262000917565b8355505b6001600288020188555050505b505050505050565b62000a4781620005f6565b82525050565b600060208201905062000a64600083018462000a3c565b92915050565b60006bffffffffffffffffffffffff82169050919050565b600062000aa362000a9d62000a978462000a6a565b6200080b565b62000801565b9050919050565b62000ab58162000a82565b82525050565b62000ac68162000801565b82525050565b600060408201905062000ae3600083018562000aaa565b62000af2602083018462000abb565b9392505050565b6134c18062000b096000396000f3fe6080604052600436106101c25760003560e01c8063715018a6116100f7578063b45a3c0e11610095578063df30e54b11610064578063df30e54b1461060e578063e30c397814610637578063e985e9c514610662578063f2fde38b1461069f576101c2565b8063b45a3c0e14610540578063b88d4fde1461057d578063c002d23d146105a6578063c87b56dd146105d1576101c2565b80638da5cb5b116100d15780638da5cb5b146104a557806395d89b41146104d0578063a0712d68146104fb578063a22cb46514610517576101c2565b8063715018a61461046057806379ba5097146104775780638456cb591461048e576101c2565b806332cb6b0c1161016457806351cff8d91161013e57806351cff8d9146103925780635c975abb146103bb5780636352211e146103e657806370a0823114610423576101c2565b806332cb6b0c146103275780633f4ba83a1461035257806342842e0e14610369576101c2565b8063095ea7b3116101a0578063095ea7b31461026c5780630fad0f511461029557806323b872dd146102c05780632a55205a146102e9576101c2565b806301ffc9a7146101c757806306fdde0314610204578063081812fc1461022f575b600080fd5b3480156101d357600080fd5b506101ee60048036038101906101e99190612a19565b6106c8565b6040516101fb9190612a61565b60405180910390f35b34801561021057600080fd5b506102196107b6565b6040516102269190612b0c565b60405180910390f35b34801561023b57600080fd5b5061025660048036038101906102519190612b64565b610848565b6040516102639190612bd2565b60405180910390f35b34801561027857600080fd5b50610293600480360381019061028e9190612c19565b610864565b005b3480156102a157600080fd5b506102aa61087a565b6040516102b79190612a61565b60405180910390f35b3480156102cc57600080fd5b506102e760048036038101906102e29190612c59565b61088d565b005b3480156102f557600080fd5b50610310600480360381019061030b9190612cac565b61098f565b60405161031e929190612cfb565b60405180910390f35b34801561033357600080fd5b5061033c610abf565b6040516103499190612d24565b60405180910390f35b34801561035e57600080fd5b50610367610ac5565b005b34801561037557600080fd5b50610390600480360381019061038b9190612c59565b610b3b565b005b34801561039e57600080fd5b506103b960048036038101906103b49190612d7d565b610b5b565b005b3480156103c757600080fd5b506103d0610c11565b6040516103dd9190612a61565b60405180910390f35b3480156103f257600080fd5b5061040d60048036038101906104089190612b64565b610c28565b60405161041a9190612bd2565b60405180910390f35b34801561042f57600080fd5b5061044a60048036038101906104459190612daa565b610c3a565b6040516104579190612d24565b60405180910390f35b34801561046c57600080fd5b50610475610cf4565b005b34801561048357600080fd5b5061048c610d08565b005b34801561049a57600080fd5b506104a3610d97565b005b3480156104b157600080fd5b506104ba610e0d565b6040516104c79190612bd2565b60405180910390f35b3480156104dc57600080fd5b506104e5610e37565b6040516104f29190612b0c565b60405180910390f35b61051560048036038101906105109190612b64565b610ec9565b005b34801561052357600080fd5b5061053e60048036038101906105399190612e03565b6111e5565b005b34801561054c57600080fd5b5061056760048036038101906105629190612b64565b6111fb565b6040516105749190612a61565b60405180910390f35b34801561058957600080fd5b506105a4600480360381019061059f9190612f78565b611291565b005b3480156105b257600080fd5b506105bb6112b6565b6040516105c89190612d24565b60405180910390f35b3480156105dd57600080fd5b506105f860048036038101906105f39190612b64565b6112c1565b6040516106059190612b0c565b60405180910390f35b34801561061a57600080fd5b5061063560048036038101906106309190612ffb565b61132a565b005b34801561064357600080fd5b5061064c61139f565b6040516106599190612bd2565b60405180910390f35b34801561066e57600080fd5b5061068960048036038101906106849190613028565b6113c9565b6040516106969190612a61565b60405180910390f35b3480156106ab57600080fd5b506106c660048036038101906106c19190612daa565b61145d565b005b60006106de67dc5ba7d479b54cdb60c01b61150a565b6106f267c0f37c135b8fbd3960c01b61150a565b6107066792963dca7d2ef37560c01b61150a565b7fb45a3c0e000000000000000000000000000000000000000000000000000000007bffffffffffffffffffffffffffffffffffffffffffffffffffffffff1916827bffffffffffffffffffffffffffffffffffffffffffffffffffffffff1916148015610783575061078267f52c82b213882d9f60c01b61150d565b5b806107af575061079282611518565b80156107ae57506107ad675a9f28be64552c2160c01b61150d565b5b5b9050919050565b6060600080546107c590613097565b80601f01602080910402602001604051908101604052809291908181526020018280546107f190613097565b801561083e5780601f106108135761010080835404028352916020019161083e565b820191906000526020600020905b81548152906001019060200180831161082157829003601f168201915b5050505050905090565b600061085382611592565b5061085d8261161a565b9050919050565b6108768282610871611657565b61165f565b5050565b600b60009054906101000a900460ff1681565b600073ffffffffffffffffffffffffffffffffffffffff168273ffffffffffffffffffffffffffffffffffffffff16036108ff5760006040517f64a0ae920000000000000000000000000000000000000000000000000000000081526004016108f69190612bd2565b60405180910390fd5b6000610913838361090e611657565b611671565b90508373ffffffffffffffffffffffffffffffffffffffff168173ffffffffffffffffffffffffffffffffffffffff1614610989578382826040517f64283d7b000000000000000000000000000000000000000000000000000000008152600401610980939291906130c8565b60405180910390fd5b50505050565b600080600060076000868152602001908152602001600020905060008160000160009054906101000a900473ffffffffffffffffffffffffffffffffffffffff16905060008260000160149054906101000a90046bffffffffffffffffffffffff169050600073ffffffffffffffffffffffffffffffffffffffff168273ffffffffffffffffffffffffffffffffffffffff1603610a7057600660000160009054906101000a900473ffffffffffffffffffffffffffffffffffffffff169150600660000160149054906101000a90046bffffffffffffffffffffffff1690505b6000610a7a6118a7565b6bffffffffffffffffffffffff16826bffffffffffffffffffffffff1688610aa2919061312e565b610aac919061319f565b9050828195509550505050509250929050565b61271081565b610ad967f2d43cdabcfa67a860c01b61150a565b610ae16118b1565b610af567c69b0d348acbf29660c01b61150a565b610b0967651c529db2c7d7af60c01b61150a565b610b1d674417ae577d40081d60c01b61150a565b610b3167a6dbbe16570544a760c01b61150a565b610b39611938565b565b610b5683838360405180602001604052806000815250611291565b505050565b610b6f67aac6b52d12872e9460c01b61150a565b610b776118b1565b610b8b679b21dd1531f8c91960c01b61150a565b610b9f6763213c9f7d70ec9460c01b61150a565b610bb367de06d52e0e82703160c01b61150a565b610bc76756caf04bb3b491e360c01b61150a565b8073ffffffffffffffffffffffffffffffffffffffff166108fc479081150290604051600060405180830381858888f19350505050158015610c0d573d6000803e3d6000fd5b5050565b6000600960149054906101000a900460ff16905090565b6000610c3382611592565b9050919050565b60008073ffffffffffffffffffffffffffffffffffffffff168273ffffffffffffffffffffffffffffffffffffffff1603610cad5760006040517f89c62b64000000000000000000000000000000000000000000000000000000008152600401610ca49190612bd2565b60405180910390fd5b600360008373ffffffffffffffffffffffffffffffffffffffff1673ffffffffffffffffffffffffffffffffffffffff168152602001908152602001600020549050919050565b610cfc6118b1565b610d06600061199b565b565b6000610d12611657565b90508073ffffffffffffffffffffffffffffffffffffffff16610d3361139f565b73ffffffffffffffffffffffffffffffffffffffff1614610d8b57806040517f118cdaa7000000000000000000000000000000000000000000000000000000008152600401610d829190612bd2565b60405180910390fd5b610d948161199b565b50565b610dab672484a7ada8674c4d60c01b61150a565b610db36118b1565b610dc7677fd1b171faafb2df60c01b61150a565b610ddb670cca1ac236d05eaa60c01b61150a565b610def6785ceb304c88df37e60c01b61150a565b610e03672ab0e9cdfb8ac1bc60c01b61150a565b610e0b6119cc565b565b6000600860009054906101000a900473ffffffffffffffffffffffffffffffffffffffff16905090565b606060018054610e4690613097565b80601f0160208091040260200160405190810160405280929190818152602001828054610e7290613097565b8015610ebf5780601f10610e9457610100808354040283529160200191610ebf565b820191906000526020600020905b815481529060010190602001808311610ea257829003601f168201915b5050505050905090565b610edd6747410a3a1b6b25f360c01b61150a565b610ee5611a2f565b610ef96744821355e2dade3960c01b61150a565b610f0d67eaeb428626b76ca760c01b61150a565b610f21672d806183244539e960c01b61150a565b610f3567ae9417281ca64de260c01b61150a565b610f49676b0dd2e318bfa2a560c01b61150a565b662386f26fc1000081610f5c919061312e565b3414610f9d576040517f08c379a0000000000000000000000000000000000000000000000000000000008152600401610f949061321c565b60405180910390fd5b610fb16781b7f43f63c5de6560c01b61150a565b610fc567dc7e1bcbad3814cf60c01b61150a565b610fd967fab01f56da3f9f5060c01b61150a565b60005b818110156111e157610ff86755f2c44fbf6e10db60c01b61150a565b61100c67d84397b0ae22204d60c01b61150a565b611020673f7550ee050c7c5160c01b61150a565b612710600a5410611066576040517f08c379a000000000000000000000000000000000000000000000000000000000815260040161105d90613288565b60405180910390fd5b61107a677c07c9581f5beb9f60c01b61150a565b61108e678dc084fd6d861add60c01b61150a565b6001600a60008282546110a191906132a8565b925050819055506110bc6792e2222197f9c1a660c01b61150a565b6110d067ee16aa508552535c60c01b61150a565b6000600a5490506110eb676de737d656a743c060c01b61150a565b6110ff678c1666cfa422ef4c60c01b61150a565b6111093382611a70565b61111d6715858203dcf76e0460c01b61150a565b6111316777fc717df12534fc60c01b61150a565b600b60009054906101000a900460ff16156111be5761115a67a2abb9b6ebe2633c60c01b61150a565b61116e67b1cab6036afcbd5b60c01b61150a565b611182674c864d2fc634ac3e60c01b61150a565b7f032bc66be43dbccb7487781d168eb7bda224628a3b2c3388bdf69b532a3a1611816040516111b19190612d24565b60405180910390a16111d3565b6111d267950034795ccd741060c01b61150a565b5b508080600101915050610fdc565b5050565b6111f76111f0611657565b8383611a8e565b5050565b6000611211675f23d11734b8bf5960c01b61150a565b611225670e0ff0568e112b2460c01b61150a565b611239674d40c6eecfe57a0960c01b61150a565b600b60009054906101000a900460ff16801561128a5750600073ffffffffffffffffffffffffffffffffffffffff1661127183611bfd565b73ffffffffffffffffffffffffffffffffffffffff1614155b9050919050565b61129c84848461088d565b6112b06112a7611657565b85858585611c3a565b50505050565b662386f26fc1000081565b60606112cc82611592565b5060006112d7611deb565b905060008151116112f75760405180602001604052806000815250611322565b8061130184611eb9565b604051602001611312929190613318565b6040516020818303038152906040525b915050919050565b61133e67e2943d3e1df9aa9660c01b61150a565b6113466118b1565b61135a679089cf83f1c98d0160c01b61150a565b61136e67d84701a903ebe7a960c01b61150a565b61138267fa6f26ec9db5fbbf60c01b61150a565b80600b60006101000a81548160ff02191690831515021790555050565b6000600960009054906101000a900473ffffffffffffffffffffffffffffffffffffffff16905090565b6000600560008473ffffffffffffffffffffffffffffffffffffffff1673ffffffffffffffffffffffffffffffffffffffff16815260200190815260200160002060008373ffffffffffffffffffffffffffffffffffffffff1673ffffffffffffffffffffffffffffffffffffffff16815260200190815260200160002060009054906101000a900460ff16905092915050565b6114656118b1565b80600960006101000a81548173ffffffffffffffffffffffffffffffffffffffff021916908373ffffffffffffffffffffffffffffffffffffffff1602179055508073ffffffffffffffffffffffffffffffffffffffff166114c5610e0d565b73ffffffffffffffffffffffffffffffffffffffff167f38d16b8cac22d99fc7c124b9cd0de2d3fa1faef420bfe791d8c362d765e2270060405160405180910390a350565b50565b600060019050919050565b60007f2a55205a000000000000000000000000000000000000000000000000000000007bffffffffffffffffffffffffffffffffffffffffffffffffffffffff1916827bffffffffffffffffffffffffffffffffffffffffffffffffffffffff1916148061158b575061158a82611f87565b5b9050919050565b60008061159e83611bfd565b9050600073ffffffffffffffffffffffffffffffffffffffff168173ffffffffffffffffffffffffffffffffffffffff160361161157826040517f7e2732890000000000000000000000000000000000000000000000000000000081526004016116089190612d24565b60405180910390fd5b80915050919050565b60006004600083815260200190815260200160002060009054906101000a900473ffffffffffffffffffffffffffffffffffffffff169050919050565b600033905090565b61166c8383836001612069565b505050565b600061168767d492d28dd648f78360c01b61150a565b61168f611a2f565b6116a3675f02523af5d2ea7860c01b61150a565b6116b767ac888c557e4ec6bd60c01b61150a565b6116cb67e9df5d5033f29feb60c01b61150a565b6116df67b2ee2e13c123b02160c01b61150a565b60006116ea84611bfd565b905061170067e4e37fd8eff08bb460c01b61150a565b61171467162be670d56fc32c60c01b61150a565b611728678888b628d998e73d60c01b61150a565b600b60009054906101000a900460ff161580156117555750611754671e86b3169117f11760c01b61150d565b5b806117c45750600073ffffffffffffffffffffffffffffffffffffffff168173ffffffffffffffffffffffffffffffffffffffff161480156117a757506117a6677b5c37f5dc73689d60c01b61150d565b5b80156117c357506117c267abba3d2b0f520f2060c01b61150d565b5b5b806118175750600073ffffffffffffffffffffffffffffffffffffffff168573ffffffffffffffffffffffffffffffffffffffff16148015611816575061181567a9ab865dc043a47e60c01b61150d565b5b5b611856576040517f08c379a000000000000000000000000000000000000000000000000000000000815260040161184d90613388565b60405180910390fd5b61186a67aafd58069dbbac8560c01b61150a565b61187e67e7fb5d09b24dc60f60c01b61150a565b61189267ed0d28b19007d30f60c01b61150a565b61189d85858561222e565b9150509392505050565b6000612710905090565b6118b9611657565b73ffffffffffffffffffffffffffffffffffffffff166118d7610e0d565b73ffffffffffffffffffffffffffffffffffffffff1614611936576118fa611657565b6040517f118cdaa700000000000000000000000000000000000000000000000000000000815260040161192d9190612bd2565b60405180910390fd5b565b611940612448565b6000600960146101000a81548160ff0219169083151502179055507f5db9ee0a495bf2e6ff9c91a7834c1ba4fdd244a5e8aa4e537bd38aeae4b073aa611984611657565b6040516119919190612bd2565b60405180910390a1565b600960006101000a81549073ffffffffffffffffffffffffffffffffffffffff02191690556119c981612488565b50565b6119d4611a2f565b6001600960146101000a81548160ff0219169083151502179055507f62e78cea01bee320cd4e420270b5ea74000d11b0c9f74754ebdbfc544b05a258611a18611657565b604051611a259190612bd2565b60405180910390a1565b611a37610c11565b15611a6e576040517fd93c066500000000000000000000000000000000000000000000000000000000815260040160405180910390fd5b565b611a8a82826040518060200160405280600081525061254e565b5050565b600073ffffffffffffffffffffffffffffffffffffffff168273ffffffffffffffffffffffffffffffffffffffff1603611aff57816040517f5b08ba18000000000000000000000000000000000000000000000000000000008152600401611af69190612bd2565b60405180910390fd5b80600560008573ffffffffffffffffffffffffffffffffffffffff1673ffffffffffffffffffffffffffffffffffffffff16815260200190815260200160002060008473ffffffffffffffffffffffffffffffffffffffff1673ffffffffffffffffffffffffffffffffffffffff16815260200190815260200160002060006101000a81548160ff0219169083151502179055508173ffffffffffffffffffffffffffffffffffffffff168373ffffffffffffffffffffffffffffffffffffffff167f17307eab39ab6107e8899845ad3d59bd9653f200f220920489ca2b5937696c3183604051611bf09190612a61565b60405180910390a3505050565b60006002600083815260200190815260200160002060009054906101000a900473ffffffffffffffffffffffffffffffffffffffff169050919050565b60008373ffffffffffffffffffffffffffffffffffffffff163b1115611de4578273ffffffffffffffffffffffffffffffffffffffff1663150b7a02868685856040518563ffffffff1660e01b8152600401611c9994939291906133fd565b6020604051808303816000875af1925050508015611cd557506040513d601f19601f82011682018060405250810190611cd2919061345e565b60015b611d59573d8060008114611d05576040519150601f19603f3d011682016040523d82523d6000602084013e611d0a565b606091505b506000815103611d5157836040517f64a0ae92000000000000000000000000000000000000000000000000000000008152600401611d489190612bd2565b60405180910390fd5b805160208201fd5b63150b7a0260e01b7bffffffffffffffffffffffffffffffffffffffffffffffffffffffff1916817bffffffffffffffffffffffffffffffffffffffffffffffffffffffff191614611de257836040517f64a0ae92000000000000000000000000000000000000000000000000000000008152600401611dd99190612bd2565b60405180910390fd5b505b5050505050565b6060611e01676a90259806afc1fd60c01b61150a565b611e1567adb4704b9dca8c8e60c01b61150a565b611e2967c0a36f97dc54d4a260c01b61150a565b600c8054611e3690613097565b80601f0160208091040260200160405190810160405280929190818152602001828054611e6290613097565b8015611eaf5780601f10611e8457610100808354040283529160200191611eaf565b820191906000526020600020905b815481529060010190602001808311611e9257829003601f168201915b5050505050905090565b606060006001611ec884612572565b01905060008167ffffffffffffffff811115611ee757611ee6612e4d565b5b6040519080825280601f01601f191660200182016040528015611f195781602001600182028036833780820191505090505b509050600082602083010190505b600115611f7c578080600190039150507f3031323334353637383961626364656600000000000000000000000000000000600a86061a8153600a8581611f7057611f6f613170565b5b04945060008503611f27575b819350505050919050565b60007f80ac58cd000000000000000000000000000000000000000000000000000000007bffffffffffffffffffffffffffffffffffffffffffffffffffffffff1916827bffffffffffffffffffffffffffffffffffffffffffffffffffffffff1916148061205257507f5b5e139f000000000000000000000000000000000000000000000000000000007bffffffffffffffffffffffffffffffffffffffffffffffffffffffff1916827bffffffffffffffffffffffffffffffffffffffffffffffffffffffff1916145b806120625750612061826126c5565b5b9050919050565b80806120a25750600073ffffffffffffffffffffffffffffffffffffffff168273ffffffffffffffffffffffffffffffffffffffff1614155b156121d65760006120b284611592565b9050600073ffffffffffffffffffffffffffffffffffffffff168373ffffffffffffffffffffffffffffffffffffffff161415801561211d57508273ffffffffffffffffffffffffffffffffffffffff168173ffffffffffffffffffffffffffffffffffffffff1614155b8015612130575061212e81846113c9565b155b1561217257826040517fa9fbf51f0000000000000000000000000000000000000000000000000000000081526004016121699190612bd2565b60405180910390fd5b81156121d457838573ffffffffffffffffffffffffffffffffffffffff168273ffffffffffffffffffffffffffffffffffffffff167f8c5be1e5ebec7d5bd14f71427d1e84f3dd0314c0f7b2291e5b200ac8c7c3b92560405160405180910390a45b505b836004600085815260200190815260200160002060006101000a81548173ffffffffffffffffffffffffffffffffffffffff021916908373ffffffffffffffffffffffffffffffffffffffff16021790555050505050565b60008061223a84611bfd565b9050600073ffffffffffffffffffffffffffffffffffffffff168373ffffffffffffffffffffffffffffffffffffffff161461227c5761227b81848661272f565b5b600073ffffffffffffffffffffffffffffffffffffffff168173ffffffffffffffffffffffffffffffffffffffff161461230d576122be600085600080612069565b6001600360008373ffffffffffffffffffffffffffffffffffffffff1673ffffffffffffffffffffffffffffffffffffffff168152602001908152602001600020600082825403925050819055505b600073ffffffffffffffffffffffffffffffffffffffff168573ffffffffffffffffffffffffffffffffffffffff1614612390576001600360008773ffffffffffffffffffffffffffffffffffffffff1673ffffffffffffffffffffffffffffffffffffffff168152602001908152602001600020600082825401925050819055505b846002600086815260200190815260200160002060006101000a81548173ffffffffffffffffffffffffffffffffffffffff021916908373ffffffffffffffffffffffffffffffffffffffff160217905550838573ffffffffffffffffffffffffffffffffffffffff168273ffffffffffffffffffffffffffffffffffffffff167fddf252ad1be2c89b69c2b068fc378daa952ba7f163c4a11628f55a4df523b3ef60405160405180910390a4809150509392505050565b612450610c11565b612486576040517f8dfc202b00000000000000000000000000000000000000000000000000000000815260040160405180910390fd5b565b6000600860009054906101000a900473ffffffffffffffffffffffffffffffffffffffff16905081600860006101000a81548173ffffffffffffffffffffffffffffffffffffffff021916908373ffffffffffffffffffffffffffffffffffffffff1602179055508173ffffffffffffffffffffffffffffffffffffffff168173ffffffffffffffffffffffffffffffffffffffff167f8be0079c531659141344cd1fd0a4f28419497f9722a3daafe3b4186f6b6457e060405160405180910390a35050565b61255883836127f3565b61256d612563611657565b6000858585611c3a565b505050565b600080600090507a184f03e93ff9f4daa797ed6e38ed64bf6a1f01000000000000000083106125d0577a184f03e93ff9f4daa797ed6e38ed64bf6a1f01000000000000000083816125c6576125c5613170565b5b0492506040810190505b6d04ee2d6d415b85acef8100000000831061260d576d04ee2d6d415b85acef8100000000838161260357612602613170565b5b0492506020810190505b662386f26fc10000831061263c57662386f26fc10000838161263257612631613170565b5b0492506010810190505b6305f5e1008310612665576305f5e100838161265b5761265a613170565b5b0492506008810190505b612710831061268a5761271083816126805761267f613170565b5b0492506004810190505b606483106126ad57606483816126a3576126a2613170565b5b0492506002810190505b600a83106126bc576001810190505b80915050919050565b60007f01ffc9a7000000000000000000000000000000000000000000000000000000007bffffffffffffffffffffffffffffffffffffffffffffffffffffffff1916827bffffffffffffffffffffffffffffffffffffffffffffffffffffffff1916149050919050565b61273a8383836128ec565b6127ee57600073ffffffffffffffffffffffffffffffffffffffff168373ffffffffffffffffffffffffffffffffffffffff16036127af57806040517f7e2732890000000000000000000000000000000000000000000000000000000081526004016127a69190612d24565b60405180910390fd5b81816040517f177e802f0000000000000000000000000000000000000000000000000000000081526004016127e5929190612cfb565b60405180910390fd5b505050565b600073ffffffffffffffffffffffffffffffffffffffff168273ffffffffffffffffffffffffffffffffffffffff16036128655760006040517f64a0ae9200000000000000000000000000000000000000000000000000000000815260040161285c9190612bd2565b60405180910390fd5b600061287383836000611671565b9050600073ffffffffffffffffffffffffffffffffffffffff168173ffffffffffffffffffffffffffffffffffffffff16146128e75760006040517f73c6ac6e0000000000000000000000000000000000000000000000000000000081526004016128de9190612bd2565b60405180910390fd5b505050565b60008073ffffffffffffffffffffffffffffffffffffffff168373ffffffffffffffffffffffffffffffffffffffff16141580156129a457508273ffffffffffffffffffffffffffffffffffffffff168473ffffffffffffffffffffffffffffffffffffffff161480612965575061296484846113c9565b5b806129a357508273ffffffffffffffffffffffffffffffffffffffff1661298b8361161a565b73ffffffffffffffffffffffffffffffffffffffff16145b5b90509392505050565b6000604051905090565b600080fd5b600080fd5b60007fffffffff0000000000000000000000000000000000000000000000000000000082169050919050565b6129f6816129c1565b8114612a0157600080fd5b50565b600081359050612a13816129ed565b92915050565b600060208284031215612a2f57612a2e6129b7565b5b6000612a3d84828501612a04565b91505092915050565b60008115159050919050565b612a5b81612a46565b82525050565b6000602082019050612a766000830184612a52565b92915050565b600081519050919050565b600082825260208201905092915050565b60005b83811015612ab6578082015181840152602081019050612a9b565b60008484015250505050565b6000601f19601f8301169050919050565b6000612ade82612a7c565b612ae88185612a87565b9350612af8818560208601612a98565b612b0181612ac2565b840191505092915050565b60006020820190508181036000830152612b268184612ad3565b905092915050565b6000819050919050565b612b4181612b2e565b8114612b4c57600080fd5b50565b600081359050612b5e81612b38565b92915050565b600060208284031215612b7a57612b796129b7565b5b6000612b8884828501612b4f565b91505092915050565b600073ffffffffffffffffffffffffffffffffffffffff82169050919050565b6000612bbc82612b91565b9050919050565b612bcc81612bb1565b82525050565b6000602082019050612be76000830184612bc3565b92915050565b612bf681612bb1565b8114612c0157600080fd5b50565b600081359050612c1381612bed565b92915050565b60008060408385031215612c3057612c2f6129b7565b5b6000612c3e85828601612c04565b9250506020612c4f85828601612b4f565b9150509250929050565b600080600060608486031215612c7257612c716129b7565b5b6000612c8086828701612c04565b9350506020612c9186828701612c04565b9250506040612ca286828701612b4f565b9150509250925092565b60008060408385031215612cc357612cc26129b7565b5b6000612cd185828601612b4f565b9250506020612ce285828601612b4f565b9150509250929050565b612cf581612b2e565b82525050565b6000604082019050612d106000830185612bc3565b612d1d6020830184612cec565b9392505050565b6000602082019050612d396000830184612cec565b92915050565b6000612d4a82612b91565b9050919050565b612d5a81612d3f565b8114612d6557600080fd5b50565b600081359050612d7781612d51565b92915050565b600060208284031215612d9357612d926129b7565b5b6000612da184828501612d68565b91505092915050565b600060208284031215612dc057612dbf6129b7565b5b6000612dce84828501612c04565b91505092915050565b612de081612a46565b8114612deb57600080fd5b50565b600081359050612dfd81612dd7565b92915050565b60008060408385031215612e1a57612e196129b7565b5b6000612e2885828601612c04565b9250506020612e3985828601612dee565b9150509250929050565b600080fd5b600080fd5b7f4e487b7100000000000000000000000000000000000000000000000000000000600052604160045260246000fd5b612e8582612ac2565b810181811067ffffffffffffffff82111715612ea457612ea3612e4d565b5b80604052505050565b6000612eb76129ad565b9050612ec38282612e7c565b919050565b600067ffffffffffffffff821115612ee357612ee2612e4d565b5b612eec82612ac2565b9050602081019050919050565b82818337600083830152505050565b6000612f1b612f1684612ec8565b612ead565b905082815260208101848484011115612f3757612f36612e48565b5b612f42848285612ef9565b509392505050565b600082601f830112612f5f57612f5e612e43565b5b8135612f6f848260208601612f08565b91505092915050565b60008060008060808587031215612f9257612f916129b7565b5b6000612fa087828801612c04565b9450506020612fb187828801612c04565b9350506040612fc287828801612b4f565b925050606085013567ffffffffffffffff811115612fe357612fe26129bc565b5b612fef87828801612f4a565b91505092959194509250565b600060208284031215613011576130106129b7565b5b600061301f84828501612dee565b91505092915050565b6000806040838503121561303f5761303e6129b7565b5b600061304d85828601612c04565b925050602061305e85828601612c04565b9150509250929050565b7f4e487b7100000000000000000000000000000000000000000000000000000000600052602260045260246000fd5b600060028204905060018216806130af57607f821691505b6020821081036130c2576130c1613068565b5b50919050565b60006060820190506130dd6000830186612bc3565b6130ea6020830185612cec565b6130f76040830184612bc3565b949350505050565b7f4e487b7100000000000000000000000000000000000000000000000000000000600052601160045260246000fd5b600061313982612b2e565b915061314483612b2e565b925082820261315281612b2e565b91508282048414831517613169576131686130ff565b5b5092915050565b7f4e487b7100000000000000000000000000000000000000000000000000000000600052601260045260246000fd5b60006131aa82612b2e565b91506131b583612b2e565b9250826131c5576131c4613170565b5b828204905092915050565b7f7072696365000000000000000000000000000000000000000000000000000000600082015250565b6000613206600583612a87565b9150613211826131d0565b602082019050919050565b60006020820190508181036000830152613235816131f9565b9050919050565b7f736f6c64206f7574000000000000000000000000000000000000000000000000600082015250565b6000613272600883612a87565b915061327d8261323c565b602082019050919050565b600060208201905081810360008301526132a181613265565b9050919050565b60006132b382612b2e565b91506132be83612b2e565b92508282019050808211156132d6576132d56130ff565b5b92915050565b600081905092915050565b60006132f282612a7c565b6132fc81856132dc565b935061330c818560208601612a98565b80840191505092915050565b600061332482856132e7565b915061333082846132e7565b91508190509392505050565b7f5342540000000000000000000000000000000000000000000000000000000000600082015250565b6000613372600383612a87565b915061337d8261333c565b602082019050919050565b600060208201905081810360008301526133a181613365565b9050919050565b600081519050919050565b600082825260208201905092915050565b60006133cf826133a8565b6133d981856133b3565b93506133e9818560208601612a98565b6133f281612ac2565b840191505092915050565b60006080820190506134126000830187612bc3565b61341f6020830186612bc3565b61342c6040830185612cec565b818103606083015261343e81846133c4565b905095945050505050565b600081519050613458816129ed565b92915050565b600060208284031215613474576134736129b7565b5b600061348284828501613449565b9150509291505056fea26469706673582212207b6faef8bc43adea713ab8a38da4ac87c9baef646da00ffa57a61a1c91d879fc64736f6c63430008180033",
  "linkReferences": {},
  "deployedLinkReferences": {}
}