{
  "_format": "hh-sol-artifact-1",
  "contractName": "MemePass721",
  "sourceName": "contracts/evm/MemePass721.sol",
  "abi": [
    {
      "inputs": [
        {
          "internalType": "string",
          "name": "name_",
          "type": "string"
        },
        {
          "internalType": "string",
          "name": "symbol_",
          "type": "string"
        },
        {
          "internalType": "string",
          "name": "baseUri_",
          "type": "string"
        },
        {
          "internalType": "address",
          "name": "royaltyReceiver",
          "type": "address"
        }
      ],
      "stateMutability": "nonpayable",
      "type": "constructor"
    },
    {
      "inputs": [
        {
          "internalType": "uint256",
          "name": "numerator",
          "type": "uint256"
        },
        {
          "internalType": "uint256",
          "name": "denominator",
          "type": "uint256"
        }
      ],
      "name": "ERC2981InvalidDefaultRoyalty",
      "type": "error"
    },
    {
      "inputs": [
        {
          "internalType": "address",
          "name": "receiver",
          "type": "address"
        }
      ],
      "name": "ERC2981InvalidDefaultRoyaltyReceiver",
      "type": "error"
    },
    {
      "inputs": [
        {
          "internalType": "uint256",
          "name": "tokenId",
          "type": "uint256"
        },
        {
          "internalType": "uint256",
          "name": "numerator",
          "type": "uint256"
        },
        {
          "internalType": "uint256",
          "name": "denominator",
          "type": "uint256"
        }
      ],
      "name": "ERC2981InvalidTokenRoyalty",
      "type": "error"
    },
    {
      "inputs": [
        {
          "internalType": "uint256",
          "name": "tokenId",
          "type": "uint256"
        },
        {
          "internalType": "address",
          "name": "receiver",
          "type": "address"
        }
      ],
      "name": "ERC2981InvalidTokenRoyaltyReceiver",
      "type": "error"
    },
    {
      "inputs": [
        {
          "internalType": "address",
          "name": "sender",
          "type": "address"
        },
        {
          "internalType": "uint256",
          "name": "tokenId",
          "type": "uint256"
        },
        {
          "internalType": "address",
          "name": "owner",
          "type": "address"
        }
      ],
      "name": "ERC721IncorrectOwner",
      "type": "error"
    },
    {
      "inputs": [
        {
          "internalType": "address",
          "name": "operator",
          "type": "address"
        },
        {
          "internalType": "uint256",
          "name": "tokenId",
          "type": "uint256"
        }
      ],
      "name": "ERC721InsufficientApproval",
      "type": "error"
    },
    {
      "inputs": [
        {
          "internalType": "address",
          "name": "approver",
          "type": "address"
        }
      ],
      "name": "ERC721InvalidApprover",
      "type": "error"
    },
    {
      "inputs": [
        {
          "internalType": "address",
          "name": "operator",
          "type": "address"
        }
      ],
      "name": "ERC721InvalidOperator",
      "type": "error"
    },
    {
      "inputs": [
        {
          "internalType": "address",
          "name": "owner",
          "type": "address"
        }
      ],
      "name": "ERC721InvalidOwner",
      "type": "error"
    },
    {
      "inputs": [
        {
          "internalType": "address",
          "name": "receiver",
          "type": "address"
        }
      ],
      "name": "ERC721InvalidReceiver",
      "type": "error"
    },
    {
      "inputs": [
        {
          "internalType": "address",
          "name": "sender",
          "type": "address"
        }
      ],
      "name": "ERC721InvalidSender",
      "type": "error"
    },
    {
      "inputs": [
        {
          "internalType": "uint256",
          "name": "tokenId",
          "type": "uint256"
        }
      ],
      "name": "ERC721NonexistentToken",
      "type": "error"
    },
    {
      "inputs": [],
      "name": "EnforcedPause",
      "type": "error"
    },
    {
      "inputs": [],
      "name": "ExpectedPause",
      "type": "error"
    },
    {
      "inputs": [
        {
          "internalType": "address",
          "name": "owner",
          "type": "address"
        }
      ],
      "name": "OwnableInvalidOwner",
      "type": "error"
    },
    {
      "inputs": [
        {
          "internalType": "address",
          "name": "account",
          "type": "address"
        }
      ],
      "name": "OwnableUnauthorizedAccount",
      "type": "error"
    },
    {
      "anonymous": false,
      "inputs": [
        {
          "indexed": true,
          "internalType": "address",
          "name": "owner",
          "type": "address"
        },
        {
          "indexed": true,
          "internalType": "address",
          "name": "approved",
          "type": "address"
        },
        {
          "indexed": true,
          "internalType": "uint256",
          "name": "tokenId",
          "type": "uint256"
        }
      ],
      "name": "Approval",
      "type": "event"
    },
    {
      "anonymous": false,
      "inputs": [
        {
          "indexed": true,
          "internalType": "address",
          "name": "owner",
          "type": "address"
        },
        {
          "indexed": true,
          "internalType": "address",
          "name": "operator",
          "type": "address"
        },
        {
          "indexed": false,
          "internalType": "bool",
          "name": "approved",
          "type": "bool"
        }
      ],
      "name": "ApprovalForAll",
      "type": "event"
    },
    {
      "anonymous": false,
      "inputs": [
        {
          "indexed": false,
          "internalType": "uint256",
          "name": "tokenId",
          "type": "uint256"
        }
      ],
      "name": "Locked",
      "type": "event"
    },
    {
      "anonymous": false,
      "inputs": [
        {
          "indexed": true,
          "internalType": "address",
          "name": "previousOwner",
          "type": "address"
        },
        {
          "indexed": true,
          "internalType": "address",
          "name": "newOwner",
          "type": "address"
        }
      ],
      "name": "OwnershipTransferStarted",
      "type": "event"
    },
    {
      "anonymous": false,
      "inputs": [
        {
          "indexed": true,
          "internalType": "address",
          "name": "previousOwner",
          "type": "address"
        },
        {
          "indexed": true,
          "internalType": "address",
          "name": "newOwner",
          "type": "address"
        }
      ],
      "name": "OwnershipTransferred",
      "type": "event"
    },
    {
      "anonymous": false,
      "inputs": [
        {
          "indexed": false,
          "internalType": "address",
          "name": "account",
          "type": "address"
        }
      ],
      "name": "Paused",
      "type": "event"
    },
    {
      "anonymous": false,
      "inputs": [
        {
          "indexed": true,
          "internalType": "address",
          "name": "from",
          "type": "address"
        },
        {
          "indexed": true,
          "internalType": "address",
          "name": "to",
          "type": "address"
        },
        {
          "indexed": true,
          "internalType": "uint256",
          "name": "tokenId",
          "type": "uint256"
        }
      ],
      "name": "Transfer",
      "type": "event"
    },
    {
      "anonymous": false,
      "inputs": [
        {
          "indexed": false,
          "internalType": "uint256",
          "name": "tokenId",
          "type": "uint256"
        }
      ],
      "name": "Unlocked",
      "type": "event"
    },
    {
      "anonymous": false,
      "inputs": [
        {
          "indexed": false,
          "internalType": "address",
          "name": "account",
          "type": "address"
        }
      ],
      "name": "Unpaused",
      "type": "event"
    },
    {
      "inputs": [],
      "name": "MAX_SUPPLY",
      "outputs": [
        {
          "internalType": "uint256",
          "name": "",
          "type": "uint256"
        }
      ],
      "stateMutability": "view",
      "type": "function"
    },
    {
      "inputs": [],
      "name": "MINT_PRICE",
      "outputs": [
        {
          "internalType": "uint256",
          "name": "",
          "type": "uint256"
        }
      ],
      "stateMutability": "view",
      "type": "function"
    },
    {
      "inputs": [],
      "name": "acceptOwnership",
      "outputs": [],
      "stateMutability": "nonpayable",
      "type": "function"
    },
    {
      "inputs": [
        {
          "internalType": "address",
          "name": "to",
          "type": "address"
        },
        {
          "internalType": "uint256",
          "name": "tokenId",
          "type": "uint256"
        }
      ],
      "name": "approve",
      "outputs": [],
      "stateMutability": "nonpayable",
      "type": "function"
    },
    {
      "inputs": [
        {
          "internalType": "address",
          "name": "owner",
          "type": "address"
        }
      ],
      "name": "balanceOf",
      "outputs": [
        {
          "internalType": "uint256",
          "name": "",
          "type": "uint256"
        }
      ],
      "stateMutability": "view",
      "type": "function"
    },
    {
      "inputs": [
        {
          "internalType": "uint256",
          "name": "tokenId",
          "type": "uint256"
        }
      ],
      "name": "getApproved",
      "outputs": [
        {
          "internalType": "address",
          "name": "",
          "type": "address"
        }
      ],
      "stateMutability": "view",
      "type": "function"
    },
    {
      "inputs": [
        {
          "internalType": "address",
          "name": "owner",
          "type": "address"
        },
        {
          "internalType": "address",
          "name": "operator",
          "type": "address"
        }
      ],
      "name": "isApprovedForAll",
      "outputs": [
        {
          "internalType": "bool",
          "name": "",
          "type": "bool"
        }
      ],
      "stateMutability": "view",
      "type": "function"
    },
    {
      "inputs": [
        {
          "internalType": "uint256",
          "name": "tokenId",
          "type": "uint256"
        }
      ],
      "name": "locked",
      "outputs": [
        {
          "internalType": "bool",
          "name": "",
          "type": "bool"
        }
      ],
      "stateMutability": "view",
      "type": "function"
    },
    {
      "inputs": [
        {
          "internalType": "uint256",
          "name": "amount",
          "type": "uint256"
        }
      ],
      "name": "mint",
      "outputs": [],
      "stateMutability": "payable",
      "type": "function"
    },
    {
      "inputs": [],
      "name": "name",
      "outputs": [
        {
          "internalType": "string",
          "name": "",
          "type": "string"
        }
      ],
      "stateMutability": "view",
      "type": "function"
    },
    {
      "inputs": [],
      "name": "owner",
      "outputs": [
        {
          "internalType": "address",
          "name": "",
          "type": "address"
        }
      ],
      "stateMutability": "view",
      "type": "function"
    },
    {
      "inputs": [
        {
          "internalType": "uint256",
          "name": "tokenId",
          "type": "uint256"
        }
      ],
      "name": "ownerOf",
      "outputs": [
        {
          "internalType": "address",
          "name": "",
          "type": "address"
        }
      ],
      "stateMutability": "view",
      "type": "function"
    },
    {
      "inputs": [],
      "name": "pause",
      "outputs": [],
      "stateMutability": "nonpayable",
      "type": "function"
    },
    {
      "inputs": [],
      "name": "paused",
      "outputs": [
        {
          "internalType": "bool",
          "name": "",
          "type": "bool"
        }
      ],
      "stateMutability": "view",
      "type": "function"
    },
    {
      "inputs": [],
      "name": "pendingOwner",
      "outputs": [
        {
          "internalType": "address",
          "name": "",
          "type": "address"
        }
      ],
      "stateMutability": "view",
      "type": "function"
    },
    {
      "inputs": [],
      "name": "renounceOwnership",
      "outputs": [],
      "stateMutability": "nonpayable",
      "type": "function"
    },
    {
      "inputs": [
        {
          "internalType": "uint256",
          "name": "tokenId",
          "type": "uint256"
        },
        {
          "internalType": "uint256",
          "name": "salePrice",
          "type": "uint256"
        }
      ],
      "name": "royaltyInfo",
      "outputs": [
        {
          "internalType": "address",
          "name": "receiver",
          "type": "address"
        },
        {
          "internalType": "uint256",
          "name": "amount",
          "type": "uint256"
        }
      ],
      "stateMutability": "view",
      "type": "function"
    },
    {
      "inputs": [
        {
          "internalType": "address",
          "name": "from",
          "type": "address"
        },
        {
          "internalType": "address",
          "name": "to",
          "type": "address"
        },
        {
          "internalType": "uint256",
          "name": "tokenId",
          "type": "uint256"
        }
      ],
      "name": "safeTransferFrom",
      "outputs": [],
      "stateMutability": "nonpayable",
      "type": "function"
    },
    {
      "inputs": [
        {
          "internalType": "address",
          "name": "from",
          "type": "address"
        },
        {
          "internalType": "address",
          "name": "to",
          "type": "address"
        },
        {
          "internalType": "uint256",
          "name": "tokenId",
          "type": "uint256"
        },
        {
          "internalType": "bytes",
          "name": "data",
          "type": "bytes"
        }
      ],
      "name": "safeTransferFrom",
      "outputs": [],
      "stateMutability": "nonpayable",
      "type": "function"
    },
    {
      "inputs": [
        {
          "internalType": "address",
          "name": "operator",
          "type": "address"
        },
        {
          "internalType": "bool",
          "name": "approved",
          "type": "bool"
        }
      ],
      "name": "setApprovalForAll",
      "outputs": [],
      "stateMutability": "nonpayable",
      "type": "function"
    },
    {
      "inputs": [
        {
          "internalType": "bool",
          "name": "bound",
          "type": "bool"
        }
      ],
      "name": "setSoulbound",
      "outputs": [],
      "stateMutability": "nonpayable",
      "type": "function"
    },
    {
      "inputs": [],
      "name": "soulbound",
      "outputs": [
        {
          "internalType": "bool",
          "name": "",
          "type": "bool"
        }
      ],
      "stateMutability": "view",
      "type": "function"
    },
    {
      "inputs": [
        {
          "internalType": "bytes4",
          "name": "interfaceId",
          "type": "bytes4"
        }
      ],
      "name": "supportsInterface",
      "outputs": [
        {
          "internalType": "bool",
          "name": "",
          "type": "bool"
        }
      ],
      "stateMutability": "view",
      "type": "function"
    },
    {
      "inputs": [],
      "name": "symbol",
      "outputs": [
        {
          "internalType": "string",
          "name": "",
          "type": "string"
        }
      ],
      "stateMutability": "view",
      "type": "function"
    },
    {
      "inputs": [
        {
          "internalType": "uint256",
          "name": "tokenId",
          "type": "uint256"
        }
      ],
      "name": "tokenURI",
      "outputs": [
        {
          "internalType": "string",
          "name": "",
          "type": "string"
        }
      ],
      "stateMutability": "view",
      "type": "function"
    },
    {
      "inputs": [
        {
          "internalType": "address",
          "name": "from",
          "type": "address"
        },
        {
          "internalType": "address",
          "name": "to",
          "type": "address"
        },
        {
          "internalType": "uint256",
          "name": "tokenId",
          "type": "uint256"
        }
      ],
      "name": "transferFrom",
      "outputs": [],
      "stateMutability": "nonpayable",
      "type": "function"
    },
    {
      "inputs": [
        {
          "internalType": "address",
          "name": "newOwner",
          "type": "address"
        }
      ],
      "name": "transferOwnership",
      "outputs": [],
      "stateMutability": "nonpayable",
      "type": "function"
    },
    {
      "inputs": [],
      "name": "unpause",
      "outputs": [],
      "stateMutability": "nonpayable",
      "type": "function"
    },
    {
      "inputs": [
        {
          "internalType": "address payable",
          "name": "to",
          "type": "address"
        }
      ],
      "name": "withdraw",
      "outputs": [],
      "stateMutability": "nonpayable",
      "type": "function"
    }
  ],
  "bytecode": "0x60806040523480156200001157600080fd5b5060405162001db238038062001db2833981016040819052620000349162000299565b3384846000620000458382620003dd565b506001620000548282620003dd565b5050506001600160a01b0381166200008757604051631e4fbdf760e01b8152600060048201526024015b60405180910390fd5b6200009281620000ba565b50620000a1816101f4620000d8565b600c620000af8382620003dd565b5050505050620004a9565b600980546001600160a01b0319169055620000d5816200017f565b50565b6127106001600160601b0382168110156200011957604051636f483d0960e01b81526001600160601b0383166004820152602481018290526044016200007e565b6001600160a01b0383166200014557604051635b6cc80560e11b8152600060048201526024016200007e565b50604080518082019091526001600160a01b039092168083526001600160601b039091166020909201829052600160a01b90910217600655565b600880546001600160a01b038381166001600160a01b0319831681179093556040519116919082907f8be0079c531659141344cd1fd0a4f28419497f9722a3daafe3b4186f6b6457e090600090a35050565b634e487b7160e01b600052604160045260246000fd5b600082601f830112620001f957600080fd5b81516001600160401b0380821115620002165762000216620001d1565b604051601f8301601f19908116603f01168101908282118183101715620002415762000241620001d1565b81604052838152602092508660208588010111156200025f57600080fd5b600091505b8382101562000283578582018301518183018401529082019062000264565b6000602085830101528094505050505092915050565b60008060008060808587031215620002b057600080fd5b84516001600160401b0380821115620002c857600080fd5b620002d688838901620001e7565b95506020870151915080821115620002ed57600080fd5b620002fb88838901620001e7565b945060408701519150808211156200031257600080fd5b506200032187828801620001e7565b606087015190935090506001600160a01b03811681146200034157600080fd5b939692955090935050565b600181811c908216806200036157607f821691505b6020821081036200038257634e487b7160e01b600052602260045260246000fd5b50919050565b601f821115620003d8576000816000526020600020601f850160051c81016020861015620003b35750805b601f850160051c820191505b81811015620003d457828155600101620003bf565b5050505b505050565b81516001600160401b03811115620003f957620003f9620001d1565b62000411816200040a84546200034c565b8462000388565b602080601f831160018114620004495760008415620004305750858301515b600019600386901b1c1916600185901b178555620003d4565b600085815260208120601f198616915b828110156200047a5788860151825594840194600190910190840162000459565b5085821015620004995787850151600019600388901b60f8161c191681555b5050505050600190811b01905550565b6118f980620004b96000396000f3fe6080604052600436106101c25760003560e01c8063715018a6116100f7578063b45a3c0e11610095578063df30e54b11610064578063df30e54b146104e9578063e30c397814610509578063e985e9c514610527578063f2fde38b1461054757600080fd5b8063b45a3c0e1461046e578063b88d4fde1461048e578063c002d23d146104ae578063c87b56dd146104c957600080fd5b80638da5cb5b116100d15780638da5cb5b1461040857806395d89b4114610426578063a0712d681461043b578063a22cb4651461044e57600080fd5b8063715018a6146103c957806379ba5097146103de5780638456cb59146103f357600080fd5b806332cb6b0c1161016457806351cff8d91161013e57806351cff8d91461034a5780635c975abb1461036a5780636352211e1461038957806370a08231146103a957600080fd5b806332cb6b0c146102f15780633f4ba83a1461031557806342842e0e1461032a57600080fd5b8063095ea7b3116101a0578063095ea7b3146102565780630fad0f511461027857806323b872dd146102925780632a55205a146102b257600080fd5b806301ffc9a7146101c757806306fdde03146101fc578063081812fc1461021e575b600080fd5b3480156101d357600080fd5b506101e76101e23660046114b0565b610567565b60405190151581526020015b60405180910390f35b34801561020857600080fd5b50610211610592565b6040516101f3919061151d565b34801561022a57600080fd5b5061023e610239366004611530565b610624565b6040516001600160a01b0390911681526020016101f3565b34801561026257600080fd5b5061027661027136600461155e565b61064d565b005b34801561028457600080fd5b50600b546101e79060ff1681565b34801561029e57600080fd5b506102766102ad36600461158a565b61065c565b3480156102be57600080fd5b506102d26102cd3660046115cb565b6106ec565b604080516001600160a01b0390931683526020830191909152016101f3565b3480156102fd57600080fd5b5061030761271081565b6040519081526020016101f3565b34801561032157600080fd5b50610276610771565b34801561033657600080fd5b5061027661034536600461158a565b610783565b34801561035657600080fd5b506102766103653660046115ed565b6107a3565b34801561037657600080fd5b50600954600160a01b900460ff166101e7565b34801561039557600080fd5b5061023e6103a4366004611530565b6107e0565b3480156103b557600080fd5b506103076103c43660046115ed565b6107eb565b3480156103d557600080fd5b50610276610833565b3480156103ea57600080fd5b50610276610845565b3480156103ff57600080fd5b50610276610889565b34801561041457600080fd5b506008546001600160a01b031661023e565b34801561043257600080fd5b50610211610899565b610276610449366004611530565b6108a8565b34801561045a57600080fd5b5061027661046936600461161f565b6109ad565b34801561047a57600080fd5b506101e7610489366004611530565b6109b8565b34801561049a57600080fd5b506102766104a936600461166a565b6109e6565b3480156104ba57600080fd5b50610307662386f26fc1000081565b3480156104d557600080fd5b506102116104e4366004611530565b6109fe565b3480156104f557600080fd5b5061027661050436600461174a565b610a66565b34801561051557600080fd5b506009546001600160a01b031661023e565b34801561053357600080fd5b506101e7610542366004611765565b610a81565b34801561055357600080fd5b506102766105623660046115ed565b610aaf565b60006001600160e01b03198216635a2d1e0760e11b148061058c575061058c82610b20565b92915050565b6060600080546105a19061179e565b80601f01602080910402602001604051908101604052809291908181526020018280546105cd9061179e565b801561061a5780601f106105ef5761010080835404028352916020019161061a565b820191906000526020600020905b8154815290600101906020018083116105fd57829003601f168201915b5050505050905090565b600061062f82610b45565b506000828152600460205260409020546001600160a01b031661058c565b610658828233610b7e565b5050565b6001600160a01b03821661068b57604051633250574960e11b8152600060048201526024015b60405180910390fd5b6000610698838333610b8b565b9050836001600160a01b0316816001600160a01b0316146106e6576040516364283d7b60e01b81526001600160a01b0380861660048301526024820184905282166044820152606401610682565b50505050565b600082815260076020526040812080548291906001600160a01b03811690600160a01b90046001600160601b0316816107405750506006546001600160a01b03811690600160a01b90046001600160601b03165b60006127106107586001600160601b038416896117ee565b6107629190611805565b92989297509195505050505050565b610779610c21565b610781610c4e565b565b61079e838383604051806020016040528060008152506109e6565b505050565b6107ab610c21565b6040516001600160a01b038216904780156108fc02916000818181858888f19350505050158015610658573d6000803e3d6000fd5b600061058c82610b45565b60006001600160a01b038216610817576040516322718ad960e21b815260006004820152602401610682565b506001600160a01b031660009081526003602052604090205490565b61083b610c21565b6107816000610ca3565b60095433906001600160a01b0316811461087d5760405163118cdaa760e01b81526001600160a01b0382166004820152602401610682565b61088681610ca3565b50565b610891610c21565b610781610cbc565b6060600180546105a19061179e565b6108b0610cff565b6108c1662386f26fc10000826117ee565b34146108f75760405162461bcd60e51b8152602060048201526005602482015264707269636560d81b6044820152606401610682565b60005b8181101561065857612710600a54106109405760405162461bcd60e51b81526020600482015260086024820152671cdbdb19081bdd5d60c21b6044820152606401610682565b6001600a60008282546109539190611827565b9091555050600a546109653382610d2a565b600b5460ff16156109a4576040518181527f032bc66be43dbccb7487781d168eb7bda224628a3b2c3388bdf69b532a3a16119060200160405180910390a15b506001016108fa565b610658338383610d44565b600b5460009060ff16801561058c5750506000908152600260205260409020546001600160a01b0316151590565b6109f184848461065c565b6106e63385858585610de3565b6060610a0982610b45565b506000610a14610f0e565b90506000815111610a345760405180602001604052806000815250610a5f565b80610a3e84610f1d565b604051602001610a4f92919061183a565b6040516020818303038152906040525b9392505050565b610a6e610c21565b600b805460ff1916911515919091179055565b6001600160a01b03918216600090815260056020908152604080832093909416825291909152205460ff1690565b610ab7610c21565b600980546001600160a01b0383166001600160a01b03199091168117909155610ae86008546001600160a01b031690565b6001600160a01b03167f38d16b8cac22d99fc7c124b9cd0de2d3fa1faef420bfe791d8c362d765e2270060405160405180910390a350565b60006001600160e01b0319821663152a902d60e11b148061058c575061058c82610fb0565b6000818152600260205260408120546001600160a01b03168061058c57604051637e27328960e01b815260048101849052602401610682565b61079e8383836001611000565b6000610b95610cff565b6000838152600260205260408120546001600160a01b0316600b5490915060ff161580610bc957506001600160a01b038116155b80610bdb57506001600160a01b038516155b610c0d5760405162461bcd60e51b815260206004820152600360248201526214d09560ea1b6044820152606401610682565b610c18858585611106565b95945050505050565b6008546001600160a01b031633146107815760405163118cdaa760e01b8152336004820152602401610682565b610c566111ff565b6009805460ff60a01b191690557f5db9ee0a495bf2e6ff9c91a7834c1ba4fdd244a5e8aa4e537bd38aeae4b073aa335b6040516001600160a01b03909116815260200160405180910390a1565b600980546001600160a01b031916905561088681611229565b610cc4610cff565b6009805460ff60a01b1916600160a01b1790557f62e78cea01bee320cd4e420270b5ea74000d11b0c9f74754ebdbfc544b05a258610c863390565b600954600160a01b900460ff16156107815760405163d93c066560e01b815260040160405180910390fd5b61065882826040518060200160405280600081525061127b565b6001600160a01b038216610d7657604051630b61174360e31b81526001600160a01b0383166004820152602401610682565b6001600160a01b03838116600081815260056020908152604080832094871680845294825291829020805460ff191686151590811790915591519182527f17307eab39ab6107e8899845ad3d59bd9653f200f220920489ca2b5937696c31910160405180910390a3505050565b6001600160a01b0383163b15610f0757604051630a85bd0160e11b81526001600160a01b0384169063150b7a0290610e25908890889087908790600401611869565b6020604051808303816000875af1925050508015610e60575060408051601f3d908101601f19168201909252610e5d918101906118a6565b60015b610ec9573d808015610e8e576040519150601f19603f3d011682016040523d82523d6000602084013e610e93565b606091505b508051600003610ec157604051633250574960e11b81526001600160a01b0385166004820152602401610682565b805160208201fd5b6001600160e01b03198116630a85bd0160e11b14610f0557604051633250574960e11b81526001600160a01b0385166004820152602401610682565b505b5050505050565b6060600c80546105a19061179e565b60606000610f2a83611293565b600101905060008167ffffffffffffffff811115610f4a57610f4a611654565b6040519080825280601f01601f191660200182016040528015610f74576020820181803683370190505b5090508181016020015b600019016f181899199a1a9b1b9c1cb0b131b232b360811b600a86061a8153600a8504945084610f7e57509392505050565b60006001600160e01b031982166380ac58cd60e01b1480610fe157506001600160e01b03198216635b5e139f60e01b145b8061058c57506301ffc9a760e01b6001600160e01b031983161461058c565b808061101457506001600160a01b03821615155b156110d657600061102484610b45565b90506001600160a01b038316158015906110505750826001600160a01b0316816001600160a01b031614155b801561106357506110618184610a81565b155b1561108c5760405163a9fbf51f60e01b81526001600160a01b0384166004820152602401610682565b81156110d45783856001600160a01b0316826001600160a01b03167f8c5be1e5ebec7d5bd14f71427d1e84f3dd0314c0f7b2291e5b200ac8c7c3b92560405160405180910390a45b505b5050600090815260046020526040902080546001600160a01b0319166001600160a01b0392909216919091179055565b6000828152600260205260408120546001600160a01b03908116908316156111335761113381848661136b565b6001600160a01b0381161561117157611150600085600080611000565b6001600160a01b038116600090815260036020526040902080546000190190555b6001600160a01b038516156111a0576001600160a01b0385166000908152600360205260409020805460010190555b60008481526002602052604080822080546001600160a01b0319166001600160a01b0389811691821790925591518793918516917fddf252ad1be2c89b69c2b068fc378daa952ba7f163c4a11628f55a4df523b3ef91a4949350505050565b600954600160a01b900460ff1661078157604051638dfc202b60e01b815260040160405180910390fd5b600880546001600160a01b038381166001600160a01b0319831681179093556040519116919082907f8be0079c531659141344cd1fd0a4f28419497f9722a3daafe3b4186f6b6457e090600090a35050565b61128583836113cf565b61079e336000858585610de3565b60008072184f03e93ff9f4daa797ed6e38ed64bf6a1f0160401b83106112d25772184f03e93ff9f4daa797ed6e38ed64bf6a1f0160401b830492506040015b6d04ee2d6d415b85acef810000000083106112fe576d04ee2d6d415b85acef8100000000830492506020015b662386f26fc10000831061131c57662386f26fc10000830492506010015b6305f5e1008310611334576305f5e100830492506008015b612710831061134857612710830492506004015b6064831061135a576064830492506002015b600a831061058c5760010192915050565b611376838383611434565b61079e576001600160a01b0383166113a457604051637e27328960e01b815260048101829052602401610682565b60405163177e802f60e01b81526001600160a01b038316600482015260248101829052604401610682565b6001600160a01b0382166113f957604051633250574960e11b815260006004820152602401610682565b600061140783836000610b8b565b90506001600160a01b0381161561079e576040516339e3563760e11b815260006004820152602401610682565b60006001600160a01b038316158015906114925750826001600160a01b0316846001600160a01b0316148061146e575061146e8484610a81565b8061149257506000828152600460205260409020546001600160a01b038481169116145b949350505050565b6001600160e01b03198116811461088657600080fd5b6000602082840312156114c257600080fd5b8135610a5f8161149a565b60005b838110156114e85781810151838201526020016114d0565b50506000910152565b600081518084526115098160208601602086016114cd565b601f01601f19169290920160200192915050565b602081526000610a5f60208301846114f1565b60006020828403121561154257600080fd5b5035919050565b6001600160a01b038116811461088657600080fd5b6000806040838503121561157157600080fd5b823561157c81611549565b946020939093013593505050565b60008060006060848603121561159f57600080fd5b83356115aa81611549565b925060208401356115ba81611549565b929592945050506040919091013590565b600080604083850312156115de57600080fd5b50508035926020909101359150565b6000602082840312156115ff57600080fd5b8135610a5f81611549565b8035801515811461161a57600080fd5b919050565b6000806040838503121561163257600080fd5b823561163d81611549565b915061164b6020840161160a565b90509250929050565b634e487b7160e01b600052604160045260246000fd5b6000806000806080858703121561168057600080fd5b843561168b81611549565b9350602085013561169b81611549565b925060408501359150606085013567ffffffffffffffff808211156116bf57600080fd5b818701915087601f8301126116d357600080fd5b8135818111156116e5576116e5611654565b604051601f8201601f19908116603f0116810190838211818310171561170d5761170d611654565b816040528281528a602084870101111561172657600080fd5b82602086016020830137600060208483010152809550505050505092959194509250565b60006020828403121561175c57600080fd5b610a5f8261160a565b6000806040838503121561177857600080fd5b823561178381611549565b9150602083013561179381611549565b809150509250929050565b600181811c908216806117b257607f821691505b6020821081036117d257634e487b7160e01b600052602260045260246000fd5b50919050565b634e487b7160e01b600052601160045260246000fd5b808202811582820484141761058c5761058c6117d8565b60008261182257634e487b7160e01b600052601260045260246000fd5b500490565b8082018082111561058c5761058c6117d8565b6000835161184c8184602088016114cd565b8351908301906118608183602088016114cd565b01949350505050565b6001600160a01b038581168252841660208201526040810183905260806060820181905260009061189c908301846114f1565b9695505050505050565b6000602082840312156118b857600080fd5b8151610a5f8161149a56fea26469706673582212204fc0a26d34ce416f18be773bd2dae3b63678b3952317d341cb53ff573f966d0264736f6c63430008180033",
  "linkReferences": {},
  "deployedLinkReferences": {}
}