{
  "_format": "hh-sol-artifact-1",
  "contractName": "AuditTrail",
  "sourceName": "contracts/AuditTrail.sol",
  "abi": [
    {
      "inputs": [
        {
          "internalType": "address",
          "name": "admin",
          "type": "address"
        }
      ],
      "stateMutability": "nonpayable",
      "type": "constructor"
    },
    {
      "inputs": [],
      "name": "AccessControlBadConfirmation",
      "type": "error"
    },
    {
      "inputs": [
        {
          "internalType": "address",
          "name": "account",
          "type": "address"
        },
        {
          "internalType": "bytes32",
          "name": "neededRole",
          "type": "bytes32"
        }
      ],
      "name": "AccessControlUnauthorizedAccount",
      "type": "error"
    },
    {
      "anonymous": false,
      "inputs": [
        {
          "indexed": true,
          "internalType": "bytes32",
          "name": "role",
          "type": "bytes32"
        },
        {
          "indexed": true,
          "internalType": "bytes32",
          "name": "previousAdminRole",
          "type": "bytes32"
        },
        {
          "indexed": true,
          "internalType": "bytes32",
          "name": "newAdminRole",
          "type": "bytes32"
        }
      ],
      "name": "RoleAdminChanged",
      "type": "event"
    },
    {
      "anonymous": false,
      "inputs": [
        {
          "indexed": true,
          "internalType": "bytes32",
          "name": "role",
          "type": "bytes32"
        },
        {
          "indexed": true,
          "internalType": "address",
          "name": "account",
          "type": "address"
        },
        {
          "indexed": true,
          "internalType": "address",
          "name": "sender",
          "type": "address"
        }
      ],
      "name": "RoleGranted",
      "type": "event"
    },
    {
      "anonymous": false,
      "inputs": [
        {
          "indexed": true,
          "internalType": "bytes32",
          "name": "role",
          "type": "bytes32"
        },
        {
          "indexed": true,
          "internalType": "address",
          "name": "account",
          "type": "address"
        },
        {
          "indexed": true,
          "internalType": "address",
          "name": "sender",
          "type": "address"
        }
      ],
      "name": "RoleRevoked",
      "type": "event"
    },
    {
      "anonymous": false,
      "inputs": [
        {
          "indexed": true,
          "internalType": "address",
          "name": "user",
          "type": "address"
        },
        {
          "indexed": false,
          "internalType": "uint256",
          "name": "amount",
          "type": "uint256"
        },
        {
          "indexed": false,
          "internalType": "uint256",
          "name": "timestamp",
          "type": "uint256"
        }
      ],
      "name": "TransactionLogged",
      "type": "event"
    },
    {
      "inputs": [],
      "name": "DEFAULT_ADMIN_ROLE",
      "outputs": [
        {
          "internalType": "bytes32",
          "name": "",
          "type": "bytes32"
        }
      ],
      "stateMutability": "view",
      "type": "function"
    },
    {
      "inputs": [],
      "name": "LOGGER_ROLE",
      "outputs": [
        {
          "internalType": "bytes32",
          "name": "",
          "type": "bytes32"
        }
      ],
      "stateMutability": "view",
      "type": "function"
    },
    {
      "inputs": [
        {
          "internalType": "bytes32",
          "name": "role",
          "type": "bytes32"
        }
      ],
      "name": "getRoleAdmin",
      "outputs": [
        {
          "internalType": "bytes32",
          "name": "",
          "type": "bytes32"
        }
      ],
      "stateMutability": "view",
      "type": "function"
    },
    {
      "inputs": [
        {
          "internalType": "bytes32",
          "name": "role",
          "type": "bytes32"
        },
        {
          "internalType": "address",
          "name": "account",
          "type": "address"
        }
      ],
      "name": "grantRole",
      "outputs": [],
      "stateMutability": "nonpayable",
      "type": "function"
    },
    {
      "inputs": [
        {
          "internalType": "bytes32",
          "name": "role",
          "type": "bytes32"
        },
        {
          "internalType": "address",
          "name": "account",
          "type": "address"
        }
      ],
      "name": "hasRole",
      "outputs": [
        {
          "internalType": "bool",
          "name": "",
          "type": "bool"
        }
      ],
      "stateMutability": "view",
      "type": "function"
    },
    {
      "inputs": [
        {
          "internalType": "address",
          "name": "user",
          "type": "address"
        },
        {
          "internalType": "uint256",
          "name": "amount",
          "type": "uint256"
        }
      ],
      "name": "logTransaction",
      "outputs": [],
      "stateMutability": "nonpayable",
      "type": "function"
    },
    {
      "inputs": [
        {
          "internalType": "uint256",
          "name": "",
          "type": "uint256"
        }
      ],
      "name": "records",
      "outputs": [
        {
          "internalType": "address",
          "name": "user",
          "type": "address"
        },
        {
          "internalType": "uint256",
          "name": "amount",
          "type": "uint256"
        },
        {
          "internalType": "uint256",
          "name": "timestamp",
          "type": "uint256"
        }
      ],
      "stateMutability": "view",
      "type": "function"
    },
    {
      "inputs": [
        {
          "internalType": "bytes32",
          "name": "role",
          "type": "bytes32"
        },
        {
          "internalType": "address",
          "name": "callerConfirmation",
          "type": "address"
        }
      ],
      "name": "renounceRole",
      "outputs": [],
      "stateMutability": "nonpayable",
      "type": "function"
    },
    {
      "inputs": [
        {
          "internalType": "bytes32",
          "name": "role",
          "type": "bytes32"
        },
        {
          "internalType": "address",
          "name": "account",
          "type": "address"
        }
      ],
      "name": "revokeRole",
      "outputs": [],
      "stateMutability": "nonpayable",
      "type": "function"
    },
    {
      "inputs": [
        {
          "internalType": "bytes4",
          "name": "interfaceId",
          "type": "bytes4"
        }
      ],
      "name": "supportsInterface",
      "outputs": [
        {
          "internalType": "bool",
          "name": "",
          "type": "bool"
        }
      ],
      "stateMutability": "view",
      "type": "function"
    }
  ],
  "bytecode": "0x60806040523480156200001157600080fd5b5060405162000f1038038062000f1083398181016040528101906200003791906200028a565b62000053672101f957127111f460c01b620000a860201b60201c565b6200006f67cc5b3a110c4c167260c01b620000a860201b60201c565b6200008b6767779d38db64414160c01b620000a860201b60201c565b620000a06000801b82620000ab60201b60201c565b5050620002bc565b50565b6000620000bf8383620001ae60201b60201c565b620001a357600160008085815260200190815260200160002060000160008473ffffffffffffffffffffffffffffffffffffffff1673ffffffffffffffffffffffffffffffffffffffff16815260200190815260200160002060006101000a81548160ff0219169083151502179055506200013f6200021860201b60201c565b73ffffffffffffffffffffffffffffffffffffffff168273ffffffffffffffffffffffffffffffffffffffff16847f2f8788117e7eff1d82e926ec794901d17c78024a50270940304540a733656f0d60405160405180910390a460019050620001a8565b600090505b92915050565b600080600084815260200190815260200160002060000160008373ffffffffffffffffffffffffffffffffffffffff1673ffffffffffffffffffffffffffffffffffffffff16815260200190815260200160002060009054906101000a900460ff16905092915050565b600033905090565b600080fd5b600073ffffffffffffffffffffffffffffffffffffffff82169050919050565b6000620002528262000225565b9050919050565b620002648162000245565b81146200027057600080fd5b50565b600081519050620002848162000259565b92915050565b600060208284031215620002a357620002a262000220565b5b6000620002b38482850162000273565b91505092915050565b610c4480620002cc6000396000f3fe608060405234801561001057600080fd5b506004361061009e5760003560e01c80637bf0fbde116100665780637bf0fbde1461016d57806391d148541461018b578063a217fddf146101bb578063be69059b146101d9578063d547741f146101f55761009e565b806301ffc9a7146100a3578063248a9ca3146100d35780632f2ff15d14610103578063344610671461011f57806336568abe14610151575b600080fd5b6100bd60048036038101906100b89190610936565b610211565b6040516100ca919061097e565b60405180910390f35b6100ed60048036038101906100e891906109cf565b61028b565b6040516100fa9190610a0b565b60405180910390f35b61011d60048036038101906101189190610a84565b6102aa565b005b61013960048036038101906101349190610afa565b6102cc565b60405161014893929190610b45565b60405180910390f35b61016b60048036038101906101669190610a84565b610326565b005b6101756103a1565b6040516101829190610a0b565b60405180910390f35b6101a560048036038101906101a09190610a84565b6103c5565b6040516101b2919061097e565b60405180910390f35b6101c361042f565b6040516101d09190610a0b565b60405180910390f35b6101f360048036038101906101ee9190610b7c565b610436565b005b61020f600480360381019061020a9190610a84565b6105fa565b005b60007f7965db0b000000000000000000000000000000000000000000000000000000007bffffffffffffffffffffffffffffffffffffffffffffffffffffffff1916827bffffffffffffffffffffffffffffffffffffffffffffffffffffffff1916148061028457506102838261061c565b5b9050919050565b6000806000838152602001908152602001600020600101549050919050565b6102b38261028b565b6102bc81610686565b6102c6838361069a565b50505050565b600181815481106102dc57600080fd5b90600052602060002090600302016000915090508060000160009054906101000a900473ffffffffffffffffffffffffffffffffffffffff16908060010154908060020154905083565b61032e61078b565b73ffffffffffffffffffffffffffffffffffffffff168173ffffffffffffffffffffffffffffffffffffffff1614610392576040517f6697b23200000000000000000000000000000000000000000000000000000000815260040160405180910390fd5b61039c8282610793565b505050565b7f566c814873eed56a69b28c40ab27cc2cb150d74068bae3e884ccd44f8de60f8a81565b600080600084815260200190815260200160002060000160008373ffffffffffffffffffffffffffffffffffffffff1673ffffffffffffffffffffffffffffffffffffffff16815260200190815260200160002060009054906101000a900460ff16905092915050565b6000801b81565b61044a670cc926334fe66dff60c01b610885565b7f566c814873eed56a69b28c40ab27cc2cb150d74068bae3e884ccd44f8de60f8a61047481610686565b610488674fc621171f9fb0a560c01b610885565b61049c67b31053101ee37ef760c01b610885565b6104b06795ddda8c031e313860c01b610885565b6104c4673119d0e25f6f5db360c01b610885565b600160405180606001604052808573ffffffffffffffffffffffffffffffffffffffff16815260200184815260200142815250908060018154018082558091505060019003906000526020600020906003020160009091909190915060008201518160000160006101000a81548173ffffffffffffffffffffffffffffffffffffffff021916908373ffffffffffffffffffffffffffffffffffffffff1602179055506020820151816001015560408201518160020155505061059167cb9011cc1b98af8760c01b610885565b6105a567cd85f2e29f59b67e60c01b610885565b8273ffffffffffffffffffffffffffffffffffffffff167f7772d368cd3cc6fa8dc9c0956d36dd1243d603abc8d99496f89d0e6950d80dde83426040516105ed929190610bbc565b60405180910390a2505050565b6106038261028b565b61060c81610686565b6106168383610793565b50505050565b60007f01ffc9a7000000000000000000000000000000000000000000000000000000007bffffffffffffffffffffffffffffffffffffffffffffffffffffffff1916827bffffffffffffffffffffffffffffffffffffffffffffffffffffffff1916149050919050565b6106978161069261078b565b610888565b50565b60006106a683836103c5565b61078057600160008085815260200190815260200160002060000160008473ffffffffffffffffffffffffffffffffffffffff1673ffffffffffffffffffffffffffffffffffffffff16815260200190815260200160002060006101000a81548160ff02191690831515021790555061071d61078b565b73ffffffffffffffffffffffffffffffffffffffff168273ffffffffffffffffffffffffffffffffffffffff16847f2f8788117e7eff1d82e926ec794901d17c78024a50270940304540a733656f0d60405160405180910390a460019050610785565b600090505b92915050565b600033905090565b600061079f83836103c5565b1561087a57600080600085815260200190815260200160002060000160008473ffffffffffffffffffffffffffffffffffffffff1673ffffffffffffffffffffffffffffffffffffffff16815260200190815260200160002060006101000a81548160ff02191690831515021790555061081761078b565b73ffffffffffffffffffffffffffffffffffffffff168273ffffffffffffffffffffffffffffffffffffffff16847ff6391f5c32d9c69d2a47ea670b442974b53935d1edc7fd64eb21e047a839171b60405160405180910390a46001905061087f565b600090505b92915050565b50565b61089282826103c5565b6108d55780826040517fe2517d3f0000000000000000000000000000000000000000000000000000000081526004016108cc929190610be5565b60405180910390fd5b5050565b600080fd5b60007fffffffff0000000000000000000000000000000000000000000000000000000082169050919050565b610913816108de565b811461091e57600080fd5b50565b6000813590506109308161090a565b92915050565b60006020828403121561094c5761094b6108d9565b5b600061095a84828501610921565b91505092915050565b60008115159050919050565b61097881610963565b82525050565b6000602082019050610993600083018461096f565b92915050565b6000819050919050565b6109ac81610999565b81146109b757600080fd5b50565b6000813590506109c9816109a3565b92915050565b6000602082840312156109e5576109e46108d9565b5b60006109f3848285016109ba565b91505092915050565b610a0581610999565b82525050565b6000602082019050610a2060008301846109fc565b92915050565b600073ffffffffffffffffffffffffffffffffffffffff82169050919050565b6000610a5182610a26565b9050919050565b610a6181610a46565b8114610a6c57600080fd5b50565b600081359050610a7e81610a58565b92915050565b60008060408385031215610a9b57610a9a6108d9565b5b6000610aa9858286016109ba565b9250506020610aba85828601610a6f565b9150509250929050565b6000819050919050565b610ad781610ac4565b8114610ae257600080fd5b50565b600081359050610af481610ace565b92915050565b600060208284031215610b1057610b0f6108d9565b5b6000610b1e84828501610ae5565b91505092915050565b610b3081610a46565b82525050565b610b3f81610ac4565b82525050565b6000606082019050610b5a6000830186610b27565b610b676020830185610b36565b610b746040830184610b36565b949350505050565b60008060408385031215610b9357610b926108d9565b5b6000610ba185828601610a6f565b9250506020610bb285828601610ae5565b9150509250929050565b6000604082019050610bd16000830185610b36565b610bde6020830184610b36565b9392505050565b6000604082019050610bfa6000830185610b27565b610c0760208301846109fc565b939250505056fea26469706673582212206a3a1321a5a922b866cb73ad114ee4798081d06609ae0b175442577d6ae2cc0c64736f6c63430008180033",
  "linkReferences": {},
  "deployedLinkReferences": {}
}