{
  "_format": "hh-sol-artifact-1",
  "contractName": "AssetVault",
  "sourceName": "contracts/evm/AssetVault.sol",
  "abi": [
    {
      "inputs": [
        {
          "internalType": "address",
          "name": "_tokenContract",
          "type": "address"
        },
        {
          "internalType": "address",
          "name": "admin",
          "type": "address"
        }
      ],
      "stateMutability": "nonpayable",
      "type": "constructor"
    },
    {
      "inputs": [],
      "name": "AccessControlBadConfirmation",
      "type": "error"
    },
    {
      "inputs": [
        {
          "internalType": "address",
          "name": "account",
          "type": "address"
        },
        {
          "internalType": "bytes32",
          "name": "neededRole",
          "type": "bytes32"
        }
      ],
      "name": "AccessControlUnauthorizedAccount",
      "type": "error"
    },
    {
      "inputs": [],
      "name": "ReentrancyGuardReentrantCall",
      "type": "error"
    },
    {
      "anonymous": false,
      "inputs": [
        {
          "indexed": true,
          "internalType": "address",
          "name": "asset",
          "type": "address"
        },
        {
          "indexed": false,
          "internalType": "uint256",
          "name": "amount",
          "type": "uint256"
        },
        {
          "indexed": false,
          "internalType": "uint256",
          "name": "percentage",
          "type": "uint256"
        }
      ],
      "name": "AssetAllocated",
      "type": "event"
    },
    {
      "anonymous": false,
      "inputs": [
        {
          "indexed": true,
          "internalType": "address",
          "name": "asset",
          "type": "address"
        },
        {
          "indexed": false,
          "internalType": "uint256",
          "name": "newPercentage",
          "type": "uint256"
        }
      ],
      "name": "AssetAllocationUpdated",
      "type": "event"
    },
    {
      "anonymous": false,
      "inputs": [
        {
          "indexed": true,
          "internalType": "address",
          "name": "depositor",
          "type": "address"
        },
        {
          "indexed": false,
          "internalType": "uint256",
          "name": "amount",
          "type": "uint256"
        },
        {
          "indexed": false,
          "internalType": "uint256",
          "name": "shares",
          "type": "uint256"
        },
        {
          "indexed": false,
          "internalType": "uint256",
          "name": "lockUntil",
          "type": "uint256"
        }
      ],
      "name": "Deposited",
      "type": "event"
    },
    {
      "anonymous": false,
      "inputs": [
        {
          "indexed": false,
          "internalType": "uint256",
          "name": "collateralValue",
          "type": "uint256"
        },
        {
          "indexed": false,
          "internalType": "uint256",
          "name": "borrowedAmount",
          "type": "uint256"
        }
      ],
      "name": "LeverageUsed",
      "type": "event"
    },
    {
      "anonymous": false,
      "inputs": [
        {
          "indexed": true,
          "internalType": "bytes32",
          "name": "role",
          "type": "bytes32"
        },
        {
          "indexed": true,
          "internalType": "bytes32",
          "name": "previousAdminRole",
          "type": "bytes32"
        },
        {
          "indexed": true,
          "internalType": "bytes32",
          "name": "newAdminRole",
          "type": "bytes32"
        }
      ],
      "name": "RoleAdminChanged",
      "type": "event"
    },
    {
      "anonymous": false,
      "inputs": [
        {
          "indexed": true,
          "internalType": "bytes32",
          "name": "role",
          "type": "bytes32"
        },
        {
          "indexed": true,
          "internalType": "address",
          "name": "account",
          "type": "address"
        },
        {
          "indexed": true,
          "internalType": "address",
          "name": "sender",
          "type": "address"
        }
      ],
      "name": "RoleGranted",
      "type": "event"
    },
    {
      "anonymous": false,
      "inputs": [
        {
          "indexed": true,
          "internalType": "bytes32",
          "name": "role",
          "type": "bytes32"
        },
        {
          "indexed": true,
          "internalType": "address",
          "name": "account",
          "type": "address"
        },
        {
          "indexed": true,
          "internalType": "address",
          "name": "sender",
          "type": "address"
        }
      ],
      "name": "RoleRevoked",
      "type": "event"
    },
    {
      "inputs": [],
      "name": "DEFAULT_ADMIN_ROLE",
      "outputs": [
        {
          "internalType": "bytes32",
          "name": "",
          "type": "bytes32"
        }
      ],
      "stateMutability": "view",
      "type": "function"
    },
    {
      "inputs": [],
      "name": "DEPOSITOR_ROLE",
      "outputs": [
        {
          "internalType": "bytes32",
          "name": "",
          "type": "bytes32"
        }
      ],
      "stateMutability": "view",
      "type": "function"
    },
    {
      "inputs": [],
      "name": "MAX_LTV_RATIO",
      "outputs": [
        {
          "internalType": "uint256",
          "name": "",
          "type": "uint256"
        }
      ],
      "stateMutability": "view",
      "type": "function"
    },
    {
      "inputs": [],
      "name": "VAULT_MANAGER_ROLE",
      "outputs": [
        {
          "internalType": "bytes32",
          "name": "",
          "type": "bytes32"
        }
      ],
      "stateMutability": "view",
      "type": "function"
    },
    {
      "inputs": [
        {
          "internalType": "uint256",
          "name": "",
          "type": "uint256"
        }
      ],
      "name": "allocations",
      "outputs": [
        {
          "internalType": "address",
          "name": "asset",
          "type": "address"
        },
        {
          "internalType": "uint256",
          "name": "targetPercentage",
          "type": "uint256"
        },
        {
          "internalType": "uint256",
          "name": "currentAmount",
          "type": "uint256"
        },
        {
          "internalType": "bool",
          "name": "isActive",
          "type": "bool"
        }
      ],
      "stateMutability": "view",
      "type": "function"
    },
    {
      "inputs": [
        {
          "internalType": "address",
          "name": "",
          "type": "address"
        }
      ],
      "name": "assetToIndex",
      "outputs": [
        {
          "internalType": "uint256",
          "name": "",
          "type": "uint256"
        }
      ],
      "stateMutability": "view",
      "type": "function"
    },
    {
      "inputs": [],
      "name": "currentLtvRatio",
      "outputs": [
        {
          "internalType": "uint256",
          "name": "",
          "type": "uint256"
        }
      ],
      "stateMutability": "view",
      "type": "function"
    },
    {
      "inputs": [
        {
          "internalType": "uint256",
          "name": "lockDays",
          "type": "uint256"
        }
      ],
      "name": "deposit",
      "outputs": [],
      "stateMutability": "payable",
      "type": "function"
    },
    {
      "inputs": [
        {
          "internalType": "address",
          "name": "",
          "type": "address"
        }
      ],
      "name": "depositorLockUntil",
      "outputs": [
        {
          "internalType": "uint256",
          "name": "",
          "type": "uint256"
        }
      ],
      "stateMutability": "view",
      "type": "function"
    },
    {
      "inputs": [
        {
          "internalType": "address",
          "name": "",
          "type": "address"
        }
      ],
      "name": "depositorShares",
      "outputs": [
        {
          "internalType": "uint256",
          "name": "",
          "type": "uint256"
        }
      ],
      "stateMutability": "view",
      "type": "function"
    },
    {
      "inputs": [
        {
          "internalType": "uint256",
          "name": "index",
          "type": "uint256"
        }
      ],
      "name": "getAllocation",
      "outputs": [
        {
          "components": [
            {
              "internalType": "address",
              "name": "asset",
              "type": "address"
            },
            {
              "internalType": "uint256",
              "name": "targetPercentage",
              "type": "uint256"
            },
            {
              "internalType": "uint256",
              "name": "currentAmount",
              "type": "uint256"
            },
            {
              "internalType": "bool",
              "name": "isActive",
              "type": "bool"
            }
          ],
          "internalType": "struct AssetVault.AssetAllocation",
          "name": "",
          "type": "tuple"
        }
      ],
      "stateMutability": "view",
      "type": "function"
    },
    {
      "inputs": [
        {
          "internalType": "bytes32",
          "name": "role",
          "type": "bytes32"
        }
      ],
      "name": "getRoleAdmin",
      "outputs": [
        {
          "internalType": "bytes32",
          "name": "",
          "type": "bytes32"
        }
      ],
      "stateMutability": "view",
      "type": "function"
    },
    {
      "inputs": [],
      "name": "getVaultMetrics",
      "outputs": [
        {
          "internalType": "uint256",
          "name": "totalValue",
          "type": "uint256"
        },
        {
          "internalType": "uint256",
          "name": "totalSharesIssued",
          "type": "uint256"
        },
        {
          "internalType": "uint256",
          "name": "ltvRatio",
          "type": "uint256"
        },
        {
          "internalType": "uint256",
          "name": "numAllocations",
          "type": "uint256"
        }
      ],
      "stateMutability": "view",
      "type": "function"
    },
    {
      "inputs": [
        {
          "internalType": "bytes32",
          "name": "role",
          "type": "bytes32"
        },
        {
          "internalType": "address",
          "name": "account",
          "type": "address"
        }
      ],
      "name": "grantRole",
      "outputs": [],
      "stateMutability": "nonpayable",
      "type": "function"
    },
    {
      "inputs": [
        {
          "internalType": "bytes32",
          "name": "role",
          "type": "bytes32"
        },
        {
          "internalType": "address",
          "name": "account",
          "type": "address"
        }
      ],
      "name": "hasRole",
      "outputs": [
        {
          "internalType": "bool",
          "name": "",
          "type": "bool"
        }
      ],
      "stateMutability": "view",
      "type": "function"
    },
    {
      "inputs": [
        {
          "internalType": "bytes32",
          "name": "role",
          "type": "bytes32"
        },
        {
          "internalType": "address",
          "name": "callerConfirmation",
          "type": "address"
        }
      ],
      "name": "renounceRole",
      "outputs": [],
      "stateMutability": "nonpayable",
      "type": "function"
    },
    {
      "inputs": [
        {
          "internalType": "bytes32",
          "name": "role",
          "type": "bytes32"
        },
        {
          "internalType": "address",
          "name": "account",
          "type": "address"
        }
      ],
      "name": "revokeRole",
      "outputs": [],
      "stateMutability": "nonpayable",
      "type": "function"
    },
    {
      "inputs": [
        {
          "internalType": "address",
          "name": "asset",
          "type": "address"
        },
        {
          "internalType": "uint256",
          "name": "targetPercentage",
          "type": "uint256"
        }
      ],
      "name": "setAssetAllocation",
      "outputs": [],
      "stateMutability": "nonpayable",
      "type": "function"
    },
    {
      "inputs": [
        {
          "internalType": "bytes4",
          "name": "interfaceId",
          "type": "bytes4"
        }
      ],
      "name": "supportsInterface",
      "outputs": [
        {
          "internalType": "bool",
          "name": "",
          "type": "bool"
        }
      ],
      "stateMutability": "view",
      "type": "function"
    },
    {
      "inputs": [],
      "name": "tokenContract",
      "outputs": [
        {
          "internalType": "contract ITokenERC20",
          "name": "",
          "type": "address"
        }
      ],
      "stateMutability": "view",
      "type": "function"
    },
    {
      "inputs": [],
      "name": "totalShares",
      "outputs": [
        {
          "internalType": "uint256",
          "name": "",
          "type": "uint256"
        }
      ],
      "stateMutability": "view",
      "type": "function"
    },
    {
      "inputs": [],
      "name": "totalVaultValue",
      "outputs": [
        {
          "internalType": "uint256",
          "name": "",
          "type": "uint256"
        }
      ],
      "stateMutability": "view",
      "type": "function"
    },
    {
      "inputs": [
        {
          "internalType": "uint256",
          "name": "collateralValue",
          "type": "uint256"
        },
        {
          "internalType": "uint256",
          "name": "borrowAmount",
          "type": "uint256"
        }
      ],
      "name": "useLeverage",
      "outputs": [],
      "stateMutability": "nonpayable",
      "type": "function"
    },
    {
      "inputs": [
        {
          "internalType": "uint256",
          "name": "shareAmount",
          "type": "uint256"
        }
      ],
      "name": "withdraw",
      "outputs": [],
      "stateMutability": "nonpayable",
      "type": "function"
    },
    {
      "stateMutability": "payable",
      "type": "receive"
    }
  ],
  "bytecode": "0x60a060405260006002553480156200001657600080fd5b50604051620015f0380380620015f0833981016040819052620000399162000159565b600180556001600160a01b038216608052620000576000826200008d565b50620000847fd1473398bb66596de5d1ea1fc8e303ff2ac23265adc9144b1b52065dc4f0934b826200008d565b50505062000191565b6000828152602081815260408083206001600160a01b038516845290915281205460ff1662000132576000838152602081815260408083206001600160a01b03861684529091529020805460ff19166001179055620000e93390565b6001600160a01b0316826001600160a01b0316847f2f8788117e7eff1d82e926ec794901d17c78024a50270940304540a733656f0d60405160405180910390a450600162000136565b5060005b92915050565b80516001600160a01b03811681146200015457600080fd5b919050565b600080604083850312156200016d57600080fd5b62000178836200013c565b915062000188602084016200013c565b90509250929050565b608051611443620001ad600039600061031f01526114436000f3fe60806040526004361061014f5760003560e01c80635c12cd4d116100b6578063afbc74b91161006f578063afbc74b9146104a1578063b6b55f25146104b7578063ca93dfac146104ca578063d547741f146104e0578063deabf15114610500578063ff6adfa41461052d57600080fd5b80635c12cd4d146103b75780635e5a24a4146103d757806391d148541461040b578063a0c701ad1461042b578063a217fddf14610458578063a3b0b5a31461046d57600080fd5b80632f2ff15d116101085780632f2ff15d1461028a57806336568abe146102aa57806339e59945146102ca5780633a98ef39146102f757806355a373d61461030d5780635a5804b31461035957600080fd5b806301ffc9a7146101735780630a2642bf146101a85780630c323821146101f45780631503c78a14610218578063248a9ca31461023a5780632e1a7d4d1461026a57600080fd5b3661016e573460036000828254610166919061129f565b925050819055005b600080fd5b34801561017f57600080fd5b5061019361018e3660046112b2565b610566565b60405190151581526020015b60405180910390f35b3480156101b457600080fd5b506101c86101c33660046112e3565b61059d565b604080516001600160a01b0390951685526020850193909352918301521515606082015260800161019f565b34801561020057600080fd5b5061020a611f4081565b60405190815260200161019f565b34801561022457600080fd5b50610238610233366004611318565b6105e4565b005b34801561024657600080fd5b5061020a6102553660046112e3565b60009081526020819052604090206001015490565b34801561027657600080fd5b506102386102853660046112e3565b610993565b34801561029657600080fd5b506102386102a5366004611342565b610b3e565b3480156102b657600080fd5b506102386102c5366004611342565b610b69565b3480156102d657600080fd5b5061020a6102e536600461136e565b60056020526000908152604090205481565b34801561030357600080fd5b5061020a60085481565b34801561031957600080fd5b506103417f000000000000000000000000000000000000000000000000000000000000000081565b6040516001600160a01b03909116815260200161019f565b34801561036557600080fd5b506103796103743660046112e3565b610ba1565b60405161019f919081516001600160a01b03168152602080830151908201526040808301519082015260609182015115159181019190915260800190565b3480156103c357600080fd5b506102386103d2366004611389565b610c6e565b3480156103e357600080fd5b5061020a7fd1473398bb66596de5d1ea1fc8e303ff2ac23265adc9144b1b52065dc4f0934b81565b34801561041757600080fd5b50610193610426366004611342565b610dd1565b34801561043757600080fd5b5061020a61044636600461136e565b60066020526000908152604090205481565b34801561046457600080fd5b5061020a600081565b34801561047957600080fd5b5061020a7f8f4f2da22e8ac8f11e15f9fc141cddbb5deea8800186560abb6e68c5496619a981565b3480156104ad57600080fd5b5061020a60035481565b6102386104c53660046112e3565b610dfa565b3480156104d657600080fd5b5061020a60025481565b3480156104ec57600080fd5b506102386104fb366004611342565b610f46565b34801561050c57600080fd5b5061020a61051b36600461136e565b60076020526000908152604090205481565b34801561053957600080fd5b5060035460085460025460045460408051948552602085019390935291830152606082015260800161019f565b60006001600160e01b03198216637965db0b60e01b148061059757506301ffc9a760e01b6001600160e01b03198316145b92915050565b600481815481106105ad57600080fd5b600091825260209091206004909102018054600182015460028301546003909301546001600160a01b039092169350919060ff1684565b7fd1473398bb66596de5d1ea1fc8e303ff2ac23265adc9144b1b52065dc4f0934b61060e81610f6b565b61271082111561065a5760405162461bcd60e51b8152602060048201526012602482015271496e76616c69642070657263656e7461676560701b60448201526064015b60405180910390fd5b6001600160a01b0383166000908152600560205260409020541580156106805750600454155b1561079357604080516080810182526001600160a01b038581168083526020808401878152600085870181815260016060880181815260048054928301815580855298517f8a35acfbc15ff81a39ae7d344fd709f28e8600b4aa8c65c6b64bfe7fe36bd19b928a0292830180546001600160a01b031916919099161790975592517f8a35acfbc15ff81a39ae7d344fd709f28e8600b4aa8c65c6b64bfe7fe36bd19c840155517f8a35acfbc15ff81a39ae7d344fd709f28e8600b4aa8c65c6b64bfe7fe36bd19d83015593517f8a35acfbc15ff81a39ae7d344fd709f28e8600b4aa8c65c6b64bfe7fe36bd19e909101805460ff191691151591909117905592549082526005909252919091205561094b565b6001600160a01b03831660009081526005602052604081205490036108c057604080516080810182526001600160a01b038581168083526020808401878152600085870181815260016060880181815260048054928301815580855298517f8a35acfbc15ff81a39ae7d344fd709f28e8600b4aa8c65c6b64bfe7fe36bd19b928a0292830180546001600160a01b031916919099161790975592517f8a35acfbc15ff81a39ae7d344fd709f28e8600b4aa8c65c6b64bfe7fe36bd19c840155517f8a35acfbc15ff81a39ae7d344fd709f28e8600b4aa8c65c6b64bfe7fe36bd19d83015593517f8a35acfbc15ff81a39ae7d344fd709f28e8600b4aa8c65c6b64bfe7fe36bd19e909101805460ff191691151591909117905592549082526005909252919091205561094b565b6001600160a01b0383166000908152600560205260408120546108e5906001906113ab565b905082600482815481106108fb576108fb6113be565b9060005260206000209060040201600101819055506000831160048281548110610927576109276113be565b60009182526020909120600490910201600301805460ff1916911515919091179055505b826001600160a01b03167fd83bfee369c0025cc76fcf850d2e3113094668a78281723e8a9d9be6d8a48d828360405161098691815260200190565b60405180910390a2505050565b61099b610f75565b336000908152600660205260409020548111156109f05760405162461bcd60e51b8152602060048201526013602482015272496e73756666696369656e742073686172657360681b6044820152606401610651565b33600090815260076020526040902054421015610a3e5760405162461bcd60e51b815260206004820152600c60248201526b14dd1a5b1b081b1bd8dad95960a21b6044820152606401610651565b600060085460035483610a5191906113d4565b610a5b91906113eb565b905080471015610aad5760405162461bcd60e51b815260206004820152601a60248201527f496e73756666696369656e74207661756c742062616c616e63650000000000006044820152606401610651565b3360009081526006602052604081208054849290610acc9084906113ab565b925050819055508160086000828254610ae591906113ab565b925050819055508060036000828254610afe91906113ab565b9091555050604051339082156108fc029083906000818181858888f19350505050158015610b30573d6000803e3d6000fd5b5050610b3b60018055565b50565b600082815260208190526040902060010154610b5981610f6b565b610b638383610f9f565b50505050565b6001600160a01b0381163314610b925760405163334bd91960e11b815260040160405180910390fd5b610b9c8282611031565b505050565b6040805160808101825260008082526020820181905291810182905260608101919091526004548210610c065760405162461bcd60e51b815260206004820152600d60248201526c092dcecc2d8d2c840d2dcc8caf609b1b6044820152606401610651565b60048281548110610c1957610c196113be565b600091825260209182902060408051608081018252600490930290910180546001600160a01b0316835260018101549383019390935260028301549082015260039091015460ff161515606082015292915050565b7fd1473398bb66596de5d1ea1fc8e303ff2ac23265adc9144b1b52065dc4f0934b610c9881610f6b565b610ca0610f75565b60008311610ce55760405162461bcd60e51b8152602060048201526012602482015271125b9d985b1a590818dbdb1b185d195c985b60721b6044820152606401610651565b60008211610d2d5760405162461bcd60e51b8152602060048201526015602482015274125b9d985b1a5908189bdc9c9bddc8185b5bdd5b9d605a1b6044820152606401610651565b600083610d3c846127106113d4565b610d4691906113eb565b9050611f40811115610d895760405162461bcd60e51b815260206004820152600c60248201526b098a8ac40e8dede40d0d2ced60a31b6044820152606401610651565b600281905560408051858152602081018590527f7e5b055de8ad3bedb309615262fe649561b080cded39484b9ed8c7564bef9bf6910160405180910390a150610b9c60018055565b6000918252602082815260408084206001600160a01b0393909316845291905290205460ff1690565b610e02610f75565b60003411610e3f5760405162461bcd60e51b815260206004820152600a602482015269139bc819195c1bdcda5d60b21b6044820152606401610651565b6000600854600014610e6a57600354600854610e5b90346113d4565b610e6591906113eb565b610e6c565b345b33600090815260066020526040812080549293508392909190610e9090849061129f565b925050819055508060086000828254610ea9919061129f565b925050819055503460036000828254610ec2919061129f565b909155504290508215610efb57610edc83620151806113d4565b610ee6908261129f565b33600090815260076020526040902081905590505b604080513481526020810184905290810182905233907f91ede45f04a37a7c170f5c1207df3b6bc748dc1e04ad5e917a241d0f52feada39060600160405180910390a2610b3061109c565b600082815260208190526040902060010154610f6181610f6b565b610b638383611031565b610b3b8133611250565b600260015403610f9857604051633ee5aeb560e01b815260040160405180910390fd5b6002600155565b6000610fab8383610dd1565b611029576000838152602081815260408083206001600160a01b03861684529091529020805460ff19166001179055610fe13390565b6001600160a01b0316826001600160a01b0316847f2f8788117e7eff1d82e926ec794901d17c78024a50270940304540a733656f0d60405160405180910390a4506001610597565b506000610597565b600061103d8383610dd1565b15611029576000838152602081815260408083206001600160a01b0386168085529252808320805460ff1916905551339286917ff6391f5c32d9c69d2a47ea670b442974b53935d1edc7fd64eb21e047a839171b9190a4506001610597565b4760008190036110a95750565b60005b60045481101561124c57600481815481106110c9576110c96113be565b600091825260209091206003600490920201015460ff1615611244576000612710600483815481106110fd576110fd6113be565b9060005260206000209060040201600101548461111a91906113d4565b61112491906113eb565b905060006004838154811061113b5761113b6113be565b90600052602060002090600402016002015490508082111561124157600061116382846113ab565b905047811161123f578060048581548110611180576111806113be565b906000526020600020906004020160020160008282546111a0919061129f565b909155505060048054859081106111b9576111b96113be565b600091825260209091206004918202015481546001600160a01b03909116917fbde86ebf5850b3e68a928025690bdd3bbc4ee94cc08c54ab3c6923d07336d1f8918491908890811061120d5761120d6113be565b906000526020600020906004020160010154604051611236929190918252602082015260400190565b60405180910390a25b505b50505b6001016110ac565b5050565b61125a8282610dd1565b61124c5760405163e2517d3f60e01b81526001600160a01b038216600482015260248101839052604401610651565b634e487b7160e01b600052601160045260246000fd5b8082018082111561059757610597611289565b6000602082840312156112c457600080fd5b81356001600160e01b0319811681146112dc57600080fd5b9392505050565b6000602082840312156112f557600080fd5b5035919050565b80356001600160a01b038116811461131357600080fd5b919050565b6000806040838503121561132b57600080fd5b611334836112fc565b946020939093013593505050565b6000806040838503121561135557600080fd5b82359150611365602084016112fc565b90509250929050565b60006020828403121561138057600080fd5b6112dc826112fc565b6000806040838503121561139c57600080fd5b50508035926020909101359150565b8181038181111561059757610597611289565b634e487b7160e01b600052603260045260246000fd5b808202811582820484141761059757610597611289565b60008261140857634e487b7160e01b600052601260045260246000fd5b50049056fea26469706673582212205a89af3b2ac261ea776f6b440bb845e69403dcdbc7ea8338407d975a0892debd64736f6c63430008180033",
  "linkReferences": {},
  "deployedLinkReferences": {}
}