{
  "_format": "hh-sol-artifact-1",
  "contractName": "TokenERC20",
  "sourceName": "contracts/evm/TokenERC20.sol",
  "abi": [
    {
      "inputs": [],
      "name": "AccessControlBadConfirmation",
      "type": "error"
    },
    {
      "inputs": [
        {
          "internalType": "address",
          "name": "account",
          "type": "address"
        },
        {
          "internalType": "bytes32",
          "name": "neededRole",
          "type": "bytes32"
        }
      ],
      "name": "AccessControlUnauthorizedAccount",
      "type": "error"
    },
    {
      "inputs": [
        {
          "internalType": "address",
          "name": "target",
          "type": "address"
        }
      ],
      "name": "AddressEmptyCode",
      "type": "error"
    },
    {
      "inputs": [],
      "name": "ECDSAInvalidSignature",
      "type": "error"
    },
    {
      "inputs": [
        {
          "internalType": "uint256",
          "name": "length",
          "type": "uint256"
        }
      ],
      "name": "ECDSAInvalidSignatureLength",
      "type": "error"
    },
    {
      "inputs": [
        {
          "internalType": "bytes32",
          "name": "s",
          "type": "bytes32"
        }
      ],
      "name": "ECDSAInvalidSignatureS",
      "type": "error"
    },
    {
      "inputs": [
        {
          "internalType": "address",
          "name": "implementation",
          "type": "address"
        }
      ],
      "name": "ERC1967InvalidImplementation",
      "type": "error"
    },
    {
      "inputs": [],
      "name": "ERC1967NonPayable",
      "type": "error"
    },
    {
      "inputs": [
        {
          "internalType": "address",
          "name": "spender",
          "type": "address"
        },
        {
          "internalType": "uint256",
          "name": "allowance",
          "type": "uint256"
        },
        {
          "internalType": "uint256",
          "name": "needed",
          "type": "uint256"
        }
      ],
      "name": "ERC20InsufficientAllowance",
      "type": "error"
    },
    {
      "inputs": [
        {
          "internalType": "address",
          "name": "sender",
          "type": "address"
        },
        {
          "internalType": "uint256",
          "name": "balance",
          "type": "uint256"
        },
        {
          "internalType": "uint256",
          "name": "needed",
          "type": "uint256"
        }
      ],
      "name": "ERC20InsufficientBalance",
      "type": "error"
    },
    {
      "inputs": [
        {
          "internalType": "address",
          "name": "approver",
          "type": "address"
        }
      ],
      "name": "ERC20InvalidApprover",
      "type": "error"
    },
    {
      "inputs": [
        {
          "internalType": "address",
          "name": "receiver",
          "type": "address"
        }
      ],
      "name": "ERC20InvalidReceiver",
      "type": "error"
    },
    {
      "inputs": [
        {
          "internalType": "address",
          "name": "sender",
          "type": "address"
        }
      ],
      "name": "ERC20InvalidSender",
      "type": "error"
    },
    {
      "inputs": [
        {
          "internalType": "address",
          "name": "spender",
          "type": "address"
        }
      ],
      "name": "ERC20InvalidSpender",
      "type": "error"
    },
    {
      "inputs": [
        {
          "internalType": "uint256",
          "name": "deadline",
          "type": "uint256"
        }
      ],
      "name": "ERC2612ExpiredSignature",
      "type": "error"
    },
    {
      "inputs": [
        {
          "internalType": "address",
          "name": "signer",
          "type": "address"
        },
        {
          "internalType": "address",
          "name": "owner",
          "type": "address"
        }
      ],
      "name": "ERC2612InvalidSigner",
      "type": "error"
    },
    {
      "inputs": [],
      "name": "EnforcedPause",
      "type": "error"
    },
    {
      "inputs": [],
      "name": "ExpectedPause",
      "type": "error"
    },
    {
      "inputs": [],
      "name": "FailedCall",
      "type": "error"
    },
    {
      "inputs": [
        {
          "internalType": "address",
          "name": "account",
          "type": "address"
        },
        {
          "internalType": "uint256",
          "name": "currentNonce",
          "type": "uint256"
        }
      ],
      "name": "InvalidAccountNonce",
      "type": "error"
    },
    {
      "inputs": [],
      "name": "InvalidInitialization",
      "type": "error"
    },
    {
      "inputs": [],
      "name": "NotInitializing",
      "type": "error"
    },
    {
      "inputs": [
        {
          "internalType": "address",
          "name": "owner",
          "type": "address"
        }
      ],
      "name": "OwnableInvalidOwner",
      "type": "error"
    },
    {
      "inputs": [
        {
          "internalType": "address",
          "name": "account",
          "type": "address"
        }
      ],
      "name": "OwnableUnauthorizedAccount",
      "type": "error"
    },
    {
      "inputs": [],
      "name": "ReentrancyGuardReentrantCall",
      "type": "error"
    },
    {
      "inputs": [],
      "name": "UUPSUnauthorizedCallContext",
      "type": "error"
    },
    {
      "inputs": [
        {
          "internalType": "bytes32",
          "name": "slot",
          "type": "bytes32"
        }
      ],
      "name": "UUPSUnsupportedProxiableUUID",
      "type": "error"
    },
    {
      "anonymous": false,
      "inputs": [
        {
          "indexed": true,
          "internalType": "address",
          "name": "owner",
          "type": "address"
        },
        {
          "indexed": true,
          "internalType": "address",
          "name": "spender",
          "type": "address"
        },
        {
          "indexed": false,
          "internalType": "uint256",
          "name": "value",
          "type": "uint256"
        }
      ],
      "name": "Approval",
      "type": "event"
    },
    {
      "anonymous": false,
      "inputs": [],
      "name": "EIP712DomainChanged",
      "type": "event"
    },
    {
      "anonymous": false,
      "inputs": [
        {
          "indexed": false,
          "internalType": "uint64",
          "name": "version",
          "type": "uint64"
        }
      ],
      "name": "Initialized",
      "type": "event"
    },
    {
      "anonymous": false,
      "inputs": [
        {
          "indexed": true,
          "internalType": "address",
          "name": "previousOwner",
          "type": "address"
        },
        {
          "indexed": true,
          "internalType": "address",
          "name": "newOwner",
          "type": "address"
        }
      ],
      "name": "OwnershipTransferStarted",
      "type": "event"
    },
    {
      "anonymous": false,
      "inputs": [
        {
          "indexed": true,
          "internalType": "address",
          "name": "previousOwner",
          "type": "address"
        },
        {
          "indexed": true,
          "internalType": "address",
          "name": "newOwner",
          "type": "address"
        }
      ],
      "name": "OwnershipTransferred",
      "type": "event"
    },
    {
      "anonymous": false,
      "inputs": [
        {
          "indexed": false,
          "internalType": "address",
          "name": "account",
          "type": "address"
        }
      ],
      "name": "Paused",
      "type": "event"
    },
    {
      "anonymous": false,
      "inputs": [
        {
          "indexed": true,
          "internalType": "bytes32",
          "name": "role",
          "type": "bytes32"
        },
        {
          "indexed": true,
          "internalType": "bytes32",
          "name": "previousAdminRole",
          "type": "bytes32"
        },
        {
          "indexed": true,
          "internalType": "bytes32",
          "name": "newAdminRole",
          "type": "bytes32"
        }
      ],
      "name": "RoleAdminChanged",
      "type": "event"
    },
    {
      "anonymous": false,
      "inputs": [
        {
          "indexed": true,
          "internalType": "bytes32",
          "name": "role",
          "type": "bytes32"
        },
        {
          "indexed": true,
          "internalType": "address",
          "name": "account",
          "type": "address"
        },
        {
          "indexed": true,
          "internalType": "address",
          "name": "sender",
          "type": "address"
        }
      ],
      "name": "RoleGranted",
      "type": "event"
    },
    {
      "anonymous": false,
      "inputs": [
        {
          "indexed": true,
          "internalType": "bytes32",
          "name": "role",
          "type": "bytes32"
        },
        {
          "indexed": true,
          "internalType": "address",
          "name": "account",
          "type": "address"
        },
        {
          "indexed": true,
          "internalType": "address",
          "name": "sender",
          "type": "address"
        }
      ],
      "name": "RoleRevoked",
      "type": "event"
    },
    {
      "anonymous": false,
      "inputs": [
        {
          "indexed": true,
          "internalType": "address",
          "name": "from",
          "type": "address"
        },
        {
          "indexed": true,
          "internalType": "address",
          "name": "to",
          "type": "address"
        },
        {
          "indexed": false,
          "internalType": "uint256",
          "name": "value",
          "type": "uint256"
        }
      ],
      "name": "Transfer",
      "type": "event"
    },
    {
      "anonymous": false,
      "inputs": [
        {
          "indexed": false,
          "internalType": "address",
          "name": "account",
          "type": "address"
        }
      ],
      "name": "Unpaused",
      "type": "event"
    },
    {
      "anonymous": false,
      "inputs": [
        {
          "indexed": true,
          "internalType": "address",
          "name": "implementation",
          "type": "address"
        }
      ],
      "name": "Upgraded",
      "type": "event"
    },
    {
      "inputs": [],
      "name": "BURNER_ROLE",
      "outputs": [
        {
          "internalType": "bytes32",
          "name": "",
          "type": "bytes32"
        }
      ],
      "stateMutability": "view",
      "type": "function"
    },
    {
      "inputs": [],
      "name": "DEFAULT_ADMIN_ROLE",
      "outputs": [
        {
          "internalType": "bytes32",
          "name": "",
          "type": "bytes32"
        }
      ],
      "stateMutability": "view",
      "type": "function"
    },
    {
      "inputs": [],
      "name": "DOMAIN_SEPARATOR",
      "outputs": [
        {
          "internalType": "bytes32",
          "name": "",
          "type": "bytes32"
        }
      ],
      "stateMutability": "view",
      "type": "function"
    },
    {
      "inputs": [],
      "name": "INITIAL_SUPPLY",
      "outputs": [
        {
          "internalType": "uint256",
          "name": "",
          "type": "uint256"
        }
      ],
      "stateMutability": "view",
      "type": "function"
    },
    {
      "inputs": [],
      "name": "MINTER_ROLE",
      "outputs": [
        {
          "internalType": "bytes32",
          "name": "",
          "type": "bytes32"
        }
      ],
      "stateMutability": "view",
      "type": "function"
    },
    {
      "inputs": [],
      "name": "PAUSER_ROLE",
      "outputs": [
        {
          "internalType": "bytes32",
          "name": "",
          "type": "bytes32"
        }
      ],
      "stateMutability": "view",
      "type": "function"
    },
    {
      "inputs": [],
      "name": "UPGRADE_INTERFACE_VERSION",
      "outputs": [
        {
          "internalType": "string",
          "name": "",
          "type": "string"
        }
      ],
      "stateMutability": "view",
      "type": "function"
    },
    {
      "inputs": [],
      "name": "acceptOwnership",
      "outputs": [],
      "stateMutability": "nonpayable",
      "type": "function"
    },
    {
      "inputs": [
        {
          "internalType": "address",
          "name": "owner",
          "type": "address"
        },
        {
          "internalType": "address",
          "name": "spender",
          "type": "address"
        }
      ],
      "name": "allowance",
      "outputs": [
        {
          "internalType": "uint256",
          "name": "",
          "type": "uint256"
        }
      ],
      "stateMutability": "view",
      "type": "function"
    },
    {
      "inputs": [
        {
          "internalType": "address",
          "name": "spender",
          "type": "address"
        },
        {
          "internalType": "uint256",
          "name": "value",
          "type": "uint256"
        }
      ],
      "name": "approve",
      "outputs": [
        {
          "internalType": "bool",
          "name": "",
          "type": "bool"
        }
      ],
      "stateMutability": "nonpayable",
      "type": "function"
    },
    {
      "inputs": [
        {
          "internalType": "address",
          "name": "account",
          "type": "address"
        }
      ],
      "name": "balanceOf",
      "outputs": [
        {
          "internalType": "uint256",
          "name": "",
          "type": "uint256"
        }
      ],
      "stateMutability": "view",
      "type": "function"
    },
    {
      "inputs": [
        {
          "internalType": "address",
          "name": "from",
          "type": "address"
        },
        {
          "internalType": "uint256",
          "name": "amount",
          "type": "uint256"
        }
      ],
      "name": "burn",
      "outputs": [],
      "stateMutability": "nonpayable",
      "type": "function"
    },
    {
      "inputs": [],
      "name": "decimals",
      "outputs": [
        {
          "internalType": "uint8",
          "name": "",
          "type": "uint8"
        }
      ],
      "stateMutability": "view",
      "type": "function"
    },
    {
      "inputs": [],
      "name": "eip712Domain",
      "outputs": [
        {
          "internalType": "bytes1",
          "name": "fields",
          "type": "bytes1"
        },
        {
          "internalType": "string",
          "name": "name",
          "type": "string"
        },
        {
          "internalType": "string",
          "name": "version",
          "type": "string"
        },
        {
          "internalType": "uint256",
          "name": "chainId",
          "type": "uint256"
        },
        {
          "internalType": "address",
          "name": "verifyingContract",
          "type": "address"
        },
        {
          "internalType": "bytes32",
          "name": "salt",
          "type": "bytes32"
        },
        {
          "internalType": "uint256[]",
          "name": "extensions",
          "type": "uint256[]"
        }
      ],
      "stateMutability": "view",
      "type": "function"
    },
    {
      "inputs": [
        {
          "internalType": "bytes32",
          "name": "role",
          "type": "bytes32"
        }
      ],
      "name": "getRoleAdmin",
      "outputs": [
        {
          "internalType": "bytes32",
          "name": "",
          "type": "bytes32"
        }
      ],
      "stateMutability": "view",
      "type": "function"
    },
    {
      "inputs": [
        {
          "internalType": "bytes32",
          "name": "role",
          "type": "bytes32"
        },
        {
          "internalType": "address",
          "name": "account",
          "type": "address"
        }
      ],
      "name": "grantRole",
      "outputs": [],
      "stateMutability": "nonpayable",
      "type": "function"
    },
    {
      "inputs": [
        {
          "internalType": "bytes32",
          "name": "role",
          "type": "bytes32"
        },
        {
          "internalType": "address",
          "name": "account",
          "type": "address"
        }
      ],
      "name": "hasRole",
      "outputs": [
        {
          "internalType": "bool",
          "name": "",
          "type": "bool"
        }
      ],
      "stateMutability": "view",
      "type": "function"
    },
    {
      "inputs": [
        {
          "internalType": "string",
          "name": "name_",
          "type": "string"
        },
        {
          "internalType": "string",
          "name": "symbol_",
          "type": "string"
        }
      ],
      "name": "initialize",
      "outputs": [],
      "stateMutability": "nonpayable",
      "type": "function"
    },
    {
      "inputs": [],
      "name": "launchTime",
      "outputs": [
        {
          "internalType": "uint256",
          "name": "",
          "type": "uint256"
        }
      ],
      "stateMutability": "view",
      "type": "function"
    },
    {
      "inputs": [
        {
          "internalType": "address",
          "name": "to",
          "type": "address"
        },
        {
          "internalType": "uint256",
          "name": "amount",
          "type": "uint256"
        }
      ],
      "name": "mint",
      "outputs": [],
      "stateMutability": "nonpayable",
      "type": "function"
    },
    {
      "inputs": [],
      "name": "name",
      "outputs": [
        {
          "internalType": "string",
          "name": "",
          "type": "string"
        }
      ],
      "stateMutability": "view",
      "type": "function"
    },
    {
      "inputs": [
        {
          "internalType": "address",
          "name": "owner",
          "type": "address"
        }
      ],
      "name": "nonces",
      "outputs": [
        {
          "internalType": "uint256",
          "name": "",
          "type": "uint256"
        }
      ],
      "stateMutability": "view",
      "type": "function"
    },
    {
      "inputs": [],
      "name": "owner",
      "outputs": [
        {
          "internalType": "address",
          "name": "",
          "type": "address"
        }
      ],
      "stateMutability": "view",
      "type": "function"
    },
    {
      "inputs": [],
      "name": "pause",
      "outputs": [],
      "stateMutability": "nonpayable",
      "type": "function"
    },
    {
      "inputs": [],
      "name": "paused",
      "outputs": [
        {
          "internalType": "bool",
          "name": "",
          "type": "bool"
        }
      ],
      "stateMutability": "view",
      "type": "function"
    },
    {
      "inputs": [],
      "name": "pendingOwner",
      "outputs": [
        {
          "internalType": "address",
          "name": "",
          "type": "address"
        }
      ],
      "stateMutability": "view",
      "type": "function"
    },
    {
      "inputs": [
        {
          "internalType": "address",
          "name": "owner",
          "type": "address"
        },
        {
          "internalType": "address",
          "name": "spender",
          "type": "address"
        },
        {
          "internalType": "uint256",
          "name": "value",
          "type": "uint256"
        },
        {
          "internalType": "uint256",
          "name": "deadline",
          "type": "uint256"
        },
        {
          "internalType": "uint8",
          "name": "v",
          "type": "uint8"
        },
        {
          "internalType": "bytes32",
          "name": "r",
          "type": "bytes32"
        },
        {
          "internalType": "bytes32",
          "name": "s",
          "type": "bytes32"
        }
      ],
      "name": "permit",
      "outputs": [],
      "stateMutability": "nonpayable",
      "type": "function"
    },
    {
      "inputs": [],
      "name": "proxiableUUID",
      "outputs": [
        {
          "internalType": "bytes32",
          "name": "",
          "type": "bytes32"
        }
      ],
      "stateMutability": "view",
      "type": "function"
    },
    {
      "inputs": [],
      "name": "renounceOwnership",
      "outputs": [],
      "stateMutability": "nonpayable",
      "type": "function"
    },
    {
      "inputs": [
        {
          "internalType": "bytes32",
          "name": "role",
          "type": "bytes32"
        },
        {
          "internalType": "address",
          "name": "callerConfirmation",
          "type": "address"
        }
      ],
      "name": "renounceRole",
      "outputs": [],
      "stateMutability": "nonpayable",
      "type": "function"
    },
    {
      "inputs": [
        {
          "internalType": "bytes32",
          "name": "role",
          "type": "bytes32"
        },
        {
          "internalType": "address",
          "name": "account",
          "type": "address"
        }
      ],
      "name": "revokeRole",
      "outputs": [],
      "stateMutability": "nonpayable",
      "type": "function"
    },
    {
      "inputs": [
        {
          "internalType": "bytes4",
          "name": "interfaceId",
          "type": "bytes4"
        }
      ],
      "name": "supportsInterface",
      "outputs": [
        {
          "internalType": "bool",
          "name": "",
          "type": "bool"
        }
      ],
      "stateMutability": "view",
      "type": "function"
    },
    {
      "inputs": [],
      "name": "symbol",
      "outputs": [
        {
          "internalType": "string",
          "name": "",
          "type": "string"
        }
      ],
      "stateMutability": "view",
      "type": "function"
    },
    {
      "inputs": [],
      "name": "totalSupply",
      "outputs": [
        {
          "internalType": "uint256",
          "name": "",
          "type": "uint256"
        }
      ],
      "stateMutability": "view",
      "type": "function"
    },
    {
      "inputs": [
        {
          "internalType": "address",
          "name": "to",
          "type": "address"
        },
        {
          "internalType": "uint256",
          "name": "value",
          "type": "uint256"
        }
      ],
      "name": "transfer",
      "outputs": [
        {
          "internalType": "bool",
          "name": "",
          "type": "bool"
        }
      ],
      "stateMutability": "nonpayable",
      "type": "function"
    },
    {
      "inputs": [
        {
          "internalType": "address",
          "name": "from",
          "type": "address"
        },
        {
          "internalType": "address",
          "name": "to",
          "type": "address"
        },
        {
          "internalType": "uint256",
          "name": "value",
          "type": "uint256"
        }
      ],
      "name": "transferFrom",
      "outputs": [
        {
          "internalType": "bool",
          "name": "",
          "type": "bool"
        }
      ],
      "stateMutability": "nonpayable",
      "type": "function"
    },
    {
      "inputs": [
        {
          "internalType": "address",
          "name": "newOwner",
          "type": "address"
        }
      ],
      "name": "transferOwnership",
      "outputs": [],
      "stateMutability": "nonpayable",
      "type": "function"
    },
    {
      "inputs": [],
      "name": "unpause",
      "outputs": [],
      "stateMutability": "nonpayable",
      "type": "function"
    },
    {
      "inputs": [
        {
          "internalType": "address",
          "name": "newImplementation",
          "type": "address"
        },
        {
          "internalType": "bytes",
          "name": "data",
          "type": "bytes"
        }
      ],
      "name": "upgradeToAndCall",
      "outputs": [],
      "stateMutability": "payable",
      "type": "function"
    }
  ],
  "bytecode": "0x60a06040523060805234801561001457600080fd5b5060805161268161003e6000396000818161130701528181611330015261147101526126816000f3fe6080604052600436106102305760003560e01c8063715018a61161012e578063a217fddf116100ab578063d547741f1161006f578063d547741f1461068c578063dd62ed3e146106ac578063e30c3978146106cc578063e63ab1e9146106e1578063f2fde38b1461070357600080fd5b8063a217fddf146105d2578063a9059cbb146105e7578063ad3cb1cc14610607578063d505accf14610638578063d53913931461065857600080fd5b806384b0196e116100f257806384b0196e146105285780638da5cb5b1461055057806391d148541461057d57806395d89b411461059d5780639dc29fac146105b257600080fd5b8063715018a6146104b3578063790ca413146104c857806379ba5097146104de5780637ecebe00146104f35780638456cb591461051357600080fd5b8063313ce567116101bc5780634cd88b76116101805780634cd88b76146104265780634f1ef2861461044657806352d1902d146104595780635c975abb1461046e57806370a082311461049357600080fd5b8063313ce567146103a05780633644e515146103bc57806336568abe146103d15780633f4ba83a146103f157806340c10f191461040657600080fd5b806323b872dd1161020357806323b872dd146102ea578063248a9ca31461030a578063282c51f31461032a5780632f2ff15d1461035e5780632ff2e9dc1461038057600080fd5b806301ffc9a71461023557806306fdde031461026a578063095ea7b31461028c57806318160ddd146102ac575b600080fd5b34801561024157600080fd5b50610255610250366004611fc8565b610723565b60405190151581526020015b60405180910390f35b34801561027657600080fd5b5061027f61075a565b6040516102619190612042565b34801561029857600080fd5b506102556102a7366004612071565b610803565b3480156102b857600080fd5b507f52c63247e1f47db19d5ce0460030c497f067ca4cebf71ba98eeadabe20bace02545b604051908152602001610261565b3480156102f657600080fd5b5061025561030536600461209b565b61081b565b34801561031657600080fd5b506102dc6103253660046120d7565b610841565b34801561033657600080fd5b506102dc7f3c11d16cbaffd01df69ce1c404f6340ee057498f5f00246190ea54220576a84881565b34801561036a57600080fd5b5061037e6103793660046120f0565b610863565b005b34801561038c57600080fd5b506102dc6b033b2e3c9fd0803ce800000081565b3480156103ac57600080fd5b5060405160128152602001610261565b3480156103c857600080fd5b506102dc610885565b3480156103dd57600080fd5b5061037e6103ec3660046120f0565b610894565b3480156103fd57600080fd5b5061037e6108cc565b34801561041257600080fd5b5061037e610421366004612071565b6108ef565b34801561043257600080fd5b5061037e6104413660046121c8565b610923565b61037e61045436600461222c565b610ae7565b34801561046557600080fd5b506102dc610b06565b34801561047a57600080fd5b5060008051602061262c8339815191525460ff16610255565b34801561049f57600080fd5b506102dc6104ae366004612284565b610b23565b3480156104bf57600080fd5b5061037e610b56565b3480156104d457600080fd5b506102dc60005481565b3480156104ea57600080fd5b5061037e610b6a565b3480156104ff57600080fd5b506102dc61050e366004612284565b610bb4565b34801561051f57600080fd5b5061037e610bbf565b34801561053457600080fd5b5061053d610bdf565b604051610261979695949392919061229f565b34801561055c57600080fd5b50610565610c8b565b6040516001600160a01b039091168152602001610261565b34801561058957600080fd5b506102556105983660046120f0565b610cc0565b3480156105a957600080fd5b5061027f610cf8565b3480156105be57600080fd5b5061037e6105cd366004612071565b610d37565b3480156105de57600080fd5b506102dc600081565b3480156105f357600080fd5b50610255610602366004612071565b610d6b565b34801561061357600080fd5b5061027f604051806040016040528060058152602001640352e302e360dc1b81525081565b34801561064457600080fd5b5061037e610653366004612338565b610d79565b34801561066457600080fd5b506102dc7f9f2df0fed2c77648de5860a4cc508cd0818c85b8b8a1ab4ceeef8d981c8956a681565b34801561069857600080fd5b5061037e6106a73660046120f0565b610ed2565b3480156106b857600080fd5b506102dc6106c73660046123ab565b610eee565b3480156106d857600080fd5b50610565610f38565b3480156106ed57600080fd5b506102dc6000805160206125ec83398151915281565b34801561070f57600080fd5b5061037e61071e366004612284565b610f61565b60006001600160e01b03198216637965db0b60e01b148061075457506301ffc9a760e01b6001600160e01b03198316145b92915050565b6060600060008051602061258c8339815191525b905080600301805461077f906123d5565b80601f01602080910402602001604051908101604052809291908181526020018280546107ab906123d5565b80156107f85780601f106107cd576101008083540402835291602001916107f8565b820191906000526020600020905b8154815290600101906020018083116107db57829003601f168201915b505050505091505090565b600033610811818585610fe6565b5060019392505050565b600033610829858285610ff3565b610834858585611054565b60019150505b9392505050565b600090815260008051602061260c833981519152602052604090206001015490565b61086c82610841565b610875816110b3565b61087f83836110bd565b50505050565b600061088f611162565b905090565b6001600160a01b03811633146108bd5760405163334bd91960e11b815260040160405180910390fd5b6108c7828261116c565b505050565b6000805160206125ec8339815191526108e4816110b3565b6108ec6111e8565b50565b7f9f2df0fed2c77648de5860a4cc508cd0818c85b8b8a1ab4ceeef8d981c8956a6610919816110b3565b6108c78383611248565b600061092d61127e565b805490915060ff600160401b820416159067ffffffffffffffff166000811580156109555750825b905060008267ffffffffffffffff1660011480156109725750303b155b905081158015610980575080155b1561099e5760405163f92ee8a960e01b815260040160405180910390fd5b845467ffffffffffffffff1916600117855583156109c857845460ff60401b1916600160401b1785555b6109d287876112a7565b6109db876112b9565b6109e36112e4565b6109eb6112e4565b6109f36112e4565b6109fb6112e4565b610a036112ec565b610a0e6000336110bd565b50610a397f9f2df0fed2c77648de5860a4cc508cd0818c85b8b8a1ab4ceeef8d981c8956a6336110bd565b50610a647f3c11d16cbaffd01df69ce1c404f6340ee057498f5f00246190ea54220576a848336110bd565b50610a7d6000805160206125ec833981519152336110bd565b50610a94336b033b2e3c9fd0803ce8000000611248565b426000558315610ade57845460ff60401b19168555604051600181527fc7f505b2f371ae2175ee4913f4499e1f2633a7b5936321eed1cdaeb6115181d29060200160405180910390a15b50505050505050565b610aef6112fc565b610af8826113a1565b610b0282826113a9565b5050565b6000610b10611466565b506000805160206125cc83398151915290565b60008060008051602061258c8339815191525b6001600160a01b0390931660009081526020939093525050604090205490565b610b5e6114af565b610b6860006114e1565b565b3380610b74610f38565b6001600160a01b031614610bab5760405163118cdaa760e01b81526001600160a01b03821660048201526024015b60405180910390fd5b6108ec816114e1565b600061075482611519565b6000805160206125ec833981519152610bd7816110b3565b6108ec611542565b600060608082808083816000805160206125ac8339815191528054909150158015610c0c57506001810154155b610c505760405162461bcd60e51b81526020600482015260156024820152741152540dcc4c8e88155b9a5b9a5d1a585b1a5e9959605a1b6044820152606401610ba2565b610c5861158b565b610c606115ca565b60408051600080825260208201909252600f60f81b9c939b5091995046985030975095509350915050565b6000807f9016d09d72d40fdae2fd8ceac6b6234c7706214fd39c1cd1e609a0528c1993005b546001600160a01b031692915050565b600091825260008051602061260c833981519152602090815260408084206001600160a01b0393909316845291905290205460ff1690565b7f52c63247e1f47db19d5ce0460030c497f067ca4cebf71ba98eeadabe20bace04805460609160008051602061258c8339815191529161077f906123d5565b7f3c11d16cbaffd01df69ce1c404f6340ee057498f5f00246190ea54220576a848610d61816110b3565b6108c783836115e2565b600033610811818585611054565b83421115610d9d5760405163313c898160e11b815260048101859052602401610ba2565b60007f6e71edae12b1b97f4d1f60370fef10105fa2faae0126114a169c64845d6126c9888888610e098c6001600160a01b031660009081527f5ab42ced628888259c08ac98db1eb0cf702fc1501344311d8b100cd1bfe4bb006020526040902080546001810190915590565b6040805160208101969096526001600160a01b0394851690860152929091166060840152608083015260a082015260c0810186905260e0016040516020818303038152906040528051906020012090506000610e6482611618565b90506000610e7482878787611645565b9050896001600160a01b0316816001600160a01b031614610ebb576040516325c0072360e11b81526001600160a01b0380831660048301528b166024820152604401610ba2565b610ec68a8a8a610fe6565b50505050505050505050565b610edb82610841565b610ee4816110b3565b61087f838361116c565b6001600160a01b0391821660009081527f52c63247e1f47db19d5ce0460030c497f067ca4cebf71ba98eeadabe20bace016020908152604080832093909416825291909152205490565b6000807f237e158222e3e6968b72b9db0d8043aacf074ad9f650f0d1606b4d82ee432c00610cb0565b610f696114af565b7f237e158222e3e6968b72b9db0d8043aacf074ad9f650f0d1606b4d82ee432c0080546001600160a01b0319166001600160a01b0383169081178255610fad610c8b565b6001600160a01b03167f38d16b8cac22d99fc7c124b9cd0de2d3fa1faef420bfe791d8c362d765e2270060405160405180910390a35050565b6108c78383836001611673565b6000610fff8484610eee565b905060001981101561087f578181101561104557604051637dc7a0d960e11b81526001600160a01b03841660048201526024810182905260448101839052606401610ba2565b61087f84848484036000611673565b6001600160a01b03831661107e57604051634b637e8f60e11b815260006004820152602401610ba2565b6001600160a01b0382166110a85760405163ec442f0560e01b815260006004820152602401610ba2565b6108c783838361175b565b6108ec81336117e2565b600060008051602061260c8339815191526110d88484610cc0565b611158576000848152602082815260408083206001600160a01b03871684529091529020805460ff1916600117905561110e3390565b6001600160a01b0316836001600160a01b0316857f2f8788117e7eff1d82e926ec794901d17c78024a50270940304540a733656f0d60405160405180910390a46001915050610754565b6000915050610754565b600061088f61181b565b600060008051602061260c8339815191526111878484610cc0565b15611158576000848152602082815260408083206001600160a01b0387168085529252808320805460ff1916905551339287917ff6391f5c32d9c69d2a47ea670b442974b53935d1edc7fd64eb21e047a839171b9190a46001915050610754565b6111f061188f565b60008051602061262c833981519152805460ff191681557f5db9ee0a495bf2e6ff9c91a7834c1ba4fdd244a5e8aa4e537bd38aeae4b073aa335b6040516001600160a01b03909116815260200160405180910390a150565b6001600160a01b0382166112725760405163ec442f0560e01b815260006004820152602401610ba2565b610b026000838361175b565b6000807ff0c57e16840df040f15088dc2f81fe391c3923bec73e23a9662efc9c229c6a00610754565b6112af6118bf565b610b0282826118e4565b6112c16118bf565b6108ec81604051806040016040528060018152602001603160f81b815250611935565b610b686118bf565b6112f46118bf565b610b68611996565b306001600160a01b037f000000000000000000000000000000000000000000000000000000000000000016148061138357507f00000000000000000000000000000000000000000000000000000000000000006001600160a01b03166113776000805160206125cc833981519152546001600160a01b031690565b6001600160a01b031614155b15610b685760405163703e46dd60e11b815260040160405180910390fd5b6108ec6114af565b816001600160a01b03166352d1902d6040518163ffffffff1660e01b8152600401602060405180830381865afa925050508015611403575060408051601f3d908101601f191682019092526114009181019061240f565b60015b61142b57604051634c9c8ce360e01b81526001600160a01b0383166004820152602401610ba2565b6000805160206125cc833981519152811461145c57604051632a87526960e21b815260048101829052602401610ba2565b6108c783836119c4565b306001600160a01b037f00000000000000000000000000000000000000000000000000000000000000001614610b685760405163703e46dd60e11b815260040160405180910390fd5b336114b8610c8b565b6001600160a01b031614610b685760405163118cdaa760e01b8152336004820152602401610ba2565b7f237e158222e3e6968b72b9db0d8043aacf074ad9f650f0d1606b4d82ee432c0080546001600160a01b0319168155610b0282611a1a565b6000807f5ab42ced628888259c08ac98db1eb0cf702fc1501344311d8b100cd1bfe4bb00610b36565b61154a611a8b565b60008051602061262c833981519152805460ff191660011781557f62e78cea01bee320cd4e420270b5ea74000d11b0c9f74754ebdbfc544b05a2583361122a565b7fa16a46d94261c7517cc8ff89f61c0ce93598e3c849801011dee649a6a557d10280546060916000805160206125ac8339815191529161077f906123d5565b606060006000805160206125ac83398151915261076e565b6001600160a01b03821661160c57604051634b637e8f60e11b815260006004820152602401610ba2565b610b028260008361175b565b6000610754611625611162565b8360405161190160f01b8152600281019290925260228201526042902090565b60008060008061165788888888611abc565b9250925092506116678282611b8b565b50909695505050505050565b60008051602061258c8339815191526001600160a01b0385166116ac5760405163e602df0560e01b815260006004820152602401610ba2565b6001600160a01b0384166116d657604051634a1406b160e11b815260006004820152602401610ba2565b6001600160a01b0380861660009081526001830160209081526040808320938816835292905220839055811561175457836001600160a01b0316856001600160a01b03167f8c5be1e5ebec7d5bd14f71427d1e84f3dd0314c0f7b2291e5b200ac8c7c3b9258560405161174b91815260200190565b60405180910390a35b5050505050565b611763611a8b565b62093a806000546117749190612428565b4210156117d7576001600160a01b038316158061179857506001600160a01b038216155b6117d75760405162461bcd60e51b815260206004820152601060248201526f1514905394d1915494d7d313d0d2d15160821b6044820152606401610ba2565b6108c7838383611c44565b6117ec8282610cc0565b610b025760405163e2517d3f60e01b81526001600160a01b038216600482015260248101839052604401610ba2565b60007f8b73c3c69bb8fe3d512ecc4cf759cc79239f7b179b0ffacaa9a75d522b39400f611846611d82565b61184e611dec565b60408051602081019490945283019190915260608201524660808201523060a082015260c00160405160208183030381529060405280519060200120905090565b60008051602061262c8339815191525460ff16610b6857604051638dfc202b60e01b815260040160405180910390fd5b6118c7611e30565b610b6857604051631afcd79f60e31b815260040160405180910390fd5b6118ec6118bf565b60008051602061258c8339815191527f52c63247e1f47db19d5ce0460030c497f067ca4cebf71ba98eeadabe20bace036119268482612499565b506004810161087f8382612499565b61193d6118bf565b6000805160206125ac8339815191527fa16a46d94261c7517cc8ff89f61c0ce93598e3c849801011dee649a6a557d1026119778482612499565b50600381016119868382612499565b5060008082556001909101555050565b61199e6118bf565b60017f9b779b17422d0df92223018b32b4d1fa46e071723d6817e2486d003becc55f0055565b6119cd82611e4a565b6040516001600160a01b038316907fbc7cd75a20ee27fd9adebab32041f755214dbc6bffa90cc0225b39da2e5c2d3b90600090a2805115611a12576108c78282611eaf565b610b02611f25565b7f9016d09d72d40fdae2fd8ceac6b6234c7706214fd39c1cd1e609a0528c19930080546001600160a01b031981166001600160a01b03848116918217845560405192169182907f8be0079c531659141344cd1fd0a4f28419497f9722a3daafe3b4186f6b6457e090600090a3505050565b60008051602061262c8339815191525460ff1615610b685760405163d93c066560e01b815260040160405180910390fd5b600080807f7fffffffffffffffffffffffffffffff5d576e7357a4501ddfe92f46681b20a0841115611af75750600091506003905082611b81565b604080516000808252602082018084528a905260ff891692820192909252606081018790526080810186905260019060a0016020604051602081039080840390855afa158015611b4b573d6000803e3d6000fd5b5050604051601f1901519150506001600160a01b038116611b7757506000925060019150829050611b81565b9250600091508190505b9450945094915050565b6000826003811115611b9f57611b9f612559565b03611ba8575050565b6001826003811115611bbc57611bbc612559565b03611bda5760405163f645eedf60e01b815260040160405180910390fd5b6002826003811115611bee57611bee612559565b03611c0f5760405163fce698f760e01b815260048101829052602401610ba2565b6003826003811115611c2357611c23612559565b03610b02576040516335e2f38360e21b815260048101829052602401610ba2565b60008051602061258c8339815191526001600160a01b038416611c805781816002016000828254611c759190612428565b90915550611cf29050565b6001600160a01b03841660009081526020829052604090205482811015611cd35760405163391434e360e21b81526001600160a01b03861660048201526024810182905260448101849052606401610ba2565b6001600160a01b03851660009081526020839052604090209083900390555b6001600160a01b038316611d10576002810180548390039055611d2f565b6001600160a01b03831660009081526020829052604090208054830190555b826001600160a01b0316846001600160a01b03167fddf252ad1be2c89b69c2b068fc378daa952ba7f163c4a11628f55a4df523b3ef84604051611d7491815260200190565b60405180910390a350505050565b60006000805160206125ac83398151915281611d9c61158b565b805190915015611db457805160209091012092915050565b81548015611dc3579392505050565b7fc5d2460186f7233c927e7db2dcc703c0e500b653ca82273b7bfad8045d85a470935050505090565b60006000805160206125ac83398151915281611e066115ca565b805190915015611e1e57805160209091012092915050565b60018201548015611dc3579392505050565b6000611e3a61127e565b54600160401b900460ff16919050565b806001600160a01b03163b600003611e8057604051634c9c8ce360e01b81526001600160a01b0382166004820152602401610ba2565b6000805160206125cc83398151915280546001600160a01b0319166001600160a01b0392909216919091179055565b6060600080846001600160a01b031684604051611ecc919061256f565b600060405180830381855af49150503d8060008114611f07576040519150601f19603f3d011682016040523d82523d6000602084013e611f0c565b606091505b5091509150611f1c858383611f44565b95945050505050565b3415610b685760405163b398979f60e01b815260040160405180910390fd5b606082611f5957611f5482611fa0565b61083a565b8151158015611f7057506001600160a01b0384163b155b15611f9957604051639996b31560e01b81526001600160a01b0385166004820152602401610ba2565b508061083a565b805115611faf57805160208201fd5b60405163d6bda27560e01b815260040160405180910390fd5b600060208284031215611fda57600080fd5b81356001600160e01b03198116811461083a57600080fd5b60005b8381101561200d578181015183820152602001611ff5565b50506000910152565b6000815180845261202e816020860160208601611ff2565b601f01601f19169290920160200192915050565b60208152600061083a6020830184612016565b80356001600160a01b038116811461206c57600080fd5b919050565b6000806040838503121561208457600080fd5b61208d83612055565b946020939093013593505050565b6000806000606084860312156120b057600080fd5b6120b984612055565b92506120c760208501612055565b9150604084013590509250925092565b6000602082840312156120e957600080fd5b5035919050565b6000806040838503121561210357600080fd5b8235915061211360208401612055565b90509250929050565b634e487b7160e01b600052604160045260246000fd5b600067ffffffffffffffff8084111561214d5761214d61211c565b604051601f8501601f19908116603f011681019082821181831017156121755761217561211c565b8160405280935085815286868601111561218e57600080fd5b858560208301376000602087830101525050509392505050565b600082601f8301126121b957600080fd5b61083a83833560208501612132565b600080604083850312156121db57600080fd5b823567ffffffffffffffff808211156121f357600080fd5b6121ff868387016121a8565b9350602085013591508082111561221557600080fd5b50612222858286016121a8565b9150509250929050565b6000806040838503121561223f57600080fd5b61224883612055565b9150602083013567ffffffffffffffff81111561226457600080fd5b8301601f8101851361227557600080fd5b61222285823560208401612132565b60006020828403121561229657600080fd5b61083a82612055565b60ff60f81b881681526000602060e060208401526122c060e084018a612016565b83810360408501526122d2818a612016565b606085018990526001600160a01b038816608086015260a0850187905284810360c08601528551808252602080880193509091019060005b818110156123265783518352928401929184019160010161230a565b50909c9b505050505050505050505050565b600080600080600080600060e0888a03121561235357600080fd5b61235c88612055565b965061236a60208901612055565b95506040880135945060608801359350608088013560ff8116811461238e57600080fd5b9699959850939692959460a0840135945060c09093013592915050565b600080604083850312156123be57600080fd5b6123c783612055565b915061211360208401612055565b600181811c908216806123e957607f821691505b60208210810361240957634e487b7160e01b600052602260045260246000fd5b50919050565b60006020828403121561242157600080fd5b5051919050565b8082018082111561075457634e487b7160e01b600052601160045260246000fd5b601f8211156108c7576000816000526020600020601f850160051c810160208610156124725750805b601f850160051c820191505b818110156124915782815560010161247e565b505050505050565b815167ffffffffffffffff8111156124b3576124b361211c565b6124c7816124c184546123d5565b84612449565b602080601f8311600181146124fc57600084156124e45750858301515b600019600386901b1c1916600185901b178555612491565b600085815260208120601f198616915b8281101561252b5788860151825594840194600190910190840161250c565b50858210156125495787850151600019600388901b60f8161c191681555b5050505050600190811b01905550565b634e487b7160e01b600052602160045260246000fd5b60008251612581818460208701611ff2565b919091019291505056fe52c63247e1f47db19d5ce0460030c497f067ca4cebf71ba98eeadabe20bace00a16a46d94261c7517cc8ff89f61c0ce93598e3c849801011dee649a6a557d100360894a13ba1a3210667c828492db98dca3e2076cc3735a920a3ca505d382bbc65d7a28e3265b37a6474929f336521b332c1681b933f6cb9f3376673440d862a02dd7bc7dec4dceedda775e58dd541e08a116c6c53815c0bd028192f7b626800cd5ed15c6e187e77e9aee88184c21f4f2182ab5827cb3b7e07fbedcd63f03300a2646970667358221220cbd1d4514c504057c597bfc5b02e0666f7dfab157b7d1998bb784e52dda8800864736f6c63430008180033",
  "linkReferences": {},
  "deployedLinkReferences": {}
}