{
  "_format": "hh-sol-artifact-1",
  "contractName": "TokenERC20",
  "sourceName": "contracts/evm/TokenERC20.sol",
  "abi": [
    {
      "inputs": [],
      "name": "AccessControlBadConfirmation",
      "type": "error"
    },
    {
      "inputs": [
        {
          "internalType": "address",
          "name": "account",
          "type": "address"
        },
        {
          "internalType": "bytes32",
          "name": "neededRole",
          "type": "bytes32"
        }
      ],
      "name": "AccessControlUnauthorizedAccount",
      "type": "error"
    },
    {
      "inputs": [
        {
          "internalType": "address",
          "name": "target",
          "type": "address"
        }
      ],
      "name": "AddressEmptyCode",
      "type": "error"
    },
    {
      "inputs": [],
      "name": "ECDSAInvalidSignature",
      "type": "error"
    },
    {
      "inputs": [
        {
          "internalType": "uint256",
          "name": "length",
          "type": "uint256"
        }
      ],
      "name": "ECDSAInvalidSignatureLength",
      "type": "error"
    },
    {
      "inputs": [
        {
          "internalType": "bytes32",
          "name": "s",
          "type": "bytes32"
        }
      ],
      "name": "ECDSAInvalidSignatureS",
      "type": "error"
    },
    {
      "inputs": [
        {
          "internalType": "address",
          "name": "implementation",
          "type": "address"
        }
      ],
      "name": "ERC1967InvalidImplementation",
      "type": "error"
    },
    {
      "inputs": [],
      "name": "ERC1967NonPayable",
      "type": "error"
    },
    {
      "inputs": [
        {
          "internalType": "address",
          "name": "spender",
          "type": "address"
        },
        {
          "internalType": "uint256",
          "name": "allowance",
          "type": "uint256"
        },
        {
          "internalType": "uint256",
          "name": "needed",
          "type": "uint256"
        }
      ],
      "name": "ERC20InsufficientAllowance",
      "type": "error"
    },
    {
      "inputs": [
        {
          "internalType": "address",
          "name": "sender",
          "type": "address"
        },
        {
          "internalType": "uint256",
          "name": "balance",
          "type": "uint256"
        },
        {
          "internalType": "uint256",
          "name": "needed",
          "type": "uint256"
        }
      ],
      "name": "ERC20InsufficientBalance",
      "type": "error"
    },
    {
      "inputs": [
        {
          "internalType": "address",
          "name": "approver",
          "type": "address"
        }
      ],
      "name": "ERC20InvalidApprover",
      "type": "error"
    },
    {
      "inputs": [
        {
          "internalType": "address",
          "name": "receiver",
          "type": "address"
        }
      ],
      "name": "ERC20InvalidReceiver",
      "type": "error"
    },
    {
      "inputs": [
        {
          "internalType": "address",
          "name": "sender",
          "type": "address"
        }
      ],
      "name": "ERC20InvalidSender",
      "type": "error"
    },
    {
      "inputs": [
        {
          "internalType": "address",
          "name": "spender",
          "type": "address"
        }
      ],
      "name": "ERC20InvalidSpender",
      "type": "error"
    },
    {
      "inputs": [
        {
          "internalType": "uint256",
          "name": "deadline",
          "type": "uint256"
        }
      ],
      "name": "ERC2612ExpiredSignature",
      "type": "error"
    },
    {
      "inputs": [
        {
          "internalType": "address",
          "name": "signer",
          "type": "address"
        },
        {
          "internalType": "address",
          "name": "owner",
          "type": "address"
        }
      ],
      "name": "ERC2612InvalidSigner",
      "type": "error"
    },
    {
      "inputs": [],
      "name": "EnforcedPause",
      "type": "error"
    },
    {
      "inputs": [],
      "name": "ExpectedPause",
      "type": "error"
    },
    {
      "inputs": [],
      "name": "FailedCall",
      "type": "error"
    },
    {
      "inputs": [
        {
          "internalType": "address",
          "name": "account",
          "type": "address"
        },
        {
          "internalType": "uint256",
          "name": "currentNonce",
          "type": "uint256"
        }
      ],
      "name": "InvalidAccountNonce",
      "type": "error"
    },
    {
      "inputs": [],
      "name": "InvalidInitialization",
      "type": "error"
    },
    {
      "inputs": [],
      "name": "NotInitializing",
      "type": "error"
    },
    {
      "inputs": [
        {
          "internalType": "address",
          "name": "owner",
          "type": "address"
        }
      ],
      "name": "OwnableInvalidOwner",
      "type": "error"
    },
    {
      "inputs": [
        {
          "internalType": "address",
          "name": "account",
          "type": "address"
        }
      ],
      "name": "OwnableUnauthorizedAccount",
      "type": "error"
    },
    {
      "inputs": [],
      "name": "ReentrancyGuardReentrantCall",
      "type": "error"
    },
    {
      "inputs": [],
      "name": "UUPSUnauthorizedCallContext",
      "type": "error"
    },
    {
      "inputs": [
        {
          "internalType": "bytes32",
          "name": "slot",
          "type": "bytes32"
        }
      ],
      "name": "UUPSUnsupportedProxiableUUID",
      "type": "error"
    },
    {
      "anonymous": false,
      "inputs": [
        {
          "indexed": true,
          "internalType": "address",
          "name": "owner",
          "type": "address"
        },
        {
          "indexed": true,
          "internalType": "address",
          "name": "spender",
          "type": "address"
        },
        {
          "indexed": false,
          "internalType": "uint256",
          "name": "value",
          "type": "uint256"
        }
      ],
      "name": "Approval",
      "type": "event"
    },
    {
      "anonymous": false,
      "inputs": [
        {
          "indexed": false,
          "internalType": "uint256",
          "name": "oldRate",
          "type": "uint256"
        },
        {
          "indexed": false,
          "internalType": "uint256",
          "name": "newRate",
          "type": "uint256"
        }
      ],
      "name": "BurnRateUpdated",
      "type": "event"
    },
    {
      "anonymous": false,
      "inputs": [],
      "name": "EIP712DomainChanged",
      "type": "event"
    },
    {
      "anonymous": false,
      "inputs": [
        {
          "indexed": false,
          "internalType": "uint64",
          "name": "version",
          "type": "uint64"
        }
      ],
      "name": "Initialized",
      "type": "event"
    },
    {
      "anonymous": false,
      "inputs": [
        {
          "indexed": true,
          "internalType": "address",
          "name": "previousOwner",
          "type": "address"
        },
        {
          "indexed": true,
          "internalType": "address",
          "name": "newOwner",
          "type": "address"
        }
      ],
      "name": "OwnershipTransferStarted",
      "type": "event"
    },
    {
      "anonymous": false,
      "inputs": [
        {
          "indexed": true,
          "internalType": "address",
          "name": "previousOwner",
          "type": "address"
        },
        {
          "indexed": true,
          "internalType": "address",
          "name": "newOwner",
          "type": "address"
        }
      ],
      "name": "OwnershipTransferred",
      "type": "event"
    },
    {
      "anonymous": false,
      "inputs": [
        {
          "indexed": false,
          "internalType": "address",
          "name": "account",
          "type": "address"
        }
      ],
      "name": "Paused",
      "type": "event"
    },
    {
      "anonymous": false,
      "inputs": [
        {
          "indexed": true,
          "internalType": "address",
          "name": "user",
          "type": "address"
        },
        {
          "indexed": false,
          "internalType": "uint256",
          "name": "streak",
          "type": "uint256"
        }
      ],
      "name": "PocCheckin",
      "type": "event"
    },
    {
      "anonymous": false,
      "inputs": [
        {
          "indexed": true,
          "internalType": "bytes32",
          "name": "poiId",
          "type": "bytes32"
        },
        {
          "indexed": true,
          "internalType": "address",
          "name": "connector",
          "type": "address"
        },
        {
          "indexed": false,
          "internalType": "address",
          "name": "party1",
          "type": "address"
        },
        {
          "indexed": false,
          "internalType": "address",
          "name": "party2",
          "type": "address"
        }
      ],
      "name": "PoiRecorded",
      "type": "event"
    },
    {
      "anonymous": false,
      "inputs": [
        {
          "indexed": true,
          "internalType": "bytes32",
          "name": "role",
          "type": "bytes32"
        },
        {
          "indexed": true,
          "internalType": "bytes32",
          "name": "previousAdminRole",
          "type": "bytes32"
        },
        {
          "indexed": true,
          "internalType": "bytes32",
          "name": "newAdminRole",
          "type": "bytes32"
        }
      ],
      "name": "RoleAdminChanged",
      "type": "event"
    },
    {
      "anonymous": false,
      "inputs": [
        {
          "indexed": true,
          "internalType": "bytes32",
          "name": "role",
          "type": "bytes32"
        },
        {
          "indexed": true,
          "internalType": "address",
          "name": "account",
          "type": "address"
        },
        {
          "indexed": true,
          "internalType": "address",
          "name": "sender",
          "type": "address"
        }
      ],
      "name": "RoleGranted",
      "type": "event"
    },
    {
      "anonymous": false,
      "inputs": [
        {
          "indexed": true,
          "internalType": "bytes32",
          "name": "role",
          "type": "bytes32"
        },
        {
          "indexed": true,
          "internalType": "address",
          "name": "account",
          "type": "address"
        },
        {
          "indexed": true,
          "internalType": "address",
          "name": "sender",
          "type": "address"
        }
      ],
      "name": "RoleRevoked",
      "type": "event"
    },
    {
      "anonymous": false,
      "inputs": [
        {
          "indexed": true,
          "internalType": "address",
          "name": "from",
          "type": "address"
        },
        {
          "indexed": true,
          "internalType": "address",
          "name": "to",
          "type": "address"
        },
        {
          "indexed": false,
          "internalType": "uint256",
          "name": "value",
          "type": "uint256"
        }
      ],
      "name": "Transfer",
      "type": "event"
    },
    {
      "anonymous": false,
      "inputs": [
        {
          "indexed": false,
          "internalType": "address",
          "name": "account",
          "type": "address"
        }
      ],
      "name": "Unpaused",
      "type": "event"
    },
    {
      "anonymous": false,
      "inputs": [
        {
          "indexed": true,
          "internalType": "address",
          "name": "implementation",
          "type": "address"
        }
      ],
      "name": "Upgraded",
      "type": "event"
    },
    {
      "anonymous": false,
      "inputs": [
        {
          "indexed": true,
          "internalType": "address",
          "name": "user",
          "type": "address"
        },
        {
          "indexed": false,
          "internalType": "uint256",
          "name": "amount",
          "type": "uint256"
        },
        {
          "indexed": false,
          "internalType": "string",
          "name": "purpose",
          "type": "string"
        }
      ],
      "name": "UtilityUsed",
      "type": "event"
    },
    {
      "inputs": [],
      "name": "BURNER_ROLE",
      "outputs": [
        {
          "internalType": "bytes32",
          "name": "",
          "type": "bytes32"
        }
      ],
      "stateMutability": "view",
      "type": "function"
    },
    {
      "inputs": [],
      "name": "DEFAULT_ADMIN_ROLE",
      "outputs": [
        {
          "internalType": "bytes32",
          "name": "",
          "type": "bytes32"
        }
      ],
      "stateMutability": "view",
      "type": "function"
    },
    {
      "inputs": [],
      "name": "DOMAIN_SEPARATOR",
      "outputs": [
        {
          "internalType": "bytes32",
          "name": "",
          "type": "bytes32"
        }
      ],
      "stateMutability": "view",
      "type": "function"
    },
    {
      "inputs": [],
      "name": "INITIAL_SUPPLY",
      "outputs": [
        {
          "internalType": "uint256",
          "name": "",
          "type": "uint256"
        }
      ],
      "stateMutability": "view",
      "type": "function"
    },
    {
      "inputs": [],
      "name": "MAX_BURN_RATE",
      "outputs": [
        {
          "internalType": "uint256",
          "name": "",
          "type": "uint256"
        }
      ],
      "stateMutability": "view",
      "type": "function"
    },
    {
      "inputs": [],
      "name": "MINTER_ROLE",
      "outputs": [
        {
          "internalType": "bytes32",
          "name": "",
          "type": "bytes32"
        }
      ],
      "stateMutability": "view",
      "type": "function"
    },
    {
      "inputs": [],
      "name": "PAUSER_ROLE",
      "outputs": [
        {
          "internalType": "bytes32",
          "name": "",
          "type": "bytes32"
        }
      ],
      "stateMutability": "view",
      "type": "function"
    },
    {
      "inputs": [],
      "name": "UPGRADE_INTERFACE_VERSION",
      "outputs": [
        {
          "internalType": "string",
          "name": "",
          "type": "string"
        }
      ],
      "stateMutability": "view",
      "type": "function"
    },
    {
      "inputs": [],
      "name": "UTILITY_ROLE",
      "outputs": [
        {
          "internalType": "bytes32",
          "name": "",
          "type": "bytes32"
        }
      ],
      "stateMutability": "view",
      "type": "function"
    },
    {
      "inputs": [],
      "name": "acceptOwnership",
      "outputs": [],
      "stateMutability": "nonpayable",
      "type": "function"
    },
    {
      "inputs": [
        {
          "internalType": "address",
          "name": "user",
          "type": "address"
        },
        {
          "internalType": "uint256",
          "name": "amount",
          "type": "uint256"
        }
      ],
      "name": "addCommissionEarning",
      "outputs": [],
      "stateMutability": "nonpayable",
      "type": "function"
    },
    {
      "inputs": [
        {
          "internalType": "address",
          "name": "owner",
          "type": "address"
        },
        {
          "internalType": "address",
          "name": "spender",
          "type": "address"
        }
      ],
      "name": "allowance",
      "outputs": [
        {
          "internalType": "uint256",
          "name": "",
          "type": "uint256"
        }
      ],
      "stateMutability": "view",
      "type": "function"
    },
    {
      "inputs": [
        {
          "internalType": "address",
          "name": "spender",
          "type": "address"
        },
        {
          "internalType": "uint256",
          "name": "value",
          "type": "uint256"
        }
      ],
      "name": "approve",
      "outputs": [
        {
          "internalType": "bool",
          "name": "",
          "type": "bool"
        }
      ],
      "stateMutability": "nonpayable",
      "type": "function"
    },
    {
      "inputs": [
        {
          "internalType": "address",
          "name": "account",
          "type": "address"
        }
      ],
      "name": "balanceOf",
      "outputs": [
        {
          "internalType": "uint256",
          "name": "",
          "type": "uint256"
        }
      ],
      "stateMutability": "view",
      "type": "function"
    },
    {
      "inputs": [
        {
          "internalType": "address",
          "name": "from",
          "type": "address"
        },
        {
          "internalType": "uint256",
          "name": "amount",
          "type": "uint256"
        }
      ],
      "name": "burn",
      "outputs": [],
      "stateMutability": "nonpayable",
      "type": "function"
    },
    {
      "inputs": [],
      "name": "burnRate",
      "outputs": [
        {
          "internalType": "uint256",
          "name": "",
          "type": "uint256"
        }
      ],
      "stateMutability": "view",
      "type": "function"
    },
    {
      "inputs": [
        {
          "internalType": "address",
          "name": "",
          "type": "address"
        }
      ],
      "name": "commissionEarnings",
      "outputs": [
        {
          "internalType": "uint256",
          "name": "",
          "type": "uint256"
        }
      ],
      "stateMutability": "view",
      "type": "function"
    },
    {
      "inputs": [],
      "name": "decimals",
      "outputs": [
        {
          "internalType": "uint8",
          "name": "",
          "type": "uint8"
        }
      ],
      "stateMutability": "view",
      "type": "function"
    },
    {
      "inputs": [],
      "name": "eip712Domain",
      "outputs": [
        {
          "internalType": "bytes1",
          "name": "fields",
          "type": "bytes1"
        },
        {
          "internalType": "string",
          "name": "name",
          "type": "string"
        },
        {
          "internalType": "string",
          "name": "version",
          "type": "string"
        },
        {
          "internalType": "uint256",
          "name": "chainId",
          "type": "uint256"
        },
        {
          "internalType": "address",
          "name": "verifyingContract",
          "type": "address"
        },
        {
          "internalType": "bytes32",
          "name": "salt",
          "type": "bytes32"
        },
        {
          "internalType": "uint256[]",
          "name": "extensions",
          "type": "uint256[]"
        }
      ],
      "stateMutability": "view",
      "type": "function"
    },
    {
      "inputs": [
        {
          "internalType": "bytes32",
          "name": "role",
          "type": "bytes32"
        }
      ],
      "name": "getRoleAdmin",
      "outputs": [
        {
          "internalType": "bytes32",
          "name": "",
          "type": "bytes32"
        }
      ],
      "stateMutability": "view",
      "type": "function"
    },
    {
      "inputs": [
        {
          "internalType": "bytes32",
          "name": "role",
          "type": "bytes32"
        },
        {
          "internalType": "address",
          "name": "account",
          "type": "address"
        }
      ],
      "name": "grantRole",
      "outputs": [],
      "stateMutability": "nonpayable",
      "type": "function"
    },
    {
      "inputs": [
        {
          "internalType": "bytes32",
          "name": "role",
          "type": "bytes32"
        },
        {
          "internalType": "address",
          "name": "account",
          "type": "address"
        }
      ],
      "name": "hasRole",
      "outputs": [
        {
          "internalType": "bool",
          "name": "",
          "type": "bool"
        }
      ],
      "stateMutability": "view",
      "type": "function"
    },
    {
      "inputs": [
        {
          "internalType": "string",
          "name": "name_",
          "type": "string"
        },
        {
          "internalType": "string",
          "name": "symbol_",
          "type": "string"
        }
      ],
      "name": "initialize",
      "outputs": [],
      "stateMutability": "nonpayable",
      "type": "function"
    },
    {
      "inputs": [
        {
          "internalType": "address",
          "name": "",
          "type": "address"
        }
      ],
      "name": "lastPocTime",
      "outputs": [
        {
          "internalType": "uint256",
          "name": "",
          "type": "uint256"
        }
      ],
      "stateMutability": "view",
      "type": "function"
    },
    {
      "inputs": [],
      "name": "launchTime",
      "outputs": [
        {
          "internalType": "uint256",
          "name": "",
          "type": "uint256"
        }
      ],
      "stateMutability": "view",
      "type": "function"
    },
    {
      "inputs": [
        {
          "internalType": "address",
          "name": "to",
          "type": "address"
        },
        {
          "internalType": "uint256",
          "name": "amount",
          "type": "uint256"
        }
      ],
      "name": "mint",
      "outputs": [],
      "stateMutability": "nonpayable",
      "type": "function"
    },
    {
      "inputs": [],
      "name": "name",
      "outputs": [
        {
          "internalType": "string",
          "name": "",
          "type": "string"
        }
      ],
      "stateMutability": "view",
      "type": "function"
    },
    {
      "inputs": [
        {
          "internalType": "address",
          "name": "owner",
          "type": "address"
        }
      ],
      "name": "nonces",
      "outputs": [
        {
          "internalType": "uint256",
          "name": "",
          "type": "uint256"
        }
      ],
      "stateMutability": "view",
      "type": "function"
    },
    {
      "inputs": [],
      "name": "owner",
      "outputs": [
        {
          "internalType": "address",
          "name": "",
          "type": "address"
        }
      ],
      "stateMutability": "view",
      "type": "function"
    },
    {
      "inputs": [],
      "name": "pause",
      "outputs": [],
      "stateMutability": "nonpayable",
      "type": "function"
    },
    {
      "inputs": [],
      "name": "paused",
      "outputs": [
        {
          "internalType": "bool",
          "name": "",
          "type": "bool"
        }
      ],
      "stateMutability": "view",
      "type": "function"
    },
    {
      "inputs": [],
      "name": "pendingOwner",
      "outputs": [
        {
          "internalType": "address",
          "name": "",
          "type": "address"
        }
      ],
      "stateMutability": "view",
      "type": "function"
    },
    {
      "inputs": [
        {
          "internalType": "address",
          "name": "owner",
          "type": "address"
        },
        {
          "internalType": "address",
          "name": "spender",
          "type": "address"
        },
        {
          "internalType": "uint256",
          "name": "value",
          "type": "uint256"
        },
        {
          "internalType": "uint256",
          "name": "deadline",
          "type": "uint256"
        },
        {
          "internalType": "uint8",
          "name": "v",
          "type": "uint8"
        },
        {
          "internalType": "bytes32",
          "name": "r",
          "type": "bytes32"
        },
        {
          "internalType": "bytes32",
          "name": "s",
          "type": "bytes32"
        }
      ],
      "name": "permit",
      "outputs": [],
      "stateMutability": "nonpayable",
      "type": "function"
    },
    {
      "inputs": [],
      "name": "pocCheckin",
      "outputs": [],
      "stateMutability": "nonpayable",
      "type": "function"
    },
    {
      "inputs": [
        {
          "internalType": "address",
          "name": "",
          "type": "address"
        }
      ],
      "name": "pocStreaks",
      "outputs": [
        {
          "internalType": "uint256",
          "name": "",
          "type": "uint256"
        }
      ],
      "stateMutability": "view",
      "type": "function"
    },
    {
      "inputs": [
        {
          "internalType": "bytes32",
          "name": "",
          "type": "bytes32"
        }
      ],
      "name": "poiRecords",
      "outputs": [
        {
          "internalType": "bool",
          "name": "",
          "type": "bool"
        }
      ],
      "stateMutability": "view",
      "type": "function"
    },
    {
      "inputs": [],
      "name": "proxiableUUID",
      "outputs": [
        {
          "internalType": "bytes32",
          "name": "",
          "type": "bytes32"
        }
      ],
      "stateMutability": "view",
      "type": "function"
    },
    {
      "inputs": [
        {
          "internalType": "address",
          "name": "party1",
          "type": "address"
        },
        {
          "internalType": "address",
          "name": "party2",
          "type": "address"
        },
        {
          "internalType": "bytes32",
          "name": "nonce",
          "type": "bytes32"
        }
      ],
      "name": "recordPoi",
      "outputs": [],
      "stateMutability": "nonpayable",
      "type": "function"
    },
    {
      "inputs": [],
      "name": "renounceOwnership",
      "outputs": [],
      "stateMutability": "nonpayable",
      "type": "function"
    },
    {
      "inputs": [
        {
          "internalType": "bytes32",
          "name": "role",
          "type": "bytes32"
        },
        {
          "internalType": "address",
          "name": "callerConfirmation",
          "type": "address"
        }
      ],
      "name": "renounceRole",
      "outputs": [],
      "stateMutability": "nonpayable",
      "type": "function"
    },
    {
      "inputs": [
        {
          "internalType": "bytes32",
          "name": "role",
          "type": "bytes32"
        },
        {
          "internalType": "address",
          "name": "account",
          "type": "address"
        }
      ],
      "name": "revokeRole",
      "outputs": [],
      "stateMutability": "nonpayable",
      "type": "function"
    },
    {
      "inputs": [
        {
          "internalType": "uint256",
          "name": "newRate",
          "type": "uint256"
        }
      ],
      "name": "setBurnRate",
      "outputs": [],
      "stateMutability": "nonpayable",
      "type": "function"
    },
    {
      "inputs": [
        {
          "internalType": "bytes4",
          "name": "interfaceId",
          "type": "bytes4"
        }
      ],
      "name": "supportsInterface",
      "outputs": [
        {
          "internalType": "bool",
          "name": "",
          "type": "bool"
        }
      ],
      "stateMutability": "view",
      "type": "function"
    },
    {
      "inputs": [],
      "name": "symbol",
      "outputs": [
        {
          "internalType": "string",
          "name": "",
          "type": "string"
        }
      ],
      "stateMutability": "view",
      "type": "function"
    },
    {
      "inputs": [],
      "name": "totalSupply",
      "outputs": [
        {
          "internalType": "uint256",
          "name": "",
          "type": "uint256"
        }
      ],
      "stateMutability": "view",
      "type": "function"
    },
    {
      "inputs": [
        {
          "internalType": "address",
          "name": "to",
          "type": "address"
        },
        {
          "internalType": "uint256",
          "name": "value",
          "type": "uint256"
        }
      ],
      "name": "transfer",
      "outputs": [
        {
          "internalType": "bool",
          "name": "",
          "type": "bool"
        }
      ],
      "stateMutability": "nonpayable",
      "type": "function"
    },
    {
      "inputs": [
        {
          "internalType": "address",
          "name": "from",
          "type": "address"
        },
        {
          "internalType": "address",
          "name": "to",
          "type": "address"
        },
        {
          "internalType": "uint256",
          "name": "value",
          "type": "uint256"
        }
      ],
      "name": "transferFrom",
      "outputs": [
        {
          "internalType": "bool",
          "name": "",
          "type": "bool"
        }
      ],
      "stateMutability": "nonpayable",
      "type": "function"
    },
    {
      "inputs": [
        {
          "internalType": "address",
          "name": "newOwner",
          "type": "address"
        }
      ],
      "name": "transferOwnership",
      "outputs": [],
      "stateMutability": "nonpayable",
      "type": "function"
    },
    {
      "inputs": [],
      "name": "unpause",
      "outputs": [],
      "stateMutability": "nonpayable",
      "type": "function"
    },
    {
      "inputs": [
        {
          "internalType": "address",
          "name": "newImplementation",
          "type": "address"
        },
        {
          "internalType": "bytes",
          "name": "data",
          "type": "bytes"
        }
      ],
      "name": "upgradeToAndCall",
      "outputs": [],
      "stateMutability": "payable",
      "type": "function"
    },
    {
      "inputs": [
        {
          "internalType": "uint256",
          "name": "amount",
          "type": "uint256"
        },
        {
          "internalType": "string",
          "name": "purpose",
          "type": "string"
        }
      ],
      "name": "useForUtility",
      "outputs": [],
      "stateMutability": "nonpayable",
      "type": "function"
    }
  ],
  "bytecode": "0x60a06040523060805261012c60015534801561001a57600080fd5b50608051612f4661004460003960008181611b0301528181611b2c0152611c6d0152612f466000f3fe6080604052600436106102e45760003560e01c806370a08231116101905780639dc29fac116100dc578063d539139311610095578063dd62ed3e1161006f578063dd62ed3e146108fb578063e30c39781461091b578063e63ab1e914610930578063f2fde38b1461095257600080fd5b8063d53913931461087a578063d547741f146108ae578063d8c83bb3146108ce57600080fd5b80639dc29fac146107be578063a217fddf146107de578063a9059cbb146107f3578063ad3cb1cc14610813578063bed9985014610844578063d505accf1461085a57600080fd5b80638456cb59116101495780638f296759116101235780638f2967591461074757806391d148541461076957806395d89b41146107895780639d42ef621461079e57600080fd5b80638456cb59146106dd57806384b0196e146106f25780638da5cb5b1461071a57600080fd5b806370a0823114610630578063715018a614610650578063790ca4131461066557806379ba50971461067b5780637ecebe00146106905780638249bb33146106b057600080fd5b8063313ce5671161024f57806340c10f191161020857806352d1902d116101e257806352d1902d146105a957806359ff03c3146105be5780635c975abb146105de578063629d53681461060357600080fd5b806340c10f19146105565780634cd88b76146105765780634f1ef2861461059657600080fd5b8063313ce567146104aa5780633644e515146104c657806336568abe146104db57806338fe3b6a146104fb5780633aa0666a1461052b5780633f4ba83a1461054157600080fd5b806323b872dd116102a157806323b872dd146103e057806323e6d39c14610400578063248a9ca314610415578063282c51f3146104355780632f2ff15d146104695780632ff2e9dc1461048957600080fd5b806301ffc9a7146102e957806306fdde031461031e578063095ea7b3146103405780630c8cd9361461036057806318160ddd14610382578063189d165e146103c0575b600080fd5b3480156102f557600080fd5b5061030961030436600461272e565b610972565b60405190151581526020015b60405180910390f35b34801561032a57600080fd5b506103336109a9565b60405161031591906127a8565b34801561034c57600080fd5b5061030961035b3660046127d7565b610a52565b34801561036c57600080fd5b5061038061037b366004612801565b610a6a565b005b34801561038e57600080fd5b507f52c63247e1f47db19d5ce0460030c497f067ca4cebf71ba98eeadabe20bace02545b604051908152602001610315565b3480156103cc57600080fd5b506103806103db36600461287d565b610baf565b3480156103ec57600080fd5b506103096103fb366004612896565b610c42565b34801561040c57600080fd5b50610380610c68565b34801561042157600080fd5b506103b261043036600461287d565b610da9565b34801561044157600080fd5b506103b27f3c11d16cbaffd01df69ce1c404f6340ee057498f5f00246190ea54220576a84881565b34801561047557600080fd5b506103806104843660046128d2565b610dcb565b34801561049557600080fd5b506103b26c0c9f2c9cd04674edea4000000081565b3480156104b657600080fd5b5060405160128152602001610315565b3480156104d257600080fd5b506103b2610ded565b3480156104e757600080fd5b506103806104f63660046128d2565b610dfc565b34801561050757600080fd5b5061030961051636600461287d565b60046020526000908152604090205460ff1681565b34801561053757600080fd5b506103b26101f481565b34801561054d57600080fd5b50610380610e2f565b34801561056257600080fd5b506103806105713660046127d7565b610e52565b34801561058257600080fd5b506103806105913660046129aa565b610e86565b6103806105a4366004612a0e565b611064565b3480156105b557600080fd5b506103b2611083565b3480156105ca57600080fd5b506103806105d93660046127d7565b6110a0565b3480156105ea57600080fd5b50600080516020612ed18339815191525460ff16610309565b34801561060f57600080fd5b506103b261061e366004612a66565b60056020526000908152604090205481565b34801561063c57600080fd5b506103b261064b366004612a66565b6110ea565b34801561065c57600080fd5b5061038061111d565b34801561067157600080fd5b506103b260005481565b34801561068757600080fd5b5061038061112f565b34801561069c57600080fd5b506103b26106ab366004612a66565b611174565b3480156106bc57600080fd5b506103b26106cb366004612a66565b60036020526000908152604090205481565b3480156106e957600080fd5b5061038061117f565b3480156106fe57600080fd5b5061070761119f565b6040516103159796959493929190612a81565b34801561072657600080fd5b5061072f61124b565b6040516001600160a01b039091168152602001610315565b34801561075357600080fd5b506103b2600080516020612e7183398151915281565b34801561077557600080fd5b506103096107843660046128d2565b611280565b34801561079557600080fd5b506103336112b8565b3480156107aa57600080fd5b506103806107b9366004612896565b6112f7565b3480156107ca57600080fd5b506103806107d93660046127d7565b611480565b3480156107ea57600080fd5b506103b2600081565b3480156107ff57600080fd5b5061030961080e3660046127d7565b6114b4565b34801561081f57600080fd5b50610333604051806040016040528060058152602001640352e302e360dc1b81525081565b34801561085057600080fd5b506103b260015481565b34801561086657600080fd5b50610380610875366004612b1a565b6114c2565b34801561088657600080fd5b506103b27f9f2df0fed2c77648de5860a4cc508cd0818c85b8b8a1ab4ceeef8d981c8956a681565b3480156108ba57600080fd5b506103806108c93660046128d2565b61161b565b3480156108da57600080fd5b506103b26108e9366004612a66565b60026020526000908152604090205481565b34801561090757600080fd5b506103b2610916366004612b8d565b611637565b34801561092757600080fd5b5061072f611681565b34801561093c57600080fd5b506103b2600080516020612e9183398151915281565b34801561095e57600080fd5b5061038061096d366004612a66565b6116aa565b60006001600160e01b03198216637965db0b60e01b14806109a357506301ffc9a760e01b6001600160e01b03198316145b92915050565b60606000600080516020612e118339815191525b90508060030180546109ce90612bb7565b80601f01602080910402602001604051908101604052809291908181526020018280546109fa90612bb7565b8015610a475780601f10610a1c57610100808354040283529160200191610a47565b820191906000526020600020905b815481529060010190602001808311610a2a57829003601f168201915b505050505091505090565b600033610a6081858561172f565b5060019392505050565b610a7261173c565b610a7a61176d565b60008311610ac05760405162461bcd60e51b815260206004820152600e60248201526d125b9d985b1a5908185b5bdd5b9d60921b60448201526064015b60405180910390fd5b82610aca336110ea565b1015610b0f5760405162461bcd60e51b8152602060048201526014602482015273496e73756666696369656e742062616c616e636560601b6044820152606401610ab7565b600061271060015485610b229190612c07565b610b2c9190612c1e565b90506000610b3a8286612c40565b90508115610b4c57610b4c33836117a5565b336001600160a01b03167f6cfea0cd6ebb05f18eb1fa68b90adcbc1e936e20483659cb7b6b6f652e07eeca868686604051610b8993929190612c53565b60405180910390a25050610baa6001600080516020612ef183398151915255565b505050565b6000610bba816117ef565b6101f4821115610bfc5760405162461bcd60e51b815260206004820152600d60248201526c0a4c2e8ca40e8dede40d0d2ced609b1b6044820152606401610ab7565b600180549083905560408051828152602081018590527f1e82634fb6c2c1adcdab0d277a3b1c270c8ee77953fb82e3bc5146794afe67f2910160405180910390a1505050565b600033610c508582856117f9565b610c5b85858561185a565b60019150505b9392505050565b610c7061173c565b610c7861176d565b33600090815260036020526040902054610c959062015180612c89565b421015610ce45760405162461bcd60e51b815260206004820152601860248201527f416c726561647920636865636b656420696e20746f64617900000000000000006044820152606401610ab7565b336000908152600360205260409020544290610d03906202a300612c89565b1115610d2e57336000908152600260205260408120805491610d2483612c9c565b9190505550610d42565b336000908152600260205260409020600190555b33600081815260036020908152604080832042905560028252918290205491519182527f32d13174fb070845aca338cc84b7d72b75e0098ae24ef211830ef94584c8e3a4910160405180910390a2610da76001600080516020612ef183398151915255565b565b6000908152600080516020612eb1833981519152602052604090206001015490565b610dd482610da9565b610ddd816117ef565b610de783836118b9565b50505050565b6000610df761195e565b905090565b6001600160a01b0381163314610e255760405163334bd91960e11b815260040160405180910390fd5b610baa8282611968565b600080516020612e91833981519152610e47816117ef565b610e4f6119e4565b50565b7f9f2df0fed2c77648de5860a4cc508cd0818c85b8b8a1ab4ceeef8d981c8956a6610e7c816117ef565b610baa8383611a44565b6000610e90611a7a565b805490915060ff600160401b820416159067ffffffffffffffff16600081158015610eb85750825b905060008267ffffffffffffffff166001148015610ed55750303b155b905081158015610ee3575080155b15610f015760405163f92ee8a960e01b815260040160405180910390fd5b845467ffffffffffffffff191660011785558315610f2b57845460ff60401b1916600160401b1785555b610f358787611aa3565b610f3e87611ab5565b610f46611ae0565b610f4e611ae0565b610f56611ae0565b610f5e611ae0565b610f66611ae8565b610f716000336118b9565b50610f9c7f9f2df0fed2c77648de5860a4cc508cd0818c85b8b8a1ab4ceeef8d981c8956a6336118b9565b50610fc77f3c11d16cbaffd01df69ce1c404f6340ee057498f5f00246190ea54220576a848336118b9565b50610fe0600080516020612e91833981519152336118b9565b50610ff9600080516020612e71833981519152336118b9565b50611011336c0c9f2c9cd04674edea40000000611a44565b42600055831561105b57845460ff60401b19168555604051600181527fc7f505b2f371ae2175ee4913f4499e1f2633a7b5936321eed1cdaeb6115181d29060200160405180910390a15b50505050505050565b61106c611af8565b61107582611b9d565b61107f8282611ba5565b5050565b600061108d611c62565b50600080516020612e5183398151915290565b600080516020612e718339815191526110b8816117ef565b6001600160a01b038316600090815260056020526040812080548492906110e0908490612c89565b9091555050505050565b600080600080516020612e118339815191525b6001600160a01b0390931660009081526020939093525050604090205490565b611125611cab565b610da76000611cdd565b3380611139611681565b6001600160a01b03161461116b5760405163118cdaa760e01b81526001600160a01b0382166004820152602401610ab7565b610e4f81611cdd565b60006109a382611d15565b600080516020612e91833981519152611197816117ef565b610e4f611d3e565b60006060808280808381600080516020612e3183398151915280549091501580156111cc57506001810154155b6112105760405162461bcd60e51b81526020600482015260156024820152741152540dcc4c8e88155b9a5b9a5d1a585b1a5e9959605a1b6044820152606401610ab7565b611218611d87565b611220611dc6565b60408051600080825260208201909252600f60f81b9c939b5091995046985030975095509350915050565b6000807f9016d09d72d40fdae2fd8ceac6b6234c7706214fd39c1cd1e609a0528c1993005b546001600160a01b031692915050565b6000918252600080516020612eb1833981519152602090815260408084206001600160a01b0393909316845291905290205460ff1690565b7f52c63247e1f47db19d5ce0460030c497f067ca4cebf71ba98eeadabe20bace048054606091600080516020612e11833981519152916109ce90612bb7565b600080516020612e7183398151915261130f816117ef565b826001600160a01b0316846001600160a01b0316036113625760405162461bcd60e51b815260206004820152600f60248201526e496e76616c6964207061727469657360881b6044820152606401610ab7565b6040516bffffffffffffffffffffffff1933606090811b8216602084015286811b8216603484015285901b166048820152605c8101839052600090607c0160408051601f1981840301815291815281516020928301206000818152600490935291205490915060ff161561140d5760405162461bcd60e51b8152602060048201526012602482015271504f4920616c72656164792065786973747360701b6044820152606401610ab7565b60008181526004602052604090819020805460ff1916600117905551339082907f73fd3063094ed8671e06d1e15d6665a0e76d52923683d4e9d75241ed4571d7939061147190899089906001600160a01b0392831681529116602082015260400190565b60405180910390a35050505050565b7f3c11d16cbaffd01df69ce1c404f6340ee057498f5f00246190ea54220576a8486114aa816117ef565b610baa83836117a5565b600033610a6081858561185a565b834211156114e65760405163313c898160e11b815260048101859052602401610ab7565b60007f6e71edae12b1b97f4d1f60370fef10105fa2faae0126114a169c64845d6126c98888886115528c6001600160a01b031660009081527f5ab42ced628888259c08ac98db1eb0cf702fc1501344311d8b100cd1bfe4bb006020526040902080546001810190915590565b6040805160208101969096526001600160a01b0394851690860152929091166060840152608083015260a082015260c0810186905260e00160405160208183030381529060405280519060200120905060006115ad82611dde565b905060006115bd82878787611e0b565b9050896001600160a01b0316816001600160a01b031614611604576040516325c0072360e11b81526001600160a01b0380831660048301528b166024820152604401610ab7565b61160f8a8a8a61172f565b50505050505050505050565b61162482610da9565b61162d816117ef565b610de78383611968565b6001600160a01b0391821660009081527f52c63247e1f47db19d5ce0460030c497f067ca4cebf71ba98eeadabe20bace016020908152604080832093909416825291909152205490565b6000807f237e158222e3e6968b72b9db0d8043aacf074ad9f650f0d1606b4d82ee432c00611270565b6116b2611cab565b7f237e158222e3e6968b72b9db0d8043aacf074ad9f650f0d1606b4d82ee432c0080546001600160a01b0319166001600160a01b03831690811782556116f661124b565b6001600160a01b03167f38d16b8cac22d99fc7c124b9cd0de2d3fa1faef420bfe791d8c362d765e2270060405160405180910390a35050565b610baa8383836001611e39565b600080516020612ed18339815191525460ff1615610da75760405163d93c066560e01b815260040160405180910390fd5b600080516020612ef183398151915280546001190161179f57604051633ee5aeb560e01b815260040160405180910390fd5b60029055565b6001600160a01b0382166117cf57604051634b637e8f60e11b815260006004820152602401610ab7565b61107f82600083611f18565b6001600080516020612ef183398151915255565b610e4f8133611f9f565b60006118058484611637565b9050600019811015610de7578181101561184b57604051637dc7a0d960e11b81526001600160a01b03841660048201526024810182905260448101839052606401610ab7565b610de784848484036000611e39565b6001600160a01b03831661188457604051634b637e8f60e11b815260006004820152602401610ab7565b6001600160a01b0382166118ae5760405163ec442f0560e01b815260006004820152602401610ab7565b610baa838383611f18565b6000600080516020612eb18339815191526118d48484611280565b611954576000848152602082815260408083206001600160a01b03871684529091529020805460ff1916600117905561190a3390565b6001600160a01b0316836001600160a01b0316857f2f8788117e7eff1d82e926ec794901d17c78024a50270940304540a733656f0d60405160405180910390a460019150506109a3565b60009150506109a3565b6000610df7611fd8565b6000600080516020612eb18339815191526119838484611280565b15611954576000848152602082815260408083206001600160a01b0387168085529252808320805460ff1916905551339287917ff6391f5c32d9c69d2a47ea670b442974b53935d1edc7fd64eb21e047a839171b9190a460019150506109a3565b6119ec61204c565b600080516020612ed1833981519152805460ff191681557f5db9ee0a495bf2e6ff9c91a7834c1ba4fdd244a5e8aa4e537bd38aeae4b073aa335b6040516001600160a01b03909116815260200160405180910390a150565b6001600160a01b038216611a6e5760405163ec442f0560e01b815260006004820152602401610ab7565b61107f60008383611f18565b6000807ff0c57e16840df040f15088dc2f81fe391c3923bec73e23a9662efc9c229c6a006109a3565b611aab61207c565b61107f82826120a1565b611abd61207c565b610e4f81604051806040016040528060018152602001603160f81b8152506120f2565b610da761207c565b611af061207c565b610da7612153565b306001600160a01b037f0000000000000000000000000000000000000000000000000000000000000000161480611b7f57507f00000000000000000000000000000000000000000000000000000000000000006001600160a01b0316611b73600080516020612e51833981519152546001600160a01b031690565b6001600160a01b031614155b15610da75760405163703e46dd60e11b815260040160405180910390fd5b610e4f611cab565b816001600160a01b03166352d1902d6040518163ffffffff1660e01b8152600401602060405180830381865afa925050508015611bff575060408051601f3d908101601f19168201909252611bfc91810190612cb5565b60015b611c2757604051634c9c8ce360e01b81526001600160a01b0383166004820152602401610ab7565b600080516020612e518339815191528114611c5857604051632a87526960e21b815260048101829052602401610ab7565b610baa838361215b565b306001600160a01b037f00000000000000000000000000000000000000000000000000000000000000001614610da75760405163703e46dd60e11b815260040160405180910390fd5b33611cb461124b565b6001600160a01b031614610da75760405163118cdaa760e01b8152336004820152602401610ab7565b7f237e158222e3e6968b72b9db0d8043aacf074ad9f650f0d1606b4d82ee432c0080546001600160a01b031916815561107f826121b1565b6000807f5ab42ced628888259c08ac98db1eb0cf702fc1501344311d8b100cd1bfe4bb006110fd565b611d4661173c565b600080516020612ed1833981519152805460ff191660011781557f62e78cea01bee320cd4e420270b5ea74000d11b0c9f74754ebdbfc544b05a25833611a26565b7fa16a46d94261c7517cc8ff89f61c0ce93598e3c849801011dee649a6a557d1028054606091600080516020612e31833981519152916109ce90612bb7565b60606000600080516020612e318339815191526109bd565b60006109a3611deb61195e565b8360405161190160f01b8152600281019290925260228201526042902090565b600080600080611e1d88888888612222565b925092509250611e2d82826122f1565b50909695505050505050565b600080516020612e118339815191526001600160a01b038516611e725760405163e602df0560e01b815260006004820152602401610ab7565b6001600160a01b038416611e9c57604051634a1406b160e11b815260006004820152602401610ab7565b6001600160a01b03808616600090815260018301602090815260408083209388168352929052208390558115611f1157836001600160a01b0316856001600160a01b03167f8c5be1e5ebec7d5bd14f71427d1e84f3dd0314c0f7b2291e5b200ac8c7c3b9258560405161147191815260200190565b5050505050565b611f2061173c565b62093a80600054611f319190612c89565b421015611f94576001600160a01b0383161580611f5557506001600160a01b038216155b611f945760405162461bcd60e51b815260206004820152601060248201526f1514905394d1915494d7d313d0d2d15160821b6044820152606401610ab7565b610baa8383836123aa565b611fa98282611280565b61107f5760405163e2517d3f60e01b81526001600160a01b038216600482015260248101839052604401610ab7565b60007f8b73c3c69bb8fe3d512ecc4cf759cc79239f7b179b0ffacaa9a75d522b39400f6120036124e8565b61200b612552565b60408051602081019490945283019190915260608201524660808201523060a082015260c00160405160208183030381529060405280519060200120905090565b600080516020612ed18339815191525460ff16610da757604051638dfc202b60e01b815260040160405180910390fd5b612084612596565b610da757604051631afcd79f60e31b815260040160405180910390fd5b6120a961207c565b600080516020612e118339815191527f52c63247e1f47db19d5ce0460030c497f067ca4cebf71ba98eeadabe20bace036120e38482612d1e565b5060048101610de78382612d1e565b6120fa61207c565b600080516020612e318339815191527fa16a46d94261c7517cc8ff89f61c0ce93598e3c849801011dee649a6a557d1026121348482612d1e565b50600381016121438382612d1e565b5060008082556001909101555050565b6117db61207c565b612164826125b0565b6040516001600160a01b038316907fbc7cd75a20ee27fd9adebab32041f755214dbc6bffa90cc0225b39da2e5c2d3b90600090a28051156121a957610baa8282612615565b61107f61268b565b7f9016d09d72d40fdae2fd8ceac6b6234c7706214fd39c1cd1e609a0528c19930080546001600160a01b031981166001600160a01b03848116918217845560405192169182907f8be0079c531659141344cd1fd0a4f28419497f9722a3daafe3b4186f6b6457e090600090a3505050565b600080807f7fffffffffffffffffffffffffffffff5d576e7357a4501ddfe92f46681b20a084111561225d57506000915060039050826122e7565b604080516000808252602082018084528a905260ff891692820192909252606081018790526080810186905260019060a0016020604051602081039080840390855afa1580156122b1573d6000803e3d6000fd5b5050604051601f1901519150506001600160a01b0381166122dd575060009250600191508290506122e7565b9250600091508190505b9450945094915050565b600082600381111561230557612305612dde565b0361230e575050565b600182600381111561232257612322612dde565b036123405760405163f645eedf60e01b815260040160405180910390fd5b600282600381111561235457612354612dde565b036123755760405163fce698f760e01b815260048101829052602401610ab7565b600382600381111561238957612389612dde565b0361107f576040516335e2f38360e21b815260048101829052602401610ab7565b600080516020612e118339815191526001600160a01b0384166123e657818160020160008282546123db9190612c89565b909155506124589050565b6001600160a01b038416600090815260208290526040902054828110156124395760405163391434e360e21b81526001600160a01b03861660048201526024810182905260448101849052606401610ab7565b6001600160a01b03851660009081526020839052604090209083900390555b6001600160a01b038316612476576002810180548390039055612495565b6001600160a01b03831660009081526020829052604090208054830190555b826001600160a01b0316846001600160a01b03167fddf252ad1be2c89b69c2b068fc378daa952ba7f163c4a11628f55a4df523b3ef846040516124da91815260200190565b60405180910390a350505050565b6000600080516020612e3183398151915281612502611d87565b80519091501561251a57805160209091012092915050565b81548015612529579392505050565b7fc5d2460186f7233c927e7db2dcc703c0e500b653ca82273b7bfad8045d85a470935050505090565b6000600080516020612e318339815191528161256c611dc6565b80519091501561258457805160209091012092915050565b60018201548015612529579392505050565b60006125a0611a7a565b54600160401b900460ff16919050565b806001600160a01b03163b6000036125e657604051634c9c8ce360e01b81526001600160a01b0382166004820152602401610ab7565b600080516020612e5183398151915280546001600160a01b0319166001600160a01b0392909216919091179055565b6060600080846001600160a01b0316846040516126329190612df4565b600060405180830381855af49150503d806000811461266d576040519150601f19603f3d011682016040523d82523d6000602084013e612672565b606091505b50915091506126828583836126aa565b95945050505050565b3415610da75760405163b398979f60e01b815260040160405180910390fd5b6060826126bf576126ba82612706565b610c61565b81511580156126d657506001600160a01b0384163b155b156126ff57604051639996b31560e01b81526001600160a01b0385166004820152602401610ab7565b5080610c61565b80511561271557805160208201fd5b60405163d6bda27560e01b815260040160405180910390fd5b60006020828403121561274057600080fd5b81356001600160e01b031981168114610c6157600080fd5b60005b8381101561277357818101518382015260200161275b565b50506000910152565b60008151808452612794816020860160208601612758565b601f01601f19169290920160200192915050565b602081526000610c61602083018461277c565b80356001600160a01b03811681146127d257600080fd5b919050565b600080604083850312156127ea57600080fd5b6127f3836127bb565b946020939093013593505050565b60008060006040848603121561281657600080fd5b83359250602084013567ffffffffffffffff8082111561283557600080fd5b818601915086601f83011261284957600080fd5b81358181111561285857600080fd5b87602082850101111561286a57600080fd5b6020830194508093505050509250925092565b60006020828403121561288f57600080fd5b5035919050565b6000806000606084860312156128ab57600080fd5b6128b4846127bb565b92506128c2602085016127bb565b9150604084013590509250925092565b600080604083850312156128e557600080fd5b823591506128f5602084016127bb565b90509250929050565b634e487b7160e01b600052604160045260246000fd5b600067ffffffffffffffff8084111561292f5761292f6128fe565b604051601f8501601f19908116603f01168101908282118183101715612957576129576128fe565b8160405280935085815286868601111561297057600080fd5b858560208301376000602087830101525050509392505050565b600082601f83011261299b57600080fd5b610c6183833560208501612914565b600080604083850312156129bd57600080fd5b823567ffffffffffffffff808211156129d557600080fd5b6129e18683870161298a565b935060208501359150808211156129f757600080fd5b50612a048582860161298a565b9150509250929050565b60008060408385031215612a2157600080fd5b612a2a836127bb565b9150602083013567ffffffffffffffff811115612a4657600080fd5b8301601f81018513612a5757600080fd5b612a0485823560208401612914565b600060208284031215612a7857600080fd5b610c61826127bb565b60ff60f81b881681526000602060e06020840152612aa260e084018a61277c565b8381036040850152612ab4818a61277c565b606085018990526001600160a01b038816608086015260a0850187905284810360c08601528551808252602080880193509091019060005b81811015612b0857835183529284019291840191600101612aec565b50909c9b505050505050505050505050565b600080600080600080600060e0888a031215612b3557600080fd5b612b3e886127bb565b9650612b4c602089016127bb565b95506040880135945060608801359350608088013560ff81168114612b7057600080fd5b9699959850939692959460a0840135945060c09093013592915050565b60008060408385031215612ba057600080fd5b612ba9836127bb565b91506128f5602084016127bb565b600181811c90821680612bcb57607f821691505b602082108103612beb57634e487b7160e01b600052602260045260246000fd5b50919050565b634e487b7160e01b600052601160045260246000fd5b80820281158282048414176109a3576109a3612bf1565b600082612c3b57634e487b7160e01b600052601260045260246000fd5b500490565b818103818111156109a3576109a3612bf1565b83815260406020820152816040820152818360608301376000818301606090810191909152601f909201601f1916010192915050565b808201808211156109a3576109a3612bf1565b600060018201612cae57612cae612bf1565b5060010190565b600060208284031215612cc757600080fd5b5051919050565b601f821115610baa576000816000526020600020601f850160051c81016020861015612cf75750805b601f850160051c820191505b81811015612d1657828155600101612d03565b505050505050565b815167ffffffffffffffff811115612d3857612d386128fe565b612d4c81612d468454612bb7565b84612cce565b602080601f831160018114612d815760008415612d695750858301515b600019600386901b1c1916600185901b178555612d16565b600085815260208120601f198616915b82811015612db057888601518255948401946001909101908401612d91565b5085821015612dce5787850151600019600388901b60f8161c191681555b5050505050600190811b01905550565b634e487b7160e01b600052602160045260246000fd5b60008251612e06818460208701612758565b919091019291505056fe52c63247e1f47db19d5ce0460030c497f067ca4cebf71ba98eeadabe20bace00a16a46d94261c7517cc8ff89f61c0ce93598e3c849801011dee649a6a557d100360894a13ba1a3210667c828492db98dca3e2076cc3735a920a3ca505d382bbc35af5b5a3fb4c88a8cb5e26e8a68a53cc8f6cafcc4000a1db1ae5753e25a168e65d7a28e3265b37a6474929f336521b332c1681b933f6cb9f3376673440d862a02dd7bc7dec4dceedda775e58dd541e08a116c6c53815c0bd028192f7b626800cd5ed15c6e187e77e9aee88184c21f4f2182ab5827cb3b7e07fbedcd63f033009b779b17422d0df92223018b32b4d1fa46e071723d6817e2486d003becc55f00a26469706673582212205df0df5006fe45eabc935c84bc1eb09964e11bd3376f9d894a0076458cfba50864736f6c63430008180033",
  "linkReferences": {},
  "deployedLinkReferences": {}
}