{
  "_format": "hh-sol-artifact-1",
  "contractName": "TokenERC20",
  "sourceName": "contracts/evm/TokenERC20.sol",
  "abi": [
    {
      "inputs": [],
      "name": "AccessControlBadConfirmation",
      "type": "error"
    },
    {
      "inputs": [
        {
          "internalType": "address",
          "name": "account",
          "type": "address"
        },
        {
          "internalType": "bytes32",
          "name": "neededRole",
          "type": "bytes32"
        }
      ],
      "name": "AccessControlUnauthorizedAccount",
      "type": "error"
    },
    {
      "inputs": [
        {
          "internalType": "address",
          "name": "target",
          "type": "address"
        }
      ],
      "name": "AddressEmptyCode",
      "type": "error"
    },
    {
      "inputs": [],
      "name": "ECDSAInvalidSignature",
      "type": "error"
    },
    {
      "inputs": [
        {
          "internalType": "uint256",
          "name": "length",
          "type": "uint256"
        }
      ],
      "name": "ECDSAInvalidSignatureLength",
      "type": "error"
    },
    {
      "inputs": [
        {
          "internalType": "bytes32",
          "name": "s",
          "type": "bytes32"
        }
      ],
      "name": "ECDSAInvalidSignatureS",
      "type": "error"
    },
    {
      "inputs": [
        {
          "internalType": "address",
          "name": "implementation",
          "type": "address"
        }
      ],
      "name": "ERC1967InvalidImplementation",
      "type": "error"
    },
    {
      "inputs": [],
      "name": "ERC1967NonPayable",
      "type": "error"
    },
    {
      "inputs": [
        {
          "internalType": "address",
          "name": "spender",
          "type": "address"
        },
        {
          "internalType": "uint256",
          "name": "allowance",
          "type": "uint256"
        },
        {
          "internalType": "uint256",
          "name": "needed",
          "type": "uint256"
        }
      ],
      "name": "ERC20InsufficientAllowance",
      "type": "error"
    },
    {
      "inputs": [
        {
          "internalType": "address",
          "name": "sender",
          "type": "address"
        },
        {
          "internalType": "uint256",
          "name": "balance",
          "type": "uint256"
        },
        {
          "internalType": "uint256",
          "name": "needed",
          "type": "uint256"
        }
      ],
      "name": "ERC20InsufficientBalance",
      "type": "error"
    },
    {
      "inputs": [
        {
          "internalType": "address",
          "name": "approver",
          "type": "address"
        }
      ],
      "name": "ERC20InvalidApprover",
      "type": "error"
    },
    {
      "inputs": [
        {
          "internalType": "address",
          "name": "receiver",
          "type": "address"
        }
      ],
      "name": "ERC20InvalidReceiver",
      "type": "error"
    },
    {
      "inputs": [
        {
          "internalType": "address",
          "name": "sender",
          "type": "address"
        }
      ],
      "name": "ERC20InvalidSender",
      "type": "error"
    },
    {
      "inputs": [
        {
          "internalType": "address",
          "name": "spender",
          "type": "address"
        }
      ],
      "name": "ERC20InvalidSpender",
      "type": "error"
    },
    {
      "inputs": [
        {
          "internalType": "uint256",
          "name": "deadline",
          "type": "uint256"
        }
      ],
      "name": "ERC2612ExpiredSignature",
      "type": "error"
    },
    {
      "inputs": [
        {
          "internalType": "address",
          "name": "signer",
          "type": "address"
        },
        {
          "internalType": "address",
          "name": "owner",
          "type": "address"
        }
      ],
      "name": "ERC2612InvalidSigner",
      "type": "error"
    },
    {
      "inputs": [],
      "name": "EnforcedPause",
      "type": "error"
    },
    {
      "inputs": [],
      "name": "ExpectedPause",
      "type": "error"
    },
    {
      "inputs": [],
      "name": "FailedCall",
      "type": "error"
    },
    {
      "inputs": [
        {
          "internalType": "address",
          "name": "account",
          "type": "address"
        },
        {
          "internalType": "uint256",
          "name": "currentNonce",
          "type": "uint256"
        }
      ],
      "name": "InvalidAccountNonce",
      "type": "error"
    },
    {
      "inputs": [],
      "name": "InvalidInitialization",
      "type": "error"
    },
    {
      "inputs": [],
      "name": "NotInitializing",
      "type": "error"
    },
    {
      "inputs": [
        {
          "internalType": "address",
          "name": "owner",
          "type": "address"
        }
      ],
      "name": "OwnableInvalidOwner",
      "type": "error"
    },
    {
      "inputs": [
        {
          "internalType": "address",
          "name": "account",
          "type": "address"
        }
      ],
      "name": "OwnableUnauthorizedAccount",
      "type": "error"
    },
    {
      "inputs": [],
      "name": "ReentrancyGuardReentrantCall",
      "type": "error"
    },
    {
      "inputs": [],
      "name": "UUPSUnauthorizedCallContext",
      "type": "error"
    },
    {
      "inputs": [
        {
          "internalType": "bytes32",
          "name": "slot",
          "type": "bytes32"
        }
      ],
      "name": "UUPSUnsupportedProxiableUUID",
      "type": "error"
    },
    {
      "anonymous": false,
      "inputs": [
        {
          "indexed": true,
          "internalType": "address",
          "name": "owner",
          "type": "address"
        },
        {
          "indexed": true,
          "internalType": "address",
          "name": "spender",
          "type": "address"
        },
        {
          "indexed": false,
          "internalType": "uint256",
          "name": "value",
          "type": "uint256"
        }
      ],
      "name": "Approval",
      "type": "event"
    },
    {
      "anonymous": false,
      "inputs": [],
      "name": "EIP712DomainChanged",
      "type": "event"
    },
    {
      "anonymous": false,
      "inputs": [
        {
          "indexed": false,
          "internalType": "uint64",
          "name": "version",
          "type": "uint64"
        }
      ],
      "name": "Initialized",
      "type": "event"
    },
    {
      "anonymous": false,
      "inputs": [
        {
          "indexed": true,
          "internalType": "address",
          "name": "previousOwner",
          "type": "address"
        },
        {
          "indexed": true,
          "internalType": "address",
          "name": "newOwner",
          "type": "address"
        }
      ],
      "name": "OwnershipTransferStarted",
      "type": "event"
    },
    {
      "anonymous": false,
      "inputs": [
        {
          "indexed": true,
          "internalType": "address",
          "name": "previousOwner",
          "type": "address"
        },
        {
          "indexed": true,
          "internalType": "address",
          "name": "newOwner",
          "type": "address"
        }
      ],
      "name": "OwnershipTransferred",
      "type": "event"
    },
    {
      "anonymous": false,
      "inputs": [
        {
          "indexed": false,
          "internalType": "address",
          "name": "account",
          "type": "address"
        }
      ],
      "name": "Paused",
      "type": "event"
    },
    {
      "anonymous": false,
      "inputs": [
        {
          "indexed": true,
          "internalType": "bytes32",
          "name": "role",
          "type": "bytes32"
        },
        {
          "indexed": true,
          "internalType": "bytes32",
          "name": "previousAdminRole",
          "type": "bytes32"
        },
        {
          "indexed": true,
          "internalType": "bytes32",
          "name": "newAdminRole",
          "type": "bytes32"
        }
      ],
      "name": "RoleAdminChanged",
      "type": "event"
    },
    {
      "anonymous": false,
      "inputs": [
        {
          "indexed": true,
          "internalType": "bytes32",
          "name": "role",
          "type": "bytes32"
        },
        {
          "indexed": true,
          "internalType": "address",
          "name": "account",
          "type": "address"
        },
        {
          "indexed": true,
          "internalType": "address",
          "name": "sender",
          "type": "address"
        }
      ],
      "name": "RoleGranted",
      "type": "event"
    },
    {
      "anonymous": false,
      "inputs": [
        {
          "indexed": true,
          "internalType": "bytes32",
          "name": "role",
          "type": "bytes32"
        },
        {
          "indexed": true,
          "internalType": "address",
          "name": "account",
          "type": "address"
        },
        {
          "indexed": true,
          "internalType": "address",
          "name": "sender",
          "type": "address"
        }
      ],
      "name": "RoleRevoked",
      "type": "event"
    },
    {
      "anonymous": false,
      "inputs": [
        {
          "indexed": true,
          "internalType": "address",
          "name": "from",
          "type": "address"
        },
        {
          "indexed": true,
          "internalType": "address",
          "name": "to",
          "type": "address"
        },
        {
          "indexed": false,
          "internalType": "uint256",
          "name": "value",
          "type": "uint256"
        }
      ],
      "name": "Transfer",
      "type": "event"
    },
    {
      "anonymous": false,
      "inputs": [
        {
          "indexed": false,
          "internalType": "address",
          "name": "account",
          "type": "address"
        }
      ],
      "name": "Unpaused",
      "type": "event"
    },
    {
      "anonymous": false,
      "inputs": [
        {
          "indexed": true,
          "internalType": "address",
          "name": "implementation",
          "type": "address"
        }
      ],
      "name": "Upgraded",
      "type": "event"
    },
    {
      "inputs": [],
      "name": "BURNER_ROLE",
      "outputs": [
        {
          "internalType": "bytes32",
          "name": "",
          "type": "bytes32"
        }
      ],
      "stateMutability": "view",
      "type": "function"
    },
    {
      "inputs": [],
      "name": "DEFAULT_ADMIN_ROLE",
      "outputs": [
        {
          "internalType": "bytes32",
          "name": "",
          "type": "bytes32"
        }
      ],
      "stateMutability": "view",
      "type": "function"
    },
    {
      "inputs": [],
      "name": "DOMAIN_SEPARATOR",
      "outputs": [
        {
          "internalType": "bytes32",
          "name": "",
          "type": "bytes32"
        }
      ],
      "stateMutability": "view",
      "type": "function"
    },
    {
      "inputs": [],
      "name": "INITIAL_SUPPLY",
      "outputs": [
        {
          "internalType": "uint256",
          "name": "",
          "type": "uint256"
        }
      ],
      "stateMutability": "view",
      "type": "function"
    },
    {
      "inputs": [],
      "name": "MINTER_ROLE",
      "outputs": [
        {
          "internalType": "bytes32",
          "name": "",
          "type": "bytes32"
        }
      ],
      "stateMutability": "view",
      "type": "function"
    },
    {
      "inputs": [],
      "name": "PAUSER_ROLE",
      "outputs": [
        {
          "internalType": "bytes32",
          "name": "",
          "type": "bytes32"
        }
      ],
      "stateMutability": "view",
      "type": "function"
    },
    {
      "inputs": [],
      "name": "UPGRADE_INTERFACE_VERSION",
      "outputs": [
        {
          "internalType": "string",
          "name": "",
          "type": "string"
        }
      ],
      "stateMutability": "view",
      "type": "function"
    },
    {
      "inputs": [],
      "name": "acceptOwnership",
      "outputs": [],
      "stateMutability": "nonpayable",
      "type": "function"
    },
    {
      "inputs": [
        {
          "internalType": "address",
          "name": "owner",
          "type": "address"
        },
        {
          "internalType": "address",
          "name": "spender",
          "type": "address"
        }
      ],
      "name": "allowance",
      "outputs": [
        {
          "internalType": "uint256",
          "name": "",
          "type": "uint256"
        }
      ],
      "stateMutability": "view",
      "type": "function"
    },
    {
      "inputs": [
        {
          "internalType": "address",
          "name": "spender",
          "type": "address"
        },
        {
          "internalType": "uint256",
          "name": "value",
          "type": "uint256"
        }
      ],
      "name": "approve",
      "outputs": [
        {
          "internalType": "bool",
          "name": "",
          "type": "bool"
        }
      ],
      "stateMutability": "nonpayable",
      "type": "function"
    },
    {
      "inputs": [
        {
          "internalType": "address",
          "name": "account",
          "type": "address"
        }
      ],
      "name": "balanceOf",
      "outputs": [
        {
          "internalType": "uint256",
          "name": "",
          "type": "uint256"
        }
      ],
      "stateMutability": "view",
      "type": "function"
    },
    {
      "inputs": [
        {
          "internalType": "address",
          "name": "from",
          "type": "address"
        },
        {
          "internalType": "uint256",
          "name": "amount",
          "type": "uint256"
        }
      ],
      "name": "burn",
      "outputs": [],
      "stateMutability": "nonpayable",
      "type": "function"
    },
    {
      "inputs": [],
      "name": "decimals",
      "outputs": [
        {
          "internalType": "uint8",
          "name": "",
          "type": "uint8"
        }
      ],
      "stateMutability": "view",
      "type": "function"
    },
    {
      "inputs": [],
      "name": "eip712Domain",
      "outputs": [
        {
          "internalType": "bytes1",
          "name": "fields",
          "type": "bytes1"
        },
        {
          "internalType": "string",
          "name": "name",
          "type": "string"
        },
        {
          "internalType": "string",
          "name": "version",
          "type": "string"
        },
        {
          "internalType": "uint256",
          "name": "chainId",
          "type": "uint256"
        },
        {
          "internalType": "address",
          "name": "verifyingContract",
          "type": "address"
        },
        {
          "internalType": "bytes32",
          "name": "salt",
          "type": "bytes32"
        },
        {
          "internalType": "uint256[]",
          "name": "extensions",
          "type": "uint256[]"
        }
      ],
      "stateMutability": "view",
      "type": "function"
    },
    {
      "inputs": [
        {
          "internalType": "bytes32",
          "name": "role",
          "type": "bytes32"
        }
      ],
      "name": "getRoleAdmin",
      "outputs": [
        {
          "internalType": "bytes32",
          "name": "",
          "type": "bytes32"
        }
      ],
      "stateMutability": "view",
      "type": "function"
    },
    {
      "inputs": [
        {
          "internalType": "bytes32",
          "name": "role",
          "type": "bytes32"
        },
        {
          "internalType": "address",
          "name": "account",
          "type": "address"
        }
      ],
      "name": "grantRole",
      "outputs": [],
      "stateMutability": "nonpayable",
      "type": "function"
    },
    {
      "inputs": [
        {
          "internalType": "bytes32",
          "name": "role",
          "type": "bytes32"
        },
        {
          "internalType": "address",
          "name": "account",
          "type": "address"
        }
      ],
      "name": "hasRole",
      "outputs": [
        {
          "internalType": "bool",
          "name": "",
          "type": "bool"
        }
      ],
      "stateMutability": "view",
      "type": "function"
    },
    {
      "inputs": [
        {
          "internalType": "string",
          "name": "name_",
          "type": "string"
        },
        {
          "internalType": "string",
          "name": "symbol_",
          "type": "string"
        }
      ],
      "name": "initialize",
      "outputs": [],
      "stateMutability": "nonpayable",
      "type": "function"
    },
    {
      "inputs": [],
      "name": "launchTime",
      "outputs": [
        {
          "internalType": "uint256",
          "name": "",
          "type": "uint256"
        }
      ],
      "stateMutability": "view",
      "type": "function"
    },
    {
      "inputs": [
        {
          "internalType": "address",
          "name": "to",
          "type": "address"
        },
        {
          "internalType": "uint256",
          "name": "amount",
          "type": "uint256"
        }
      ],
      "name": "mint",
      "outputs": [],
      "stateMutability": "nonpayable",
      "type": "function"
    },
    {
      "inputs": [],
      "name": "name",
      "outputs": [
        {
          "internalType": "string",
          "name": "",
          "type": "string"
        }
      ],
      "stateMutability": "view",
      "type": "function"
    },
    {
      "inputs": [
        {
          "internalType": "address",
          "name": "owner",
          "type": "address"
        }
      ],
      "name": "nonces",
      "outputs": [
        {
          "internalType": "uint256",
          "name": "",
          "type": "uint256"
        }
      ],
      "stateMutability": "view",
      "type": "function"
    },
    {
      "inputs": [],
      "name": "owner",
      "outputs": [
        {
          "internalType": "address",
          "name": "",
          "type": "address"
        }
      ],
      "stateMutability": "view",
      "type": "function"
    },
    {
      "inputs": [],
      "name": "pause",
      "outputs": [],
      "stateMutability": "nonpayable",
      "type": "function"
    },
    {
      "inputs": [],
      "name": "paused",
      "outputs": [
        {
          "internalType": "bool",
          "name": "",
          "type": "bool"
        }
      ],
      "stateMutability": "view",
      "type": "function"
    },
    {
      "inputs": [],
      "name": "pendingOwner",
      "outputs": [
        {
          "internalType": "address",
          "name": "",
          "type": "address"
        }
      ],
      "stateMutability": "view",
      "type": "function"
    },
    {
      "inputs": [
        {
          "internalType": "address",
          "name": "owner",
          "type": "address"
        },
        {
          "internalType": "address",
          "name": "spender",
          "type": "address"
        },
        {
          "internalType": "uint256",
          "name": "value",
          "type": "uint256"
        },
        {
          "internalType": "uint256",
          "name": "deadline",
          "type": "uint256"
        },
        {
          "internalType": "uint8",
          "name": "v",
          "type": "uint8"
        },
        {
          "internalType": "bytes32",
          "name": "r",
          "type": "bytes32"
        },
        {
          "internalType": "bytes32",
          "name": "s",
          "type": "bytes32"
        }
      ],
      "name": "permit",
      "outputs": [],
      "stateMutability": "nonpayable",
      "type": "function"
    },
    {
      "inputs": [],
      "name": "proxiableUUID",
      "outputs": [
        {
          "internalType": "bytes32",
          "name": "",
          "type": "bytes32"
        }
      ],
      "stateMutability": "view",
      "type": "function"
    },
    {
      "inputs": [],
      "name": "renounceOwnership",
      "outputs": [],
      "stateMutability": "nonpayable",
      "type": "function"
    },
    {
      "inputs": [
        {
          "internalType": "bytes32",
          "name": "role",
          "type": "bytes32"
        },
        {
          "internalType": "address",
          "name": "callerConfirmation",
          "type": "address"
        }
      ],
      "name": "renounceRole",
      "outputs": [],
      "stateMutability": "nonpayable",
      "type": "function"
    },
    {
      "inputs": [
        {
          "internalType": "bytes32",
          "name": "role",
          "type": "bytes32"
        },
        {
          "internalType": "address",
          "name": "account",
          "type": "address"
        }
      ],
      "name": "revokeRole",
      "outputs": [],
      "stateMutability": "nonpayable",
      "type": "function"
    },
    {
      "inputs": [
        {
          "internalType": "bytes4",
          "name": "interfaceId",
          "type": "bytes4"
        }
      ],
      "name": "supportsInterface",
      "outputs": [
        {
          "internalType": "bool",
          "name": "",
          "type": "bool"
        }
      ],
      "stateMutability": "view",
      "type": "function"
    },
    {
      "inputs": [],
      "name": "symbol",
      "outputs": [
        {
          "internalType": "string",
          "name": "",
          "type": "string"
        }
      ],
      "stateMutability": "view",
      "type": "function"
    },
    {
      "inputs": [],
      "name": "totalSupply",
      "outputs": [
        {
          "internalType": "uint256",
          "name": "",
          "type": "uint256"
        }
      ],
      "stateMutability": "view",
      "type": "function"
    },
    {
      "inputs": [
        {
          "internalType": "address",
          "name": "to",
          "type": "address"
        },
        {
          "internalType": "uint256",
          "name": "value",
          "type": "uint256"
        }
      ],
      "name": "transfer",
      "outputs": [
        {
          "internalType": "bool",
          "name": "",
          "type": "bool"
        }
      ],
      "stateMutability": "nonpayable",
      "type": "function"
    },
    {
      "inputs": [
        {
          "internalType": "address",
          "name": "from",
          "type": "address"
        },
        {
          "internalType": "address",
          "name": "to",
          "type": "address"
        },
        {
          "internalType": "uint256",
          "name": "value",
          "type": "uint256"
        }
      ],
      "name": "transferFrom",
      "outputs": [
        {
          "internalType": "bool",
          "name": "",
          "type": "bool"
        }
      ],
      "stateMutability": "nonpayable",
      "type": "function"
    },
    {
      "inputs": [
        {
          "internalType": "address",
          "name": "newOwner",
          "type": "address"
        }
      ],
      "name": "transferOwnership",
      "outputs": [],
      "stateMutability": "nonpayable",
      "type": "function"
    },
    {
      "inputs": [],
      "name": "unpause",
      "outputs": [],
      "stateMutability": "nonpayable",
      "type": "function"
    },
    {
      "inputs": [
        {
          "internalType": "address",
          "name": "newImplementation",
          "type": "address"
        },
        {
          "internalType": "bytes",
          "name": "data",
          "type": "bytes"
        }
      ],
      "name": "upgradeToAndCall",
      "outputs": [],
      "stateMutability": "payable",
      "type": "function"
    }
  ],
  "bytecode": "0x60a06040523073ffffffffffffffffffffffffffffffffffffffff1660809073ffffffffffffffffffffffffffffffffffffffff1681525034801561004357600080fd5b506080516148df61006d60003960008181612056015281816120ab01526122a201526148df6000f3fe6080604052600436106102305760003560e01c8063715018a61161012e578063a217fddf116100ab578063d547741f1161006f578063d547741f14610816578063dd62ed3e1461083f578063e30c39781461087c578063e63ab1e9146108a7578063f2fde38b146108d257610230565b8063a217fddf1461072f578063a9059cbb1461075a578063ad3cb1cc14610797578063d505accf146107c2578063d5391393146107eb57610230565b806384b0196e116100f257806384b0196e146106425780638da5cb5b1461067357806391d148541461069e57806395d89b41146106db5780639dc29fac1461070657610230565b8063715018a614610595578063790ca413146105ac57806379ba5097146105d75780637ecebe00146105ee5780638456cb591461062b57610230565b8063313ce567116101bc5780634cd88b76116101805780634cd88b76146104bd5780634f1ef286146104e657806352d1902d146105025780635c975abb1461052d57806370a082311461055857610230565b8063313ce567146103fe5780633644e5151461042957806336568abe146104545780633f4ba83a1461047d57806340c10f191461049457610230565b806323b872dd1161020357806323b872dd14610305578063248a9ca314610342578063282c51f31461037f5780632f2ff15d146103aa5780632ff2e9dc146103d357610230565b806301ffc9a71461023557806306fdde0314610272578063095ea7b31461029d57806318160ddd146102da575b600080fd5b34801561024157600080fd5b5061025c600480360381019061025791906138df565b6108fb565b6040516102699190613927565b60405180910390f35b34801561027e57600080fd5b50610287610975565b60405161029491906139d2565b60405180910390f35b3480156102a957600080fd5b506102c460048036038101906102bf9190613a88565b610a16565b6040516102d19190613927565b60405180910390f35b3480156102e657600080fd5b506102ef610a39565b6040516102fc9190613ad7565b60405180910390f35b34801561031157600080fd5b5061032c60048036038101906103279190613af2565b610a51565b6040516103399190613927565b60405180910390f35b34801561034e57600080fd5b5061036960048036038101906103649190613b7b565b610a80565b6040516103769190613bb7565b60405180910390f35b34801561038b57600080fd5b50610394610aae565b6040516103a19190613bb7565b60405180910390f35b3480156103b657600080fd5b506103d160048036038101906103cc9190613bd2565b610ad2565b005b3480156103df57600080fd5b506103e8610af4565b6040516103f59190613ad7565b60405180910390f35b34801561040a57600080fd5b50610413610b04565b6040516104209190613c2e565b60405180910390f35b34801561043557600080fd5b5061043e610b0d565b60405161044b9190613bb7565b60405180910390f35b34801561046057600080fd5b5061047b60048036038101906104769190613bd2565b610b1c565b005b34801561048957600080fd5b50610492610b97565b005b3480156104a057600080fd5b506104bb60048036038101906104b69190613a88565b610c30565b005b3480156104c957600080fd5b506104e460048036038101906104df9190613d7e565b610ccd565b005b61050060048036038101906104fb9190613e97565b61116b565b005b34801561050e57600080fd5b5061051761118a565b6040516105249190613bb7565b60405180910390f35b34801561053957600080fd5b506105426111bd565b60405161054f9190613927565b60405180910390f35b34801561056457600080fd5b5061057f600480360381019061057a9190613ef3565b6111e2565b60405161058c9190613ad7565b60405180910390f35b3480156105a157600080fd5b506105aa611239565b005b3480156105b857600080fd5b506105c161124d565b6040516105ce9190613ad7565b60405180910390f35b3480156105e357600080fd5b506105ec611253565b005b3480156105fa57600080fd5b5061061560048036038101906106109190613ef3565b6112e2565b6040516106229190613ad7565b60405180910390f35b34801561063757600080fd5b506106406112f4565b005b34801561064e57600080fd5b5061065761138d565b60405161066a9796959493929190614028565b60405180910390f35b34801561067f57600080fd5b5061068861149f565b60405161069591906140ac565b60405180910390f35b3480156106aa57600080fd5b506106c560048036038101906106c09190613bd2565b6114d7565b6040516106d29190613927565b60405180910390f35b3480156106e757600080fd5b506106f0611550565b6040516106fd91906139d2565b60405180910390f35b34801561071257600080fd5b5061072d60048036038101906107289190613a88565b6115f1565b005b34801561073b57600080fd5b5061074461168e565b6040516107519190613bb7565b60405180910390f35b34801561076657600080fd5b50610781600480360381019061077c9190613a88565b611695565b60405161078e9190613927565b60405180910390f35b3480156107a357600080fd5b506107ac6116b8565b6040516107b991906139d2565b60405180910390f35b3480156107ce57600080fd5b506107e960048036038101906107e491906140f3565b6116f1565b005b3480156107f757600080fd5b50610800611839565b60405161080d9190613bb7565b60405180910390f35b34801561082257600080fd5b5061083d60048036038101906108389190613bd2565b61185d565b005b34801561084b57600080fd5b5061086660048036038101906108619190614195565b61187f565b6040516108739190613ad7565b60405180910390f35b34801561088857600080fd5b50610891611914565b60405161089e91906140ac565b60405180910390f35b3480156108b357600080fd5b506108bc61194c565b6040516108c99190613bb7565b60405180910390f35b3480156108de57600080fd5b506108f960048036038101906108f49190613ef3565b611970565b005b60007f7965db0b000000000000000000000000000000000000000000000000000000007bffffffffffffffffffffffffffffffffffffffffffffffffffffffff1916827bffffffffffffffffffffffffffffffffffffffffffffffffffffffff1916148061096e575061096d82611a2c565b5b9050919050565b60606000610981611a96565b905080600301805461099290614204565b80601f01602080910402602001604051908101604052809291908181526020018280546109be90614204565b8015610a0b5780601f106109e057610100808354040283529160200191610a0b565b820191906000526020600020905b8154815290600101906020018083116109ee57829003601f168201915b505050505091505090565b600080610a21611abe565b9050610a2e818585611ac6565b600191505092915050565b600080610a44611a96565b9050806002015491505090565b600080610a5c611abe565b9050610a69858285611ad8565b610a74858585611b6d565b60019150509392505050565b600080610a8b611c61565b905080600001600084815260200190815260200160002060010154915050919050565b7f3c11d16cbaffd01df69ce1c404f6340ee057498f5f00246190ea54220576a84881565b610adb82610a80565b610ae481611c89565b610aee8383611c9d565b50505050565b6b033b2e3c9fd0803ce800000081565b60006012905090565b6000610b17611d9e565b905090565b610b24611abe565b73ffffffffffffffffffffffffffffffffffffffff168173ffffffffffffffffffffffffffffffffffffffff1614610b88576040517f6697b23200000000000000000000000000000000000000000000000000000000815260040160405180910390fd5b610b928282611dad565b505050565b610bab676cb2badb1062969760c01b611eaf565b7f65d7a28e3265b37a6474929f336521b332c1681b933f6cb9f3376673440d862a610bd581611c89565b610be967e3088c2a18b8aad060c01b611eaf565b610bfd673e6a36a45a73b3d060c01b611eaf565b610c1167ac092f12e6ca69f360c01b611eaf565b610c2567200515dce1279d0760c01b611eaf565b610c2d611eb2565b50565b610c4467a22c61b0aebf350160c01b611eaf565b7f9f2df0fed2c77648de5860a4cc508cd0818c85b8b8a1ab4ceeef8d981c8956a6610c6e81611c89565b610c82677a4732f054decb3160c01b611eaf565b610c966737ba5771bf1700a660c01b611eaf565b610caa677cd976f77e8f573160c01b611eaf565b610cbe67819da7c9b8b157d560c01b611eaf565b610cc88383611f24565b505050565b610ce167ea35810cf2470b4760c01b611eaf565b6000610ceb611fa6565b905060008160000160089054906101000a900460ff1615905060008260000160009054906101000a900467ffffffffffffffff1690506000808267ffffffffffffffff16148015610d395750825b9050600060018367ffffffffffffffff16148015610d6e575060003073ffffffffffffffffffffffffffffffffffffffff163b145b905081158015610d7c575080155b15610db3576040517ff92ee8a900000000000000000000000000000000000000000000000000000000815260040160405180910390fd5b60018560000160006101000a81548167ffffffffffffffff021916908367ffffffffffffffff1602179055508315610e035760018560000160086101000a81548160ff0219169083151502179055505b610e1767160e078c8691f47260c01b611eaf565b610e2b67104255a2631cfff160c01b611eaf565b610e3f670bd87aa70508b7a360c01b611eaf565b610e5367bcc300dac45e409460c01b611eaf565b610e5d8787611fba565b610e71670262a98ae481b93660c01b611eaf565b610e856726cbd3c44fd15d4a60c01b611eaf565b610e8e87611fd0565b610ea267556a1037b0b8993760c01b611eaf565b610eb667f00e252322b0aa1e60c01b611eaf565b610ebe61201a565b610ed2675d8ef649fa022a2960c01b611eaf565b610ee66722585bf8799737bf60c01b611eaf565b610eee612024565b610f0267f1c1ba4ba9e339eb60c01b611eaf565b610f1667357d7c9bbd2757c260c01b611eaf565b610f1e61202e565b610f3267a7c34185fd869a3760c01b611eaf565b610f466706bd8a2a6aebb26260c01b611eaf565b610f4e612038565b610f6267e8e6a9569e6f6f2560c01b611eaf565b610f7667308dee87470e7d7c60c01b611eaf565b610f7e612042565b610f926718b0f43f6854044660c01b611eaf565b610fa667574e2c510cd8561160c01b611eaf565b610fb36000801b33611c9d565b50610fc867bdc4220716b026f160c01b611eaf565b610fdc67630bcf3771fc6d4060c01b611eaf565b6110067f9f2df0fed2c77648de5860a4cc508cd0818c85b8b8a1ab4ceeef8d981c8956a633611c9d565b5061101b6720d70e6db809487b60c01b611eaf565b61102f679fbd11fdfef4169260c01b611eaf565b6110597f3c11d16cbaffd01df69ce1c404f6340ee057498f5f00246190ea54220576a84833611c9d565b5061106e673037f0b1eea6212660c01b611eaf565b6110826735127ae76919395360c01b611eaf565b6110ac7f65d7a28e3265b37a6474929f336521b332c1681b933f6cb9f3376673440d862a33611c9d565b506110c1672bd46493401b0a8e60c01b611eaf565b6110d567a46a31b6169ad8a160c01b611eaf565b6110eb336b033b2e3c9fd0803ce8000000611f24565b6110ff67a7d786e91dde522d60c01b611eaf565b4260008190555083156111625760008560000160086101000a81548160ff0219169083151502179055507fc7f505b2f371ae2175ee4913f4499e1f2633a7b5936321eed1cdaeb6115181d26001604051611159919061428e565b60405180910390a15b50505050505050565b611173612054565b61117c8261213a565b6111868282612181565b5050565b60006111946122a0565b7f360894a13ba1a3210667c828492db98dca3e2076cc3735a920a3ca505d382bbc60001b905090565b6000806111c8612327565b90508060000160009054906101000a900460ff1691505090565b6000806111ed611a96565b90508060000160008473ffffffffffffffffffffffffffffffffffffffff1673ffffffffffffffffffffffffffffffffffffffff16815260200190815260200160002054915050919050565b61124161234f565b61124b60006123d6565b565b60005481565b600061125d611abe565b90508073ffffffffffffffffffffffffffffffffffffffff1661127e611914565b73ffffffffffffffffffffffffffffffffffffffff16146112d657806040517f118cdaa70000000000000000000000000000000000000000000000000000000081526004016112cd91906140ac565b60405180910390fd5b6112df816123d6565b50565b60006112ed82612416565b9050919050565b61130867599a7dea04ed746660c01b611eaf565b7f65d7a28e3265b37a6474929f336521b332c1681b933f6cb9f3376673440d862a61133281611c89565b6113466758b9e5fa7348aa6460c01b611eaf565b61135a678db2c64e3a30e62f60c01b611eaf565b61136e67c780847506d968ec60c01b611eaf565b6113826750cdad17c8b20b6260c01b611eaf565b61138a61246d565b50565b60006060806000806000606060006113a36124df565b90506000801b81600001541480156113c157506000801b8160010154145b611400576040517f08c379a00000000000000000000000000000000000000000000000000000000081526004016113f7906142f5565b60405180910390fd5b611408612507565b6114106125a8565b46306000801b600067ffffffffffffffff81111561143157611430613c53565b5b60405190808252806020026020018201604052801561145f5781602001602082028036833780820191505090505b507f0f0000000000000000000000000000000000000000000000000000000000000095949392919097509750975097509750975097505090919293949596565b6000806114aa612649565b90508060000160009054906101000a900473ffffffffffffffffffffffffffffffffffffffff1691505090565b6000806114e2611c61565b905080600001600085815260200190815260200160002060000160008473ffffffffffffffffffffffffffffffffffffffff1673ffffffffffffffffffffffffffffffffffffffff16815260200190815260200160002060009054906101000a900460ff1691505092915050565b6060600061155c611a96565b905080600401805461156d90614204565b80601f016020809104026020016040519081016040528092919081815260200182805461159990614204565b80156115e65780601f106115bb576101008083540402835291602001916115e6565b820191906000526020600020905b8154815290600101906020018083116115c957829003601f168201915b505050505091505090565b61160567218749ae1e9d855860c01b611eaf565b7f3c11d16cbaffd01df69ce1c404f6340ee057498f5f00246190ea54220576a84861162f81611c89565b611643670c7922bcbabf7c3960c01b611eaf565b61165767cbaaccd2d9b0043360c01b611eaf565b61166b67f34750da601fc3c460c01b611eaf565b61167f67d1480a99d02f5fbc60c01b611eaf565b6116898383612671565b505050565b6000801b81565b6000806116a0611abe565b90506116ad818585611b6d565b600191505092915050565b6040518060400160405280600581526020017f352e302e3000000000000000000000000000000000000000000000000000000081525081565b8342111561173657836040517f6279130200000000000000000000000000000000000000000000000000000000815260040161172d9190613ad7565b60405180910390fd5b60007f6e71edae12b1b97f4d1f60370fef10105fa2faae0126114a169c64845d6126c98888886117658c6126f3565b8960405160200161177b96959493929190614315565b604051602081830303815290604052805190602001209050600061179e82612758565b905060006117ae82878787612772565b90508973ffffffffffffffffffffffffffffffffffffffff168173ffffffffffffffffffffffffffffffffffffffff161461182257808a6040517f4b800e46000000000000000000000000000000000000000000000000000000008152600401611819929190614376565b60405180910390fd5b61182d8a8a8a611ac6565b50505050505050505050565b7f9f2df0fed2c77648de5860a4cc508cd0818c85b8b8a1ab4ceeef8d981c8956a681565b61186682610a80565b61186f81611c89565b6118798383611dad565b50505050565b60008061188a611a96565b90508060010160008573ffffffffffffffffffffffffffffffffffffffff1673ffffffffffffffffffffffffffffffffffffffff16815260200190815260200160002060008473ffffffffffffffffffffffffffffffffffffffff1673ffffffffffffffffffffffffffffffffffffffff1681526020019081526020016000205491505092915050565b60008061191f6127a2565b90508060000160009054906101000a900473ffffffffffffffffffffffffffffffffffffffff1691505090565b7f65d7a28e3265b37a6474929f336521b332c1681b933f6cb9f3376673440d862a81565b61197861234f565b60006119826127a2565b9050818160000160006101000a81548173ffffffffffffffffffffffffffffffffffffffff021916908373ffffffffffffffffffffffffffffffffffffffff1602179055508173ffffffffffffffffffffffffffffffffffffffff166119e661149f565b73ffffffffffffffffffffffffffffffffffffffff167f38d16b8cac22d99fc7c124b9cd0de2d3fa1faef420bfe791d8c362d765e2270060405160405180910390a35050565b60007f01ffc9a7000000000000000000000000000000000000000000000000000000007bffffffffffffffffffffffffffffffffffffffffffffffffffffffff1916827bffffffffffffffffffffffffffffffffffffffffffffffffffffffff1916149050919050565b60007f52c63247e1f47db19d5ce0460030c497f067ca4cebf71ba98eeadabe20bace00905090565b600033905090565b611ad383838360016127ca565b505050565b6000611ae4848461187f565b90507fffffffffffffffffffffffffffffffffffffffffffffffffffffffffffffffff811015611b675781811015611b57578281836040517ffb8f41b2000000000000000000000000000000000000000000000000000000008152600401611b4e9392919061439f565b60405180910390fd5b611b66848484840360006127ca565b5b50505050565b600073ffffffffffffffffffffffffffffffffffffffff168373ffffffffffffffffffffffffffffffffffffffff1603611bdf5760006040517f96c6fd1e000000000000000000000000000000000000000000000000000000008152600401611bd691906140ac565b60405180910390fd5b600073ffffffffffffffffffffffffffffffffffffffff168273ffffffffffffffffffffffffffffffffffffffff1603611c515760006040517fec442f05000000000000000000000000000000000000000000000000000000008152600401611c4891906140ac565b60405180910390fd5b611c5c8383836129b0565b505050565b60007f02dd7bc7dec4dceedda775e58dd541e08a116c6c53815c0bd028192f7b626800905090565b611c9a81611c95611abe565b612bc8565b50565b600080611ca8611c61565b9050611cb484846114d7565b611d9257600181600001600086815260200190815260200160002060000160008573ffffffffffffffffffffffffffffffffffffffff1673ffffffffffffffffffffffffffffffffffffffff16815260200190815260200160002060006101000a81548160ff021916908315150217905550611d2e611abe565b73ffffffffffffffffffffffffffffffffffffffff168373ffffffffffffffffffffffffffffffffffffffff16857f2f8788117e7eff1d82e926ec794901d17c78024a50270940304540a733656f0d60405160405180910390a46001915050611d98565b60009150505b92915050565b6000611da8612c19565b905090565b600080611db8611c61565b9050611dc484846114d7565b15611ea357600081600001600086815260200190815260200160002060000160008573ffffffffffffffffffffffffffffffffffffffff1673ffffffffffffffffffffffffffffffffffffffff16815260200190815260200160002060006101000a81548160ff021916908315150217905550611e3f611abe565b73ffffffffffffffffffffffffffffffffffffffff168373ffffffffffffffffffffffffffffffffffffffff16857ff6391f5c32d9c69d2a47ea670b442974b53935d1edc7fd64eb21e047a839171b60405160405180910390a46001915050611ea9565b60009150505b92915050565b50565b611eba612c7d565b6000611ec4612327565b905060008160000160006101000a81548160ff0219169083151502179055507f5db9ee0a495bf2e6ff9c91a7834c1ba4fdd244a5e8aa4e537bd38aeae4b073aa611f0c611abe565b604051611f1991906140ac565b60405180910390a150565b600073ffffffffffffffffffffffffffffffffffffffff168273ffffffffffffffffffffffffffffffffffffffff1603611f965760006040517fec442f05000000000000000000000000000000000000000000000000000000008152600401611f8d91906140ac565b60405180910390fd5b611fa2600083836129b0565b5050565b600080611fb1612cbd565b90508091505090565b611fc2612ce8565b611fcc8282612d28565b5050565b611fd8612ce8565b612017816040518060400160405280600181526020017f3100000000000000000000000000000000000000000000000000000000000000815250612d65565b50565b612022612ce8565b565b61202c612ce8565b565b612036612ce8565b565b612040612ce8565b565b61204a612ce8565b612052612dba565b565b7f000000000000000000000000000000000000000000000000000000000000000073ffffffffffffffffffffffffffffffffffffffff163073ffffffffffffffffffffffffffffffffffffffff16148061210157507f000000000000000000000000000000000000000000000000000000000000000073ffffffffffffffffffffffffffffffffffffffff166120e8612ddb565b73ffffffffffffffffffffffffffffffffffffffff1614155b15612138576040517fe07c8dba00000000000000000000000000000000000000000000000000000000815260040160405180910390fd5b565b61214e67f90718db3b2a957360c01b611eaf565b61215661234f565b61216a67bdc10848b0f7b7fc60c01b611eaf565b61217e67a3ea3288d708186d60c01b611eaf565b50565b8173ffffffffffffffffffffffffffffffffffffffff166352d1902d6040518163ffffffff1660e01b8152600401602060405180830381865afa9250505080156121e957506040513d601f19601f820116820180604052508101906121e691906143eb565b60015b61222a57816040517f4c9c8ce300000000000000000000000000000000000000000000000000000000815260040161222191906140ac565b60405180910390fd5b7f360894a13ba1a3210667c828492db98dca3e2076cc3735a920a3ca505d382bbc60001b811461229157806040517faa1d49a40000000000000000000000000000000000000000000000000000000081526004016122889190613bb7565b60405180910390fd5b61229b8383612e32565b505050565b7f000000000000000000000000000000000000000000000000000000000000000073ffffffffffffffffffffffffffffffffffffffff163073ffffffffffffffffffffffffffffffffffffffff1614612325576040517fe07c8dba00000000000000000000000000000000000000000000000000000000815260040160405180910390fd5b565b60007fcd5ed15c6e187e77e9aee88184c21f4f2182ab5827cb3b7e07fbedcd63f03300905090565b612357611abe565b73ffffffffffffffffffffffffffffffffffffffff1661237561149f565b73ffffffffffffffffffffffffffffffffffffffff16146123d457612398611abe565b6040517f118cdaa70000000000000000000000000000000000000000000000000000000081526004016123cb91906140ac565b60405180910390fd5b565b60006123e06127a2565b90508060000160006101000a81549073ffffffffffffffffffffffffffffffffffffffff021916905561241282612ea5565b5050565b600080612421612f7c565b90508060000160008473ffffffffffffffffffffffffffffffffffffffff1673ffffffffffffffffffffffffffffffffffffffff16815260200190815260200160002054915050919050565b612475612fa4565b600061247f612327565b905060018160000160006101000a81548160ff0219169083151502179055507f62e78cea01bee320cd4e420270b5ea74000d11b0c9f74754ebdbfc544b05a2586124c7611abe565b6040516124d491906140ac565b60405180910390a150565b60007fa16a46d94261c7517cc8ff89f61c0ce93598e3c849801011dee649a6a557d100905090565b606060006125136124df565b905080600201805461252490614204565b80601f016020809104026020016040519081016040528092919081815260200182805461255090614204565b801561259d5780601f106125725761010080835404028352916020019161259d565b820191906000526020600020905b81548152906001019060200180831161258057829003601f168201915b505050505091505090565b606060006125b46124df565b90508060030180546125c590614204565b80601f01602080910402602001604051908101604052809291908181526020018280546125f190614204565b801561263e5780601f106126135761010080835404028352916020019161263e565b820191906000526020600020905b81548152906001019060200180831161262157829003601f168201915b505050505091505090565b60007f9016d09d72d40fdae2fd8ceac6b6234c7706214fd39c1cd1e609a0528c199300905090565b600073ffffffffffffffffffffffffffffffffffffffff168273ffffffffffffffffffffffffffffffffffffffff16036126e35760006040517f96c6fd1e0000000000000000000000000000000000000000000000000000000081526004016126da91906140ac565b60405180910390fd5b6126ef826000836129b0565b5050565b6000806126fe612f7c565b90508060000160008473ffffffffffffffffffffffffffffffffffffffff1673ffffffffffffffffffffffffffffffffffffffff168152602001908152602001600020600081548092919060010191905055915050919050565b600061276b612765611d9e565b83612fe5565b9050919050565b60008060008061278488888888613026565b925092509250612794828261311a565b829350505050949350505050565b60007f237e158222e3e6968b72b9db0d8043aacf074ad9f650f0d1606b4d82ee432c00905090565b60006127d4611a96565b9050600073ffffffffffffffffffffffffffffffffffffffff168573ffffffffffffffffffffffffffffffffffffffff16036128485760006040517fe602df0500000000000000000000000000000000000000000000000000000000815260040161283f91906140ac565b60405180910390fd5b600073ffffffffffffffffffffffffffffffffffffffff168473ffffffffffffffffffffffffffffffffffffffff16036128ba5760006040517f94280d620000000000000000000000000000000000000000000000000000000081526004016128b191906140ac565b60405180910390fd5b828160010160008773ffffffffffffffffffffffffffffffffffffffff1673ffffffffffffffffffffffffffffffffffffffff16815260200190815260200160002060008673ffffffffffffffffffffffffffffffffffffffff1673ffffffffffffffffffffffffffffffffffffffff1681526020019081526020016000208190555081156129a9578373ffffffffffffffffffffffffffffffffffffffff168573ffffffffffffffffffffffffffffffffffffffff167f8c5be1e5ebec7d5bd14f71427d1e84f3dd0314c0f7b2291e5b200ac8c7c3b925856040516129a09190613ad7565b60405180910390a35b5050505050565b6129c467fca9dbbaf2b8b8a460c01b611eaf565b6129cc612fa4565b6129e067b1c3235a1fd90fa060c01b611eaf565b6129f46745dcaed16b330e5960c01b611eaf565b612a08677a00d2750d61bc9460c01b611eaf565b612a1c6766594e2a3439758060c01b611eaf565b62093a80600054612a2d9190614447565b421015612b7b57612a4867fa55def78a12aaf060c01b611eaf565b612a5c67316971b8a16ef6a860c01b611eaf565b612a70673955f1f898afdfa160c01b611eaf565b612a846776d1cf30a41d947560c01b611eaf565b600073ffffffffffffffffffffffffffffffffffffffff168373ffffffffffffffffffffffffffffffffffffffff16148015612ad05750612acf67908e60055130ff1760c01b61327e565b5b80612b235750600073ffffffffffffffffffffffffffffffffffffffff168273ffffffffffffffffffffffffffffffffffffffff16148015612b225750612b21678d1fb977fb9a2fe060c01b61327e565b5b5b612b62576040517f08c379a0000000000000000000000000000000000000000000000000000000008152600401612b59906144c7565b60405180910390fd5b612b7667369ac11119a9f3ca60c01b611eaf565b612b90565b612b8f67ff6d7b6e232b064e60c01b611eaf565b5b612ba4670b070b112a540e2d60c01b611eaf565b612bb86770b804b4884bc49f60c01b611eaf565b612bc3838383613289565b505050565b612bd282826114d7565b612c155780826040517fe2517d3f000000000000000000000000000000000000000000000000000000008152600401612c0c9291906144e7565b60405180910390fd5b5050565b60007f8b73c3c69bb8fe3d512ecc4cf759cc79239f7b179b0ffacaa9a75d522b39400f612c446134c8565b612c4c613544565b4630604051602001612c62959493929190614510565b60405160208183030381529060405280519060200120905090565b612c856111bd565b612cbb576040517f8dfc202b00000000000000000000000000000000000000000000000000000000815260040160405180910390fd5b565b60007ff0c57e16840df040f15088dc2f81fe391c3923bec73e23a9662efc9c229c6a0060001b905090565b612cf06135c0565b612d26576040517fd7e6bcf800000000000000000000000000000000000000000000000000000000815260040160405180910390fd5b565b612d30612ce8565b6000612d3a611a96565b905082816003019081612d4d9190614705565b5081816004019081612d5f9190614705565b50505050565b612d6d612ce8565b6000612d776124df565b905082816002019081612d8a9190614705565b5081816003019081612d9c9190614705565b506000801b81600001819055506000801b8160010181905550505050565b612dc2612ce8565b6000612dcc6135e0565b90506001816000018190555050565b6000612e097f360894a13ba1a3210667c828492db98dca3e2076cc3735a920a3ca505d382bbc60001b613608565b60000160009054906101000a900473ffffffffffffffffffffffffffffffffffffffff16905090565b612e3b82613612565b8173ffffffffffffffffffffffffffffffffffffffff167fbc7cd75a20ee27fd9adebab32041f755214dbc6bffa90cc0225b39da2e5c2d3b60405160405180910390a2600081511115612e9857612e9282826136df565b50612ea1565b612ea0613763565b5b5050565b6000612eaf612649565b905060008160000160009054906101000a900473ffffffffffffffffffffffffffffffffffffffff169050828260000160006101000a81548173ffffffffffffffffffffffffffffffffffffffff021916908373ffffffffffffffffffffffffffffffffffffffff1602179055508273ffffffffffffffffffffffffffffffffffffffff168173ffffffffffffffffffffffffffffffffffffffff167f8be0079c531659141344cd1fd0a4f28419497f9722a3daafe3b4186f6b6457e060405160405180910390a3505050565b60007f5ab42ced628888259c08ac98db1eb0cf702fc1501344311d8b100cd1bfe4bb00905090565b612fac6111bd565b15612fe3576040517fd93c066500000000000000000000000000000000000000000000000000000000815260040160405180910390fd5b565b60006040517f190100000000000000000000000000000000000000000000000000000000000081528360028201528260228201526042812091505092915050565b60008060007f7fffffffffffffffffffffffffffffff5d576e7357a4501ddfe92f46681b20a08460001c1115613066576000600385925092509250613110565b60006001888888886040516000815260200160405260405161308b94939291906147d7565b6020604051602081039080840390855afa1580156130ad573d6000803e3d6000fd5b505050602060405103519050600073ffffffffffffffffffffffffffffffffffffffff168173ffffffffffffffffffffffffffffffffffffffff160361310157600060016000801b93509350935050613110565b8060008060001b935093509350505b9450945094915050565b6000600381111561312e5761312d61481c565b5b8260038111156131415761314061481c565b5b031561327a576001600381111561315b5761315a61481c565b5b82600381111561316e5761316d61481c565b5b036131a5576040517ff645eedf00000000000000000000000000000000000000000000000000000000815260040160405180910390fd5b600260038111156131b9576131b861481c565b5b8260038111156131cc576131cb61481c565b5b03613211578060001c6040517ffce698f70000000000000000000000000000000000000000000000000000000081526004016132089190613ad7565b60405180910390fd5b6003808111156132245761322361481c565b5b8260038111156132375761323661481c565b5b0361327957806040517fd78bce0c0000000000000000000000000000000000000000000000000000000081526004016132709190613bb7565b60405180910390fd5b5b5050565b600060019050919050565b6000613293611a96565b9050600073ffffffffffffffffffffffffffffffffffffffff168473ffffffffffffffffffffffffffffffffffffffff16036132e957818160020160008282546132dd9190614447565b925050819055506133c2565b60008160000160008673ffffffffffffffffffffffffffffffffffffffff1673ffffffffffffffffffffffffffffffffffffffff16815260200190815260200160002054905082811015613378578481846040517fe450d38c00000000000000000000000000000000000000000000000000000000815260040161336f9392919061439f565b60405180910390fd5b8281038260000160008773ffffffffffffffffffffffffffffffffffffffff1673ffffffffffffffffffffffffffffffffffffffff16815260200190815260200160002081905550505b600073ffffffffffffffffffffffffffffffffffffffff168373ffffffffffffffffffffffffffffffffffffffff160361340d5781816002016000828254039250508190555061345d565b818160000160008573ffffffffffffffffffffffffffffffffffffffff1673ffffffffffffffffffffffffffffffffffffffff168152602001908152602001600020600082825401925050819055505b8273ffffffffffffffffffffffffffffffffffffffff168473ffffffffffffffffffffffffffffffffffffffff167fddf252ad1be2c89b69c2b068fc378daa952ba7f163c4a11628f55a4df523b3ef846040516134ba9190613ad7565b60405180910390a350505050565b6000806134d36124df565b905060006134df612507565b90506000815111156134fc57808051906020012092505050613541565b6000826000015490506000801b811461351a57809350505050613541565b7fc5d2460186f7233c927e7db2dcc703c0e500b653ca82273b7bfad8045d85a47093505050505b90565b60008061354f6124df565b9050600061355b6125a8565b9050600081511115613578578080519060200120925050506135bd565b6000826001015490506000801b8114613596578093505050506135bd565b7fc5d2460186f7233c927e7db2dcc703c0e500b653ca82273b7bfad8045d85a47093505050505b90565b60006135ca611fa6565b60000160089054906101000a900460ff16905090565b60007f9b779b17422d0df92223018b32b4d1fa46e071723d6817e2486d003becc55f00905090565b6000819050919050565b60008173ffffffffffffffffffffffffffffffffffffffff163b0361366e57806040517f4c9c8ce300000000000000000000000000000000000000000000000000000000815260040161366591906140ac565b60405180910390fd5b8061369b7f360894a13ba1a3210667c828492db98dca3e2076cc3735a920a3ca505d382bbc60001b613608565b60000160006101000a81548173ffffffffffffffffffffffffffffffffffffffff021916908373ffffffffffffffffffffffffffffffffffffffff16021790555050565b60606000808473ffffffffffffffffffffffffffffffffffffffff16846040516137099190614892565b600060405180830381855af49150503d8060008114613744576040519150601f19603f3d011682016040523d82523d6000602084013e613749565b606091505b50915091506137598583836137a0565b9250505092915050565b600034111561379e576040517fb398979f00000000000000000000000000000000000000000000000000000000815260040160405180910390fd5b565b6060826137b5576137b08261382f565b613827565b600082511480156137dd575060008473ffffffffffffffffffffffffffffffffffffffff163b145b1561381f57836040517f9996b31500000000000000000000000000000000000000000000000000000000815260040161381691906140ac565b60405180910390fd5b819050613828565b5b9392505050565b60008151111561384157805160208201fd5b6040517fd6bda27500000000000000000000000000000000000000000000000000000000815260040160405180910390fd5b6000604051905090565b600080fd5b600080fd5b60007fffffffff0000000000000000000000000000000000000000000000000000000082169050919050565b6138bc81613887565b81146138c757600080fd5b50565b6000813590506138d9816138b3565b92915050565b6000602082840312156138f5576138f461387d565b5b6000613903848285016138ca565b91505092915050565b60008115159050919050565b6139218161390c565b82525050565b600060208201905061393c6000830184613918565b92915050565b600081519050919050565b600082825260208201905092915050565b60005b8381101561397c578082015181840152602081019050613961565b60008484015250505050565b6000601f19601f8301169050919050565b60006139a482613942565b6139ae818561394d565b93506139be81856020860161395e565b6139c781613988565b840191505092915050565b600060208201905081810360008301526139ec8184613999565b905092915050565b600073ffffffffffffffffffffffffffffffffffffffff82169050919050565b6000613a1f826139f4565b9050919050565b613a2f81613a14565b8114613a3a57600080fd5b50565b600081359050613a4c81613a26565b92915050565b6000819050919050565b613a6581613a52565b8114613a7057600080fd5b50565b600081359050613a8281613a5c565b92915050565b60008060408385031215613a9f57613a9e61387d565b5b6000613aad85828601613a3d565b9250506020613abe85828601613a73565b9150509250929050565b613ad181613a52565b82525050565b6000602082019050613aec6000830184613ac8565b92915050565b600080600060608486031215613b0b57613b0a61387d565b5b6000613b1986828701613a3d565b9350506020613b2a86828701613a3d565b9250506040613b3b86828701613a73565b9150509250925092565b6000819050919050565b613b5881613b45565b8114613b6357600080fd5b50565b600081359050613b7581613b4f565b92915050565b600060208284031215613b9157613b9061387d565b5b6000613b9f84828501613b66565b91505092915050565b613bb181613b45565b82525050565b6000602082019050613bcc6000830184613ba8565b92915050565b60008060408385031215613be957613be861387d565b5b6000613bf785828601613b66565b9250506020613c0885828601613a3d565b9150509250929050565b600060ff82169050919050565b613c2881613c12565b82525050565b6000602082019050613c436000830184613c1f565b92915050565b600080fd5b600080fd5b7f4e487b7100000000000000000000000000000000000000000000000000000000600052604160045260246000fd5b613c8b82613988565b810181811067ffffffffffffffff82111715613caa57613ca9613c53565b5b80604052505050565b6000613cbd613873565b9050613cc98282613c82565b919050565b600067ffffffffffffffff821115613ce957613ce8613c53565b5b613cf282613988565b9050602081019050919050565b82818337600083830152505050565b6000613d21613d1c84613cce565b613cb3565b905082815260208101848484011115613d3d57613d3c613c4e565b5b613d48848285613cff565b509392505050565b600082601f830112613d6557613d64613c49565b5b8135613d75848260208601613d0e565b91505092915050565b60008060408385031215613d9557613d9461387d565b5b600083013567ffffffffffffffff811115613db357613db2613882565b5b613dbf85828601613d50565b925050602083013567ffffffffffffffff811115613de057613ddf613882565b5b613dec85828601613d50565b9150509250929050565b600067ffffffffffffffff821115613e1157613e10613c53565b5b613e1a82613988565b9050602081019050919050565b6000613e3a613e3584613df6565b613cb3565b905082815260208101848484011115613e5657613e55613c4e565b5b613e61848285613cff565b509392505050565b600082601f830112613e7e57613e7d613c49565b5b8135613e8e848260208601613e27565b91505092915050565b60008060408385031215613eae57613ead61387d565b5b6000613ebc85828601613a3d565b925050602083013567ffffffffffffffff811115613edd57613edc613882565b5b613ee985828601613e69565b9150509250929050565b600060208284031215613f0957613f0861387d565b5b6000613f1784828501613a3d565b91505092915050565b60007fff0000000000000000000000000000000000000000000000000000000000000082169050919050565b613f5581613f20565b82525050565b613f6481613a14565b82525050565b600081519050919050565b600082825260208201905092915050565b6000819050602082019050919050565b613f9f81613a52565b82525050565b6000613fb18383613f96565b60208301905092915050565b6000602082019050919050565b6000613fd582613f6a565b613fdf8185613f75565b9350613fea83613f86565b8060005b8381101561401b5781516140028882613fa5565b975061400d83613fbd565b925050600181019050613fee565b5085935050505092915050565b600060e08201905061403d600083018a613f4c565b818103602083015261404f8189613999565b905081810360408301526140638188613999565b90506140726060830187613ac8565b61407f6080830186613f5b565b61408c60a0830185613ba8565b81810360c083015261409e8184613fca565b905098975050505050505050565b60006020820190506140c16000830184613f5b565b92915050565b6140d081613c12565b81146140db57600080fd5b50565b6000813590506140ed816140c7565b92915050565b600080600080600080600060e0888a0312156141125761411161387d565b5b60006141208a828b01613a3d565b97505060206141318a828b01613a3d565b96505060406141428a828b01613a73565b95505060606141538a828b01613a73565b94505060806141648a828b016140de565b93505060a06141758a828b01613b66565b92505060c06141868a828b01613b66565b91505092959891949750929550565b600080604083850312156141ac576141ab61387d565b5b60006141ba85828601613a3d565b92505060206141cb85828601613a3d565b9150509250929050565b7f4e487b7100000000000000000000000000000000000000000000000000000000600052602260045260246000fd5b6000600282049050600182168061421c57607f821691505b60208210810361422f5761422e6141d5565b5b50919050565b6000819050919050565b600067ffffffffffffffff82169050919050565b6000819050919050565b600061427861427361426e84614235565b614253565b61423f565b9050919050565b6142888161425d565b82525050565b60006020820190506142a3600083018461427f565b92915050565b7f4549503731323a20556e696e697469616c697a65640000000000000000000000600082015250565b60006142df60158361394d565b91506142ea826142a9565b602082019050919050565b6000602082019050818103600083015261430e816142d2565b9050919050565b600060c08201905061432a6000830189613ba8565b6143376020830188613f5b565b6143446040830187613f5b565b6143516060830186613ac8565b61435e6080830185613ac8565b61436b60a0830184613ac8565b979650505050505050565b600060408201905061438b6000830185613f5b565b6143986020830184613f5b565b9392505050565b60006060820190506143b46000830186613f5b565b6143c16020830185613ac8565b6143ce6040830184613ac8565b949350505050565b6000815190506143e581613b4f565b92915050565b6000602082840312156144015761440061387d565b5b600061440f848285016143d6565b91505092915050565b7f4e487b7100000000000000000000000000000000000000000000000000000000600052601160045260246000fd5b600061445282613a52565b915061445d83613a52565b925082820190508082111561447557614474614418565b5b92915050565b7f5452414e53464552535f4c4f434b454400000000000000000000000000000000600082015250565b60006144b160108361394d565b91506144bc8261447b565b602082019050919050565b600060208201905081810360008301526144e0816144a4565b9050919050565b60006040820190506144fc6000830185613f5b565b6145096020830184613ba8565b9392505050565b600060a0820190506145256000830188613ba8565b6145326020830187613ba8565b61453f6040830186613ba8565b61454c6060830185613ac8565b6145596080830184613f5b565b9695505050505050565b60008190508160005260206000209050919050565b60006020601f8301049050919050565b600082821b905092915050565b6000600883026145c57fffffffffffffffffffffffffffffffffffffffffffffffffffffffffffffffff82614588565b6145cf8683614588565b95508019841693508086168417925050509392505050565b60006146026145fd6145f884613a52565b614253565b613a52565b9050919050565b6000819050919050565b61461c836145e7565b61463061462882614609565b848454614595565b825550505050565b600090565b614645614638565b614650818484614613565b505050565b5b818110156146745761466960008261463d565b600181019050614656565b5050565b601f8211156146b95761468a81614563565b61469384614578565b810160208510156146a2578190505b6146b66146ae85614578565b830182614655565b50505b505050565b600082821c905092915050565b60006146dc600019846008026146be565b1980831691505092915050565b60006146f583836146cb565b9150826002028217905092915050565b61470e82613942565b67ffffffffffffffff81111561472757614726613c53565b5b6147318254614204565b61473c828285614678565b600060209050601f83116001811461476f576000841561475d578287015190505b61476785826146e9565b8655506147cf565b601f19841661477d86614563565b60005b828110156147a557848901518255600182019150602085019450602081019050614780565b868310156147c257848901516147be601f8916826146cb565b8355505b6001600288020188555050505b505050505050565b60006080820190506147ec6000830187613ba8565b6147f96020830186613c1f565b6148066040830185613ba8565b6148136060830184613ba8565b95945050505050565b7f4e487b7100000000000000000000000000000000000000000000000000000000600052602160045260246000fd5b600081519050919050565b600081905092915050565b600061486c8261484b565b6148768185614856565b935061488681856020860161395e565b80840191505092915050565b600061489e8284614861565b91508190509291505056fea264697066735822122052e6d1e0e0c2292f9c21b2044bbd1395d52ebb27134633bf79bbf0d76386229064736f6c63430008180033",
  "linkReferences": {},
  "deployedLinkReferences": {}
}